:100000000C94B8190C94E9190C94E9190C94E91999
:100010000C94E9190C94E9190C94E9190C94E91958
:100020000C94E9190C94E9190C94E9190C94E91948
:100030000C94E9190C94E9190C94E9190C94E91938
:100040000C94E9190C94E3A60C94E9190C94E919A1
:100050000C94E9190C94E9190C94C3BE0C9412FC8D
:100060000C94E9190C94EB190C94E9190C94E91906
:100070000C94E9190C94E9190C94E9190C94E919F8
:100080000C94E9190C94E9190C94E9190C94E919E8
:100090000C94E9190C94E9190C94E9190C94E919D8
:1000A0000C94E9190C94E9190C94E9190C94E919C8
:1000B0000C94E9190C94E9190C94E9190C94E919B8
:1000C0000C94E9190C94E9190C94E9190C94E919A8
:1000D0000C94E9190C94E9190C94E9190C94E91998
:1000E0000C94E919CC53CC53D753D753D753E2537D
:1000F000E253E2531A541054105410540CBF1BBF57
:100100003ABF49BF64BF73BF8EBF93BF96BF9BBF4B
:100110009EBFA3BFADBF47FD4CFD51FD5BFD65FD1F
:10012000DEFD6FFD77FD7FFD89FD93FD9DFDACFD3F
:10013000B6FDDEFDC0FDCAFDD4FDFFFD02FEF1FDF2
:10014000F5FDFBFD39FE06FE0AFE10FE14FE18FE4C
:100150001EFE22FE26FE39FE2CFE30FE34FE084A2C
:10016000D73B3BCE016E84BCBFFDC12F3D6C7431CB
:100170009ABD56833DDA3D00C77F11BED9E4BB4C22
:100180003E916BAAAABE000000803F05A84CCDB2EC
:10019000D44EB93836A9020C50B9918688083CA6CD
:1001A000AAAA2ABE000000803F005072696E7465E2
:1001B000722068616C7465642E206B696C6C2829F0
:1001C0002063616C6C656421004B494C4C45442EA6
:1001D00020004B494C4C45442E2000525862756615
:1001E0002066756C6C0020746F6F206C6F6E6720DA
:1001F000657874727573696F6E2070726576656E5E
:100200007465640020636F6C642065787472757324
:10021000696F6E2070726576656E746564006F6BD1
:1002200000526573656E643A20003A20007A5F6D73
:1002300061783A20007A5F6D696E3A20005A204F4B
:100240006666736574004F666673657473206170CB
:10025000706C696564004572723A20546F6F206655
:1002600061722100546F6F206661722066726F6D3B
:10027000207265666572656E636520706F696E7465
:100280000053657474696E672054726176656C20E2
:10029000416363656C65726174696F6E3A200053E7
:1002A000657474696E67205265747261637420416D
:1002B0006363656C65726174696F6E3A20005365A3
:1002C0007474696E67205072696E7420416363654F
:1002D0006C65726174696F6E3A200053657474695D
:1002E0006E67205072696E7420616E642054726172
:1002F00076656C20416363656C65726174696F6ECD
:100300003A20004D31343520533C696E6465783EA7
:10031000206F7574206F662072616E6765202830CB
:100320002D3129007A5F6D61783A20007A5F6D691E
:100330006E3A2000795F6D61783A2000795F6D69CF
:100340006E3A2000785F6D61783A2000785F6D69C1
:100350006E3A20004649524D574152455F4E414D3D
:10036000453A4D61726C696E20312E312E302E323D
:10037000202028416C657068204F626A6563747341
:1003800020496E632E277320506861627269636131
:10039000746F722920534F555243455F434F444574
:1003A0005F55524C3A68747470733A2F2F636F64C0
:1003B000652E616C6570686F626A656374732E6325
:1003C0006F6D2F646966667573696F6E2F4D41524C
:1003D0004C494E2050524F544F434F4C5F5645525C
:1003E00053494F4E3A312E30204D414348494E45F6
:1003F0005F545950453A4C756C7A426F74204D6980
:100400006E692045585452554445525F434F554EEE
:10041000543A3120555549443A33353134383762EE
:10042000362D636139612D346331612D38373635AE
:100430002D6436363862316461363538350A004C01
:10044000756C7A426F74204D696E69204F66662E16
:100450000042656420646F6E652E003F0020573AAD
:10046000004265642048656174696E672E004865C6
:100470006174696E6720646F6E652E003F002057BF
:100480003A0048656174696E672E2E2E004C756CBB
:100490007A426F74204D696E692072656164792EAD
:1004A000006F6B004B494C4C45442E20004543489F
:1004B0004F00494E464F004552524F52530044524E
:1004C0005952554E00434F4D4D554E4943415449A5
:1004D0004F4E006F666600AD04B204B704BE04C59B
:1004E0000444454255473A0048656174696E672E79
:1004F0002E2E004C756C7A426F74204D696E692007
:1005000072656164792E005374616E646172642057
:10051000446576696174696F6E3A20004D65616E5D
:100520003A20002020207369676D613A2000206D19
:1005300065616E3A20002020207A3A2000206F6604
:10054000200020207A3A2000793A2000783A2000D2
:10055000202020616E676C653A20005374617274CC
:10056000696E67207261646975733A2000506F7319
:100570006974696F6E696E67207468652070726F48
:1005800062652E2E2E0A003F4E756D626572206FD9
:1005900066206C65677320696E206D6F76656D658A
:1005A0006E74206E6F7420706C61757369626C6517
:1005B0002028302D3135292E0A00590058003F538C
:1005C000616D706C652073697A65206E6F74207040
:1005D0006C61757369626C652028342D3530292E65
:1005E0000A004D3438205A2D50726F6265205265D2
:1005F000706561746162696C697479207465737483
:100600000A003F566572626F7365204C6576656CB3
:10061000206E6F7420706C61757369626C65202840
:10062000302D34292E0A002569206D696E2C202575
:10063000692073656300456E642066696C65206C93
:1006400069737400426567696E2066696C65206C29
:10065000697374004E6F206D6F76652E004C756C5B
:100660007A426F74204D696E692072656164792EDB
:1006700000526573756D696E67207072696E7400E3
:100680005761697420666F7220757365722E2E2E05
:10069000005445535400205A3A200020593A200073
:1006A00042656420583A2000205A3A200020593AE6
:1006B000200042656420583A2000486F6D6520583C
:1006C0002F59206265666F7265205A00486F6D650C
:1006D00020582F59206265666F7265205A00202BC2
:1006E00000200A436F72726563746564204265641A
:1006F000204865696768742076732E2042656420FF
:10070000546F706F6C6F67793A200A00202B0020BD
:1007100028302C30290A002020204F2D2D20465231
:100720004F4E54202D2D2B0A002020207C202020ED
:1007300020202020202020207C0A002020207C2037
:10074000202020282D29202020207C20540A002031
:1007500054207C20202020202020202020207C20AD
:10076000480A002046207C20282D29204E20282BB6
:1007700029207C20470A002045207C2020202020A2
:100780002020202020207C20490A00204C207C2092
:10079000202020282B29202020207C20520A0020E5
:1007A00020207C20202020202020202020207C0AA7
:1007B000002020202B2D2D2D204241434B202D2D7C
:1007C0002B0A00200A426564204865696768742026
:1007D000546F706F6772617068793A200A004D65D6
:1007E000616E206F662073616D706C656420706F40
:1007F000696E74733A200020643A200020623A2027
:100800000045716E20636F656666696369656E7425
:10081000733A20613A200050524F424520464149E8
:100820004C20434C45414E204E4F5A5A4C450050A7
:10083000524F4245204641494C20434C45414E20B1
:100840004E4F5A5A4C450028422961636B00284696
:1008500029726F6E74002852296967687400284CE9
:1008600029656674003F4E756D626572206F662063
:1008700070726F626564202850296F696E747320EE
:10088000697320696D706C61757369626C6520288D
:1008900032206D696E696D756D292E0A0052756E74
:1008A0006E696E6720696E204452592D52554E2054
:1008B0006D6F646500473239204175746F20426561
:1008C00064204C6576656C696E670A003F2856297E
:1008D0006572626F7365204C6576656C2069732064
:1008E000696D706C61757369626C652028302D3498
:1008F000292E00205A3A0020593A0020436F756E85
:100900007420583A200020453A00205A3A002059D5
:100910003A00583A005761726E696E673A20486F24
:100920006D696E672042756D702044697669736FDA
:1009300072203C203100536C6565702E2E2E0020F5
:10094000403A002042403A00202F0020423A002046
:100950002F0020543A0020706F736974696F6E2005
:100960006F7574206F662072616E67652E003F5050
:10097000726F62652000220A00556E6B6E6F776E93
:1009800020636F6D6D616E643A2022005265776955
:1009900070696E67005265776970696E67002049FB
:1009A0006E76616C69642065787472756465722016
:1009B00000256920686F757273202569206D696E46
:1009C0007574657300446F6E65207072696E74692A
:1009D0006E672066696C65004C756C7A426F742096
:1009E0004D696E692072656164792E004B494C4CEB
:1009F00045442E200053544F505045442E20005063
:100A000072696E7465722073746F707065642064AF
:100A1000756520746F206572726F72732E2046693F
:100A20007820746865206572726F7220616E642030
:100A3000757365204D39393920746F207265737470
:100A40006172742E202854656D70657261747572C0
:100A5000652069732072657365742E205365742058
:100A60006974206166746572207265737461727452
:100A7000696E6729004E6F204C696E65204E756D5A
:100A8000626572207769746820636865636B73754B
:100A90006D2C204C617374204C696E653A20004EB9
:100AA0006F20436865636B73756D20776974682088
:100AB0006C696E65206E756D6265722C204C617379
:100AC00074204C696E653A2000636865636B7375CA
:100AD0006D206D69736D617463682C204C61737453
:100AE000204C696E653A20004C696E65204E756D2C
:100AF000626572206973206E6F74204C617374207C
:100B00004C696E65204E756D6265722B312C204CE0
:100B1000617374204C696E653A20004D31313000AC
:100B2000446F6E6520736176696E672066696C65D7
:100B30002E004D3239002020506C616E6E6572427D
:100B4000756666657242797465733A200020467254
:100B50006565204D656D6F72793A20004A756C208D
:100B60002031203230313600436F6D70696C65641E
:100B70003A200028416C657068204F626A65637492
:100B80007320496E632E2C204C756C7A426F742052
:100B90004D696E692900207C20417574686F723A36
:100BA0002000323031362D30342D32372031323A78
:100BB000303000204C61737420557064617465643A
:100BC0003A200020312E312E302E3220004D61721D
:100BD0006C696E0020536F66747761726520526590
:100BE00073657400205761746368646F6720526591
:100BF000736574002042726F776E206F7574205297
:100C000065736574002045787465726E616C20525E
:100C10006573657400506F77657255700073746109
:100C20007274002200656E7175657565696E672066
:100C30002200FF01010000A0400000A040000000D1
:100C4000400000254300004943000021430000000C
:100C50000000003F4300001F430000254300003F09
:100C60004300001F4300000000000020C1000000FE
:100C7000C06563686F3A004572726F723A00000097
:100C80002110422063308440A550C660E77008817F
:100C900029914AA16BB18CC1ADD1CEE1EFF13112F6
:100CA000100273325222B5529442F772D6623993CF
:100CB00018837BB35AA3BDD39CC3FFF3DEE3622446
:100CC000433420040114E664C774A44485546AA51F
:100CD0004BB528850995EEE5CFF5ACC58DD55336D6
:100CE000722611163006D776F6669556B4465BB76F
:100CF0007AA719973887DFF7FEE79DD7BCC7C448A6
:100D0000E5588668A7784008611802282338CCC9BE
:100D1000EDD98EE9AFF9488969990AA92BB9F55A35
:100D2000D44AB77A966A711A500A333A122AFDDB0E
:100D3000DCCBBFFB9EEB799B588B3BBB1AABA66C05
:100D4000877CE44CC55C222C033C600C411CAEED5E
:100D50008FFDECCDCDDD2AAD0BBD688D499D977E15
:100D6000B66ED55EF44E133E322E511E700E9FFFAE
:100D7000BEEFDDDFFCCF1BBF3AAF599F788F889164
:100D8000A981CAB1EBA10CD12DC14EF16FE1801048
:100D9000A100C230E3200450254046706760B9834B
:100DA0009893FBA3DAB33DC31CD37FE35EF3B10298
:100DB0009012F322D2323542145277625672EAB55B
:100DC000CBA5A89589856EF54FE52CD50DC5E234E8
:100DD000C324A01481046674476424540544DBA72B
:100DE000FAB79987B8975FE77EF71DC73CD7D32638
:100DF000F2369106B01657667676154634564CD9BB
:100E00006DC90EF92FE9C899E9898AB9ABA9445887
:100E1000654806782768C018E1088238A3287DCB8A
:100E20005CDB3FEB1EFBF98BD89BBBAB9ABB754AD7
:100E3000545A376A167AF10AD01AB32A923A2EFD1A
:100E40000FED6CDD4DCDAABD8BADE89DC98D267C27
:100E5000076C645C454CA23C832CE01CC10C1FEF6A
:100E60003EFF5DCF7CDF9BAFBABFD98FF89F176E77
:100E7000367E554E745E932EB23ED10EF01E7C3CF3
:100E80003E5E2B3D3F2F5B5D3B2C2A225C004D38A4
:100E90003420582059205A20450043616E6E6F74EB
:100EA00020656E746572207375626469723A200001
:100EB0006175746F25692E67006572726F72207795
:100EC000726974696E6720746F2066696C65004E84
:100ED0006F74205344207072696E74696E6700539A
:100EE00044207072696E74696E672062797465203F
:100EF0000044656C6574696F6E206661696C656439
:100F00002C2046696C653A200046696C6520646552
:100F10006C657465643A006F70656E206661696C1B
:100F200065642C2046696C653A20005772697469C3
:100F30006E6720746F2066696C653A20002E0A0087
:100F40006F70656E206661696C65642C2046696C03
:100F5000653A20002E0A006F70656E206661696C2C
:100F600065642C2046696C653A200046696C6520F2
:100F700073656C6563746564002053697A653A2013
:100F80000046696C65206F70656E65643A20006F7D
:100F900070656E206661696C65642C2046696C65BD
:100FA0003A20004E6F772066726573682066696C20
:100FB000653A20004E6F7720646F696E672066691E
:100FC0006C653A20002220706F73002220706172DD
:100FD000656E743A2200535542524F5554494E455E
:100FE0002043414C4C207461726765743A22004B77
:100FF000494C4C45442E2000747279696E67207408
:101000006F2063616C6C207375622D67636F64651C
:101010002066696C6573207769746820746F6F202F
:101020006D616E79206C6576656C732E204D41582C
:10103000206C6576656C2069733A004D3234004D42
:1010400032332025730053442063617264206F6B38
:10105000006F70656E526F6F74206661696C6564B5
:1010600000766F6C756D652E696E697420666169B6
:101070006C656400534420696E6974206661696C14
:101080000020204D383531205A005A2D50726F62A1
:1010900065204F666673657420286D6D293A0020BF
:1010A000204D3230302044300020204D323030206E
:1010B00044002044697361626C65640046696C6138
:1010C0006D656E742073657474696E67733A002081
:1010D000440020490020204D333034205000204C63
:1010E0000020430020440020490020204D333031AF
:1010F0002050005049442073657474696E67733AD8
:101100000020460020420020204D3134352053314C
:1011100020480020460020420020204D3134352058
:1011200053302048004D6174657269616C206865B8
:101130006174757020706172616D65746572733A67
:1011400000205A0020590020204D3230362058000F
:10115000486F6D65206F666673657420286D6D2914
:101160003A00204500205A00205800204200205418
:101170000020204D323035205300416476616E638B
:101180006564207661726961626C65733A20533DD3
:101190004D696E20666565647261746520286D6DA9
:1011A0002F73292C20543D4D696E20747261766531
:1011B0006C20666565647261746520286D6D2F739F
:1011C000292C20423D6D696E696D756D20736567D0
:1011D0006D656E742074696D6520286D73292C20EF
:1011E000583D6D6178696D756D205859206A65723A
:1011F0006B20286D6D2F73292C20205A3D6D61784E
:10120000696D756D205A206A65726B20286D6D2F8F
:1012100073292C2020453D6D6178696D756D2045E1
:10122000206A65726B20286D6D2F73290020540091
:1012300020520020204D323034205000416363653D
:101240006C65726174696F6E733A20503D7072699B
:101250006E74696E672C20523D726574726163749E
:1012600020616E6420543D74726176656C00204587
:1012700000205A0020590020204D323031205800E3
:101280004D6178696D756D20416363656C65726150
:1012900074696F6E20286D6D2F7332293A002045D6
:1012A00000205A0020590020204D323033205800B1
:1012B0004D6178696D756D206665656472617465F0
:1012C0007320286D6D2F73293A00204500205A00A5
:1012D00020590020204D3932205800537465707316
:1012E0002070657220756E69743A0048617264639B
:1012F0006F6465642044656661756C742053657421
:1013000074696E6773204C6F616465640020627954
:1013100074657329002073746F726564207365743B
:1013200074696E677320726574726965766564208E
:101330002800206279746573290053657474696E9E
:1013400067732053746F7265642028004572726F52
:10135000722077726974696E6720746F20454550FA
:10136000524F4D210020746F6F206C6F6E672065A7
:101370007874727573696F6E2070726576656E74BD
:1013800065640020636F6C6420657874727573699E
:101390006F6E2070726576656E7465640045303AD4
:1013A00020005A3A2000593A2000583A20004D5364
:1013B000312C4D53322050696E730A004D38342061
:1013C000582059205A204500456E6473746F70731D
:1013D00020256320256320256320256300205A3AB9
:1013E0000020593A0020583A00656E6473746F709B
:1013F00073206869743A200024F4D43050C38E20DE
:10140000C2A24017828B7011127A910D816CD90A99
:10141000A861E108C7586607615143061E4B5D0588
:10142000C145A7041A411104093D980371393103DC
:101430004036DB0265339102D4305402802E1D0207
:10144000632CEE01752AC501B028A0011027810187
:101450008F2564012B244B01E0223401AC211F01B4
:101460008D200D01801FFC00841EED00971DDF0004
:10147000B81CD200E61BC600201BBC00641AB200D8
:10148000B219A8000A19A0006A189900D117910092
:1014900040178B00B516840031167E00B315790015
:1014A0003A157300C7146F0058146A00EE136600F3
:1014B0008813630025135E00C7125B006C1257008F
:1014C00015125400C111510070114F0021114B0031
:1014D000D61049008D10470046104400021042000B
:1014E000C00F4000800F3E00420F3C00060F3B0043
:1014F000CB0E3800930E37005C0E3500270E3400FB
:10150000F30D3200C10D3100900D3000600D2E0042
:10151000320D2D00050D2C00D90C2B00AE0C29002E
:10152000850C29005C0C2700350C27000E0C2600CA
:10153000E80B2400C40B2400A00B23007D0B230028
:101540005A0B2100390B2100180B2000F80A1F004C
:10155000D90A1E00BB0A1E009D0A1D00800A1D003C
:10156000630A1C00470A1B002C0A1B00110A1A0000
:10157000F7091A00DD091900C4091900AB0919009F
:10158000920917007B091800630917004C0916001F
:1015900036091600200916000A091500F50815007D
:1015A000E0081400CC081400B8081400A4081400C3
:1015B000900813007D0812006B08130058081200F1
:1015C0004608120034081100230811001208110007
:1015D00001081100F0071000E0071000D00710000C
:1015E000C0071000B0070F00A107100091070E0000
:1015F00083070F0074070F0065070E0057070E00E2
:1016000049070E003B070D002E070E0020070D00B6
:1016100013070D0006070D00F9060C00ED060D007E
:10162000E0060C00D4060C00C8060C00BC060C003A
:10163000B0060C00A4060B0099060C008D060B00EA
:1016400082060B0077060B006C060B0061060A0091
:1016500057060B004C060A0042060A0038060A002C
:101660002E060A0024060A001A060A0010060900BF
:1016700007060A00FD050900F4050900EB0509004D
:10168000E2050900D9050900D0050900C7050900D0
:10169000BE050900B5050800AD050800A50509004F
:1016A0009C050800940508008C05080084050800C6
:1016B0007C050800740508006C0507006505080036
:1016C0005D050700560508004E05070047050700A1
:1016D0004005080038050700310507002A05070006
:1016E000230507001C050600160507000F05070067
:1016F0000805060002050700FB040600F5040700C4
:10170000EE040600E8040600E2040700DB0406001D
:10171000D5040600CF040600C9040600C304060071
:10172000BD040600B7040600B1040500AC040600C1
:10173000A6040600A00405009B040600950405000D
:10174000900406008A040500850405008004060054
:101750007A04050075040500700405006B0405009B
:1017600066040500610405005C04050057040500DB
:10177000520405004D04050048040500430405001B
:101780003E0404003A04050035040500300404005A
:101790002C04050027040400230405001E04040093
:1017A0001A04040016040500110404000D040400CA
:1017B000090405000404040000040400FC03040000
:1017C000F8030400F4030400F0030400EC03040035
:1017D000E8030400E4030400E0030400DC03040065
:1017E000D8030400D4030400D0030400CC03040095
:1017F000C8030300C503030024F404D9201BC40C50
:101800005C0E9804C4095F0265077101F405F900D4
:10181000FB04B30048048700C10369005803550066
:1018200003034500BE023A008402310053022A003D
:101830002902250004022000E4011C00C80119004F
:10184000AF0117009801140084011300710110000A
:101850006101100051010E0043010D0036010B0023
:101860002B010B0020010B00150109000C010900E0
:1018700003010800FB000800F3000800EB0007006C
:10188000E4000600DE000600D8000600D2000600D4
:10189000CC000500C7000500C2000500BD00040023
:1018A000B9000400B5000400B1000400AD0004005C
:1018B000A9000400A5000300A20003009F0004008B
:1018C0009B000300980003009500020093000300B2
:1018D000900003008D0002008B00030088000200CE
:1018E0008600020084000300810002007F000200E5
:1018F0007D0002007B0002007900020077000100F9
:101900007600020074000200720001007100020003
:101910006F0002006D0001006C0002006A0001000F
:101920006900020067000100660001006500010017
:10193000640002006200010061000100600001001B
:101940005F0002005D0001005C0001005B0001001F
:101950005A00010059000100580001005700010021
:101960005600010055000100540001005300000022
:10197000530001005200010051000100500001001D
:101980004F0001004E0000004E0001004D0001001C
:101990004C0001004B0000004B0001004A00010018
:1019A0004900010048000000480001004700010014
:1019B000460000004600010045000000450001000F
:1019C0004400010043000000430001004200000009
:1019D0004200010041000000410001004000010000
:1019E0003F0000003F0001003E0000003E000100FB
:1019F0003D0000003D0001003C0000003C000000F4
:101A00003C0001003B0000003B0001003A000000E8
:101A10003A000100390000003900010038000000E0
:101A200038000000380001003700000037000100D6
:101A300036000000360000003600010035000000CE
:101A400035000000350001003400000034000000C3
:101A500034000100330000003300000033000100B7
:101A600032000000320000003200010031000000AE
:101A700031000000310001003000000030000000A3
:101A8000300001002F0000002F0000002F00000098
:101A90002F0001002E0000002E0000002E0001008B
:101AA0002D0000002D0000002D0000002D00010081
:101AB0002C0000002C0000002C0000002C00010075
:101AC0002B0000002B0000002B0000002B00010069
:101AD0002A0000002A0000002A0000002A0001005D
:101AE0002900000029000000290000002900000052
:101AF0002900010028000000280000002800000044
:101B00002800000028000100270000002700000036
:101B10002700000027000000270001002600000029
:101B2000260000002600000026000000260001001C
:101B30002500000025000000250000002500000011
:101B40002500000025000100240000002400000002
:101B500024000000240000002400010023000000F5
:101B600023000000230000002300000023000000E9
:101B700023000000230001002200000022000000DA
:101B800022000000220000002200000022000100CC
:101B900021000000210000002100000021000000C1
:101BA00021000000210000002100010020000000B1
:101BB00020000000200000002000000020000000A5
:101BC0002000000020000000200001001F00000095
:101BD0001F0000001F0000001F0000001F00000089
:101BE0001F0000001F0001001E0000001E0000007A
:101BF0001E0000001E0000004D494E54454D50206F
:101C0000747269676765726564004572723A204D47
:101C1000494E54454D5020424544004D415854458D
:101C20004D50207472696767657265640045727211
:101C30003A204D415854454D502042454400546887
:101C400065726D616C2052756E61776179005448E0
:101C500045524D414C2052554E415741590048651F
:101C60006174696E67206661696C656400486561CE
:101C700074696E67206661696C65640048656174AB
:101C8000696E67206661696C6564004865617469A6
:101C90006E67206661696C6564004D494E54454D20
:101CA0005020747269676765726564004572723AA4
:101CB000204D494E54454D5000626564002C207300
:101CC000797374656D2073746F707065642120483A
:101CD00065617465725F49443A20004D415854452E
:101CE0004D50207472696767657265640045727251
:101CF0003A204D415854454D50004B642000236418
:101D00006566696E65202044454641554C545F0028
:101D10004B69200023646566696E65202044454652
:101D200041554C545F004B70200023646566696E1A
:101D300065202044454641554C545F00504944209D
:101D40004175746F74756E652066696E6973686538
:101D500064212050757420746865206C6173742050
:101D60004B702C204B6920616E64204B6420636FA4
:101D70006E7374616E74732066726F6D2062656C31
:101D80006F7720696E746F20436F6E666967757236
:101D90006174696F6E2E6800504944204175746FFC
:101DA00074756E65206661696C6564212074696D67
:101DB000656F757400504944204175746F74756E79
:101DC00065206661696C6564212054656D7065727B
:101DD000617475726520746F6F2068696768002090
:101DE0004B643A2000204B693A2000204B703A2087
:101DF0000020436C617373696320504944200020C4
:101E000054753A2000204B753A2000206D61783AD5
:101E10002000206D696E3A200020643A2000206284
:101E20006961733A20001000AD0330016A0150026D
:101E30002B0170030A019004F500B005E500D006FF
:101E4000D800F007CE001009C500300ABE00500BC4
:101E5000B700700CB100900DAB00B00EA600D00F13
:101E6000A200F0109D00101299003013950050143C
:101E7000920070158E0090168B00B0178700D01856
:101E80008400F0198100101B7E00301C7B00501D67
:101E90007900701E7600901F7300B0207000D02172
:101EA0006E00F0226B001024690030256600502679
:101EB00063007027610090285E00B0295C00D02A82
:101EC0005900F02B5600102D5400302E5100502F89
:101ED0004E0070304B0090314800B0324500D03396
:101EE0004200F0343E0010363B00303737005038A7
:101EF000330070392E00903A2900B03B2300D03CCB
:101F00001B00F03D1100103F0100F03F00001000E9
:101F1000C90210012C014001220170011801B00119
:101F20000E01F00104015002FA00B002F00030038B
:101F3000E600D003DC009004D2007005C800A006C3
:101F4000BE000008B400B009AA00D00BA000600ECB
:101F5000960060118C000015820020197800C01DC9
:101F60006E00A0226400B0275A00902C500000316F
:101F70004600E0343C0010383200903A2800603CC3
:101F80001E00A03D1400803E0A00203F0000436177
:101F900072642072656D6F766564004361726420BF
:101FA000696E736572746564004D343238002000C8
:101FB0003F000920005A0059005800466C6F770016
:101FC000466C6F770046616E2073706565640046ED
:101FD000616E2073706565640042656400426564EB
:101FE000004E6F7A7A6C65004E6F7A7A6C6500539A
:101FF00070656564005370656564004D61696E00CD
:102000004D6F76652058004D6F76652059004D6FF5
:102010007665205A0045787472756465720045785B
:10202000747275646572004D6F7665205A004D6F4D
:1020300076652059004D6F76652058004D6F7665A6
:102040002061786973004D6F766520302E316D6D9B
:10205000004D6F766520316D6D004D6F76652031D6
:10206000306D6D0050726570617265005072656808
:1020700065617420504C412042656400507265686F
:1020800065617420504C410050726570617265004A
:102090005072656865617420414253204265640056
:1020A00050726568656174204142530050726570DA
:1020B00061726500436F6F6C646F776E005072657C
:1020C00068656174204142530050726568656174AF
:1020D00020504C41004D38340044697361626C6596
:1020E000207374657070657273004D6F7665206142
:1020F000786973004732380A47323900473239006D
:102100004C6576656C206265640053657420686F69
:102110006D65206F666673657473004732380041E1
:1021200075746F20686F6D65004D61696E00537442
:102130006F7265206D656D6F727900426564004253
:102140006564004E6F7A7A6C65004E6F7A7A6C65C2
:102150000046616E2073706565640046616E207391
:10216000706565640054656D706572617475726543
:102170000053746F7265206D656D6F7279004265F2
:102180006400426564004E6F7A7A6C65004E6F7A27
:102190007A6C650046616E20737065656400466107
:1021A0006E2073706565640054656D70657261744E
:1021B00075726500507265686561742041425320F4
:1021C000636F6E66005072656865617420504C41A3
:1021D00020636F6E66005049442D43005049442DE2
:1021E00043005049442D44005049442D4400504977
:1021F000442D49005049442D49005049442D500078
:102200005049442D500046616E207370656564002E
:1022100046616E20737065656400426564004265C6
:1022200064004E6F7A7A6C65004E6F7A7A6C650046
:10223000436F6E74726F6C004573746570732F6DAD
:102240006D004573746570732F6D6D005A737465FE
:1022500070732F6D6D005A73746570732F6D6D0000
:102260005973746570732F6D6D0059737465707355
:102270002F6D6D005873746570732F6D6D005873FA
:10228000746570732F6D6D00412D74726176656C8D
:1022900000412D74726176656C00412D7265747217
:1022A00061637400412D7265747261637400416DE5
:1022B0006178204500416D6178204500416D61786D
:1022C000205A00416D6178205A00416D6178205993
:1022D00000416D6178205900416D617820580041BE
:1022E0006D61782058005654726176206D696E00D9
:1022F0005654726176206D696E00566D696E005697
:102300006D696E00566D6178204500566D617820CC
:102310004500566D6178205A00566D6178205A004C
:10232000566D6178205900566D6178205900566DC0
:102330006178205800566D617820580056652D6AE6
:1023400065726B0056652D6A65726B00567A2D6A50
:1023500065726B00567A2D6A65726B005678792D1E
:102360006A65726B005678792D6A65726B004163FD
:1023700063656C00416363656C005A204F66667349
:102380006574005A204F666673657400436F6E74FF
:10239000726F6C0046696C2E204469612E0046699C
:1023A0006C2E204469612E004520696E206D6D33CE
:1023B000004F6666004F6E2000436F6E74726F6C44
:1023C00000526573746F7265206661696C73616633
:1023D00065004C6F6164206D656D6F727900537498
:1023E0006F7265206D656D6F72790046696C616D05
:1023F000656E74004D6F74696F6E0054656D706525
:10240000726174757265004D61696E00022E2E0056
:102410004D61696E004E6F20534420636172640009
:102420005072696E742066726F6D2053440053744D
:102430006F70207072696E7400526573756D6520DF
:102440007072696E74005061757365207072696E88
:102450007400436F6E74726F6C00507265706172BD
:10246000650054756E6500496E666F207363726512
:10247000656E0000060900FE070192032120FFFFA0
:1024800008FF07FF00000006000001070706020022
:1024900080808080800080030202060105A0A005E4
:1024A00007070600005050F850F85050050707067F
:1024B00000002078A07028F020050707060000C063
:1024C000C810204098180507070600006090A0403B
:1024D000A89068020303060104C0408003070706B2
:1024E0000100204080808040200307070601008013
:1024F00040202020408005050506000120A870A886
:10250000200505050600012020F82020020303060F
:1025100002FFC04080050101060003F80202020626
:102520000200C0C005050506000108102040800516
:1025300007070600007088888888887003070706E8
:10254000010040C040404040E00507070600007021
:102550008808708080F8050707060000F810201032
:102560000808F005070706000010305090F810101A
:10257000050707060000F880F008088870050707BF
:10258000060000708080F08888700507070600004C
:10259000F808102020202005070706000070888812
:1025A000708888700507070600007088887808081A
:1025B00070020505060200C0C000C0C00206060683
:1025C00002FFC0C000C040800407070600001020C2
:1025D0004080402010050303060002F800F80407BD
:1025E00007060100804020102040800507070600F4
:1025F000007088081020002005070706000070887A
:102600000868A8A870050707060000708888F88881
:102610008888050707060000F08888F08888F0059C
:10262000070706000070888080808870050707060D
:102630000000F08888888888F0050707060000F801
:102640008080F08080F8050707060000F88080F0A1
:10265000808080050707060000708880B888887031
:10266000050707060000888888F88888880107071A
:1026700006020080808080808080050707060000B9
:10268000381010101090600507070600008890A011
:10269000C0A09088050707060000808080808080A9
:1026A000F805070706000088D8A8888888880507E5
:1026B000070600008888C8A89888880507070600CC
:1026C0000070888888888870050707060000F088F1
:1026D00088F080808005070706000070888888A839
:1026E0009068050707060000F08888F0A09088052C
:1026F0000707060000788080700808F005070706C5
:102700000000F82020202020200507070600008870
:102710008888888888700507070600008888888868
:102720008850200507070600008888888888A850F8
:10273000050707060000888850205088880507078D
:102740000600008888885020202005070706000022
:10275000F80810204080F8030707060100E0808099
:10276000808080E0050505060001804020100803F8
:102770000707060100E02020202020E005030306D3
:102780000004205088050101060000F8020202063C
:102790000205804005050506000070087888780568
:1027A00007070600008080B0C88888F00505050688
:1027B0000000708080887005070706000008086820
:1027C000988888780505050600007088F8807005EF
:1027D00007070600003048E0404040400506060676
:1027E00000FF708888780870050707060000808061
:1027F000B0C88888880107070602008000808080B2
:1028000080800308080601FF200020202020A0402F
:10281000040707060000808090A0C0A0900307076F
:10282000060100C04040404040E0050505060000AC
:10283000D0A8A8A8A8050505060000B0C888888803
:1028400005050506000070888888700506060600E4
:10285000FFF08888F080800506060600FF788888EB
:10286000780808050505060000B0C88080800505C9
:102870000506000070807008F0040707060000409D
:1028800040E04040403005050506000088888898F3
:10289000680505050600008888885020050505069E
:1028A00000008888A8A8500505050600008850206B
:1028B00050880506060600FF888888780870050598
:1028C00005060000F8102040F80307070601002065
:1028D0004040804040200107070602008080808041
:1028E0008080800307070601008040402040408030
:1028F00005020206000268900000000600000000C9
:1029000000060000000000060000000000060000B5
:1029100000000006000000000006000000000006A5
:10292000000000000006000000000006000000009B
:102930000006000000000006000000000006000085
:102940000000000600000000000600000000000675
:10295000000000000006000000000006000000006B
:102960000006000000000006000000000006000055
:102970000000000600000000000600000000000645
:10298000000000000006000000000006000000003B
:102990000006000000000006000000000006000025
:1029A0000000000600000000000600000000000615
:1029B000000000000006000000000006000000000B
:1029C000000600000107070602008000808080806A
:1029D000800507070600002070A8A0A87020050742
:1029E00007060000304040E04050A80505050600FD
:1029F000008870507088050707060000885020F88E
:102A000020F8200107070602008080800080808077
:102A1000050808060000304820505020906003014F
:102A200001060107A0050707060000F888B8B8B836
:102A300088F8050707060001700878887800F8050F
:102A400005050600012850A05028050303060001D3
:102A5000F808080202020602064080050707060081
:102A600000F888A88898A8F8050101060006F8046F
:102A7000040406000360909060050707060000202C
:102A800020F8202000F8040505060003609020408F
:102A9000F0030505060003E020E020E00202020644
:102AA000020640800508080600FF8888888898E8A4
:102AB0008080050707060000789898781818180293
:102AC0000202060202C0C00202020602FF408003A8
:102AD000050506000340C04040E005070706000169
:102AE000708888887000F8050505060001A0502848
:102AF00050A00507070600008890A858B8080805E8
:102B000007070600008890B848982038050808068E
:102B10000000C040C048D838080805070706000074
:102B20002000204080887005080806000040200032
:102B30007088F88888050808060000102000708852
:102B4000F888880508080600002050007088F8887A
:102B5000880508080600006890007088F8888805D5
:102B600008080600005000708888F8888805080862
:102B70000600002050207088F888880507070600A6
:102B8000003860A0B8E0A0B80508080600FF70880B
:102B9000808088702060050808060000402000F84A
:102BA00080F080F8050808060000081000F880F0A2
:102BB00080F8050808060000205000F880F080F832
:102BC0000507070600005000F880F080F8030808A9
:102BD000060100804000E0404040E0030808060194
:102BE00000204000E0404040E003080806010040AB
:102BF000A000E0404040E0030707060100A000E01D
:102C0000404040E0050707060000704848E8484893
:102C10007005080806000068900088C8A898880514
:102C20000808060000402070888888887005080819
:102C30000600001020708888888870050808060043
:102C40000020500070888888700508080600006819
:102C50009000708888887005080806000050007091
:102C600088888888700505050600018850205088EE
:102C70000508080600FF1070A8A8A8A8704005085D
:102C800008060000402088888888887005080806A3
:102C900000001020888888888870050808060000D1
:102CA00020500088888888700508080600005000B9
:102CB00088888888887005080806000010208850D9
:102CC000202020200509090600FFC04070484870F8
:102CD0004040E00408080601FF609090A09090E05A
:102CE00080050808060000402000700878887805F4
:102CF0000808060000102000700878887805080889
:102D00000600002050007008788878050808060042
:102D10000068900070087888780507070600005062
:102D20000070087888780508080600002050207098
:102D300008788878050606060000D02878A0A850F4
:102D40000506060600FF70808870206005080806EA
:102D500000004020007088F8807005080806000018
:102D60001020007088F880700508080600002050C8
:102D7000007088F880700507070600005000708812
:102D8000F8807003080806010080400040C0404001
:102D9000E003080806010020400040C04040E00376
:102DA000080806010040A00040C04040E0030707BB
:102DB000060100A00040C04040E0050707060000F3
:102DC000A040A010788870050808060000689000F0
:102DD000B0C8888888050808060000402000708870
:102DE0008888700508080600001020007088888810
:102DF000700508080600002050007088888870055B
:102E00000808060000689000708888887005070729
:102E100006000050007088888870050505060001CE
:102E20002000F800200507070600FF1070A8A8A8DA
:102E300070400508080600004020008888889868CF
:102E40000508080600001020008888889868050892
:102E50000806000020500088888898680507070643
:102E60000000500088888898680509090600FF104E
:102E70002000888888F808700407070601FFC04012
:102E800060506040E00508080600FF500088888810
:102E900078087000060900FE00000000000109002B
:102EA00008FE000005080806000040F0C888889861
:102EB0007810050808060000C0F88888888888F817
:102EC0000505050600012030F83020050808060039
:102ED000002070F820202020E00509090600FF20CE
:102EE00070A8A8B8888870200509090600FFE0804E
:102EF000C0B0A8283028280509090600FFF8A888CE
:102F000088888888A8F8050A0A0600FE20505050D4
:102F10005088A8A8887003030306000340A040005F
:102F200000000000000000000000007FFFE0000043
:102F3000000000000000000000007000E000000041
:102F400000000000000000000061F86000000000C8
:102F5000000000000000000041F820000000000018
:102F60000000000000000040F02000000000000011
:102F70000000000000004060200000000000000091
:102F800000000000005801A07F8000000000000049
:102F9000004104005C63A0FFC000000000000000CE
:102FA0002082005EF7A0FFC00000000000000020AB
:102FB00082005EF7A0FFC000000000000000410496
:102FC000005C63A07F800000000000000082080019
:102FD0005801A07F800000000000000104100040A4
:102FE0006020FFC00000000000000104100040F05D
:102FF00020FFC00000000000000082080041F8200F
:10300000FFC00000000000000041040061F8603FC4
:1030100000000000000000000000007000E01E0042
:1030200000000000000001FFFF807FFFE00C0000B7
:10303000000000000001FFFF800000000000000011
:1030400000000000000000007FFFE0000000000022
:10305000000000000000007000E000000000000020
:10306000000000000000630C600000000000000091
:103070000000000000470E200000000000000000DB
:10308000000000004F0F20000000000000000000C2
:103090000000005F0FA00000000000000000000022
:1030A00000005E07A07F80000000000000004104D7
:1030B00000406020FFC000000000000000208200EF
:1030C00040F020FFC000000000000000208200400F
:1030D000F020FFC00000000000000041040040603C
:1030E000207F80000000000000008208005E07A032
:1030F0007F80000000000000010410005F0FA0FFAF
:10310000C0000000000000010410004F0F20FFC0AD
:1031100000000000000000820800470E20FFC000F1
:10312000000000000000410400630C603F0000004C
:1031300000000000000000007000E01E0000000021
:1031400000000001FFFF807FFFE00C000000000096
:10315000000001FFFF800000001FFFFFFFFFFFFFD7
:10316000600000000001FF400000000000FF800040
:10317000000000007F83CF00000C303F87FF8000FD
:103180000C301F867980000C000F8C30C7838C3088
:10319000E78C30CFC7CC31F38C30DCECEC33B98C1E
:1031A00030D86C6C33198C30D06C0C33198C30D80F
:1031B0006C0C33198C30DC6C0E3B198C30CF7C07D7
:1031C0009F198C30C77C038F19400000000000025B
:1031D000600000000000061FFFFFFFFFFFF8000077
:1031E0000A0B02090C0D0E08070304010000000081
:1031F00000000000000000000000000000000000CF
:10320000000000000000000000001211100000008B
:1032100000000000000000000000000000000000AE
:10322000000000000000000000000000000000009E
:10323000000000000102102020080810204010208B
:10324000408002010201080402010102040810206A
:103250004080804020100804020180040201804068
:1032600020100804020108040201010204081020D1
:1032700040800102040810204080100804088010DB
:103280002040044080102040048005050505070506
:1032900008080808020202020A0A080804040404D2
:1032A00001010101010101010303030303030303FE
:1032B000040707070C0C0C0C0C0C0C0C020202028D
:1032C00006060606060606060B0B0B0B0B0B0B0B76
:1032D00007070A0A0A0A0A0A050505040404080879
:1032E000000020002300260029002C002F003200BF
:1032F0000001000003010601090100002200250071
:1033000028002B002E0031003400020100000501CE
:1033100008010B0100002100240027002A002D00D5
:103320003000330001010000040107010A014E4191
:103330004E494E495459494E46CDCCCC3D0AD7232F
:103340003C17B7D13877CC2B329595E6241FB14F77
:103350000A000020410000C84200401C4620BCBEBC
:103360004CCA1B0E5AAEC59D74000B5ADDF1135AA0
:1033700011241FBECFEFD1E2DEBFCDBF00E00CBFF6
:1033800014E0A0E0B2E0E0E5F6E102E00BBF02C02D
:1033900007900D92AC3FB107D9F728E1ACEFB4E04C
:1033A00001C01D92A83EB207E1F713E3CEE6D3E3D6
:1033B00000E006C022970109FE010BBF0F946304D1
:1033C000CA36D10780E00807A9F70E9444FF0D9490
:1033D000170B0C9400001F920F920FB60F9211243E
:1033E0000BB60F922F933F934F938F939F93EF932F
:1033F000FF934091C6008091FC04882341F04A303D
:1034000019F04D3009F043C01092FC0440C0809187
:103410007F0590E001968F7799272091800530E015
:103420008217930749F0E0917F05F0E0E150FB4FF0
:10343000408380937F052BC081E08093FC048091C2
:103440007F0581508F7790E0FC01E150FB4F208198
:103450002A3041F02D3031F030917F0520918005E8
:1034600032130CC08F5F8F7780937F058091FE04AD
:1034700081110DC081E08093FE0409C020917F0579
:1034800021502F77822F90E020937F05DDCFFF9191
:10349000EF919F918F914F913F912F910F900BBE84
:1034A0000F900FBE0F901F9018959A01AB01211538
:1034B00081EE38074105510549F182E08093C00053
:1034C00060E079E08DE390E00F942B042150310906
:1034D00041095109CA01B90122E030E040E050E061
:1034E0000F942B043093C5002093C4008091C10039
:1034F00080618093C1008091C10088608093C10089
:103500008091C10080688093C10008951092C0002E
:1035100020E130E0E7CF3FB7F8942091800580911B
:103520007F05821759F0E22FF0E0E150FB4F8081D8
:1035300090E02F5F2F772093800502C08FEF9FEFE1
:103540003FBF08958FB7F8949091800590937F05C1
:103550008FBF08954F925F926F927F928F929F924A
:10356000AF92BF92CF92DF92EF92FF920F931F9391
:10357000CF93DF93CDB7DEB7A0970FB6F894DEBF39
:103580000FBECDBF5C014115510561057105E9F420
:1035900020E030E040E350E060E070E0A0960FB63D
:1035A000F894DEBF0FBECDBFDF91CF911F910F9179
:1035B000FF90EF90DF90CF90BF90AF909F908F9053
:1035C0007F906F905F904F905BC08E010F5F1F4F99
:1035D000C12CD12C76014801422E512C612C712C2A
:1035E0008FEFC81AD80AE80AF80ACB01BA01A3017A
:1035F00092010F940904CA01F80161938F01A90196
:10360000BC01411551056105710551F7F1E0CF1A73
:10361000D108E108F108F401EC0DFD1D80818A302C
:1036200010F440E301C047E3480F552747FD50958C
:10363000652F752F20E030E0C50122D081E0C81A47
:10364000D108E108F108EFEFCE16DE06EE06FE0621
:1036500011F7A0960FB6F894DEBF0FBECDBFDF9175
:10366000CF911F910F91FF90EF90DF90CF90BF907F
:10367000AF909F908F907F906F905F904F90089544
:103680002115310539F48091C00085FFFCCF4093AE
:10369000C60008952A30310509F41CC05BCFCF93D2
:1036A000DF93EC0120E030E04DE050E060E070E0BE
:1036B000E7DF20E030E04AE050E060E070E0CE017B
:1036C000DF91CF91DDCF9A01AB01662757FD609561
:1036D000762FD6CFCF92DF92EF92FF92CF93DF93E8
:1036E000EC016A017B0177FF0FC020E030E04DE282
:1036F00050E060E070E0C4DFF094E094D094C094B7
:10370000C11CD11CE11CF11C2AE0B701A601CE01AD
:10371000DF91CF91FF90EF90DF90CF901BCF2115DD
:10372000310539F48091C00085FFFCCF4093C6007D
:10373000089510CF9A01462F50E060E070E0EFCF7F
:10374000CF93DF93EC019A01AB0160E070E0E7DF1B
:10375000CE01DF91CF91A3CF8F929F92AF92BF9274
:10376000CF92DF92EF92FF921F93CF93DF93EC0102
:103770006A017B01122F20E030E0A901C701B601E8
:103780000F942C0087FF0CC020E030E04DE250E0A9
:1037900060E070E0CE0174DFF7FAF094F7F8F0948F
:1037A000B12C60E070E080E09FE3B11641F020E0D2
:1037B00030E040E251E40F943300B394F6CF9B0124
:1037C000AC01C701B6010E9453FF6B017C010F944D
:1037D000A0004B015C010F94CC009B01AC01C70120
:1037E000B6010E9452FF6B017C012AE0B501A401E1
:1037F000CE01B0DE112341F020E030E04EE250E097
:1038000060E070E0CE013CDF112319F120E030E0F0
:1038100040E251E4C701B6010F9401036B017C0142
:103820000F949B004B01AA2497FCA094BA2CB501DD
:10383000A401CE014FDFC501B4010F94CE009B015E
:10384000AC01C701B6010E9452FF6B017C0111500F
:10385000DBCFDF91CF911F91FF90EF90DF90CF9062
:10386000BF90AF909F908F90089576CFFC016591A7
:103870007591859194910895CF92DF92EF92FF9286
:103880000F931F93CF93DF93EC01CC0FDD1FCC0F71
:10389000DD1FFE01E15EF94FDE01A55DB94F2D91FF
:1038A0003D914D915C9160817181828193810E94F3
:1038B00053FF6B017C01CE018B59934FD7DF8E01F3
:1038C000085D1D4FA70196010E9453FFF801608318
:1038D000718382839383CE01875A934FC7DFC45E7F
:1038E000DD4FA70196010E9453FF688379838A8385
:1038F0009B83DF91CF911F910F91FF90EF90DF900D
:10390000CF900895EF92FF920F931F93CF93DF9381
:10391000EC018C01000F111F000F111FF801E55D74
:10392000F94F1082118212821382C801835B934F78
:103930009DDF98012A5D354F7901F801E15EF94F6D
:1039400020813181428153810E9453FFF7016083BE
:10395000718382839383CE01DF91CF911F910F9169
:10396000FF90EF9089CF80917714811103C081E09F
:103970008093771408958F929F92AF92BF92CF92C7
:10398000DF92EF92FF92E2E1F9E08491882341F027
:103990009091C00095FFFCCF8093C6003196F5CF83
:1039A0004091260A5091270A6091280A7091290AAD
:1039B00022E030E08DEF94E058DFEEE0F9E0849112
:1039C000882341F09091C00095FFFCCF8093C60002
:1039D0003196F5CF40912A0A50912B0A60912C0A1A
:1039E00070912D0A22E030E08DEF94E03EDFEAE0B6
:1039F000F9E08491882341F09091C00095FFFCCFBD
:103A00008093C6003196F5CF40912E0A50912F0A2F
:103A10006091300A7091310A22E030E08DEF94E03D
:103A200024DFE6E0F9E08491882341F09091C00022
:103A300095FFFCCF8093C6003196F5CF4091320AB6
:103A40005091330A6091340A7091350A22E030E0D7
:103A50008DEF94E00ADF8FB7F894409134145091C1
:103A6000351460913614709137148090381490900A
:103A70003914A0903A14B0903B14C0903C14D090EC
:103A80003D14E0903E14F0903F148FBFEBEFF8E050
:103A90008491882341F09091C00095FFFCCF8093E2
:103AA000C6003196F5CF2AE030E08DEF94E0E8DDF6
:103AB000E7EFF8E08491882341F09091C00095FFF2
:103AC000FCCF8093C6003196F5CF2AE030E0B501F7
:103AD000A4018DEF94E0D4DDE3EFF8E08491882336
:103AE00041F09091C00095FFFCCF8093C6003196C5
:103AF000F5CF2AE030E0B701A6018DEF94E0C0DDFC
:103B00008091C00085FFFCCF8AE08093C600FF90C3
:103B1000EF90DF90CF90BF90AF909F908F900895DF
:103B200060E08CEC96E00E9466D2E1E7FCE08491D4
:103B3000882341F09091C00095FFFCCF8093C60090
:103B40003196F5CFEAEBF6E08491882341F090912D
:103B5000C00095FFFCCF8093C6003196F5CF8091D1
:103B6000C00085FFFCCF8AE08093C60008950E94C4
:103B70005CFC60931006709311068093120690937C
:103B8000130608958091400290914102A091420253
:103B9000B09143028093360A9093370AA093380A73
:103BA000B093390A80913E0290913F02909339067A
:103BB0008093380684E690E090933F0280933E0223
:103BC000D6DF81E00C94BBA20E94C3A28091360A8A
:103BD0009091370AA091380AB091390A8093400237
:103BE00090934102A0934202B09343028091380621
:103BF0009091390690933F0280933E02B8CFFC012A
:103C00002491222341F03091C00035FFFCCF209356
:103C1000C6000196F4CF4AE050E08DEF94E053CD1A
:103C2000FC012491222341F03091C00035FFFCCFEC
:103C30002093C6000196F4CF22E030E08DEF94E0AF
:103C400014CEFC012491222341F03091C00035FFB5
:103C5000FCCF2093C6000196F4CF2AE030E08DEF30
:103C600094E05DCD2091000A3091010AF901E25102
:103C7000FA4F8083C90101966AE070E00F94F60361
:103C80009093010A8093000A8091FE099091FF09A8
:103C900001969093FF098093FE090895CF93FC014C
:103CA000C62F80818B33D9F02091FE093091FF0916
:103CB0002A303105A4F44091000A5091010A80E6AF
:103CC000849F9001859F300D1124BF01C901825C42
:103CD000994F0F94FE078C2FC5DF81E001C080E073
:103CE000CF910895CF93DF93D82FC92FD7DF8823A3
:103CF00009F43CC0E1E7FCE08491882341F0909115
:103D0000C00095FFFCCF8093C6003196F5CFE5E269
:103D1000FCE08491882341F09091C00095FFFCCF96
:103D20008093C6003196F5CFED2FFC2F819188232B
:103D300039F09091C00095FFFCCF8093C600F6CF7C
:103D4000E3E2FCE08491882341F09091C00095FF6C
:103D5000FCCF8093C6003196F5CF8091C00085FFDF
:103D6000FCCF8AE08093C60081E001C080E0DF9153
:103D7000CF910895DF92EF92FF920F931F93CF930D
:103D8000DF93CDB7DEB76E970FB6F894DEBF0FBEE8
:103D9000CDBF60911406709115066115710559F13A
:103DA0004DE150E08E010F5F1F4FC8010F948D074A
:103DB0001E8EF8017F01E01AF10AD190DD2019F082
:103DC0008AE0D812F7CFF801EE0DFF1D108260E0F7
:103DD000C80188DF882379F0DD20B1F08FEFE81A81
:103DE000F80A80911406909115068E0D9F1D9093F0
:103DF00015068093140681E0209114063091150673
:103E0000232B39F480E005C0109215061092140699
:103E1000F2CF6E960FB6F894DEBF0FBECDBFDF9126
:103E2000CF911F910F91FF90EF90DF9008959093A5
:103E30001506809314069ECF3D98459A0895FCDFA1
:103E400040E052EC61E070E08DEF94E02EDBEDE1BC
:103E5000FCE08491882341F09091C00095FFFCCF55
:103E60008093C6003196F5CF8091C00085FFFCCFCE
:103E70008AE08093C600E1E7FCE08491882341F06A
:103E80009091C00095FFFCCF8093C6003196F5CF8E
:103E900084B780FF14C0E5E1FCE09491992341F0E0
:103EA0002091C00025FFFCCF9093C6003196F5CF3E
:103EB0009091C00095FFFCCF9AE09093C60081FFDF
:103EC00014C0E5E0FCE09491992341F02091C000FA
:103ED00025FFFCCF9093C6003196F5CF9091C0009E
:103EE00095FFFCCF9AE09093C60082FF14C0E4EFE8
:103EF000FBE09491992341F02091C00025FFFCCF75
:103F00009093C6003196F5CF9091C00095FFFCCFFD
:103F10009AE09093C60083FF14C0E4EEFBE0949116
:103F2000992341F02091C00025FFFCCF9093C6005B
:103F30003196F5CF9091C00095FFFCCF9AE0909319
:103F4000C60085FF14C0E4EDFBE08491882341F0B6
:103F50009091C00095FFFCCF8093C6003196F5CFBD
:103F60008091C00085FFFCCF8AE08093C60014BE1C
:103F7000EDECFBE08491882341F09091C00095FF27
:103F8000FCCF8093C6003196F5CFE3ECFBE0849143
:103F9000882341F09091C00095FFFCCF8093C6002C
:103FA0003196F5CF8091C00085FFFCCF8AE08093E9
:103FB000C600E1E7FCE08491882341F09091C000C5
:103FC00095FFFCCF8093C6003196F5CFE3EBFBE085
:103FD0008491882341F09091C00095FFFCCF80939D
:103FE000C6003196F5CFE2EAFBE08491882341F0E8
:103FF0009091C00095FFFCCF8093C6003196F5CF1D
:10400000E6E9FBE08491882341F09091C00095FFA0
:10401000FCCF8093C6003196F5CFE3E7FBE08491B7
:10402000882341F09091C00095FFFCCF8093C6009B
:104030003196F5CF8091C00085FFFCCF8AE0809358
:10404000C600E8E6FBE08491882341F09091C0002F
:1040500095FFFCCF8093C6003196F5CFECE5FBE0F1
:104060008491882341F09091C00095FFFCCF80930C
:10407000C6003196F5CF8091C00085FFFCCF8AE065
:104080008093C600E1E7FCE08491882341F09091A1
:10409000C00095FFFCCF8093C6003196F5CFEDE4CC
:1040A000FBE08491882341F09091C00095FFFCCF04
:1040B0008093C6003196F5CF0E942D654AE050E00E
:1040C000BC018DEF94E0FFDAE6E3FBE08491882306
:1040D00041F09091C00095FFFCCF8093C6003196CF
:1040E000F5CF4AE050E060ED74E08DEF94E0EBDA5C
:1040F0008091C00085FFFCCF8AE08093C600EEEE81
:10410000F5E081E0819395E0E83FF907D9F70E9457
:10411000417E0E94E5D20E9470B50E9402840E94F6
:1041200026F60E947EAE8091010188608093010195
:10413000249A2C9808952EE336E080E090E0F9016F
:10414000E80FF91F1082019680369105C1F7205AB9
:104150003F4F89E02E3F380781F78DEF94E0F2D989
:10416000109219061092180681E090E09093FF09D2
:104170008093FE0989E090E09093030A8093020AFD
:104180001092010A1092000A08952F923F924F92C6
:104190005F926F927F928F929F92AF92BF92CF92D7
:1041A000DF92EF92FF920F931F93CF93DF93CDB7E0
:1041B000DEB7A0970FB6F894DEBF0FBECDBF8091DB
:1041C0003D0A882309F42FC18091FE099091FF09CF
:1041D000892B11F410928C0521E028A34091B90C91
:1041E0005091BA0C6091BB0C7091BC0C8091B50CD5
:1041F0009091B60CA091B70CB091B80C4817590724
:104200006A077B0708F418A200E010E02CE3C22E36
:10421000D12CE12CF12C30E1232E3EE0332E412C29
:10422000512CCE0101963C018091FE099091FF092D
:104230000A970CF0F8C028A12111F5C080918C05D7
:104240008111F1C08091100C9091110CA091120C71
:10425000B091130C8093B90C9093BA0CA093BB0C43
:10426000B093BC0C88E09CE00E94FB5E8F8FA1E0C5
:10427000A8A38090B90C9090BA0CA090BB0CB09001
:10428000BC0C4091B50C5091B60C6091B70C70917C
:10429000B80C84169506A606B70630F418A28F3F10
:1042A000BFEF9B0721F47FC0E5ECF9E018C02F8D2C
:1042B0002A3009F47EC02D3009F47BC0233219F076
:1042C0002A3309F090C020918B0521118CC06BC05E
:1042D0009091C00095FFFCCF8093C60031968491E9
:1042E0008111F6CF8091C00085FFFCCF4AE040935A
:1042F000C60080E096E00E949FAF80E096E00E94BA
:10430000C5AF4C01A12CB12CC501B401A701960188
:104310000F940904CA01B901A70196010F94090479
:104320007F936F93C501B401A20191010F94090419
:104330003F932F93A1EBB9E0BF93AF937F926F921E
:104340000F943C080FB6F894DEBF0FBECDBFE1E777
:10435000FCE08491882341F09091C00095FFFCCF50
:104360008093C6003196F5CFF3018191882339F00F
:104370009091C00095FFFCCF8093C600F6CF80914E
:10438000C00085FFFCCF9AE09093C60061E0C301B6
:104390000E94AAD08BE39AE00E947D7561E08BE3D6
:1043A0009AE00E940470AF8DA33219F4B1E0B0938B
:1043B0008C0510928B050115110509F435CF8091FC
:1043C000000A9091010A20E6289FF001299FF00D34
:1043D0001124E00FF11FE25CF94F108280E042DC13
:1043E00000E010E021CF0F35110508F01DCF4F8DF3
:1043F0004B3319F4A1E0A0938B0520918B0521117B
:1044000013CF2091000A3091010AB0E6B29FF0016B
:10441000B39FF00D1124E00FF11FE25CF94F808390
:104420000F5F1F4F01CFA0960FB6F894DEBF0FBEEF
:10443000CDBFDF91CF911F910F91FF90EF90DF9053
:10444000CF90BF90AF909F908F907F906F905F9034
:104450004F903F902F9008950F931F93CF93DF932A
:10446000009116061091170665E470E0C8010F94DC
:10447000EA07EC01C8010196209761F0188260E01C
:1044800070E00F94CC0425E42883DF91CF911F9135
:104490000F91089560E070E0DF91CF911F910F912F
:1044A0000D94CC0480911606909117064AE050E0D6
:1044B00060E070E001960D943406809116069091AC
:1044C00017064AE050E060E070E001960F94340671
:1044D000CB010895682F772767FD70958091040AB6
:1044E0009091050A0F94EA07909317068093160699
:1044F00021E0892B09F420E0822F08950F931F9368
:10450000CF93DF938C0184E5E5DF882361F1D5DF6C
:10451000EC01181619064CF5E1E7FCE084918823BC
:1045200041F09091C00095FFFCCF8093C60031967A
:10453000F5CF8091C00085FFFCCF8DE48093C6004D
:104540004AE050E0B8018DEF94E0BDD8BE018EE99D
:1045500099E055DB8091C00085FFFCCF8AE0809315
:10456000C60081E005C080911C068093FF0580E0B5
:10457000DF91CF911F910F9108950F931F93CF93C8
:10458000DF9300D000D0CDB7DEB726E0EBEEF2E04F
:10459000DE01119601900D922A95E1F7FC01EE0FD4
:1045A000FF1F21E030E02C0F3D1FE20FF31F608161
:1045B0007181161617061CF1E1E7FCE02491222315
:1045C00041F03091C00035FFFCCF2093C6003196FA
:1045D000F5CFE5E1F9E02491222341F03091C000CC
:1045E00035FFFCCF2093C6003196F5CF2091C00057
:1045F00025FFFCCF2AE02093C6006AE070E08C0122
:10460000000F111F000F111F0D5B1B4F882777FD37
:104610008095982F0F94CE009B01AC01F80160812A
:104620007181828193810F94330060934002709373
:104630004102809342029093430226960FB6F8946B
:10464000DEBF0FBECDBFDF91CF911F910F910895B7
:104650008F929F92AF92BF92CF92DF92EF92FF9292
:104660000F931F9320E030E040E752E46091400256
:104670007091410280914202909143020F94330065
:104680004B015C01E0902E0AF0902F0A0091300A55
:104690001091310A20912A0A30912B0A40912C0A5C
:1046A00050912D0A6091260A7091270A8091280A5C
:1046B0009091290AE0911C06EF93E2E3CE2EEAE006
:1046C000DE2E0E949C840F901F910F91FF90EF901F
:1046D000DF90CF90BF90AF909F908F9008954F92B2
:1046E0005F926F927F928F929F92AF92BF92EF9262
:1046F000FF920F931F93CF93DF93CDB7DEB7289729
:104700000FB6F894DEBF0FBECDBF4B015C018091A8
:10471000400290914102A0914202B09143028983EC
:104720009A83AB83BC83412C512CF4E36F2EF4E4C9
:104730007F2E40924002509241026092420270925B
:104740004302E0922E0AF0922F0A0093300A10934F
:10475000310A2D833E834F8358877ADF0E94E6AC6F
:104760006091160270911702882777FD8095982F27
:104770000F94CE00609340027093410280934202F6
:10478000909343028092260A9092270AA092280AC8
:10479000B092290A2D813E814F81588520932A0AA3
:1047A00030932B0A40932C0A50932D0A51DF0E941C
:1047B000E6AC89819A81AB81BC8180934002909361
:1047C0004102A0934202B093430228960FB6F89498
:1047D000DEBF0FBECDBFDF91CF911F910F91FF9034
:1047E000EF90BF90AF909F908F907F906F905F9071
:1047F0004F9008954F925F926F927F928F929F9207
:10480000AF92BF92CF92DF92EF92FF920F931F93DE
:104810002B013C0120E030E040E752E4609140028F
:104820007091410280914202909143020F943300B3
:104830004B015C0120912A0A30912B0A40912C0AED
:1048400050912D0A6091260A7091270A8091280ABA
:104850009091290AE0911C06EF93A2E3CA2EAAE0E8
:10486000DA2E830172010E949C840F901F910F9198
:10487000FF90EF90DF90CF90BF90AF909F908F9080
:104880007F906F905F904F9008958F929F92AF921C
:10489000BF92CF92DF92EF92FF920F931F9320E08F
:1048A00030E040E752E40F9433004B015C01E090AC
:1048B0001E0AF0901F0A0091200A1091210A2091EF
:1048C0001A0A30911B0A40911C0A50911D0A6091EE
:1048D000160A7091170A8091180A9091190AE091AE
:1048E0001C06EF93B2E2CB2EBAE0DB2E0E949C8432
:1048F0000F901F910F91FF90EF90DF90CF90BF909E
:10490000AF909F908F900895609140027091410206
:104910008091420290914302B8CFCF92DF92EF9202
:10492000FF920F931F93E0902E0AF0902F0A0091B0
:10493000300A1091310A20912A0A30912B0A4091B5
:104940002C0A50912D0A6091260A7091270A8091B5
:10495000280A9091290AE2E3CE2EEAE0DE2E0E9498
:10496000E58F1F910F91FF90EF90DF90CF9008950A
:104970004F925F926F927F928F929F92AF92BF926F
:10498000CF92DF92EF92FF920F931F93CF93DF931B
:10499000EC01FC01EE5CF34FF4908C01000F111F51
:1049A000000F111FC8018A5D954F4C01FC01108258
:1049B000118212821382B1DFC8018F5B934F0E9474
:1049C000361C2B013C016F2D772767FD7095872FD3
:1049D000972F0F94CE006B017C01C8018A5E954F22
:1049E0005C0120E030E040EC5FE3C301B2010F94D2
:1049F0000103A70196010F940103F5016083718300
:104A000082839383F801ED5BFB4F80819181A281CA
:104A1000B3818093400290934102A0934202B093ED
:104A2000430272DF0E94E6ACF4011082118212820E
:104A3000138273DF80E00E94BBA20B5C134FC8019E
:104A40000E94361C9058A70196010F940103F501AE
:104A5000608371838283938357DF0E94E6AC81E099
:104A60000E94BBA2CE0189DDC8010E94361C9B01B9
:104A7000AC010E9453FFA70196010F940103F501B9
:104A800060837183828393833FDF0E94E6ACCE0113
:104A90000E94821C42DFF40180819181A281B38156
:104AA000F50180839183A283B38310924002109218
:104AB000410210924202109243020E94C8A2FE01DB
:104AC000ED5EF54F81E08083C05FD54F8883DF9135
:104AD000CF911F910F91FF90EF90DF90CF90BF90FB
:104AE000AF909F908F907F906F905F904F900895C0
:104AF00080E1E6E1FAE0A6E2BAE001900D928A9543
:104B0000E1F70895EF92FF920F931F93E0902E0A22
:104B1000F0902F0A0091300A1091310AE0DD1F91C8
:104B20000F91FF90EF900895EF92FF920F931F93D4
:104B30007B018C0120912A0A30912B0A40912C0A8A
:104B400050912D0A6091260A7091270A8091280AB7
:104B50009091290AC4DD1F910F91FF90EF90089565
:104B6000CF938091FD05823008F04FC060E070E087
:104B700080EA90E4D9DFE5E9F9E08491882341F007
:104B80009091C00095FFFCCF8093C6003196F5CF81
:104B90008091C00085FFFCCF8AE08093C60060E072
:104BA0008CE899E00E9466D220E030E04DE253E4C8
:104BB00060E070E084E392E4A5DF60E070E080E80C
:104BC0009FEBB2DFC6E020E030E04DE253E460E06E
:104BD00070E086EE92E496DF20E030E04DE253E4B0
:104BE00060E070E084E392E48DDFC15061F760E043
:104BF00070E080EA90E498DF20E030E040EC50EC98
:104C000060E070E0CB017EDF05C060E070E080EA2C
:104C100090E48ADF8091FD058F5F8093FD05CF9141
:104C200008958F929F92AF92BF92CF92DF92EF92B0
:104C3000FF920F931F930E94B71D85E492E00E949C
:104C4000CCF380E090E0A4E3B4E48093400290933E
:104C50004102A0934202B093430281E08093FE059B
:104C600024982C9A60E070E080E890ECC3DD0E940C
:104C7000E6AC82E090E00E944CAD4B015C012091DB
:104C80002A0A30912B0A40912C0A50912D0A6091EA
:104C9000260A7091270A8091280A9091290AA2E396
:104CA000CA2EAAE0DA2E850174010E94E58F20E069
:104CB00030E040E850ECC501B4010F942C008111A4
:104CC00006C08AE00E94A8FE892B09F051C08DE33E
:104CD0009CE00E94361C9B01AC01C501B4010E94FE
:104CE00053FF88DD0E94E6AC0E94C8A282E090E0FB
:104CF00044DC20E030E040E251E4609140027091F9
:104D0000410280914202909143020F9433006093DC
:104D1000400270934102809342029093430281E0EB
:104D20008093FE0524982C9A60E070E080E890EC77
:104D300061DD0E94E6AC249A2C980E94C8A21092D1
:104D4000FE0582E090E00E944CAD60932E0A7093C5
:104D50002F0A8093300A9093310A1F910F91FF9090
:104D6000EF90DF90CF90BF90AF909F908F90D5CD78
:104D7000249A2C981092FE051F910F91FF90EF90AE
:104D8000DF90CF90BF90AF909F908F90E9CE4F92E1
:104D90005F926F927F92AF92BF92CF92DF92EF922B
:104DA000FF920F931F93CF93DF9300D01F92CDB745
:104DB000DEB769837A838B839C8329013A01C8011A
:104DC000B701B2DEE0902E0AF0902F0A0091300A6F
:104DD0001091310A20912A0A30912B0A40912C0A15
:104DE00050912D0A69817A818B819C8178DC609158
:104DF000260A7091270A8091280A9091290AA30116
:104E0000920180DEC0FC0E94B31C0BDF00912E0AD1
:104E100010912F0AE090300AF090310A20E030E043
:104E200040EA50E4B801C7010F942C00882309F42C
:104E300055C0C1FE05C0809177148111109277147E
:104E400083E0A816B1040CF44EC0E2EBF6E08491C6
:104E5000882341F09091C00095FFFCCF8093C6005D
:104E60003196F5CF23E030E049815A816B817C8116
:104E70008DEF94E00E94351CEDEAF6E084918823E2
:104E800041F09091C00095FFFCCF8093C600319611
:104E9000F5CF23E030E0B301A2018DEF94E00E9452
:104EA000351CE8EAF6E08491882341F09091C00037
:104EB00095FFFCCF8093C6003196F5CF23E030E01C
:104EC000A801B7018DEF94E00E94351C8091C000CD
:104ED00085FFFCCF8AE08093C60005C000E010E0AB
:104EE00030E820EC02C03E2D2F2DB801832F922FE9
:104EF0000F900F900F900F90DF91CF911F910F9116
:104F0000FF90EF90DF90CF90BF90AF907F906F9029
:104F10005F904F9008958F929F92AF92BF92CF92E1
:104F2000DF92EF92FF920F931F93CF93DF93BFE334
:104F3000CB2EB4E0DB2EC6E2EC2ECAE0FC2E06E15E
:104F40001AE0C0E0D0E0F60181916F01C3DA882356
:104F500009F461C081DAFE01E65CF94F208121117C
:104F600004C020911B06222331F0F70120813181FA
:104F70004281538103C020E030E0A9010E9453FF29
:104F80004B015C01C230D10571F420912E0A3091A1
:104F90002F0A4091300A5091310A0F942C001816B4
:104FA0000CF064C028C0C330D10509F45FC020975D
:104FB00081F42091260A3091270A4091280A5091C5
:104FC000290A0F942C0018160CF050C0379B23C0F0
:104FD0004DC0C130D10579F420912A0A30912B0AB5
:104FE00040912C0A50912D0A0F942F0287FF3EC04A
:104FF0001D993CC010C020912E0A30912F0A40917B
:10500000300A5091310AC501B4010F942F0287FF75
:105010002DC01C992BC0F70180819181A281B381A1
:10502000F80180839183A283B3832196F4E0EF0E8D
:10503000F11C0C5F1F4FC430D10509F084CF86E40A
:1050400049DA8823C9F008DA6B017C0120E030E0FE
:10505000A9010F942F0218167CF4C0924002D0923E
:105060004102E0924202F092430206C0F8018082BF
:105070009182A282B382D9CFDF91CF911F910F91FC
:10508000FF90EF90DF90CF90BF90AF909F908F9068
:105090000895E1E7FCE08491882341F09091C000FD
:1050A00095FFFCCF8093C6003196F5CFE9E7F9E094
:1050B0008491882341F09091C00095FFFCCF8093AC
:1050C000C6003196F5CFE091060AF091070A81916A
:1050D000882339F09091C00095FFFCCF8093C600E3
:1050E000F6CFE6E7F9E08491882341F09091C00083
:1050F00095FFFCCF8093C6003196F5CF08954F926F
:105100005F926F927F928F929F92AF92BF92CF9257
:10511000DF92EF92FF921F93CF93DF930E94E6AC52
:1051200085E492E00E94CCF30E94C21D80E1E6E299
:10513000FAE0A6E1BAE001900D928A95E1F71092AB
:10514000400210924102109242021092430288E5FE
:10515000C1D9D82F89E5BED9C82F8AE5BBD9D111CD
:1051600005C0C11107C091E0982705C0CC2311F0FC
:10517000982F01C090E090931102911102C08823F2
:1051800019F082E090E0F4DB80911102811106C0F9
:10519000DD2309F400C1CC2309F4FDC010922A0AD2
:1051A00010922B0A10922C0A10922D0A1092260AA5
:1051B0001092270A1092280A1092290AE2E3FCE0D2
:1051C0001491ABDB81E49CE00E94361C4B015C0136
:1051D00085E49CE00E94361C6B017C019B01AC01C4
:1051E000C501B4010F942F0218162CF4A5019401E7
:1051F000C701B60104C0A7019601C501B4010F940F
:1052000033002B013C0120E030E040EC5FE3C501BE
:10521000B4010F9401034B015C01612F772767FDF7
:105220007095872F972F0F94CE009B01AC01C5017D
:10523000B4010F9401036093160A7093170A8093C8
:10524000180A9093190AE3E3FCE0B49020E030E000
:1052500040EC5FE3C701B6010F9401036B017C01D1
:105260006B2D772767FD7095872F972F0F94CE00B2
:105270009B01AC01C701B6010F94010360931A0AA8
:1052800070931B0A80931C0A90931D0AA30192013C
:10529000C301B2010F94010320E030E040E85FE376
:1052A0000E9453FF0F946E0320E030E041EE54E47F
:1052B0000F94010360934002709341028093420275
:1052C0009093430221DB0E94E6AC80E090E00E94D4
:1052D000821C81E090E00E94821C1FDB4091260A24
:1052E0005091270A6091280A7091290A4093160A62
:1052F0005093170A6093180A7093190A40912A0A6A
:1053000050912B0A60912C0A70912D0A40931A0A31
:1053100050931B0A60931C0A70931D0AF5DA1092D1
:1053200040021092410210924202109243020E94E7
:10533000E6AC0E94C8A24091160A5091170A6091EB
:10534000180A7091190A4093260A5093270A60930D
:10535000280A7093290A40911A0A50911B0A6091F9
:105360001C0A70911D0A40932A0A50932B0A6093DD
:105370002C0A70932D0A40911E0A50911F0A6091C9
:10538000200A7091210A40932E0A50932F0A6093AD
:10539000300A7093310A80911102811102C0DD231D
:1053A00019F080E090E0E4DA80911102811102C0EE
:1053B000CC2319F081E090E0DBDAAFDA8091360A95
:1053C0009091370AA091380AB091390A809340022F
:1053D00090934102A0934202B09343028091380619
:1053E0009091390690933F0280933E020E94B71D30
:1053F0000E94C8A2DF91CF911F91FF90EF90DF90A4
:10540000CF90BF90AF909F908F907F906F905F9064
:105410004F900C94BB1CEEE6F9E02491222379F026
:105420003091C00035FFFCCF2093C6003196F5CFF8
:105430003091C00035FFFCCF2093C6000196FC01DF
:1054400024912111F5CFE6E5F9E08491882341F01C
:105450009091C00095FFFCCF8093C6003196F5CFA8
:105460008091C00085FFFCCF8AE08093C60008953C
:105470000E94B31C0E94E6AC0E94C21D80E090E036
:10548000A4E3B4E48093400290934102A0934202CB
:10549000B0934302C6DBE0EAF6E08491882341F052
:1054A0009091C00095FFFCCF8093C6003196F5CF58
:1054B00020E030E0A9016091260A7091270A8091CE
:1054C000280A9091290A0E9453FF27E137EB41ED0A
:1054D00058E30E9453FFAB01BC0122E030E08DEFA6
:1054E00094E00E94351CEBE9F6E08491882341F0BA
:1054F0009091C00095FFFCCF8093C6003196F5CF08
:1055000020E030E0A90160912A0A70912B0A809175
:105510002C0A90912D0A0E9453FF27E137EB41EDB1
:1055200058E30E9453FFAB01BC0122E030E08DEF55
:1055300094E00E94351CE6E9F6E08491882341F06E
:105540009091C00095FFFCCF8093C6003196F5CFB7
:1055500027E137EB41ED58E360912E0A70912F0A55
:105560008091300A9091310A0E9453FFAB01BC0137
:1055700022E030E08DEF94E00E94351C8091C00065
:1055800085FFFCCF8AE08093C6000E94E41D8091D5
:1055900077148111109277141092FD050C94BB1CA6
:1055A0008F929F92AF92BF92CF92DF92EF92FF9233
:1055B0000F931F93CF93DF9300D01F92CDB7DEB729
:1055C00085E40E946A22B82E811102C00E94E6ACD6
:1055D0001FE3C12E14E0D12E0BE2E02E06E0F02EE8
:1055E00006E21AE0812C912CA12CF60181916F0129
:1055F0000E946A22882369F1F80120813181428169
:10560000538129833A834B835C830E942C22F801C7
:10561000608371838283938329813A814B815C818A
:10562000F3E08F169104A9F00E9452FF9B01AC0198
:10563000F70160817181828193810E9453FFF7019C
:105640006083718382839383C4010E943C1CAA24DB
:10565000A394FFEF8F1A9F0A84E0E80EF11C0C5F01
:105660001F4FE4E08E16910409F0BFCFAA2089F005
:105670000F900F900F900F90DF91CF911F910F918E
:10568000FF90EF90DF90CF90BF90AF909F908F9062
:1056900044C9BB20A1F082E39AE00F900F900F90D5
:1056A0000F90DF91CF911F910F91FF90EF90DF90BE
:1056B000CF90BF90AF909F908F900C94D9900F9007
:1056C0000F900F900F90DF91CF911F910F91FF904E
:1056D000EF90DF90CF90BF90AF909F908F90089504
:1056E000E4E4F6E08491882341F09091C00095FFB6
:1056F000FCCF8093C6003196F5CF8091C00085FF26
:10570000FCCF8AE08093C6008BE39AE00E94486C4D
:10571000E6E3F6E08491882341F09091C00095FF84
:10572000FCCF8093C6003196F5CF8091C00085FFF5
:10573000FCCF8AE08093C60008950F931F93CF9308
:10574000DF93CDB7DEB76E970FB6F894DEBF0FBE0E
:10575000CDBF80E096E00E94C5AFBC0180E090E044
:105760002CE330E040E050E00F9409047F936F9306
:105770003F932F9387E296E09F938F938E010F5F65
:105780001F4F1F930F930F943C080FB6F894DEBF82
:105790000FBECDBFE1E7FCE08491882341F09091FA
:1057A000C00095FFFCCF8093C6003196F5CFF8017D
:1057B0008191882339F09091C00095FFFCCF8093B0
:1057C000C600F6CF8091C00085FFFCCF8AE08093B1
:1057D000C60060E0C8010E94AAD06E960FB6F89489
:1057E000DEBF0FBECDBFDF91CF911F910F91089506
:1057F0001F93CF93DF9380913D0A81110E94E6AC05
:10580000C091040AD091050A61E270E0CE010F94C4
:10581000EA07009711F0EC01219680E50E946A22C8
:10582000882341F011E080911606909117068C179D
:105830009D0708F010E080913E0A8823A1F1212FF6
:1058400041E0BE018BE39AE00E94427183E50E9431
:105850006A22882339F080911606909117068C17DA
:105860009D0768F08BE39AE00E94B96D11111BC08F
:1058700080E096E0DF91CF911F910C94ECAF0E94F5
:105880005D22AC01662757FD6095762F4093B90CD9
:105890005093BA0C6093BB0C7093BC0C88E09CE0F6
:1058A0000E94C85FDFCFDF91CF911F9108950F93C2
:1058B0001F93CF93DF9383E50E946A22882389F1A7
:1058C0000E945D228C018F3F910509F050F580E523
:1058D0000E946A22882331F00E945D22EC0197FD2C
:1058E00020C002C0CDE0D0E0E9E0F4E081919191E8
:1058F000C817D907B1F084E0EF33F807B9F761E0D2
:105900008C2F0E943AFE602F8C2F0E9473FEB801EC
:105910008C2F0E9424FD289721F410931E060093DB
:105920001D06DF91CF911F910F9108952F923F9205
:105930004F925F926F927F928F929F92AF92BF929F
:10594000CF92DF92EF92FF920F931F93CF93DF934B
:10595000CDB7DEB7C65ED1090FB6F894DEBF0FBE75
:10596000CDBF8091100A882341F08091110A8823CD
:1059700021F08091120A81111BC0CA51DF4F0FB66E
:10598000F894DEBF0FBECDBFDF91CF911F910F9175
:10599000FF90EF90DF90CF90BF90AF909F908F904F
:1059A0007F906F905F904F903F902F900C94901D40
:1059B00086E50E946A228823D1F00E945D2285300C
:1059C00070F0E2E0F6E08491882309F4B5C5909187
:1059D000C00095FFFCCF8093C6003196F4CFCF5224
:1059E000DF4F8883C15DD0401816A4F406C021E0C3
:1059F000CF52DF4F2883C15DD040E2EEF5E08491C5
:105A0000882341F09091C00095FFFCCF8093C600A1
:105A10003196F5CF80E50E946A228823B1F00E947A
:105A20005D229CEF980F9F3210F4382E10C0EEEBE1
:105A3000F5E08491882309F47FC59091C00095FF1B
:105A4000FCCF8093C6003196F4CFEAE03E2E8090E2
:105A5000260A9090270AA090280AB090290A409020
:105A60002A0A50902B0A60902C0A70902D0AC09040
:105A70002E0AD0902F0AE090300AF090310A85E487
:105A80000E946A22C052DF4F8883C05ED04088E502
:105A90000E946A22882321F10E942C22C753DF4FE3
:105AA000688379838A839B83C95CD04020E030E09F
:105AB000A9010F942C0087FD10C020E030E045E2E2
:105AC00053E4C753DF4F688179818A819B81C95C28
:105AD000D0400F942F02181694F48CEB95E039C047
