:100000000C945C250C9489250C9489250C948925E5
:100010000C9489250C9489250C9489250C948925A8
:100020000C9489250C9489250C9489250C94892598
:100030000C9489250D9439290C9489250C948925D3
:100040000C9489250C942BC00C9489250C9489253B
:100050000C9489250C9489250C942A760D9490256E
:100060000C9489250C949E960C9489250C948925D2
:100070000C9489250C9489250C9489250C94892548
:100080000C9489250C9489250C9489250C94892538
:100090000C9489250C9489250C9489250D94F41DC4
:1000A0000C9489250C9489250C9489250C94892518
:1000B0000C9489250C9489250C9489250C94892508
:1000C0000C9489250C9489250C9489250C948925F8
:1000D0000C9489250C9489250C9489250C948925E8
:1000E0000C948925084AD73B3BCE016E84BCBFFDEA
:1000F000C12F3D6C74319ABD56833DDA3D00C77FF8
:1001000011BED9E4BB4C3E916BAAAABE0000008090
:100110003F05A84CCDB2D44EB93836A9020C50B91F
:10012000918688083CA6AAAA2ABE000000803F004B
:1001300000000000000000000000007FFFE0000061
:10014000000000000000000000007000E00000005F
:10015000000000000000000000630C6000000000D0
:100160000000000000000000470E2000000000001A
:10017000000000000000004F0F2000000000000001
:100180000000000000005F0FA00000000000000061
:1001900000000000005E07A07F800000000000005B
:1001A00000410400406020FFC0000000000000008B
:1001B00020820040F020FFC000000000000000206E
:1001C000820040F020FFC000000000000000410459
:1001D000004060207F8000000000000000820800D6
:1001E0005E07A07F80000000000000010410005F97
:1001F0000FA0FFC0000000000000010410004F0F1E
:1002000020FFC000000000000000820800470E2010
:10021000FFC000000000000000410400630C603FCC
:1002200000000000000000000000007000E01E0060
:1002300000000000000001FFFF807FFFE00C0000D5
:10024000000000000001FFFF80000000000000002F
:1002500000000000000000007FFFE0000000000040
:10026000000000000000007000E00000000000003E
:1002700000000000000061F86000000000000000C5
:10028000000000000041F820000000000000000015
:100290000000000040F0200000000000000000000E
:1002A000000000406020000000000000000000008E
:1002B00000005801A07F8000000000000000410401
:1002C000005C63A0FFC0000000000000002082006E
:1002D0005EF7A0FFC0000000000000002082005E6A
:1002E000F7A0FFC0000000000000004104005C63B4
:1002F000A07F80000000000000008208005801A0DC
:100300007F8000000000000001041000406020FF1A
:10031000C00000000000000104100040F020FFC0F9
:100320000000000000000082080041F820FFC0002B
:1003300000000000000041040061F8603F00000080
:1003400000000000000000007000E01E000000003F
:1003500000000001FFFF807FFFE00C0000000000B4
:10036000000001FFFF8000000059002D2D3A2D2DC7
:1003700020202D2D2E2D250020202031303025004D
:10038000202000B02000B02000000000000000008D
:10039000000000000000000000000000000000005D
:1003A0000000000000000000000000000C00000041
:1003B000000000000C00000000000000120000001F
:1003C00000000000230000000000000021000000E9
:1003D000000000004C800000000000005E80000073
:1003E000000000009240000000000000A14000005A
:1003F0000000000121200000000000027F900000AA
:10040000000000020010000000000007FFF80000DC
:1004100000000004000800000000000800040000C4
:1004200000000008000600000000001000020000AC
:10043000000000301E010000000000207F8100004D
:1004400000000041FFE0800000000043FCF080005D
:10045000000000873B7840000000018EDBFC60005C
:100460000000010FEBCC20000000021FEDB61000D1
:100470000000021FDEB6100000000439CD7F080026
:1004800000000436E0FF08000000087EC0BB8400C6
:100490000000187F005D86000000107FC0ED820024
:1004A0000000203CC07301000000203B337F0100AE
:1004B0000000701BE77E03800000C81DEEDE04C054
:1004C0000000880FDEDC04400001240FDF3C09201F
:1004D00000012607DBF8192000027203E7F01390F1
:1004E00000025101FFE02290000489007F8024482F
:1004F000000904801E004824000BFE400000DFF4C9
:100500000010004000008002001FFFFFFFFFFFFE01
:1005100000000000000000000000000000000000DB
:100520000000000000000000001022103C3C0E1FE4
:1005300000102210042211040010221008221104BD
:1005400000102210083C1104001022101022110487
:100550000010221020221104001E1C1E3C3C0E0420
:10056000000000000000000000000000000000008B
:10057000000000000000000000000000000000007B
:10058000000000000000000000000000000000006B
:10059000000000000000000000000000000000005B
:1005A000000000000000000000000000000000004B
:1005B000000000000000000000000000000000003B
:1005C000000000000000004E6F2053442063617261
:1005D00064005072696E742066726F6D205344001F
:1005E00053746F70207072696E7400526573756D0C
:1005F00065207072696E7400506175736520707249
:10060000696E7400436F6E66696775726174696FB5
:100610006E0054656D7065726174757265004D6F22
:1006200076656D656E740054756E6500496E666F13
:100630002073637265656E005072696E7420667215
:100640006F6D205344005072696E742066726F6D36
:1006500020534400F92E2E004D61696E004D323456
:10066000004D3233202573005072696E7420616230
:100670006F7274656400526573746F726520746F75
:1006800020466163746F7279004C6F6164207365FA
:100690007474696E67730053617665207365747452
:1006A000696E677300416476616E6365642073658B
:1006B0007474696E6773004D61696E00457374658B
:1006C00070732F6D6D004573746570732F6D6D00C1
:1006D0005A73746570732F6D6D005A7374657073FF
:1006E0002F6D6D005973746570732F6D6D005973A4
:1006F000746570732F6D6D005873746570732F6D12
:100700006D005873746570732F6D6D00412D7265A7
:10071000747261637400412D726574726163740058
:10072000416D6178206500416D6178206500416D03
:100730006178207A00416D6178207A00416D61789E
:10074000207900416D6178207900416D61782078D1
:1007500000416D61782078005654726176206D6991
:100760006E005654726176206D696E00566D696E2A
:1007700000566D696E00566D6178206500566D619A
:1007800078206500566D6178207A00566D6178207A
:100790007A00566D6178207900566D617820790075
:1007A000566D6178207800566D6178207800566526
:1007B0002D6A65726B0056652D6A65726B00567AFC
:1007C0002D6A65726B00567A2D6A65726B005678D9
:1007D000792D6A65726B005678792D6A65726B00A7
:1007E000416363656C00416363656C005A204F662A
:1007F0006673657400436F6E6669677572617469CC
:100800006F6E005A204F6666736574007F80FFC06C
:10081000FFC0FFC07F807F80FFC0FFC0FFC03F00E0
:100820001E000C00FFFFFF001FE0003030004008FA
:1008300000800401800601000207C002038002015B
:100840000002000002000002000006000004000098
:1008500008003030001FE006000600060006000613
:100860000006003FC01F800F00060007F8000C0CB8
:10087000001002002001006001804000804003E081
:100880004001C040008040000040000060000020A7
:1008900000001000000C0C0007F80006000F001FFD
:1008A000803FC0060006000600060006000600069F
:1008B000000F001F803FC00600060006000600066D
:1008C00000060006000600060006000600060006F8
:1008D00000060006000600060006003FC01F800F4D
:1008E000000600436F6F6C646F776E0046616E2088
:1008F00073706565640046616E20737065656400A1
:1009000042656400426564004E6F7A7A6C65004E01
:100910006F7A7A6C65004D61696E004D6F76652067
:1009200061786973004D38340044697361626C65A5
:1009300020737465707065727300473238004175BA
:10094000746F20686F6D65004D61696E004D6F7644
:100950006520302E316D6D004D6F766520316D6DE7
:10096000004D6F76652031306D6D004D6F76656D91
:10097000656E74004578747275646572004D6F76AB
:1009800065205A004D6F76652059004D6F766520C1
:1009900058004D6F766520617869730045787472F0
:1009A00075646572005A00590058004D36303000A9
:1009B0004368616E67652066696C616D656E740081
:1009C0004170707278204C6179657200417070726C
:1009D00078204C617965720046616E2073706565A0
:1009E000640046616E20737065656400466C6F77C5
:1009F00000466C6F770042656400426564004E6F8C
:100A00007A7A6C65004E6F7A7A6C65005370656512
:100A100064005370656564004D61696E004C756CCF
:100A20007A426F742054415A20362072656164798D
:100A30002E004361726420696E7365727465640090
:100A40004D33303020533639382050323030004D5D
:100A500033303020533635392050323030000006E4
:100A60000900FE06018902FE20FFFE07FE06FE00C9
:100A70000000060007010606060200808080800054
:100A800080030303060103A0A0A00507070600FFDB
:100A90005050F850F850500509090600FE2070A883
:100AA000A07028A870200608080600FF40A848107B
:100AB000204854080507070600FF60909060989052
:100AC000680103030602038080800207070602FF15
:100AD000408080808080400207070602FF804040FF
:100AE000404040800505050600008850F850880504
:100AF00005050600002020F820200204040602FE5E
:100B0000C0404080050101060002F8020202060210
:100B100000C0C004060606010010102040808004BA
:100B2000060606010060909090906003060606019C
:100B30000040C0404040E0040606060100609010FE
:100B40002040F0040606060100F020601010E005C9
:100B5000060606000010305090F810040606060144
:100B600000F080E01010E00406060601006080E05E
:100B7000909060040606060100F01010204040042A
:100B8000060606010060906090906004060606016B
:100B900000609090701060020505060200C0C00061
:100BA000C0C00207070602FEC0C000C0404080056A
:100BB00005050600001860806018050303060001A3
:100BC000F800F8050505060000C0300830C004072D
:100BD0000706010060901060400040050606060010
:100BE000007090A8B08070050606060000205088AE
:100BF000F88888050606060000F088F08888F0046A
:100C000006060601006090808090600406060601DA
:100C100000E090909090E0040606060100F080E06D
:100C20008080F0040606060100F080E080808004E9
:100C30000606060100609080B0906004060606017A
:100C4000009090F0909090030606060100E040406E
:100C50004040E005060606000038101010906004C1
:100C6000060606010090A0C0A090900406060601AA
:100C7000008080808080F005060606000088D8A8E5
:100C8000A8888804060606010090D0B090909005D0
:100C9000060606000070888888887004060606012B
:100CA00000E09090E080800407070601FF609090CC
:100CB000D0B06010040606060100E09090E090902D
:100CC00004060606010060904020906005060606B6
:100CD0000000F82020202020040606060100909045
:100CE00090909060040606060100909090F060607D
:100CF0000506060600008888A8A8D8880506060606
:100D000000008850202050880506060600008888CC
:100D100050202020040606060100F010204080F03C
:100D2000030606060100E080808080E004060606D7
:100D30000100808040201010030606060100E0201C
:100D4000202020E005030306000320508805010150
:100D50000600FEF8020202060204804004040406B3
:100D60000100709090700406060601008080E090FB
:100D700090E00404040601007080807004060606FA
:100D8000010010107090907004040406010060B01F
:100D9000C070040606060100205040E040400406F2
:100DA000060601FE609090701060040606060100C1
:100DB0008080E09090900306060601004000C0404D
:100DC00040E00308080601FE200060202020A0402B
:100DD0000406060601008080A0C0A0900306060657
:100DE0000100C040404040E0050404060000D0A8D7
:100DF000A888040404060100E0909090040404060E
:100E00000100609090600406060601FEE09090E00C
:100E100080800406060601FE709090701010040495
:100E200004060100A0D0808004040406010070C004
:100E300030E00406060601004040E0405020040473
:100E40000406010090909070040404060100909044
:100E5000606005040406000088A8A8500404040685
:100E60000100906060900406060601FE909090706C
:100E70009060040404060100F02040F00307070618
:100E80000100204040804040200107070602FF800B
:100E9000808080808080030707060100804040201A
:100EA00040408004020206010350A0FFFFFFFFFF45
:100EB000FFFFFFFFFFFFFFFFFFFFFFFFFFFFFFFF42
:100EC000FFFFFFFFFFFFFFFFFFFFFFFF0000000628
:100ED000000701060606020080008080808004066C
:100EE000060601FF2070A0A070200507070600FF7E
:100EF000304840F04040F8050505060000A850883D
:100F000050A80506060600008850F820F8200107C2
:100F1000070602FF808080008080800407070601AA
:100F2000FF708060906010E0030101060105A006DB
:100F30000707060000788494A494847803050506C6
:100F4000010160A06000E00505050600002850A032
:100F50005028040303060100F010100401010601EB
:100F600002F00607070600007884B4A4A48478047D
:100F70000101060105F0040303060102609060050B
:100F800007070600FF2020F8202000F803050506CB
:100F9000010140A02040E0030505060101C02040FA
:100FA00020C002020206020440800405050601FF7B
:100FB0009090B0D08005060606000078E8E8682822
:100FC00028010101060202800202020602FE4080A0
:100FD00003050506010140C04040E0030505060188
:100FE0000140A04000E0050505060000A050285083
:100FF000A00508080600FF40C0405070307810057A
:1010000008080600FF40C04050680810380508086E
:101010000600FFC0204030F03078100407070601BA
:101020000020002060809060050707060000402037
:101030002050708888050707060000102020507097
:101040008888050707060000205020507088880512
:1010500007070600002850205070888805070706FB
:101060000000500020507088880507070600002007
:1010700050205070888805060606000078A0F0A071
:10108000A0B80408080601FE6090808090602040AF
:101090000407070601004020F080E080F004070705
:1010A0000601002040F080E080F004070706010000
:1010B0002050F080E080F00407070601005000F0A7
:1010C00080E080F00307070601008040E0404040D8
:1010D000E00307070601002040E0404040E003072E
:1010E0000706010040A0E0404040E003070706017A
:1010F00000A000E0404040E0050606060000704801
:10110000E848487004070706010050A090D0B0904E
:10111000900407070601004020609090906004074B
:1011200007060100204060909090600407070601C8
:10113000002050609090906004070706010050A0C6
:101140006090909060040707060100500060909046
:1011500090600505050600008850205088040808A6
:101160000601FF1070B0B0D0D0E080040707060180
:1011700000402090909090600407070601002040F6
:101180009090909060040707060100205090909086
:101190009060040707060100500090909090600551
:1011A00007070600001020885020202004060606AD
:1011B000010080E09090E080040606060100609047
:1011C000A0A090A0040707060100402000709090A6
:1011D000700407070601002040007090907004071B
:1011E0000706010020500070909070040707060168
:1011F0000050A00070909070040606060100500098
:1012000070909070040707060100205020709090A5
:101210007005040406000070A8B0780406060601F4
:10122000FE70808070204004070706010040200007
:1012300060B0C07004070706010020400060B0C025
:101240007004070706010020500060B0C07004065B
:1012500006060100500060B0C070030707060100D9
:10126000804000C04040E003070706010020400026
:10127000C04040E003070706010040A000C0404016
:10128000E0030606060100A000C04040E004070796
:10129000060100306010709090600407070601009E
:1012A00050A000E090909004070706010040200045
:1012B0006090906004070706010020400060909055
:1012C000600407070601002050006090906004074A
:1012D0000706010050A00060909060040606060119
:1012E000005000609090600505050600002000F8A1
:1012F000002004040406010070B0D0E004070706D3
:101300000100402000909090700407070601002023
:101310004000909090700407070601002050009054
:1013200090907004060606010050009090907004A2
:1013300009090601FE20400090909070906004081A
:10134000080601FE8080E09090E080800408080696
:1013500001FE500090909070906000060900FE071A
:101360000199032B20FFFE08FE07FE000000060087
:101370000001070706020080808080800080030350
:1013800003060104A0A0A00507070600005050F8BE
:1013900050F850500507070600002070A070287014
:1013A0002005070706000048A8502050A890050710
:1013B0000706000040A0A040A890680103030602B1
:1013C0000480808003070706010020408080804061
:1013D00020030707060100804020202040800505EB
:1013E000050600018850F850880505050600012013
:1013F00020F820200303030601FF6040800501015F
:10140000060003F80303030601FF40E04005070759
:10141000060000080810204080800507070600002D
:10142000205088888850200507070600002060A00B
:10143000202020F80507070600007088083040804B
:10144000F8050707060000F808103008887005073F
:101450000706000010305090F8101005070706002E
:1014600000F880B0C8088870050707060000304003
:1014700080B0C88870050707060000F80810102023
:10148000404005070706000070888870888870054E
:1014900007070600007088986808106003070706B1
:1014A00001FF40E0400040E0400307070601FF4025
:1014B000E0400060408004070706010010204080E3
:1014C000402010050303060002F800F80407070691
:1014D00001008040201020408005070706000070B2
:1014E000881020200020050707060000708898A8B3
:1014F000B0807005070706000020508888F88888AB
:10150000050707060000F04848704848F00507073F
:10151000060000708880808088700507070600003C
:10152000F04848484848F0050707060000F8808062
:10153000F08080F8050707060000F88080F08080C2
:10154000800507070600007088808098887005076E
:1015500007060000888888F888888803070706013E
:1015600000E04040404040E005070706000038101A
:1015700010101090600507070600008890A0C0A01A
:101580009088050707060000808080808080F8052D
:1015900007070600008888D8A888888805070706F6
:1015A00000008888C8A8988888050707060000708A
:1015B000888888888870050707060000F08888F00A
:1015C0008080800508080600FF7088888888A870D9
:1015D00008050707060000F08888F0A09088050736
:1015E00007060000708880700888700507070600ED
:1015F00000F820202020202005070706000088880A
:1016000088888888700507070600008888885050F9
:101610005020050707060000888888A8A8D88805F4
:1016200007070600008888502050888805070706AD
:10163000000088885020202020050707060000F8B9
:101640000810204080F8030707060100E080808032
:101650008080E00507070600008080402010080811
:10166000030707060100E02020202020E0050303F7
:101670000600042050880501010600FFF80202025E
:101680000602068040050505060000700878887887
:101690000507070600008080B0C888C8B0050505AA
:1016A000060000708880887005070706000008089B
:1016B00068988898680505050600007088F88070AD
:1016C000050707060000304840F040404005070786
:1016D0000600FE78888878088870050707060000ED
:1016E0008080B0C88888880307070601004000C0D2
:1016F000404040E00409090601FE100030101010BF
:1017000090906005070706000080808890E0908830
:10171000030707060100C04040404040E0050505C2
:10172000060000D0A8A8A888050505060000B0C8D6
:101730008888880505050600007088888870050778
:10174000070600FEB0C888C8B080800507070600FD
:10175000FE68988898680808050505060000B0C866
:1017600080808005050506000070807008F0050780
:10177000070600004040F0404048300505050600DF
:1017800000888888986805050506000088885050FC
:10179000200505050600008888A8A850050505064F
:1017A000000088502050880507070600FE888898AA
:1017B00068088870050505060000F8102040F80448
:1017C0000707060100304020C0204030010707060F
:1017D000020080808080808080040707060100C0AE
:1017E0002040304020C005030306000448A89000B4
:1017F00000000100000000000100000000000100E6
:1018000000000000010000000000010000000000D6
:1018100001000000000001000000000001000000C5
:1018200000000100000000000100000000000100B5
:1018300000000000010000000000010000000000A6
:101840000100000000000100000000000100000095
:101850000000010000000000010000000000010085
:101860000000000001000000000001000000000076
:101870000100000000000100000000000100000065
:101880000000010000000000010000000000010055
:101890000000000001000000000001000000000046
:1018A0000100000000000100000000000100000035
:1018B000000001000000000006000001070706020A
:1018C00000800080808080800507070600FF207868
:1018D000A0A0A07820050707060000304840E0409F
:1018E00048B0050505060000887050708805080896
:1018F0000600FF88885020F82020200107070602F4
:1019000000808080008080800508080600FF7080CD
:10191000E09048380870030101060107A005070799
:101920000600007088A8C8A8887004060606010191
:101930007090B05000F0060505060000244890485D
:1019400024040202060102F010040101060103F062
:101950000507070600007088E8C8C88870050101FF
:10196000060007F803030306010440A0400506062D
:101970000600002020F82020F80405050601036079
:10198000902040F0040505060103E0106010E0021D
:10199000020206020640800506060600FF888888C7
:1019A000C8B08005070706000078E8E868282828FE
:1019B000010101060203800202020602FE408003CA
:1019C000050506010340C04040E00406060601018B
:1019D0006090906000F006050506000090482448DD
:1019E000900609090600FF40C04040E40C143C0486
:1019F0000609090600FF40C04040E81404081C0521
:101A000009090600FFC0204020C8182878080507EB
:101A10000706000020002020408870050808060006
:101A2000004020708888F8888805080806000010A3
:101A300020708888F8888805080806000020507003
:101A40008888F8888805080806000048B0708888EB
:101A5000F888880508080600005000708888F88813
:101A6000880508080600002050708888F8888806D5
:101A700007070600003C50909CF0909C0509090661
:101A800000FE70888080808870204005080806006D
:101A90000040F88080F08080F805080806000010FB
:101AA000F88080F08080F805080806000020F880A3
:101AB00080F08080F805080806000050F88080F06B
:101AC0008080F80308080601008040E04040404064
:101AD000E00308080601002040E040404040E003E9
:101AE000080806010040A0E040404040E00308082C
:101AF000060100A000E040404040E0050707060066
:101B000000F04848E84848F005080806000028505A
:101B100088C8A898888805080806000040207088B2
:101B2000888888700508080600001020708888885A
:101B30008870050808060000205070888888887022
:101B400005080806000028507088888888700508F5
:101B50000806000050007088888888700505050612
:101B600000008850205088050707060000709898EC
:101B7000A8C8C87005080806000040208888888822
:101B800088700508080600001020888888888870FA
:101B9000050808060000205000888888887005081D
:101BA00008060000500088888888887005080806A4
:101BB000000010208888502020200507070600001C
:101BC00080F088F08080800507070600007088900C
:101BD000A09088B005080806000040200070087832
:101BE00088780508080600001020007008788878BA
:101BF000050808060000205000700878887805085D
:101C00000806000028500070087888780507070645
:101C10000000500070087888780508080600002049
:101C20005020700878887806050506000078147C36
:101C3000907C0507070600FE7088808870204005AC
:101C400008080600004020007088F8807005080829
:101C50000600001020007088F88070050808060053
:101C6000002050007088F8807005070706000050BB
:101C7000007088F88070030808060100804000C0EA
:101C8000404040E0030808060100408000C040409A
:101C900040E003080806010040A000C0404040E0CA
:101CA000060A0A0600FEA4A800FC8480808084FC4A
:101CB000060A0A0600FE549400FC8404040484FC12
:101CC000050808060000285000B0C8888888050864
:101CD000080600004020007088888870040A0A0600
:101CE00002FE30408090909090909090040A0A06F6
:101CF00000FEC020109090909090909006070706EC
:101D00000001448C8C8480403C0607070600018853
:101D1000C4C4840408F00505050600012000F8008D
:101D20002005080806000040F0C88888987810054B
:101D30000808060000E0F88888888888F805050506
:101D40000600012030F83020050808060000207049
:101D5000F820202020E00509090600FF2070A8A82F
:101D6000B8888850200509090600FFE080C0B0A8A7
:101D7000A83028280509090600FFF8A8888888885F
:101D800088A8F8050A0A0600FE205050505088A87E
:101D9000A8887043616E6E6F7420656E74657220E2
:101DA0007375626469723A20004D3234004D3233EB
:101DB000202573006175746F25692E670065727246
:101DC0006F722077726974696E6720746F2066691C
:101DD0006C65004E6F74205344207072696E746994
:101DE0006E67002F005344207072696E74696E67CD
:101DF000206279746520002E0044656C6574696FFB
:101E00006E206661696C65642C2046696C653A20B9
:101E10000046696C652064656C657465643A002EE3
:101E2000006F70656E206661696C65642C20466980
:101E30006C653A200057726974696E6720746F2070
:101E400066696C653A20002E006F70656E206661D1
:101E5000696C65642C2046696C653A20002E006F21
:101E600070656E206661696C65642C2046696C65DE
:101E70003A200046696C652073656C65637465641F
:101E8000002053697A653A200046696C65206F70BE
:101E9000656E65643A20002E006F70656E20666185
:101EA000696C65642C2046696C653A20004E6F773A
:101EB0002066726573682066696C653A20004E6F13
:101EC0007720646F696E672066696C653A2000222E
:101ED00020706F73002220706172656E743A220068
:101EE000535542524F5554494E452043414C4C2086
:101EF0007461726765743A2200747279696E672042
:101F0000746F2063616C6C207375622D67636F64FE
:101F1000652066696C6573207769746820746F6FDB
:101F2000206D616E79206C6576656C732E204D4155
:101F300058206C6576656C2069733A0053442063C1
:101F4000617264206F6B006F70656E526F6F7420EA
:101F50006661696C656400766F6C756D652E696E7F
:101F60006974206661696C656400534420696E6918
:101F700074206661696C004572723A204D41585474
:101F8000454D50204245440054656D706572617442
:101F9000757265206865617465642062656420738C
:101FA00077697463686564206F66662E204D4158BA
:101FB00054454D50207472696767657265642021CD
:101FC00021004572723A204D494E54454D50003A19
:101FD00020457874727564657220737769746368DC
:101FE0006564206F66662E204D494E54454D502045
:101FF0007472696767657265642021004572723A80
:10200000204D415854454D50003A20457874727522
:10201000646572207377697463686564206F6666AF
:102020002E204D415854454D5020747269676765A4
:10203000726564202100544845524D414C20455260
:10204000524F522042454400544845524D414C2085
:102050004552524F5220453100546865726D616C93
:10206000204572726F722C2073797374656D2073C2
:10207000746F7070656421204865617465725F4992
:10208000443A2000202D20496E76616C69642065F9
:1020900078747275646572206E756D626572202148
:1020A000001000C90210012C01400122017001182A
:1020B00001B0010E01F00104015002FA00B002F07B
:1020C000003003E600D003DC009004D2007005C8A5
:1020D00000A006BE000008B400B009AA00D00BA002
:1020E00000600E960060118C0000158200201978A7
:1020F00000C01D6E00A0226400B0275A00902C5032
:102100000000314600E0343C0010383200903A289C
:1021100000603C1E00A03D1400803E0A00203F00ED
:10212000001000AD0330016A0150022B0170030A58
:10213000019004F500B005E500D006D800F007CE08
:10214000001009C500300ABE00500BB700700CB17A
:1021500000900DAB00B00EA600D00FA200F0109DB5
:102160000010129900301395005014920070158ED3
:102170000090168B00B0178700D0188400F01981EA
:1021800000101B7E00301C7B00501D7900701E76F5
:1021900000901F7300B0207000D0216E00F0226B01
:1021A0000010246900302566005026630070276106
:1021B0000090285E00B0295C00D02A5900F02B5610
:1021C00000102D5400302E5100502F4E0070304B17
:1021D0000090314800B0324500D0334200F0343E28
:1021E0000010363B00303737005038330070392E3E
:1021F00000903A2900B03B2300D03C1B00F03D1179
:1022000000103F0100F03F000048656174696E678F
:10221000206661696C656400504944204175746FA3
:1022200074756E652066696E6973686564212050F7
:10223000757420746865206C617374204B702C2059
:102240004B6920616E64204B6420636F6E73746110
:102250006E74732066726F6D2061626F766520699F
:102260006E746F20436F6E66696775726174696F13
:102270006E2E6800504944204175746F74756E6508
:10228000206661696C6564212074696D656F757481
:102290000020403A006F6B20543A006F6B20423AA6
:1022A00000504944204175746F74756E65206661F5
:1022B000696C6564212054656D7065726174757216
:1022C0006520746F6F206869676800204B643A204E
:1022D00000204B693A2000204B703A200020436CCC
:1022E00061737369632050494420002054753A207B
:1022F00000204B753A2000206D61783A2000206D57
:10230000696E3A200020643A200020626961733AC5
:10231000200000002110422063308440A550C66098
:10232000E770088129914AA16BB18CC1ADD1CEE192
:10233000EFF13112100273325222B5529442F77209
:10234000D662399318837BB35AA3BDD39CC3FFF3E2
:10235000DEE36224433420040114E664C774A44419
:1023600085546AA54BB528850995EEE5CFF5ACC532
:102370008DD55336722611163006D776F6669556E9
:10238000B4465BB77AA719973887DFF7FEE79DD782
:10239000BCC7C448E5588668A77840086118022879
:1023A0002338CCC9EDD98EE9AFF9488969990AA9D2
:1023B0002BB9F55AD44AB77A966A711A500A333A49
:1023C000122AFDDBDCCBBFFB9EEB799B588B3BBB22
:1023D0001AABA66C877CE44CC55C222C033C600CD9
:1023E000411CAEED8FFDECCDCDDD2AAD0BBD688D72
:1023F000499D977EB66ED55EF44E133E322E511E29
:10240000700E9FFFBEEFDDDFFCCF1BBF3AAF599FC1
:10241000788F8891A981CAB1EBA10CD12DC14EF161
:102420006FE18010A100C230E320045025404670C7
:102430006760B9839893FBA3DAB33DC31CD37FE3F2
:102440005EF3B1029012F322D23235421452776217
:102450005672EAB5CBA5A89589856EF54FE52CD5C2
:102460000DC5E234C324A014810466744764245467
:102470000544DBA7FAB79987B8975FE77EF71DC7D2
:102480003CD7D326F2369106B016576676761546B7
:1024900034564CD96DC90EF92FE9C899E9898AB922
:1024A000ABA94458654806782768C018E108823807
:1024B000A3287DCB5CDB3FEB1EFBF98BD89BBBAB32
:1024C0009ABB754A545A376A167AF10AD01AB32A57
:1024D000923A2EFD0FED6CDD4DCDAABD8BADE89D82
:1024E000C98D267C076C645C454CA23C832CE01CA7
:1024F000C10C1FEF3EFF5DCF7CDF9BAFBABFD98F12
:10250000F89F176E367E554E745E932EB23ED10EF6
:10251000F01E7C3C3E5E2B3D3F2F5B5D3B2C2A2218
:102520005C0020746F6F206C6F6E6720657874722A
:102530007573696F6E2070726576656E7465640080
:1025400020636F6C6420657874727573696F6E2098
:1025500070726576656E7465640045313A20004599
:10256000303A20005A3A2000593A2000583A2000C8
:102570004D53312C4D53322050696E730A0024F4B0
:1025800004D9201BC40C5C0E9804C4095F026507C3
:102590007101F405F900FB04B30048048700C1038E
:1025A00069005803550003034500BE023A00840247
:1025B000310053022A002902250004022000E40110
:1025C0001C00C8011900AF01170098011400840114
:1025D0001300710110006101100051010E00430150
:1025E0000D0036010B002B010B0020010B00150123
:1025F00009000C01090003010800FB000800F300BA
:102600000800EB000700E4000600DE000600D8002A
:102610000600D2000600CC000500C7000500C2007D
:102620000500BD000400B9000400B5000400B100BD
:102630000400AD000400A9000400A5000300A200EE
:1026400003009F0004009B00030098000300950016
:10265000020093000300900003008D0002008B0035
:10266000030088000200860002008400030081004D
:1026700002007F0002007D0002007B000200790062
:102680000200770001007600020074000200720070
:102690000100710002006F0002006D0001006C007B
:1026A00002006A0001006900020067000100660084
:1026B0000100650001006400020062000100610089
:1026C0000100600001005F0002005D0001005C008D
:1026D00001005B0001005A00010059000100580090
:1026E0000100570001005600010055000100540090
:1026F000010053000000530001005200010051008E
:102700000100500001004F0001004E0000004E008B
:1027100001004D0001004C0001004B0000004B0087
:1027200001004A0001004900010048000000480083
:10273000010047000100460000004600010045007E
:102740000000450001004400010043000000430078
:102750000100420000004200010041000000410071
:102760000100400001003F0000003F0001003E006A
:1027700000003E0001003D0000003D0001003C0063
:1027800000003C0000003C0001003B0000003B005A
:1027900001003A0000003A00010039000000390051
:1027A0000100380000003800000038000100370048
:1027B000000037000100360000003600000036003F
:1027C0000100350000003500000035000100340034
:1027D000000034000000340001003300000033002A
:1027E000000033000100320000003200000032001F
:1027F0000100310000003100000031000100300014
:10280000000030000000300001002F0000002F0009
:1028100000002F0000002F0001002E0000002E00FD
:1028200000002E0001002D0000002D0000002D00F2
:1028300000002D0001002C0000002C0000002C00E6
:1028400000002C0001002B0000002B0000002B00DA
:1028500000002B0001002A0000002A0000002A00CE
:1028600000002A00010029000000290000002900C2
:1028700000002900000029000100280000002800B5
:1028800000002800000028000000280001002700A8
:10289000000027000000270000002700000027009C
:1028A000010026000000260000002600000026008F
:1028B0000000260001002500000025000000250082
:1028C0000000250000002500000025000100240074
:1028D0000000240000002400000024000000240068
:1028E000010023000000230000002300000023005B
:1028F000000023000000230000002300010022004C
:10290000000022000000220000002200000022003F
:102910000000220001002100000021000000210031
:102920000000210000002100000021000000210023
:102930000100200000002000000020000000200016
:102940000000200000002000000020000000200007
:1029500001001F0000001F0000001F0000001F00FA
:1029600000001F0000001F0000001F0001001E00EB
:1029700000001E0000001E0000001E00000024F4E5
:10298000D43050C38E20C2A24017828B7011127AAD
:10299000910D816CD90AA861E108C7586607615199
:1029A00043061E4B5D05C145A7041A411104093DAC
:1029B0009803713931034036DB0265339102D4301C
:1029C0005402802E1D02632CEE01752AC501B02829
:1029D000A001102781018F2564012B244B01E022E7
:1029E0003401AC211F018D200D01801FFC00841ECD
:1029F000ED00971DDF00B81CD200E61BC600201BAF
:102A0000BC00641AB200B219A8000A19A0006A1822
:102A10009900D117910040178B00B516840031162C
:102A20007E00B31579003A157300C7146F0058146F
:102A30006A00EE1366008813630025135E00C71258
:102A40005B006C12570015125400C1115100701137
:102A50004F0021114B00D61049008D104700461041
:102A6000440002104200C00F4000800F3E00420FA1
:102A70003C00060F3B00CB0E3800930E37005C0E77
:102A80003500270E3400F30D3200C10D3100900DDA
:102A90003000600D2E00320D2D00050D2C00D90CDC
:102AA0002B00AE0C2900850C29005C0C2700350C8E
:102AB00027000E0C2600E80B2400C40B2400A00BFA
:102AC00023007D0B23005A0B2100390B2100180B2A
:102AD0002000F80A1F00D90A1E00BB0A1E009D0A2A
:102AE0001D00800A1D00630A1C00470A1B002C0AF7
:102AF0001B00110A1A00F7091A00DD091900C409A0
:102B00001900AB091900920917007B091800630925
:102B100017004C09160036091600200916000A098C
:102B20001500F5081500E0081400CC081400B808DA
:102B30001400A4081400900813007D0812006B080C
:102B40001300580812004608120034081100230828
:102B500011001208110001081100F0071000E00731
:102B60001000D0071000C0071000B0070F00A10729
:102B7000100091070E0083070F0074070F00650710
:102B80000E0057070E0049070E003B070D002E07E9
:102B90000E0020070D0013070D0006070D00F906B3
:102BA0000C00ED060D00E0060C00D4060C00C80673
:102BB0000C00BC060C00B0060C00A4060B00990625
:102BC0000C008D060B0082060B0077060B006C06CE
:102BD0000B0061060A0057060B004C060A0042066D
:102BE0000A0038060A002E060A0024060A001A0601
:102BF0000A001006090007060A00FD050900F40591
:102C00000900EB050900E2050900D9050900D00516
:102C10000900C7050900BE050900B5050800AD0596
:102C20000800A50509009C050800940508008C050E
:102C30000800840508007C050800740508006C0580
:102C40000700650508005D050700560508004E05EC
:102C50000700470507004005080038050700310553
:102C600007002A050700230507001C0506001605B6
:102C700007000F0507000805060002050700FB0412
:102C80000600F5040700EE040600E8040600E2046E
:102C90000700DB040600D5040600CF040600C904C3
:102CA0000600C3040600BD040600B7040600B10414
:102CB0000500AC040600A6040600A00405009B0461
:102CC000060095040500900406008A0405008504AA
:102CD0000500800406007A040500750405007004F0
:102CE00005006B04050066040500610405005C0432
:102CF000050057040500520405004D040500480472
:102D00000500430405003E0404003A0405003504B0
:102D10000500300404002C040500270404002304EB
:102D200005001E0404001A04040016040500110422
:102D300004000D0404000904050004040400000458
:102D40000400FC030400F8030400F4030400F0038F
:102D50000400EC030400E8030400E4030400E003BF
:102D60000400DC030400D8030400D4030400D003EF
:102D70000400CC030400C8030300C5030300656E10
:102D80006473746F7073206869743A205A00205A13
:102D90003A00656E6473746F7073206869743A20CA
:102DA000590020593A00656E6473746F707320681F
:102DB00069743A20580020583A00656E6473746F45
:102DC0007073206869743A20004572726F723A001D
:102DD0006563686F3A0053544F505045442E2000AD
:102DE0005072696E7465722073746F7070656420C0
:102DF00064756520746F206572726F72732E204641
:102E0000697820746865206572726F7220616E64E3
:102E100020757365204D39393920746F20726573C0
:102E2000746172742E202854656D706572617475BA
:102E300072652069732072657365742E2053657402
:102E400020697420616674657220726573746172A2
:102E500074696E6729004B494C4C45442E20005044
:102E600072696E7465722068616C7465642E206B83
:102E7000696C6C28292063616C6C65642100FF011A
:102E8000FF6F6B00526573656E643A200022005537
:102E90006E6B6E6F776E20636F6D6D616E643A203E
:102EA0002200446179647265616D696E672E2E2E11
:102EB00000507265737320746F20726573756D6551
:102EC000005A204F6666736574203A20007A5F6D61
:102ED00061783A20007A5F6D696E3A20005A204F7F
:102EE0006666736574005A204F6666736574206F5A
:102EF0006B006C636420636F6E7472617374207610
:102F0000616C75653A20007A5F6D61783A20007ACD
:102F10005F70726F62653A20007A5F6D696E3A2069
:102F200000795F6D61783A2000795F6D696E3A20B3
:102F300000785F6D61783A2000785F6D696E3A20A5
:102F400000204170707278204C617965723A0020DF
:102F50005A3A0020593A0020436F756E7420583A4F
:102F6000200020453A00205A3A0020593A00583AA9
:102F7000004649524D574152455F4E414D453A4DED
:102F800061726C696E20312E302E322E3230204C20
:102F9000756C7A426F7420534F555243455F434FCF
:102FA00044455F55524C3A68747470733A2F2F63DE
:102FB0006F64652E616C6570686F626A65637473B7
:102FC0002E636F6D2F646966667573696F6E2F4D22
:102FD00041524C494E2F2050524F544F434F4C5F5B
:102FE00056455253494F4E3A312E30204D414348B9
:102FF000494E455F545950453A4C756C7A426F744E
:103000002054415A20362045585452554445525F69
:10301000434F554E543A3120555549443A3834358A
:1030200066303033632D616562642D346535332D30
:10303000613662392D37643039383466646536302C
:10304000390A004C756C7A426F742054415A20360C
:10305000204F66662E004C756C7A426F7420544186
:103060005A20362072656164792E004265642043DF
:103070006F6F6C696E6720646F6E652E00426564C9
:103080002048656174696E6720646F6E652E00204C
:10309000573A0020423A0020453A00543A0042652F
:1030A0006420436F6F6C696E672E2E2E004265643C
:1030B0002048656174696E672E2E2E00436F6F6C19
:1030C000696E6720646F6E652E0048656174696E75
:1030D0006720646F6E652E0020573A0020453A0045
:1030E000543A00436F6F6C696E672E2E2E00486550
:1030F0006174696E672E2E2E002042403A002040F7
:103100003A00202F003A00205400202F0020423A9D
:1031100000202F006F6B20543A000A0A005374619C
:103120006E6461726420446576696174696F6E3A99
:1031300020000A004D65616E3A20000A0020202020
:103140007A3A200000793A2000783A20003F537004
:1031500065636966696564206E756D626572206F6E
:1031600066206C65677320696E206D6F76656D658E
:103170006E74206E6F7420706C61757361626C6523
:103180002E0A003F537065636966696564205920A3
:10319000706F736974696F6E206F7574206F66202D
:1031A00072616E67652E0A003F53706563696669D8
:1031B0006564205820706F736974696F6E206F7535
:1031C00074206F662072616E67652E0A003F53702F
:1031D000656369666965642073616D706C652073F1
:1031E000697A65206E6F7420706C61757361626CB2
:1031F000652E0A0046756C6C20737570706F727462
:103200002061743A20687474703A2F2F336470729E
:10321000696E74626F6172642E636F6D2F666F7278
:10322000756D2E7068700A004D3438205A2D50721A
:103230006F6265205265706561746162696C697462
:103240007920746573742E20202056657273696F1F
:103250006E20322E30300A003F566572626F736501
:10326000204C6576656C206E6F7420706C61757390
:1032700061626C652E0A002569206D696E2C20251F
:10328000692073656300456E642066696C65206C17
:1032900069737400426567696E2066696C65206CAD
:1032A000697374004E6F206D6F76652E004C756CDF
:1032B0007A426F742054415A2036207265616479D5
:1032C0002E00526573756D696E67207072696E7439
:1032D000005761697420666F7220757365722E2EB7
:1032E0002E000A00205A3A200020593A2000205887
:1032F0003A20004265640050726F62696E67206414
:103300006F6E65210020643A200020623A2000455B
:10331000716E20636F656666696369656E74733A82
:1033200020613A200050524F4245204641494C20EE
:10333000434C45414E204E4F5A5A4C450050524F37
:103340004245204641494C20434C45414E204E4F7A
:103350005A5A4C45004175746F206C6576656C69EE
:103360006E6700486F6D6520582F59206265666F43
:103370007265205A00486F6D6520582F592062658C
:10338000666F7265205A005A2070726F6265206FF6
:1033900075742E20626564005A2070726F62652019
:1033A0006F75742E2062656400486F6D6520582F1C
:1033B00059206265666F7265205A00486F6D6520FE
:1033C000582F59206265666F7265205A0020643A52
:1033D000200020623A200045716E20636F656666AA
:1033E000696369656E74733A20613A2000446179BB
:1033F000647265616D696E672E2E2E000000A04319
:103400000080A143000087430000A0400000A040CE
:10341000000000400000A0C10080974300000000B1
:103420000000A0C10000A0C1000000000000964301
:1034300000809743000087430A00207A3A2000204A
:10344000793A200020783A2000426564005265777E
:103450006970696E67005265776970696E670025EB
:103460006920686F757273202569206D696E7574A7
:10347000657300446F6E65207072696E74696E6763
:103480002066696C65004C756C7A426F74205441FB
:103490005A20362072656164792E0053544F505083
:1034A00045442E20005072696E7465722073746FEB
:1034B000707065642064756520746F206572726F2A
:1034C00072732E2046697820746865206572726F69
:1034D0007220616E6420757365204D39393920740E
:1034E0006F20726573746172742E202854656D703C
:1034F0006572617475726520697320726573657495
:103500002E20536574206974206166746572207280
:10351000657374617274696E6729004E6F204C691F
:103520006E65204E756D62657220776974682063E0
:103530006865636B73756D2C204C617374204C69E6
:103540006E653A20004E6F20436865636B73756D3E
:103550002077697468206C696E65206E756D626590
:10356000722C204C617374204C696E653A200063A4
:103570006865636B73756D206D69736D61746368E5
:103580002C204C617374204C696E653A20004C69A4
:103590006E65204E756D626572206973206E6F7462
:1035A000204C617374204C696E65204E756D6265A8
:1035B000722B312C204C617374204C696E653A205B
:1035C000004D31313000446F6E6520736176696E55
:1035D000672066696C652E006F6B004D32390020E4
:1035E00020506C616E6E65724275666665724279D6
:1035F0007465733A20002046726565204D656D6FD5
:1036000072793A20004175672020392032303136F6
:1036100000436F6D70696C65643A2000286E6F6EB0
:10362000652C2064656661756C7420636F6E6669D5
:10363000672900207C20417574686F723A20004130
:10364000756720203920323031362030393A303019
:103650003A323600204C6173742055706461746591
:10366000643A2000312E302E322E3230004D6172FD
:103670006C696E0020536F667477617265205265C5
:1036800073657400205761746368646F67205265C6
:10369000736574002042726F776E206F75742052CC
:1036A00065736574002045787465726E616C205294
:1036B0006573657400506F7765725570007374613F
:1036C0007274002200656E717565696E6720220054
:1036D0002200656E717565696E672022004861720F
:1036E00064636F6465642044656661756C7420531F
:1036F000657474696E6773204C6F61646564005310
:10370000746F7265642073657474696E6773207278
:1037100065747269657665640020643A20002062F1
:103720003A2000613A200045716E20636F6566663D
:10373000696369656E74733A002044002049002073
:1037400020204D333031205000504944207365749F
:1037500074696E67733A00205A0020590020204D8A
:10376000323036205800486F6D65206F666673658D
:103770007420286D6D293A00204500205A002058F9
:103780000020420020540020204D323035205300CC
:10379000416476616E636564207661726961626C12
:1037A00065733A20533D4D696E20666565647261AC
:1037B000746520286D6D2F73292C20543D4D696E42
:1037C0002074726176656C206665656472617465EB
:1037D00020286D6D2F73292C20423D6D696E696D17
:1037E000756D207365676D656E742074696D6520F5
:1037F000286D73292C20583D6D6178696D756D2099
:103800005859206A65726B20286D6D2F73292C2002
:10381000205A3D6D6178696D756D205A206A657218
:103820006B20286D6D2F73292C2020453D6D61780C
:10383000696D756D2045206A65726B20286D6D2F4E
:1038400073290020540020204D3230342053004191
:103850006363656C65726174696F6E3A20533D6194
:103860006363656C65726174696F6E2C20543D7280
:1038700065747261637420616363656C6572617401
:10388000696F6E00204500205A0020590020204D0D
:103890003230312058004D6178696D756D2041637B
:1038A00063656C65726174696F6E20286D6D2F732E
:1038B00032293A00204500205A0020590020204D8E
:1038C0003230332058004D6178696D756D20666522
:1038D0006564726174657320286D6D2F73293A00D9
:1038E000204500205A0020590020204D3932205810
:1038F0000053746570732070657220756E69743A38
:103900000053657474696E67732053746F726564D5
:10391000000A0020000A00207A3A200020793A208C
:103920000020783A200001050800FF060121023539
:1039300020FFFF07FF06FF090050221656808080F7
:10394000800080153353A0A0A00257575050F85064
:10395000F850500257572070A0702870201335552A
:1039600080A040A02002475740A0A040A0A0502522
:10397000135380808012265640808080804012261B
:10398000568040404040800245559060F060900273
:1039900055552020F82020113353604080044151B8
:1039A000F011335340E04002465610102040808012
:1039B00012365640A0A0A0A04012365640C040404B
:1039C00040E00246566090106080F0024656F020BB
:1039D000601090600246562060A0F02020024656FB
:1039E000F080E01090600246566080E090906002A7
:1039F0004656F0102020404002465660906090905D
:103A000060024656609090701060122555C0C0004C
:103A1000C0C01136566060006040801236562040AB
:103A200080804020034353F000F01236568040203F
:103A300020408012365640A02040004001585830A7
:103A40004898A8A8904030024656609090F0909018
:103A5000024656E090E09090E002465660908080EA
:103A60009060024656E090909090E0024656F080BA
:103A7000E08080F0024656F080E08080800246566A
:103A8000609080B090600246569090F090909012B6
:103A90003656E040404040E002465670202020A0CC
:103AA0004002465690A0C0A0A0900246568080805A
:103AB0008080F002465690F0F0909090024656902A
:103AC000D0F0B0B090024656609090909060024660
:103AD00056E09090E08080014757609090D0B060B1
:103AE00010024656E09090E090900246566090405A
:103AF000209060123656E0404040404002465690CA
:103B0000909090906002465690909090606002462F
:103B100056909090F0F09002465690906060909091
:103B2000025656888850202020024656F010204029
:103B300080F0123656E080808080E0024656808019
:103B400040201010123656E020202020E01632527D
:103B500040A0014151F0162252804002445470901E
:103B600090700246568080E09090E012345460805D
:103B7000806002465610107090907002445460B0FD
:103B8000C060024656205040E040400145556090DC
:103B90007010600246568080E09090901236564039
:103BA00000C04040E01137572000202020A04002F4
:103BB0004656808090E09090123656C0404040407B
:103BC000E0025454D0A8A8A8024454E09090900277
:103BD000445460909060014555E090E0808001453C
:103BE000557090701010024454A0D080801234544C
:103BF00060C020C00246564040E04050200244547D
:103C000090909070123454A0A0A04002545488A800
:103C1000A850024454906060900145559090709077
:103C200060024454F02040F0024757304020C0204A
:103C30004030221656808080808080024757C02006
:103C400040304020C006425250A0FFFFFFFFFFFF60
:103C5000FFFFFFFFFFFFFFFFFFFFFFFFFFFFFFFF74
:103C6000FFFFFFFFFFFFFFFFFFFFFF0900502216CE
:103C7000568000808080800146562070A0A0702071
:103C80000246562050E04050A002555588705070B2
:103C9000880256568850F820F820221757808080D6
:103CA000008080800247577080E0907010E01731EC
:103CB00051A002565670A8C8C8A87014355560A007
:103CC0006000E003435350A050123353E02020140F
:103CD0003151E002565670E8D8E8D870173151E0FB
:103CE00015335340A04012355540E04000E01435F4
:103CF0005540A02040E0143555C020C020C01622F9
:103D0000524080014555909090E08002565678E8E8
:103D1000E86828282411518011225240801435551A
:103D200040C04040E014355540A04000E0034353FC
:103D3000A050A0024757808080A060F02002475723
:103D40008080A0D010207002475780408060A0F093
:103D50002012365640004080A04002475740206065
:103D600090F0909002475720406090F0909002476A
:103D70005760906090F0909002475750A06090F08C
:103D8000909002475790006090F0909002475760E3
:103D9000906090F0909002465670A0A0F0A0B00104
:103DA0004757609080809060400247574020F080E5
:103DB000E080F00247572040F080E080F002475753
:103DC0006090F080E080F00247579000F080E08043
:103DD000F01237578040E0404040E0123757204013
:103DE000E0404040E012375740A0E0404040E01241
:103DF0003757A000E0404040E00256567048E8487F
:103E0000487002475750A090D0B09090024757405A
:103E100020609090906002475720406090909060A2
:103E20000247576090609090906002475750A060A2
:103E3000909090600247579000609090906012338D
:103E400053A040A002465670B0B0D0D0E002475711
:103E50004020909090906002475720409090909022
:103E60006002475760909090909060024757900092
:103E70009090909060025757102088502020200288
:103E8000465680E09090E0800246566090A0A09058
:103E9000A002475740200070909070024757204082
:103EA0000070909070024757205000709090700200
:103EB000475750A000709090700246565000709086
:103EC000907002475760906070909070025454F068
:103ED00068B07811355560808060400247574020B7
:103EE0000060B0C06002475720400060B0C0600270
:103EF000475760900060B0C060024656500060B006
:103F0000C060123757804000C04040E01237572051
:103F10004000C04040E012375740A000C04040E0A1
:103F2000123656A000C04040E0024757A040A01003
:103F300070906002475750A000E090909002475761
:103F400040200060909060024757204000609090B1
:103F5000600247576090006090906002475750A001
:103F6000006090906002465690006090906012351C
:103F7000554000E0004002445470B0D0E002475782
:103F80004020009090907002475720400090909001
:103F900070024757609000909090700246569000D3
:103FA000909090700148582040009090709060016F
:103FB00047578080E090E0808001475790009090C4
:103FC00070906001070E00FE0A018A031E20FFFEAA
:103FD0000CFE0BFE0E0070321A7A8080808080808A
:103FE00080008080293474A0A0A0A0125A7A50507A
:103FF00050F85050F8505050016B7B10789494500A
:10400000381494947810026A7A6494987010203866
:1040100064A498026A7A3048484830649488986466
:1040200039147480808080204D7D10204040808035
:1040300080808040402010104D7D80402020101056
:104040001010102020408013577720A8702070A8EF
:1040500020135777202020F8202020202474C040EF
:104060004080165171F821337340E040006D7D04AB
:10407000040808101010202040408080026A7A3026
:10408000488484848484844830125A7A2060A02032
:104090002020202020F8026A7A78848404080810FE
:1040A0002040FC026A7AFC040810380404848478F6
:1040B000026A7A08182828484888FC0808026A7AA0
:1040C000FC8080F8840404848478026A7A38408012
:1040D00080B8C484848478026A7AFC0408081010CA
:1040E00020204040026A7A7884844830488484845E
:1040F00078026A7A788484848C7404848870223884
:104100007840E040000040E040212878C0C0000036
:10411000C04040801259790810204080402010088B
:10412000056474FC0000FC125979804020100810CE
:10413000204080026A7A78848408101010001010E1
:10414000026A7A38449CA4A4A4A49C403C026A7AE3
:104150003048848484FC84848484026A7AF088846D
:1041600088F088848488F0026A7A788484808080E9
:1041700080848478026A7AF0888484848484848841
:10418000F0026A7AFC808080F080808080FC026A85
:104190007AFC808080F08080808080026A7A7884D7
:1041A0008480809C84848C74026A7A84848484FCF5
:1041B0008484848484125A7AF820202020202020AD
:1041C00020F8026A7A1C0808080808088888700223
:1041D0006A7A848890A0C0A090888484026A7A80D9
:1041E0008080808080808080FC026A7A84CCCCB41D
:1041F000B48484848484026A7A8484C4C4A4948C3D
:104200008C8484026A7A7884848484848484847824
:10421000026A7AF884848484F880808080006C7CD0
:10422000788484848484E4948C780804026A7AF81C
:1042300084848484F890888484026A7A7884848070
:10424000601804848478027A7AFE1010101010101E
:10425000101010026A7A848484848484848484782C
:10426000026A7A84848484484848303030125A7A0A
:10427000888888888888A8A8A850026A7A84844890
:1042800048303048488484125A7A888888505020B0
:1042900020202020026A7AFC040810102040408070
:1042A000FC204D7DF08080808080808080808080B8
:1042B000F0006D7D80804040202020101008080410
:1042C00004104D7DF0101010101010101010101070
:1042D000F00A6373304884006171FC2A33738040B4
:1042E000200267777884047C84847C026A7A8080E8
:1042F00080B8C4848484C4B802677778848080805E
:104300008478026A7A040404748C8484848C740231
:104310006777788484FC808478026A7A1824202065
:10432000F82020202020006979748888887040B89F
:104330008478026A7A808080B8C4848484848412F9
:104340005A7A202000602020202020F8105C7C0871
:104350000800180808080808888870026A7A8080AF
:10436000808890A0E0908884125A7A6020202020D3
:1043700020202020F8125777D0A8A8A8A8A8880243
:104380006777B8C48484848484026777788484845B
:10439000848478006979B8C4848484C4B880800037
:1043A0006979748C8484848C740404026777B8C43B
:1043B0008480808080026777788440300884780227
:1043C0006A7A202020F82020202024180267778491
:1043D000848484848C741257778888885050202075
:1043E0001257778888A8A8A8A850026777848448BD
:1043F00030488484006979848484848C740484784B
:10440000026777FC0810202040FC204D7D304040A2
:1044100040404080404040404030301D7D808080A2
:1044200080808080808080808080104D7DC02020B2
:10443000202020102020202020C009647440A49453
:1044400008FFFFFFFFFFFFFFFFFFFFFFFFFFFFFF73
:10445000FFFFFFFFFFFFFFFFFFFFFFFFFFFFFFFF6C
:10446000FFFF0E0070321A7A80800080808080808A
:1044700080800169792078A4A0A0A0A47820125996
:104480007930484040F04040F048046676847848EF
:10449000487884125A7A88505020F820F82020203A
:1044A000321A7A80808080000080808080026B7B5E
:1044B00078844030488448300884781B4272909059
:1044C000026B7B7884B4CCC4C4C4CCB48478155853
:1044D0007870887888986800F8026777142850A068
:1044E000502814125474F8080808164171F0026B31
:1044F0007B7884F4CCCCF4CCCCCC84781B5171F890
:10450000194474609090601256762020F82020F8AC
:10451000164777609010204080F016477760901023
:10452000601090602A337320408010587888888803
:1045300088D8A88080105C7C78A8A8A8A8682828BB
:10454000282828383711718020237340408026376F
:104550007740C040404040E0164676609090600052
:10456000F0026777A05028142850A0026A7A40C44D
:10457000484850242C549C84026A7A40C4484850CD
:10458000283444889C026A7AC4244830D0244C548D
:104590009C04006B7B202000202020204084847815
:1045A000026C7C20100030488484FC848484840263
:1045B0006C7C10200030488484FC84848484026CE9
:1045C0007C30480030488484FC84848484026C7C81
:1045D00064980030488484FC84848484026B7B4823
:1045E0000030488484FC84848484026B7B304830AF
:1045F000488484FC84848484026A7A3C509090FCD1
:10460000909090909C006C7C7884848080808084E2
:1046100084781020026C7C201000FC808080F88060
:104620008080FC026C7C102000FC808080F8808000
:1046300080FC026C7C304800FC808080F8808080A8
:10464000FC026B7B4800FC808080F8808080FC123C
:104650005C7C402000F820202020202020F8125CE4
:104660007C102000F820202020202020F8125C7CE4
:10467000205000F820202020202020F8125B7B50C2
:1046800000F820202020202020F8027A7A78444266
:1046900042F24242424478026C7C649800C4C4A452
:1046A000A49494948C8C026C7C2010007884848474
:1046B0008484848478026C7C1020007884848484D0
:1046C00084848478026C7C30480078848484848478
:1046D000848478026C7C64980078848484848484E4
:1046E0008478026B7B480078848484848484847812
:1046F00002777782442810284482006E7E04047872
:104700008C949494A4A4A4C4788080026C7C20101F
:1047100000848484848484848478026C7C102000E7
:10472000848484848484848478026C7C304800840B
:104730008484848484848478026B7B4800848484A9
:10474000848484848478125C7C1020008888505093
:104750002020202020026A7A8080F884848484F8D3
:104760008080026A7A304848487048444444F802DD
:104770006A7A2010007884047C84847C026A7A0837
:1047800010007884047C84847C026A7A3048007843
:1047900084047C84847C026A7A6498007884047C33
:1047A00084847C02697948007884047C84847C0257
:1047B0006B7B304830007884047C84847C0277777B
:1047C0007C92325E90927C006979788480808084CB
:1047D000781020026A7A201000788484FC80847823
:1047E000026A7A102000788484FC808478026A7AD5
:1047F000304800788484FC808478026979480078A5
:104800008484FC808478125A7A4020006020202022
:104810002020F8125A7A102000602020202020F852
:10482000125A7A609000602020202020F8125979D6
:104830005000602020202020F8125B7B5020500880
:1048400078888888888870026A7A649800B8C484F6
:1048500084848484026A7A20100078848484848426
:1048600078026A7A10200078848484848478026ACA
:104870007A30480078848484848478026A7A6498E0
:1048800000788484848484780269794800788484F8
:10489000848484780265753000FC0030006B7B04F2
:1048A00008789494A4A4C4788080026A7A201000C6
:1048B00084848484848C74026A7A102000848484C2
:1048C00084848C74026A7A30480084848484848C62
:1048D00074026979480084848484848C74006C7CBC
:1048E000102000848444482838109060006C7C803C
:1048F0008080B8C4848484C4B88080006B7B480006
:104900008484444828381090600000210024002747
:10491000002A002D003000330001010000040107CF
:10492000010A0100002200250028002B002E003182
:1049300000340002010000050108010B0100002005
:10494000002300260029002C002F00320000010067
:10495000000301060109010505050507050808080A
:1049600008020202020A0A08080404040401010100
:104970000101010101030303030303030304070708
:10498000070C0C0C0C0C0C0C0C02020202060606A6
:1049900006060606060B0B0B0B0B0B0B0B07070A89
:1049A0000A0A0A0A0A05050504010210202008085F
:1049B0001020401020408002010201080402010181
:1049C000020408102040808040201008040201806A
:1049D00004020180402010080402010804020101C1
:1049E00002040810204080010204081020408010BA
:1049F00008040880102040044080100000090A02CA
:104A0000080B0C0D07060304010000000000000065
:104A10000000000000000000000000000000000096
:104A20000000000000000011100F00000000000056
:104A30000000000000000000000000000000000076
:104A40000002494E46494E4954594E414ECDCCCCB8
:104A50003D0AD7233C17B7D13877CC2B329595E652
:104A6000241FB14F0A000020410000C84200401C32
:104A70004620BCBE4CCA1B0E5AAEC59D74000D9498
:104A800060250D94621D0D943C1D0D94AA1D0D947E
:104A90005E200D94331D0D947A1D0D9440240D94C9
:104AA00093280D94631D0D94511D0D94091DBF6035
:104AB0003297C4CB5125BFCB11241FBECFEFD1E21B
:104AC000DEBFCDBF00E00CBF15E0A0E0B2E0E2EE3B
:104AD000F3E602E00BBF02C007900D92AE38B107BB
:104AE000D9F71BBE16E1AEE8B5E001C01D92A539AD
:104AF000B107E1F71AE4C6EBDAE404C02297FE013D
:104B00000F949731CE3AD107C9F70F94E3280D944B
:104B1000E5310C940000CF93DF93BC018230910506
:104B200010F462E070E0A0919116B0919216ED0140
:104B300040E050E0E0E0F0E021C0888199818617F4
:104B4000970769F48A819B81309719F09383828358
:104B500004C09093921680939116FE0134C068179A
:104B6000790738F44115510519F08417950708F4B1
:104B7000AC01FE018A819B819C01E9012097E9F645
:104B800041155105A9F1CA01861B970B049708F43A
:104B9000BA01E0E0F0E02AC08D919C911197841752
:104BA0009507F9F46417750781F412968D919C911D
:104BB0001397309719F09383828304C090939216D1
:104BC00080939116FD0132964CC0CA01861B970B4B
:104BD000FD01E80FF91F6193719302978D939C93E8
:104BE00040C0FD01828193819C01D9011097A1F6FB
:104BF00080918F1690919016892B41F480910B042F
:104C000090910C049093901680938F1640910D0410
:104C100050910E044115510541F44DB75EB7809196
:104C2000090490910A04481B590B20918F1630916A
:104C30009016CA01821B930B8617970780F0AB0171
:104C40004E5F5F4F8417950750F0420F531F5093EC
:104C5000901640938F16F9016193719302C0E0E0C2
:104C6000F0E0CF01DF91CF910895CF93DF930097CC
:104C700009F450C0EC0122971B821A82A091911670
:104C8000B0919216109709F140E050E0AC17BD07C3
:104C900008F1BB83AA83FE0121913191E20FF31F3A
:104CA000AE17BF0779F48D919C911197280F391F8A
:104CB0002E5F3F4F3983288312968D919C911397D5
:104CC0009B838A834115510571F4D0939216C0934A
:104CD000911620C012968D919C911397AD0100976B
:104CE00011F0DC01D3CFFA01D383C283219131913A
:104CF000E20FF31FCE17DF0769F488819981280F2F
:104D0000391F2E5F3F4FFA01318320838A819B81B7
:104D100093838283DF91CF910895A0E0B0E0E3E92F
:104D2000F6E20D94B431EC015B016115710519F0E7
:104D3000FB0191838083F9908F2D90E00F949B313C
:104D4000892BC9F7FDE2FF1621F4F990EE24E394D4
:104D500005C02BE2F21609F4F990EE248E01015001
:104D60001040C80162E47AE443E050E072D2892B3B
:104D7000F9F48E010E5F1F4FC80165E47AE445E047
:104D800050E067D2892B19F48E01095F1F4FA114DF
:104D9000B10419F0F50111830083E0FC04C070E058
:104DA00090E080E813C070E090E080E86FEF07C10A
:104DB000C8016AE47AE443E050E04BD2892B69F4FD
:104DC000A114B10429F470E090E080EC6FE7F7C023
:104DD0002296F501D183C083F6CF8824992440E040
:104DE00050E060E070E0EF2DE053EA30A0F5F2E033
:104DF000EF2A8E2D90E09C0128703070E2FE06C0F4
:104E0000232B79F50894811C911C2BC0232B19F0BE
:104E1000089481089108DB01CA0112E0880F991FEC
:104E2000AA1FBB1F1A95D1F7480F591F6A1F7B1F76
:104E3000440F551F661F771F4E0F511D611D711DB9
:104E4000483929E9520729E9620729E1720748F040
:104E500084E0E82A06C0EE3F31F4E3FC39C098E074
:104E6000E92AF990C0CFE53311F0E53189F52991B0
:104E70002D3219F4E0E1EE2A05C02B3219F081E061
:104E800090E003C0299182E090E0E22FE053EA3005
:104E900018F0C81BD90B1CC020E030E0FCE0203823
:104EA0003F075CF4C901880F991F880F991F280FCD
:104EB000391F220F331F2E0F311DE991E053EA30C5
:104EC00068F3E4FE03C0309521953F4F820E931E98
:104ED000CE2CDD24E1FE07C0A114B10421F02197FE
:104EE000F501D183C083CB01BA010F94002E7B0161
:104EF0008C01F3E0CF22DD2423E0C216D10421F49B
:104F000017FB109517F9109557016801C801B701F3
:104F100020E030E040E050E00F94602D882309F459
:104F20004AC097FE0DC021E6E22E2AE4F22E9094AC
:104F3000819491089394C0E2D0E000E010E012C0A8
:104F400099E7E92E9AE4F92EF6CFF70125913591EC
:104F500045915491C601B5010F9440305B016C013D
:104F60008C1A9D0A8C169D0684F7D595C7950F5F00
:104F70001F4F0630110529F08CEF9FEFE80EF91E48
:104F8000F1CFC501D6017C018D018C2D880F8D2DAF
:104F9000881F8F3F51F0C601B50120E030E040E0AE
:104FA00050E00F94602D882331F482E290E09093DA
:104FB0009416809393167E2D9F2D802F612F272F7F
:104FC000392F482F562FB901CA01CDB7DEB7ECE013
:104FD0000D94D0312F923F925F926F927F928F9279
:104FE0009F92AF92BF92CF92DF92EF92FF920F9378
:104FF0001F93CF93DF938C011B01EA0161157105AB
:1050000019F0FB0191838083209749F0CE0102972C
:10501000839728F020E030E040E050E0F6C0F8014F
:10502000A1908F018A2D90E00F949B31892BB9F7C5
:10503000FDE2AF1631F4F801A1908F01552453948D
:1050400007C0FBE2AF1619F4F801A1908F015524B7
:10505000209719F0C031D105C1F4F0E3AF1679F40F
:10506000F8018081883711F0883549F4F801A18072
:105070000E5F1F4FF2E05F2AC0E1D0E006C020972C
:1050800021F480E3A816E9F427C0C830D10531F136
:10509000C930D10524F4C230D10531F50CC0CA3075
:1050A000D10589F0C031D105F9F4C12CD12CE12C06
:1050B000B8E0FB2E28C0C12CD12CE12CA0E4FA2EA4
:1050C00022C0CAE0D0E0FCECCF2EFCECDF2EFCECE2
:1050D000EF2EFCE0FF2E17C0C8E0D0E0C12CD12C91
:1050E000E12CE0E1FE2E0FC09E01442737FD4095E4
:1050F000542F60E070E080E090E80F945831C901CF
:10510000DA016C017D0120E030E040E050E060E039
:105110003E01882477FC8094982C70EDB72EBA0C51
:10512000E9E0EB1570F48A2D81548A3118F499EC7A
:10513000B92E06C08A2D81568A3150F589EAB82EDB
:10514000BA0C8B2D90E08C179D0714F56F3FE1F0A2
:10515000C216D306E406F506B0F0CA01B901A401EF
:1051600093010F9412319B01AC012B0D311D411D98
:10517000511D2130F0E03F07F0E04F07F0E85F07F6
:1051800010F461E001C06FEFF801A1908F01C5CF6D
:105190002114310481F0662331F001501040F101F7
:1051A0001183008308C051FE1AC002501040F10163
:1051B0001183008314C067FF12C050FC05C02FEF9D
:1051C0003FEF4FEF5FE704C020E030E040E050E801
:1051D00082E290E0909394168093931616C050FE4E
:1051E00008C050954095309521953F4F4F4F5F4FE8
:1051F0000CC057FF0AC082E290E09093941680930F
:1052000093162FEF3FEF4FEF5FE7B901CA01DF9130
:10521000CF911F910F91FF90EF90DF90CF90BF90B3
:10522000AF909F908F907F906F905F903F902F9066
:105230000895FB01DC0105900D920020E1F708952F
:10524000FC0105900020E9F7809590958E0F9F1F37
:105250000895FB01DC014150504088F08D9181346C
:105260001CF08B350CF4805E659161341CF06B355D
:105270000CF4605E861B611171F3990B0895881B15
:10528000FCCFFB01DC014150504048F005900D92ED
:105290000020C9F701C01D9241505040E0F7089529
:1052A000FB0155915523A9F0BF01DC014D91451734
:1052B0004111E1F759F4CD010590002049F04D91DD
:1052C00040154111C9F3FB014111EFCF81E090E09E
:1052D00001970895FB01DC0104C08D9101908019B4
:1052E00021F441505040C8F7881B990B0895FB01E9
:1052F000DC0102C001900D9241505040D8F7089552
:10530000FB01DC018D9181341CF08B350CF4805E47
:10531000619161341CF06B350CF4605E861B611189
:1053200089F3990B0895FB01DC010D900020E9F74A
:10533000119701900D920020E1F70895FC018191F1
:10534000861721F08823D9F7992708953197CF013F
:105350000895FB01DC018D91019080190110D9F3B2
:10536000990B0895FB01DC0101900D920020E1F7FB
:105370000895FB01DC014150504030F08D910190C7
:10538000801919F40020B9F7881B990B0895FB01C7
:10539000DC014150504048F001900D920020C9F7C7
:1053A00001C01D9241505040E0F70895FB0151911A
:1053B0005523A9F0BF01DC014D9145174111E1F7DB
:1053C00059F4CD010190002049F04D914015411153
:1053D000C9F3FB014111EFCF81E090E001970895FF
:1053E000AEE0B0E0E6EFF9E20D94BC310E891F8922
:1053F0008EE08C831A8309838FEF9FE79E838D83D2
:105400009E01265E3F4FCE010196688D798DA901E0
:105410000AD02F813885020F131FF80110822E96B3
:10542000E4E00D94D831ABE0B0E0E9E1FAE20D94AC
:10543000AE313C012B015A01FC0117821682838197
:1054400081FD03C06FEF7FEFB9C19AE0892E1E0185
:105450000894211C311CF3012381F20123FD859165
:1054600023FF81912F01882309F4A5C1853239F4E6
:1054700023FD859123FF81912F01853221F490E056
:10548000B301B7D1E8CF982FFF24EE249924FFE190
:10549000FF15D0F09B3269F09C3228F4903259F01D
:1054A000933291F40EC09D3249F0903369F441E09B
:1054B00024C052E0F52A84E0F82A28C098E0F92AAE
:1054C00025C0E0E1FE2A22C0F7FC29C0892F8053C5
:1054D0008A3070F4F6FE05C0989C902C1124980E2A
:1054E00015C0E89CE02C1124E80EF0E2FF2A0EC063
:1054F0009E3229F4F6FC5FC140E4F42A07C09C36D2
:1055000019F450E8F52A02C0983649F4F20123FD57
:10551000959123FF91912F01992309F0B8CF892FFD
:105520008554833018F08052833038F444E050E0E2
:10553000A40EB51E5FE359830FC0933631F0933745
:1055400079F0933509F052C01FC0F501808189833D
:1055500042E050E0A40EB51E610101E010E011C070
:10556000F501C080D180F6FC03C06FEF7FEF02C071
:10557000692D70E042E050E0A40EB51EC6012ED1A8
:105580008C015FE7F52213C0F501C080D180F6FCE5
:1055900003C06FEF7FEF02C0692D70E042E050E082
:1055A000A40EB51EC6010FD18C0150E8F52AF3FEFA
:1055B00006C018C080E290E0B3011BD1EA948E2DA2
:1055C00090E008171907B0F30DC0F601F7FC8591BC
:1055D000F7FE81916F0190E0B3010BD1E110EA94E5
:1055E000015010400115110581F7E2C0943611F009
:1055F000993661F5F7FE08C0F501208131814281BD
:10560000538184E090E00AC0F501808191819C0182
:10561000442737FD4095542F82E090E0A80EB91E34
:105620009FE6F92257FF09C0509540953095219586
:105630003F4F4F4F5F4FE0E8FE2ACA01B901A10179
:105640002AE030E002D1D82ED2183FC0953729F495
:105650001F2D1F7E2AE030E01DC01F2D197F9F36B1
:1056600061F0903720F4983509F0A5C00FC090374D
:1056700039F0983709F09FC004C028E030E00AC034
:10568000106114FD146020E130E004C014FD1660C8
:1056900020E132E017FF08C0F5016081718182814D
:1056A000938144E050E008C0F50180819181BC0104
:1056B00080E090E042E050E0A40EB51EA101C5D00C
:1056C000D82ED2188FE7F82EF122F6FE0BC05EEF2F
:1056D000F522D91438F4F4FE07C0F2FC05C08FEEB1
:1056E000F82202C01D2D01C0192DF4FE0DC0FE01CF
:1056F000ED0DF11D8081803319F499EEF92208C077
:105700001F5FF2FE05C003C08F2D867809F01F5F72
:105710000F2DF3FC13C0F0FE0EC01E1510F09D2CD3
:105720000AC09D2C9E0C911A1E2D05C080E290E0AF
:10573000B3015FD01F5F1E15C8F304C01E1510F41F
:10574000E11A01C0EE2404FF0EC080E390E0B30133
:1057500050D002FF1BC001FD03C088E790E00EC0DF
:1057600088E590E00BC0802F867881F001FF02C0B1
:105770008BE201C080E2F7FC8DE290E0B30139D00A
:1057800005C080E390E0B30134D09A94D914C8F3F3
:10579000DA94F101ED0DF11D808190E0B30129D083
:1057A000DD20B1F705C080E290E0B30122D0EA9499
:1057B000EE20C9F750CEF30166817781CB012B969D
:1057C000E2E10D94CA31FC01059061507040011076
:1057D000D8F7809590958E0F9F1F0895FC0161501A
:1057E000704001900110D8F7809590958E0F9F1F03
:1057F00008950F931F93CF93DF938C01EB018B815F
:1058000081FF1BC082FF0DC02E813F818C819D8155
:105810002817390764F4E881F9810193F983E88353
:1058200006C0E885F985802F1995892B31F48E8182
:105830009F8101969F838E8302C00FEF1FEFC801E7
:10584000DF91CF911F910F910895FA01AA27283077
:1058500051F1203181F1E8946F936E7F6E5F7F4F3D
:105860008F4F9F4FAF4FB1E03ED0B4E03CD0670FB9
:10587000781F891F9A1FA11D680F791F8A1F911D0C
:10588000A11D6A0F711D811D911DA11D20D009F45C
:1058900068943F912AE0269F11243019305D31939E
:1058A000DEF6CF010895462F4770405D4193B3E087
:1058B0000FD0C9F7F6CF462F4F70405D4A3318F02E
:1058C000495D31FD4052419302D0A9F7EACFB4E0DF
:1058D000A6959795879577956795BA95C9F7009797
:1058E0006105710508959B01AC010A2E0694579538
:1058F000479537952795BA95C9F7620F731F841F8F
:10590000951FA01D089580919407882399F14091D7
:105910008E0550918F056091900570919105809151
:1059200092079091930722E935E00E94CF9988234E
:1059300019F14091950750919607609197077091E2
:105940009807411551056105710591F08091920705
:105950009091930722E935E00E94CF99882361F066
:105960001092950710929607109297071092980739
:105970001092940781E0089580E00895DF92EF92FD
:10598000FF920F931F937B018C01D42E80918E0583
:1059900090918F05A0919005B09191058E159F056E
:1059A000A007B107B9F0AFDF8823E1F0809192073B
:1059B00090919307B801A70122E935E00E94AB9AC4
:1059C000882381F0E0928E05F0928F050093900578
:1059D00010939105DD2011F481E005C081E08093F2
:1059E000940701C080E01F910F91FF90EF90DF902E
:1059F00008958F929F92AF92BF92CF92DF92EF92D3
:105A0000FF920F931F93CF93DF936C01142F70932A
:105A1000930760939207FC01178A82E090E0A0E070
:105A2000B0E080839183A283B38310929407109295
:105A300095071092960710929707109298078FEF8C
:105A40009FEFAFEFBFEF80938E0590938F05A093EC
:105A50009005B0939105442321F48824992454019E
:105A60003FC0453008F01CC160E070E080E090E08D
:105A700040E084DF882309F413C1C12FD0E02197CF
:105A8000FE0174E0EE0FFF1F7A95E1F7EE56FA4F34
:105A9000E254FE4F8081EE5BF14090E08F77907092
:105AA000892B09F0FDC0E653FE4F80819181A281D0
:105AB000B38184369105A105B10508F4F1C064E015
:105AC000CC0FDD1F6A95E1F7C85AD84F88809980BE
:105AD000AA80BB8081149104A104B10409F4E0C040
