:100000000C94810D0C94B20D0C94B20D0C94B20DA5
:100010000C94B20D0C94B20D0C94B20D0C94B20D64
:100020000C94B20D0C94B20D0C94B20D0C94B20D54
:100030000C94B20D0C94B20D0C94B20D0C94B20D44
:100040000C94B20D0C945C780C94B20D0C94B20D1F
:100050000C94B20D0C94B20D0C9434900C94119637
:100060000C94B20D0C94B40D0C94B20D0C94B20D12
:100070000C94B20D0C94B20D0C94B20D0C94B20D04
:100080000C94B20D0C94B20D0C94B20D0C94B20DF4
:100090000C94B20D0C94B20D0C94B20D0C94B20DE4
:1000A0000C94B20D0C94B20D0C94B20D0C94B20DD4
:1000B0000C94B20D0C94B20D0C94B20D0C94B20DC4
:1000C0000C94B20D0C94B20D0C94B20D0C94B20DB4
:1000D0000C94B20D0C94B20D0C94B20D0C94B20DA4
:1000E0000C94B20D5B435B436643664366437143C6
:1000F00071437143A9439F439F439F437D908A90DF
:10010000A990B690D190DE90F990FC90FF9002916A
:1001100005910891129146974B9750975A9764977B
:10012000DD976E9776977E97889792979C97AB9777
:10013000B597DD97BF97C997D397FE970198F0972A
:10014000F497FA973898059809980F981398179884
:100150001D982198259838982B982F983398084AFD
:10016000D73B3BCE016E84BCBFFDC12F3D6C7431CB
:100170009ABD56833DDA3D00C77F11BED9E4BB4C22
:100180003E916BAAAABE000000803F05A84CCDB2EC
:10019000D44EB93836A9020C50B9918688083CA6CD
:1001A000AAAA2ABE000000803F005072696E7465E2
:1001B000722068616C7465642E206B696C6C2829F0
:1001C0002063616C6C656421004B494C4C45442EA6
:1001D000200052586275662066756C6C0020746F42
:1001E0006F206C6F6E6720657874727573696F6EBF
:1001F0002070726576656E7465640020636F6C6450
:1002000020657874727573696F6E2070726576659B
:100210006E746564006F6B00526573656E643A209E
:10022000003A20007A5F6D61783A20007A5F6D694C
:100230006E3A20005A204F666673657400546F6FE3
:10024000206661722066726F6D20726566657265E8
:100250006E636520706F696E740053657474696EA7
:10026000672054726176656C20416363656C6572CA
:100270006174696F6E3A200053657474696E67200B
:100280005265747261637420416363656C65726169
:1002900074696F6E3A200053657474696E672050FC
:1002A00072696E7420416363656C65726174696F15
:1002B0006E3A200053657474696E67205072696EDF
:1002C0007420616E642054726176656C20416363B2
:1002D000656C65726174696F6E3A20007A5F6D615A
:1002E000783A20007A5F6D696E3A2000795F6D611F
:1002F000783A2000795F6D696E3A2000785F6D6111
:10030000783A2000785F6D696E3A20004649524D78
:10031000574152455F4E414D453A4D61726C696E91
:1003200020312E312E302E39202028416C65706806
:10033000204F626A6563747320496E632E277320B1
:100340005068616272696361746F722920534F55FE
:100350005243455F434F44455F55524C3A6874746D
:1003600070733A2F2F636F64652E616C6570686FD0
:10037000626A656374732E636F6D2F646966667558
:1003800073696F6E2F4D41524C494E2050524F545D
:100390004F434F4C5F56455253494F4E3A312E30E2
:1003A000204D414348494E455F545950453A4C759C
:1003B0006C7A426F74204D696E69204558545255CD
:1003C0004445525F434F554E543A312055554944A8
:1003D0003A33353134383762362D636139612D3423
:1003E0006331612D383736352D64363638623164E5
:1003F00061363538350A003F0020573A003F00206B
:10040000573A006F6B004B494C4C45442E20004539
:1004100043484F00494E464F004552524F525300F9
:1004200044525952554E00434F4D4D554E4943414C
:1004300054494F4E006F6666000F041404190420DF
:1004400004270444454255473A005374616E646181
:10045000726420446576696174696F6E3A20004D5C
:1004600065616E3A20002020207369676D613A2033
:1004700000206D65616E3A20002020207A3A20002D
:10048000206F66200020207A3A2000793A200078F8
:100490003A2000202020616E676C653A200053747A
:1004A000617274696E67207261646975733A2000C5
:1004B000506F736974696F6E696E67207468652028
:1004C00070726F62652E2E2E0A003F4E756D62654A
:1004D00072206F66206C65677320696E206D6F7681
:1004E000656D656E74206E6F7420706C61757369D4
:1004F000626C652028302D3135292E0A00590058AC
:10050000003F53616D706C652073697A65206E6F72
:100510007420706C61757369626C652028342D35A8
:1005200030292E0A004D3438205A2D50726F6265E2
:10053000205265706561746162696C6974792074B8
:100540006573740A003F566572626F7365204C656F
:1005500076656C206E6F7420706C61757369626C67
:10056000652028302D34292E0A002569206D696EFA
:100570002C2025692073656300205A3A20002059F9
:100580003A200042656420583A2000205A3A200060
:1005900020593A200042656420583A2000486F6D87
:1005A0006520582F59206265666F7265205A0020B9
:1005B0002B00200A436F7272656374656420426584
:1005C00064204865696768742076732E20426564EC
:1005D00020546F706F6C6F67793A200A00202B00EF
:1005E0002028302C30290A002020204F2D2D204695
:1005F000524F4E54202D2D2B0A002020207C2020ED
:100600002020202020202020207C0A002020207C68
:1006100020202020282D29202020207C20540A0062
:100620002054207C20202020202020202020207CDE
:1006300020480A002046207C20282D29204E2028F2
:100640002B29207C20470A002045207C20202020C8
:10065000202020202020207C20490A00204C207CC3
:1006600020202020282B29202020207C20520A0016
:100670002020207C20202020202020202020207CC2
:100680000A002020202B2D2D2D204241434B202DD0
:100690002D2B0A00200A426564204865696768744A
:1006A00020546F706F6772617068793A200A004D4C
:1006B00065616E206F662073616D706C656420707B
:1006C0006F696E74733A200020643A200020623A09
:1006D000200045716E20636F656666696369656EAB
:1006E00074733A20613A200050524F4245204641EF
:1006F000494C20434C45414E204E4F5A5A4C4500E0
:1007000028422961636B00284629726F6E740028A5
:1007100052296967687400284C29656674003F4E49
:10072000756D626572206F662070726F62656420FD
:100730002850296F696E747320697320696D706C1D
:1007400061757369626C65202832206D696E696D10
:10075000756D292E0A0052756E6E696E6720696E7E
:10076000204452592D52554E206D6F64650047321A
:1007700039204175746F20426564204C6576656C44
:10078000696E670A003F2856296572626F7365209B
:100790004C6576656C20697320696D706C6175734A
:1007A00069626C652028302D34292E00205A3A00C9
:1007B00020593A0020436F756E7420583A2000206B
:1007C000453A00205A3A0020593A00583A005761F9
:1007D000726E696E673A20486F6D696E6720427568
:1007E0006D702044697669736F72203C203100205F
:1007F000403A002042403A00202F0020423A002098
:100800002F0020543A0020706F736974696F6E2056
:100810006F7574206F662072616E67652E003F50A1
:10082000726F62652000220A00556E6B6E6F776EE4
:1008300020636F6D6D616E643A20220052657769A6
:1008400070696E670020496E76616C696420657816
:1008500074727564657220004B494C4C45442E20DF
:10086000005072696E7465722073746F7070656485
:100870002064756520746F206572726F72732E200C
:1008800046697820746865206572726F7220616EA7
:100890006420757365204D39393920746F20726575
:1008A00073746172742E202854656D706572617462
:1008B0007572652069732072657365742E205365A7
:1008C0007420697420616674657220726573746146
:1008D0007274696E6729004E6F204C696E65204EF8
:1008E000756D626572207769746820636865636BF3
:1008F00073756D2C204C617374204C696E653A20C1
:10090000004E6F20436865636B73756D2077697463
:1009100068206C696E65206E756D6265722C204C66
:10092000617374204C696E653A2000636865636B7F
:1009300073756D206D69736D617463682C204C61F3
:100940007374204C696E653A20004C696E65204EC8
:10095000756D626572206973206E6F74204C6173CF
:1009600074204C696E65204E756D6265722B312C5A
:10097000204C617374204C696E653A20004D313112
:1009800030002020506C616E6E657242756666653F
:100990007242797465733A20002046726565204D75
:1009A000656D6F72793A20004175672032362032CA
:1009B00030313600436F6D70696C65643A200028F1
:1009C000416C657068204F626A6563747320496E7C
:1009D000632E2C204C756C7A426F74204D696E69C1
:1009E0002900207C20417574686F723A20003230F3
:1009F00031362D30342D32372031323A303000202C
:100A00004C61737420557064617465643A200020F1
:100A1000312E312E302E3920004D61726C696E00FE
:100A200020536F6674776172652052657365740038
:100A3000205761746368646F672052657365740042
:100A40002042726F776E206F7574205265736574E3
:100A5000002045787465726E616C20526573657410
:100A600000506F7765725570007374617274002264
:100A700000656E7175657565696E67202200FF01FE
:100A8000010000A0400000A0400000004000002F36
:100A90004300004943000021430000000000003FE4
:100AA0004300001F4300002F4300003F4300001F8E
:100AB0004300000000000020C1000000C065636822
:100AC0006F3A004572726F723A0020204D3835310E
:100AD000205A005A2D50726F6265204F666673650A
:100AE0007420286D6D293A0020204D32303020448A
:100AF000300020204D3230302044002044697361A2
:100B0000626C65640046696C616D656E7420736526
:100B10007474696E67733A002044002049002020F5
:100B20004D333034205000204C002043002044003E
:100B300020490020204D33303120500050494420BE
:100B400073657474696E67733A00205A0020590007
:100B500020204D323036205800486F6D65206F667A
:100B60006673657420286D6D293A00204500205A6F
:100B70000020580020420020540020204D32303503
:100B8000205300416476616E63656420766172690A
:100B900061626C65733A20533D4D696E20666565F0
:100BA000647261746520286D6D2F73292C20543D6B
:100BB0004D696E2074726176656C2066656564723D
:100BC00061746520286D6D2F73292C20423D6D695D
:100BD0006E696D756D207365676D656E74207469DF
:100BE0006D6520286D73292C20583D6D6178696DE5
:100BF000756D205859206A65726B20286D6D2F73B2
:100C0000292C20205A3D6D6178696D756D205A2020
:100C10006A65726B20286D6D2F73292C2020453D4D
:100C20006D6178696D756D2045206A65726B20284D
:100C30006D6D2F73290020540020520020204D326A
:100C40003034205000416363656C65726174696F74
:100C50006E733A20503D7072696E74696E672C2015
:100C6000523D7265747261637420616E6420543DFC
:100C700074726176656C00204500205A002059008E
:100C800020204D3230312058004D6178696D756DEE
:100C900020416363656C65726174696F6E20286DB5
:100CA0006D2F7332293A00204500205A0020590048
:100CB00020204D3230332058004D6178696D756DBC
:100CC0002066656564726174657320286D6D2F738D
:100CD000293A00204500205A0020590020204D3993
:100CE0003220580053746570732070657220756EE1
:100CF00069743A0048617264636F64656420446596
:100D00006661756C742053657474696E6773204CEA
:100D10006F616465640020627974657329002073D3
:100D2000746F7265642073657474696E6773207282
:100D3000657472696576656420280020627974653F
:100D400073290053657474696E67732053746F72EE
:100D500065642028004572726F7220777269746929
:100D60006E6720746F20454550524F4D210020740E
:100D70006F6F206C6F6E6720657874727573696F22
:100D80006E2070726576656E7465640020636F6CAA
:100D90006420657874727573696F6E207072657601
:100DA000656E7465640045303A20005A3A20005957
:100DB0003A2000583A20004D53312C4D53322050E8
:100DC000696E730A00205A3A0020593A0020583AB6
:100DD00000656E6473746F7073206869743A2000E4
:100DE00024F4D43050C38E20C2A24017828B7011DD
:100DF000127A910D816CD90AA861E108C75866077B
:100E0000615143061E4B5D05C145A7041A411104FB
:100E1000093D9803713931034036DB026533910295
:100E2000D4305402802E1D02632CEE01752AC501B8
:100E3000B028A001102781018F2564012B244B01CC
:100E4000E0223401AC211F018D200D01801FFC0028
:100E5000841EED00971DDF00B81CD200E61BC60003
:100E6000201BBC00641AB200B219A8000A19A00025
:100E70006A189900D117910040178B00B5168400AD
:100E800031167E00B31579003A157300C7146F0050
:100E900058146A00EE1366008813630025135E0081
:100EA000C7125B006C12570015125400C11151009B
:100EB00070114F0021114B00D61049008D104700D2
:100EC0004610440002104200C00F4000800F3E0058
:100ED000420F3C00060F3B00CB0E3800930E37004C
:100EE0005C0E3500270E3400F30D3200C10D3100C9
:100EF000900D3000600D2E00320D2D00050D2C00E0
:100F0000D90C2B00AE0C2900850C29005C0C2700A5
:100F1000350C27000E0C2600E80B2400C40B24001F
:100F2000A00B23007D0B23005A0B2100390B21005D
:100F3000180B2000F80A1F00D90A1E00BB0A1E0069
:100F40009D0A1D00800A1D00630A1C00470A1B0041
:100F50002C0A1B00110A1A00F7091A00DD091900F2
:100F6000C4091900AB091900920917007B09180080
:100F7000630917004C0916003609160020091600EF
:100F80000A091500F5081500E0081400CC08140043
:100F9000B8081400A4081400900813007D0812007B
:100FA0006B0813005808120046081200340811009C
:100FB000230811001208110001081100F0071000A9
:100FC000E0071000D0071000C0071000B0070F00A6
:100FD000A107100091070E0083070F0074070F0090
:100FE00065070E0057070E0049070E003B070D006E
:100FF0002E070E0020070D0013070D0006070D0039
:10100000F9060C00ED060D00E0060C00D4060C00FD
:10101000C8060C00BC060C00B0060C00A4060B00B1
:1010200099060C008D060B0082060B0077060B005C
:101030006C060B0061060A0057060B004C060A00FE
:1010400042060A0038060A002E060A0024060A0094
:101050001A060A001006090007060A00FD05090025
:10106000F4050900EB050900E2050900D9050900AE
:10107000D0050900C7050900BE050900B50508002F
:10108000AD050800A50509009C05080094050800A9
:101090008C050800840508007C050800740508001C
:1010A0006C050700650508005D050700560508008A
:1010B0004E050700470507004005080038050700F2
:1010C000310507002A050700230507001C05060057
:1010D000160507000F0507000805060002050700B2
:1010E000FB040600F5040700EE040600E804060011
:1010F000E2040700DB040600D5040600CF04060066
:10110000C9040600C3040600BD040600B7040600B7
:10111000B1040500AC040600A6040600A004050006
:101120009B04060095040500900406008A0405004F
:1011300085040500800406007A0405007504050096
:10114000700405006B0405006604050061040500D9
:101150005C04050057040500520405004D04050019
:1011600048040500430405003E0404003A04050059
:1011700035040500300404002C0405002704040095
:10118000230405001E0404001A04040016040500CC
:10119000110404000D040400090405000404040003
:1011A00000040400FC030400F8030400F40304003A
:1011B000F0030400EC030400E8030400E40304006B
:1011C000E0030400DC030400D8030400D40304009B
:1011D000D0030400CC030400C8030300C5030300CC
:1011E00024F404D9201BC40C5C0E9804C4095F02CB
:1011F00065077101F405F900FB04B300480487009A
:10120000C10369005803550003034500BE023A00BC
:101210008402310053022A00290225000402200022
:10122000E4011C00C8011900AF0117009801140067
:1012300084011300710110006101100051010E00C2
:1012400043010D0036010B002B010B0020010B00A8
:10125000150109000C01090003010800FB0008004A
:10126000F3000800EB000700E4000600DE000600C3
:10127000D8000600D2000600CC000500C70005001B
:10128000C2000500BD000400B9000400B500040060
:10129000B1000400AD000400A9000400A500030093
:1012A000A20003009F0004009B00030098000300BD
:1012B0009500020093000300900003008D000200DF
:1012C0008B000300880002008600020084000300F7
:1012D000810002007F0002007D0002007B0002000E
:1012E000790002007700010076000200740002001D
:1012F00072000100710002006F0002006D00010029
:101300006C0002006A000100690002006700010031
:101310006600010065000100640002006200010037
:1013200061000100600001005F0002005D0001003B
:101330005C0001005B0001005A000100590001003F
:10134000580001005700010056000100550001003F
:10135000540001005300000053000100520001003E
:1013600051000100500001004F0001004E0000003C
:101370004E0001004D0001004C0001004B00000038
:101380004B0001004A000100490001004800000034
:10139000480001004700010046000000460001002F
:1013A000450000004500010044000100430000002A
:1013B0004300010042000000420001004100000023
:1013C00041000100400001003F0000003F0001001B
:1013D0003E0000003E0001003D0000003D00010015
:1013E0003C0000003C0000003C0001003B0000000D
:1013F0003B0001003A0000003A0001003900000003
:1014000039000100380000003800000038000100F9
:1014100037000000370001003600000036000000F1
:1014200036000100350000003500000035000100E5
:1014300034000000340000003400010033000000DC
:1014400033000000330001003200000032000000D1
:1014500032000100310000003100000031000100C5
:101460003000000030000000300001002F000000BC
:101470002F0000002F0000002F0001002E000000B0
:101480002E0000002E0001002D0000002D000000A5
:101490002D0000002D0001002C0000002C00000099
:1014A0002C0000002C0001002B0000002B0000008D
:1014B0002B0000002B0001002A0000002A00000081
:1014C0002A0000002A000100290000002900000075
:1014D0002900000029000000290001002800000068
:1014E000280000002800000028000000280001005B
:1014F0002700000027000000270000002700000050
:101500002700010026000000260000002600000041
:101510002600000026000100250000002500000034
:101520002500000025000000250000002500010026
:10153000240000002400000024000000240000001B
:10154000240001002300000023000000230000000D
:1015500023000000230000002300000023000100FE
:1015600022000000220000002200000022000000F3
:1015700022000000220001002100000021000000E4
:1015800021000000210000002100000021000000D7
:1015900021000100200000002000000020000000C9
:1015A00020000000200000002000000020000000BB
:1015B000200001001F0000001F0000001F000000AD
:1015C0001F0000001F0000001F0000001F0001009E
:1015D0001E0000001E0000001E0000001E00000093
:1015E0004D494E54454D5020747269676765726568
:1015F00064004572723A204D494E54454D50204288
:101600004544004D415854454D50207472696767F8
:1016100065726564004572723A204D415854454DDB
:10162000502042454400546865726D616C204572DB
:10163000726F7200544845524D414C2052554E41F4
:101640005741590048656174696E67206661696C2D
:1016500065640048656174696E67206661696C65E0
:10166000640048656174696E67206661696C6564D1
:101670000048656174696E67206661696C65640025
:101680004D494E54454D50207472696767657265C7
:1016900064004572723A204D494E54454D500062E7
:1016A0006564002C2073797374656D2073746F709A
:1016B00070656421204865617465725F49443A2011
:1016C000004D415854454D502074726967676572EA
:1016D0006564004572723A204D415854454D5000A2
:1016E0004B64200023646566696E6520204445468E
:1016F00041554C545F004B69200023646566696E58
:1017000065202044454641554C545F004B702000F5
:1017100023646566696E65202044454641554C54F6
:101720005F00504944204175746F74756E65206682
:10173000696E6973686564212050757420746865EA
:10174000206C617374204B702C204B6920616E6497
:10175000204B6420636F6E7374616E7473206672C5
:101760006F6D2062656C6F7720696E746F20436FB8
:101770006E66696775726174696F6E2E6800504994
:1017800044204175746F74756E65206661696C657F
:1017900064212074696D656F75740050494420415F
:1017A00075746F74756E65206661696C656421205F
:1017B00054656D706572617475726520746F6F2009
:1017C0006869676800204B643A2000204B693A2022
:1017D00000204B703A200020436C617373696320D2
:1017E00050494420002054753A2000204B753A207F
:1017F00000206D61783A2000206D696E3A2000204B
:10180000643A200020626961733A20001000AD0341
:1018100030016A0150022B0170030A019004F500A7
:10182000B005E500D006D800F007CE001009C500CD
:10183000300ABE00500BB700700CB100900DAB0029
:10184000B00EA600D00FA200F0109D00101299005B
:10185000301395005014920070158E0090168B0076
:10186000B0178700D0188400F0198100101B7E008B
:10187000301C7B00501D7900701E7600901F730095
:10188000B0207000D0216E00F0226B00102469009F
:1018900030256600502663007027610090285E00A6
:1018A000B0295C00D02A5900F02B5600102D5400AE
:1018B000302E5100502F4E0070304B0090314800B8
:1018C000B0324500D0334200F0343E0010363B00C9
:1018D000303737005038330070392E00903A2900E5
:1018E000B03B2300D03C1B00F03D1100103F010035
:1018F000F03F00001000C90210012C01400122013C
:1019000070011801B0010E01F00104015002FA004B
:10191000B002F0003003E600D003DC009004D200F7
:101920007005C800A006BE000008B400B009AA00F7
:10193000D00BA000600E960060118C000015820094
:1019400020197800C01D6E00A0226400B0275A0044
:10195000902C500000314600E0343C00103832003A
:10196000903A2800603C1E00A03D1400803E0A0012
:10197000203F000000000A0B02090C0D0E080703AF
:101980000401000000000000000000000000000052
:101990000000000000000000000000000000000047
:1019A0001211100000000000000000000000000004
:1019B0000000000000000000000000000000000027
:1019C00000000000000000000000010210202008BC
:1019D000081020401020408002010201080402018A
:1019E00001020408102040808040201008040201F9
:1019F0008004020180402010080402010804020152
:101A000001020408102040800102040810204080D8
:101A100010080408801020400440801020400480FA
:101A200005050505070508080808020202020A0A5A
:101A30000808040404040101010101010101030378
:101A4000030303030303040707070C0C0C0C0C0C23
:101A50000C0C0202020206060606060606060B0B20
:101A60000B0B0B0B0B0B07070A0A0A0A0A0A0505E0
:101A700005040404080800002000230026002900B3
:101A80002C002F00320000010000030106010901B3
:101A900000002200250028002B002E003100340019
:101AA00002010000050108010B01000021002400D3
:101AB00027002A002D00300033000101000004013E
:101AC00007010A014E414E494E495459494E46CDEF
:101AD000CCCC3D0AD7233C17B7D13877CC2B3295E5
:101AE00095E6241FB14F0A000020410000C84200C3
:101AF000401C4620BCBE4CCA1B0E5AAEC59D74008D
:101B00000E4811241FBECFEFD1E2DEBFCDBF00E0F3
:101B10000CBF14E0A0E0B2E0E4E2F9E401E00BBFA6
:101B200002C007900D92A234B107D9F720E1A2E4D8
:101B3000B4E001C01D92AF3BB207E1F71BE1C2E088
:101B4000DBE100E006C022970109FE010BBF0E9405
:101B5000139EC030D10780E00807A9F70E941499AE
:101B60000C9490A40C9400001F920F920FB60F9249
:101B700011240BB60F922F933F934F938F939F9304
:101B8000EF93FF934091C60080914204882341F077
:101B90004A3019F04D3009F043C01092420440C061
:101BA0008091C50490E001968F7799272091C60413
:101BB00030E08217930749F0E091C504F0E0EB5B59
:101BC000FB4F40838093C5042BC081E08093420487
:101BD0008091C50481508F7790E0FC01EB5BFB4F57
:101BE00020812A3041F02D3031F03091C504209110
:101BF000C60432130CC08F5F8F778093C504809129
:101C0000440481110DC081E08093440409C02091F7
:101C1000C50421502F77822F90E02093C504DDCF9B
:101C2000FF91EF919F918F914F913F912F910F9045
:101C30000BBE0F900FBE0F901F9018959A01AB012D
:101C4000211581EE38074105510549F182E0809365
:101C5000C00060E079E08DE390E00E94DB9D2150C0
:101C6000310941095109CA01B90122E030E040E0DF
:101C700050E00E94DB9D3093C5002093C40080910A
:101C8000C10080618093C1008091C1008860809311
:101C9000C1008091C10080688093C10008951092B6
:101CA000C00020E130E0E7CF3FB7F8942091C604B0
:101CB0008091C504821759F0E22FF0E0EB5BFB4FF7
:101CC000808190E02F5F2F772093C60402C08FEFB2
:101CD0009FEF3FBF08958FB7F8949091C6049093FB
:101CE000C5048FBF08954F925F926F927F928F923B
:101CF0009F92AF92BF92CF92DF92EF92FF920F939B
:101D00001F93CF93DF93CDB7DEB7A0970FB6F894AC
:101D1000DEBF0FBECDBF5C014115510561057105E8
:101D2000E9F420E030E040E350E060E070E0A096AD
:101D30000FB6F894DEBF0FBECDBFDF91CF911F91DC
:101D40000F91FF90EF90DF90CF90BF90AF909F905A
:101D50008F907F906F905F904F905BC08E010F5F70
:101D60001F4FC12CD12C76014801422E512C612CE1
:101D7000712C8FEFC81AD80AE80AF80ACB01BA0109
:101D8000A30192010E94B99DCA01F80161938F01DC
:101D9000A901BC01411551056105710551F7F1E03B
:101DA000CF1AD108E108F108F401EC0DFD1D808186
:101DB0008A3010F440E301C047E3480F552747FD40
:101DC0005095652F752F20E030E0C50122D081E0CD
:101DD000C81AD108E108F108EFEFCE16DE06EE06CC
:101DE000FE0611F7A0960FB6F894DEBF0FBECDBF6A
:101DF000DF91CF911F910F91FF90EF90DF90CF90E7
:101E0000BF90AF909F908F907F906F905F904F901A
:101E100008952115310539F48091C00085FFFCCF6C
:101E20004093C60008952A30310509F41CC05BCFE9
:101E3000CF93DF93EC0120E030E04DE050E060E034
:101E400070E0E7DF20E030E04AE050E060E070E082
:101E5000CE01DF91CF91DDCF9A01AB01662757FD0F
:101E60006095762FD6CFCF92DF92EF92FF92CF93ED
:101E7000DF93EC016A017B0177FF0FC020E030E0C7
:101E80004DE250E060E070E0C4DFF094E094D09464
:101E9000C094C11CD11CE11CF11C2AE0B701A601B1
:101EA000CE01DF91CF91FF90EF90DF90CF901BCFCD
:101EB0002115310539F48091C00085FFFCCF409396
:101EC000C600089510CF9A01462F50E060E070E000
:101ED000EFCFCF93DF93EC019A01AB0160E070E0AC
:101EE000E7DFCE01DF91CF91A3CF8F929F92AF9288
:101EF000BF92CF92DF92EF92FF921F93CF93DF9327
:101F0000EC016A017B01122F20E030E0A901C7013A
:101F1000B6010E94FC9987FF0CC020E030E04DE242
:101F200050E060E070E0CE0174DFF7FAF094F7F86B
:101F3000F094B12C60E070E080E09FE3B11641F0D6
:101F400020E030E040E251E40E94039AB394F6CFDF
:101F50009B01AC01C701B6010E9423996B017C0172
:101F60000E94709A4B015C010E949C9A9B01AC01FB
:101F7000C701B6010E9422996B017C012AE0B501DC
:101F8000A401CE01B0DE112341F020E030E04EE2AA
:101F900050E060E070E0CE013CDF112319F120E059
:101FA00030E040E251E4C701B6010E94D19C6B01D0
:101FB0007C010E946B9A4B01AA2497FCA094BA2C36
:101FC000B501A401CE014FDFC501B4010E949E9A64
:101FD0009B01AC01C701B6010E9422996B017C01F3
:101FE0001150DBCFDF91CF911F91FF90EF90DF90E9
:101FF000CF90BF90AF909F908F90089576CFFC01C7
:1020000065917591859194910895CF92DF92EF92A9
:10201000FF920F931F93CF93DF93EC01CC0FDD1F43
:10202000CC0FDD1FFE01EF59FA4FDE01A359BA4F65
:102030002D913D914D915C9160817181828193815F
:102040000E9423996B017C01CE018F54954FD7DFFD
:102050008E01085D1D4FA70196010E942399F8018A
:102060006083718382839383CE018B55954FC7DF45
:10207000C45EDD4FA70196010E942399688379838E
:102080008A839B83DF91CF911F910F91FF90EF90F7
:10209000DF90CF900895EF92FF920F931F93CF930D
:1020A000DF93EC018C01000F111F000F111FF801CD
:1020B000E359FA4F1082118212821382C8018756A7
:1020C000954F9DDF98012859364F7901F801EF5956
:1020D000FA4F20813181428153810E942399F70177
:1020E0006083718382839383CE01DF91CF911F91AF
:1020F0000F91FF90EF9089CF80911F0F811103C046
:1021000081E080931F0F0895EDEBFAE0849188231E
:1021100041F09091C00095FFFCCF8093C6003196AE
:10212000F5CFEDE9F5E08491882341F09091C0006E
:1021300095FFFCCF8093C6003196F5CF8091C0000B
:1021400085FFFCCF8AE08093C60008958F929F920E
:10215000AF92BF92CF92DF92EF92FF92EBECF7E05B
:102160008491882341F09091C00095FFFCCF80932B
:10217000C6003196F5CF4091680950916909609188
:102180006A0970916B0922E030E083E494E036DF65
:10219000E7ECF7E08491882341F09091C00095FF2F
:1021A000FCCF8093C6003196F5CF40916C095091D9
:1021B0006D0960916E0970916F0922E030E083E44F
:1021C00094E01CDFE3ECF7E08491882341F09091E8
:1021D000C00095FFFCCF8093C6003196F5CF4091AB
:1021E000700950917109609172097091730922E030
:1021F00030E083E494E002DFEFEBF7E084918823A2
:1022000041F09091C00095FFFCCF8093C6003196BD
:10221000F5CF4091740950917509609176097091DC
:10222000770922E030E083E494E0E8DE8FB7F894A9
:102230004091DC0E5091DD0E6091DE0E7091DF0E4C
:102240008090E00E9090E10EA090E20EB090E30E30
:10225000C090E40ED090E50EE090E60EF090E70E10
:102260008FBFE4EBF7E08491882341F09091C000A8
:1022700095FFFCCF8093C6003196F5CF2AE030E081
:1022800083E494E0C6DDE0EBF7E08491882341F03D
:102290009091C00095FFFCCF8093C6003196F5CF9A
:1022A0002AE030E0B501A40183E494E0B2DDECEA79
:1022B000F7E08491882341F09091C00095FFFCCF16
:1022C0008093C6003196F5CF2AE030E0B701A60131
:1022D00083E494E09EDD8091C00085FFFCCF8AE01E
:1022E0008093C600FF90EF90DF90CF90BF90AF90AB
:1022F0009F908F9008950E945B9660935205709313
:10230000530580935405909355050895809140029C
:1023100090914102A0914202B091430280937809CA
:1023200090937909A0937A09B0937B0980913E023A
:1023300090913F0290937B0580937A0584E690E02C
:1023400090933F0280933E02D6DF81E00C946D743F
:102350000E9475748091780990917909A0917A0909
:10236000B0917B098093400290934102A093420276
:10237000B093430280917A0590917B0590933F0240
:1023800080933E02B8CFFC012491222341F030918A
:10239000C00035FFFCCF2093C6000196F4CF4AE081
:1023A00050E083E494E058CDFC012491222341F0D5
:1023B0003091C00035FFFCCF2093C6000196F4CFCA
:1023C00022E030E083E494E019CEFC012491222342
:1023D00041F03091C00035FFFCCF2093C60001963C
:1023E000F4CF2AE030E083E494E062CDCF93DF9332
:1023F0001F921F92CDB7DEB78091B9109091BA109D
:102400009E012F5F3F4F009719F42F5B304102C0B0
:10241000281B390B3A83298389819A810F900F9069
:10242000DF91CF910895FF920F931F93CF93DF9386
:10243000F62EFC0120812B3369F1009140091091A7
:1024400041090A30110534F5C0914209D091430980
:1024500040E64C9F90014D9F300D1124BC01C901F5
:1024600080589A4F0E9486A1FE01E05DFA4FF082EB
:10247000CE0101966AE070E00E94A69D9093430908
:10248000809342090F5F1F4F109341090093400949
:1024900081E001C080E0DF91CF911F910F91FF900B
:1024A0000895CF93DF93D82FC92FBDDF882309F478
:1024B0003CC0EDEBFAE08491882341F09091C0009C
:1024C00095FFFCCF8093C6003196F5CFE1E7FAE0A7
:1024D0008491882341F09091C00095FFFCCF8093B8
:1024E000C6003196F5CFED2FFC2F8191882339F06E
:1024F0009091C00095FFFCCF8093C600F6CFEFE629
:10250000FAE08491882341F09091C00095FFFCCFC0
:102510008093C6003196F5CF8091C00085FFFCCF37
:102520008AE08093C60081E001C080E0DF91CF9116
:102530000895DF92EF92FF920F931F93CF93DF9353
:10254000CDB7DEB76E970FB6F894DEBF0FBECDBF26
:1025500060915605709157056115710559F14DE16E
:1025600050E08E010F5F1F4FC8010E9449A11E8ECF
:10257000F8017F01E01AF10AD190DD2019F08AE01C
:10258000D812F7CFF801EE0DFF1D108260E0C801F0
:1025900088DF882379F0DD20B1F08FEFE81AF80AA0
:1025A00080915605909157058E0D9F1D909357056C
:1025B0008093560581E02091560530915705232BD5
:1025C00039F480E005C01092570510925605F2CFFD
:1025D0006E960FB6F894DEBF0FBECDBFDF91CF91E0
:1025E0001F910F91FF90EF90DF90089540E052EC23
:1025F00061E070E083E494E021DBE9E6FAE08491B5
:10260000882341F09091C00095FFFCCF8093C600D5
:102610003196F5CF8091C00085FFFCCF8AE0809392
:10262000C600EDEBFAE08491882341F09091C00060
:1026300095FFFCCF8093C6003196F5CF84B780FF1D
:1026400014C0E1E6FAE09491992341F02091C00092
:1026500025FFFCCF9093C6003196F5CF9091C00036
:1026600095FFFCCF9AE09093C60081FF14C0E1E58E
:10267000FAE09491992341F02091C00025FFFCCF0E
:102680009093C6003196F5CF9091C00095FFFCCF96
:102690009AE09093C60082FF14C0E0E4FAE09491BF
:1026A000992341F02091C00025FFFCCF9093C600F4
:1026B0003196F5CF9091C00095FFFCCF9AE09093B2
:1026C000C60083FF14C0E0E3FAE09491992341F03F
:1026D0002091C00025FFFCCF9093C6003196F5CF26
:1026E0009091C00095FFFCCF9AE09093C60085FFC3
:1026F00014C0E0E2FAE08491882341F09091C00098
:1027000095FFFCCF8093C6003196F5CF8091C00035
:1027100085FFFCCF8AE08093C60014BEE9E1FAE0B1
:102720008491882341F09091C00095FFFCCF809365
:10273000C6003196F5CFEFE0FAE08491882341F0AE
:102740009091C00095FFFCCF8093C6003196F5CFE5
:102750008091C00085FFFCCF8AE08093C600EDEB3E
:10276000FAE08491882341F09091C00095FFFCCF5E
:102770008093C6003196F5CFEFEFF9E0849188237E
:1027800041F09091C00095FFFCCF8093C600319638
:10279000F5CFEEEEF9E08491882341F09091C000EE
:1027A00095FFFCCF8093C6003196F5CFE2EEF9E0BD
:1027B0008491882341F09091C00095FFFCCF8093D5
:1027C000C6003196F5CFEFEBF9E08491882341F014
:1027D0009091C00095FFFCCF8093C6003196F5CF55
:1027E0008091C00085FFFCCF8AE08093C600E4EBB7
:1027F000F9E08491882341F09091C00095FFFCCFCF
:102800008093C6003196F5CFE8EAF9E084918823F9
:1028100041F09091C00095FFFCCF8093C6003196A7
:10282000F5CF8091C00085FFFCCF8AE08093C60081
:10283000EDEBFAE08491882341F09091C00095FF80
:10284000FCCF8093C6003196F5CFE9E9F9E0849199
:10285000882341F09091C00095FFFCCF8093C60083
:102860003196F5CFC3DD4AE050E0BC0183E494E04B
:10287000F3DAE2E8F9E08491882341F09091C00016
:1028800095FFFCCF8093C6003196F5CF4AE050E02B
:1028900060ED74E083E494E0DFDA8091C00085FFAE
:1028A000FCCF8AE08093C600E0E3F5E081E081930D
:1028B00095E0EA33F907D9F70E94F94F0E94DF86C5
:1028C0000E94B4550E9405960E94ED7F80910101FF
:1028D000886080930101249A2C98089520E835E0BF
:1028E00080E090E0F901E80FF91F10820196803630
:1028F0009105C1F7205A3F4F89E02034380781F70E
:1029000083E494E0E8D910925B0510925A0581E0C7
:1029100090E0909341098093400989E090E0909382
:102920004509809344091092430910924209089581
:102930000F931F93CF93DF93009158051091590582
:1029400065E470E0C8010E9472A1EC01C801019623
:10295000209761F0188260E070E00E94909E25E46C
:102960002883DF91CF911F910F91089560E070E06F
:10297000DF91CF911F910F910C94909E80915805FB
:10298000909159054AE050E060E070E001960C94A7
:10299000F89F80915805909159054AE050E060E019
:1029A00070E001960E94F89FCB010895682F772769
:1029B00067FD709580914609909147090E9472A128
:1029C000909359058093580521E0892B09F420E064
:1029D000822F08950F931F93CF93DF938C0184E58B
:1029E000E5DF882361F1D5DFEC01181619064CF5F7
:1029F000EDEBFAE08491882341F09091C00095FFBF
:102A0000FCCF8093C6003196F5CF8091C00085FF42
:102A1000FCCF8DE48093C6004AE050E0B80183E427
:102A200094E01ADABE0185E498E0ADDC8091C00044
:102A300085FFFCCF8AE08093C60081E005C08091CD
:102A40005E058093410580E0DF91CF911F910F914A
:102A500008950F931F93CF93DF9300D000D0CDB78D
:102A6000DEB726E0E5E9F2E0DE01119601900D9275
:102A70002A95E1F7FC01EE0FFF1F21E030E02C0F5B
:102A80003D1FE20FF31F60817181161617061CF1BE
:102A9000EDEBFAE02491222341F03091C00035FFA4
:102AA000FCCF2093C6003196F5CFEEECF7E02491F1
:102AB000222341F03091C00035FFFCCF2093C600A7
:102AC0003196F5CF2091C00025FFFCCF2AE020935E
:102AD000C6006AE070E08C01000F111F000F111F8B
:102AE00003521C4F882777FD8095982F0E949E9A4D
:102AF0009B01AC01F80160817181828193810E9408
:102B0000039A609340027093410280934202909333
:102B1000430226960FB6F894DEBF0FBECDBFDF91FD
:102B2000CF911F910F9108958F929F92AF92BF9274
:102B3000CF92DF92EF92FF920F931F9320E030E04D
:102B400040E752E46091400270914102809142025C
:102B5000909143020E94039A4B015C01E09070093E
:102B6000F0907109009172091091730920916C091C
:102B700030916D0940916E0950916F09609168091B
:102B80007091690980916A0990916B09E0915E05E5
:102B9000EF93E4E7CE2EE9E0DE2E0E944E560F9032
:102BA0001F910F91FF90EF90DF90CF90BF90AF906B
:102BB0009F908F9008954F925F926F927F928F9225
:102BC0009F92AF92BF92EF92FF920F931F93CF937A
:102BD000DF93CDB7DEB728970FB6F894DEBF0FBEF0
:102BE000CDBF4B015C018091400290914102A091C8
:102BF0004202B091430289839A83AB83BC83412C08
:102C0000512CF4E36F2EF4E47F2E40924002509258
:102C100041026092420270924302E0927009F09287
:102C2000710900937209109373092D833E834F83BA
:102C300058877ADF0E94557E6091160270911702C4
:102C4000882777FD8095982F0E949E9A6093400276
:102C500070934102809342029093430280926809EC
:102C600090926909A0926A09B0926B092D813E8108
:102C70004F81588520936C0930936D0940936E09FC
:102C800050936F0951DF0E94557E89819A81AB81F3
:102C9000BC818093400290934102A0934202B09382
:102CA000430228960FB6F894DEBF0FBECDBFDF916A
:102CB000CF911F910F91FF90EF90BF90AF909F9099
:102CC0008F907F906F905F904F9008954F925F929A
:102CD0006F927F928F929F92AF92BF92CF92DF922C
:102CE000EF92FF920F931F932B013C0120E030E005
:102CF00040E752E4609140027091410280914202AB
:102D0000909143020E94039A4B015C0120916C094F
:102D100030916D0940916E0950916F096091680979
:102D20007091690980916A0990916B09E0915E0543
:102D3000EF93A4E7CA2EA9E0DA2E830172010E9464
:102D40004E560F901F910F91FF90EF90DF90CF9014
:102D5000BF90AF909F908F907F906F905F904F90BB
:102D600008958F929F92AF92BF92CF92DF92EF928F
:102D7000FF920F931F9320E030E040E752E40E945F
:102D8000039A4B015C01E0906009F09061090091A9
:102D900062091091630920915C0930915D094091AD
:102DA0005E0950915F0960915809709159098091AD
:102DB0005A0990915B09E0915E05EF93B4E6CB2E42
:102DC000B9E0DB2E0E944E560F901F910F91FF909D
:102DD000EF90DF90CF90BF90AF909F908F9008952D
:102DE00060914002709141028091420290914302B1
:102DF000B8CFCF92DF92EF92FF920F931F93E090A4
:102E00007009F09071090091720910917309209175
:102E10006C0930916D0940916E0950916F09609174
:102E200068097091690980916A0990916B09E4E7DA
:102E3000CE2EE9E0DE2E0E9497611F910F91FF9048
:102E4000EF90DF90CF9008954F925F926F927F92B4
:102E50008F929F92AF92BF92CF92DF92EF92FF92AA
:102E60000F931F93CF93DF93EC01FC01E258F54FD2
:102E7000F4908C01000F111F000F111FC801885919
:102E8000964F4C01FC011082118212821382B1DF35
:102E9000C8018357954FB3D82B013C016F2D77277D
:102EA00067FD7095872F972F0E949E9A6B017C017A
:102EB000C801885A964F5C0120E030E040EC5FE3A7
:102EC000C301B2010E94D19CA70196010E94D19C2E
:102ED000F5016083718382839383F801E352FC4F91
:102EE00080819181A281B3818093400290934102BD
:102EF000A0934202B093430273DF0E94557EF40117
:102F0000108211821282138274DF80E00E946D743D
:102F10000F57154FC80173D89058A70196010E940A
:102F2000D19CF501608371838283938359DF0E9472
:102F3000557E81E00E946D74CE018BDDC8015FD8A3
:102F40009B01AC010E942399A70196010E94D19C8C
:102F5000F501608371838283938342DF0E94557EF3
:102F6000CE0199D846DFF40180819181A281B3819D
:102F7000F50180839183A283B38310924002109263
:102F8000410210924202109243020E947A74FE01A2
:102F9000EB5AF64F81E08083CE5AD64F8883DF917B
:102FA000CF911F910F91FF90EF90DF90CF90BF9046
:102FB000AF909F908F907F906F905F904F9008950B
:102FC00080E1E8E5F9E0A8E6B9E001900D928A9584
:102FD000E1F70895EF92FF920F931F93E09070092D
:102FE000F09071090091720910917309E4DD1F914D
:102FF0000F91FF90EF900895EF92FF920F931F9320
:10300000E0907009F09071090091720910917309B4
:1030100020916C0930916D0940916E0950916F09B2
:10302000CADD1F910F91FF90EF900895EF92FF92EC
:103030000F931F937B018C0120916C0930916D09D6
:1030400040916E0950916F0960916809709169090A
:1030500080916A0990916B09AEDD1F910F91FF90ED
:10306000EF900895CF9380913F05823008F053C0D0
:1030700060E070E080EA90E4D9DFECE3F8E084916E
:10308000882341F09091C00095FFFCCF8093C6004B
:103090003196F5CF8091C00085FFFCCF8AE0809308
:1030A000C60020E030E04DE253E460E070E086EEE0
:1030B00092E490DF60E070E080E89FEBB7DFC6E06D
:1030C00020E030E04DE253E460E070E084E392E41D
:1030D00081DF20E030E04DE253E460E070E086EE16
:1030E00092E478DFC15061F760E070E080EA90E43C
:1030F0009DDF60E070E0CB017FDF60916809709137
:10310000690980916A0990916B0920E030E040ECF8
:1031100050EC60DF05C060E070E080EA90E486DF9C
:1031200080913F058F5F80933F05CF9108958F92E7
:103130009F92AF92BF92CF92DF92EF92FF920F9346
:103140001F93D9D885E492E00E94B09380E090E08C
:10315000A4E3B4E48093400290934102A09342021E
:10316000B093430281E08093400524982C9A60E05C
:1031700070E080E890ECAADD0E94557E82E090E04D
:103180000E94BB7E4B015C0120916C0930916D095E
:1031900040916E0950916F096091680970916909B9
:1031A00080916A0990916B09A4E7CA2EA9E0DA2EF2
:1031B000850174010E94976120E030E040E850EC06
:1031C000C501B4010E94FC99811102C01C9951C033
:1031D00089E89AE00E94FF0F9B01AC01C501B40190
:1031E0000E94239973DD0E94557E0E947A7482E0CA
:1031F00090E02FDC20E030E040E251E460914002BA
:103200007091410280914202909143020E94039A80
:103210006093400270934102809342029093430274
:1032200081E08093400524982C9A60E070E080E86B
:1032300090EC4CDD0E94557E249A2C980E947A7462
:103240001092400582E090E00E94BB7E609370097E
:103250007093710980937209909373091F910F9174
:10326000FF90EF90DF90CF90BF90AF909F908F90A6
:10327000C0CD249A2C98109240051F910F91FF9079
:10328000EF90DF90CF90BF90AF909F908F90EACE5D
:103290004F925F926F927F92AF92BF92CF92DF92E6
:1032A000EF92FF920F931F93CF93DF9300D01F9263
:1032B000CDB7DEB769837A838B839C8329013A017A
:1032C000C801B701B3DE6091680970916909809106
:1032D0006A0990916B09A30192017CDE69817A8170
:1032E0008B819C8189DEC0FC0E947C1020DF0091D4
:1032F000700910917109E0907209F090730920E053
:1033000030E040EA50E4B801C7010E94FC998823EC
:1033100009F455C0C1FE05C080911F0F81111092A4
:103320001F0F83E0A816B1040CF44EC0E5E9F5E0E8
:103330008491882341F09091C00095FFFCCF809349
:10334000C6003196F5CF23E030E049815A816B8188
:103350007C8183E494E00E94FE0FE0E9F5E0849133
:10336000882341F09091C00095FFFCCF8093C60068
:103370003196F5CF23E030E0B301A20183E494E07D
:103380000E94FE0FEBE8F5E08491882341F09091D4
:10339000C00095FFFCCF8093C6003196F5CF23E0A7
:1033A00030E0A801B70183E494E00E94FE0F809111
:1033B000C00085FFFCCF8AE08093C60005C000E016
:1033C00010E030E820EC02C03E2D2F2DB801832FF5
:1033D000922F0F900F900F900F90DF91CF911F9130
:1033E0000F91FF90EF90DF90CF90BF90AF907F90C4
:1033F0006F905F904F9008958F929F92AF92BF927F
:10340000CF92DF92EF92FF920F931F93CF93DF93B0
:10341000B9EDCB2EB3E0DB2EC8E6EC2EC9E0FC2ED6
:1034200008E519E0C0E0D0E0F60181916F01BEDA55
:10343000882309F461C07CDAFE01E458FA4F208148
:10344000211104C020915D05222331F0F701208174
:1034500031814281538103C020E030E0A9010E9404
:1034600023994B015C01C230D10571F420917009A0
:103470003091710940917209509173090E94FC9931
:1034800018160CF064C028C0C330D10509F45FC021
:10349000209781F4209168093091690940916A0967
:1034A00050916B090E94FC9918160CF050C0379B84
:1034B00023C04DC0C130D10579F420916C09309101
:1034C0006D0940916E0950916F090E94FF9B87FF23
:1034D0003EC01D993CC010C0209170093091710907
:1034E0004091720950917309C501B4010E94FF9B7C
:1034F00087FF2DC01C992BC0F70180819181A2818B
:10350000B381F80180839183A283B3832196F4E091
:10351000EF0EF11C0C5F1F4FC430D10509F084CFB2
:1035200086E444DA8823C9F003DA6B017C0120E0E9
:1035300030E0A9010E94FF9B18167CF4C092400263
:10354000D0924102E0924202F092430206C0F8019A
:1035500080829182A282B382D9CFDF91CF911F91D5
:103560000F91FF90EF90DF90CF90BF90AF909F9022
:103570008F900895EDEBFAE08491882341F09091CB
:10358000C00095FFFCCF8093C6003196F5CFE9E2ED
:10359000F8E08491882341F09091C00095FFFCCF22
:1035A0008093C6003196F5CFE0914809F091490922
:1035B0008191882339F09091C00095FFFCCF8093D2
:1035C000C600F6CFE6E2F8E08491882341F09091BE
:1035D000C00095FFFCCF8093C6003196F5CF0895CB
:1035E0004F925F926F927F928F929F92AF92BF9213
:1035F000CF92DF92EF92FF921F93CF93DF930E94BF
:10360000557E85E492E00E94B0930E94861180E18D
:10361000E8E6F9E0A8E5B9E001900D928A95E1F7B6
:103620001092400210924102109242021092430204
:1036300088E5BCD9D82F89E5B9D9C82F8AE5B6D98C
:10364000D11105C0C11107C091E0982705C0CC2356
:1036500011F0982F01C090E090931102911102C0D7
:10366000882319F082E090E0EFDB80911102811154
:1036700006C0DD2309F400C1CC2309F4FDC010927B
:103680006C0910926D0910926E0910926F091092D8
:1036900068091092690910926A0910926B09EEE7A5
:1036A000FAE01491A6DB8DE89AE00E94FF0F4B012F
:1036B0005C0181E99AE00E94FF0F6B017C019B0194
:1036C000AC01C501B4010E94FF9B18162CF4A501A2
:1036D0009401C701B60104C0A7019601C501B40158
:1036E0000E94039A2B013C0120E030E040EC5FE3B4
:1036F000C501B4010E94D19C4B015C01612F772769
:1037000067FD7095872F972F0E949E9A9B01AC01B1
:10371000C501B4010E94D19C609358097093590966
:1037200080935A0990935B09EFE7FAE0B49020E0A8
:1037300030E040EC5FE3C701B6010E94D19C6B0111
:103740007C016B2D772767FD7095872F972F0E943F
:103750009E9A9B01AC01C701B6010E94D19C609367
:103760005C0970935D0980935E0990935F09A301E2
:103770009201C301B2010E94D19C20E030E040E8F8
:103780005FE30E9423990E943E9D20E030E041EEDD
:1037900054E40E94D19C6093400270934102809354
:1037A0004202909343021CDB0E94557E80E090E031
:1037B0000E944B1081E090E00E944B101ADB409178
:1037C00068095091690960916A0970916B09409389
:1037D00058095093590960935A0970935B094091B5
:1037E0006C0950916D0960916E0970916F09409359
:1037F0005C0950935D0960935E0970935F09F0DA8C
:103800001092400210924102109242021092430222
:103810000E94557E0E947A7440915809509159092E
:1038200060915A0970915B09409368095093690946
:1038300060936A0970936B0940915C0950915D092E
:1038400060915E0970915F0940936C0950936D0916
:1038500060936E0970936F094091600950916109FE
:1038600060916209709163094093700950937109E6
:10387000609372097093730980911102811102C0E3
:10388000DD2319F080E090E0DFDA809111028111F0
:1038900002C0CC2319F081E090E0D6DAAADA809158
:1038A000780990917909A0917A09B0917B09809368
:1038B000400290934102A0934202B0934302809150
:1038C0007A0590917B0590933F0280933E020E947F
:1038D0007B110E947A74DF91CF911F91FF90EF903E
:1038E000DF90CF90BF90AF909F908F907F906F9020
:1038F0005F904F900C94A610EEE1F8E02491222303
:1039000079F03091C00035FFFCCF2093C60031968E
:10391000F5CF3091C00035FFFCCF2093C600019653
:10392000FC0124912111F5CFE6E0F8E08491882391
:1039300041F09091C00095FFFCCF8093C600319676
:10394000F5CF8091C00085FFFCCF8AE08093C60050
:1039500008950E947C100E94557E0E94861180E08E
:1039600090E0A4E3B4E48093400290934102A093DA
:103970004202B0934302DBDBE3E8F5E08491882365
:1039800041F09091C00095FFFCCF8093C600319626
:10399000F5CF20E030E0A9016091680970916909D4
:1039A00080916A0990916B090E94239927E137EB76
:1039B00041ED58E30E942399AB01BC0122E030E0C5
:1039C00083E494E00E94FE0FEEE7F5E08491882303
:1039D00041F09091C00095FFFCCF8093C6003196D6
:1039E000F5CF20E030E0A90160916C0970916D097C
:1039F00080916E0990916F090E94239927E137EB1E
:103A000041ED58E30E942399AB01BC0122E030E074
:103A100083E494E00E94FE0FE9E7F5E084918823B7
:103A200041F09091C00095FFFCCF8093C600319685
:103A3000F5CF27E137EB41ED58E3609170097091C4
:103A4000710980917209909173090E942399AB01C9
:103A5000BC0122E030E083E494E00E94FE0F8091FC
:103A6000C00085FFFCCF8AE08093C6000E94A811A9
:103A700080911F0F811110921F0F10923F050C941F
:103A8000A6108F929F92AF92BF92CF92DF92EF9249
:103A9000FF920F931F93CF93DF9300D01F92CDB768
:103AA000DEB785E40E94D614B82E811102C00E94B0
:103AB000557E19EDC12E13E0D12E0DE6E02E05E066
:103AC000F02E08E619E0812C912CA12CF6018191B1
:103AD0006F010E94D614882369F1F8012081318199
:103AE0004281538129833A834B835C830E949814DB
:103AF000F801608371838283938329813A814B81AA
:103B00005C81F3E08F169104A9F00E9422999B0139
:103B1000AC01F70160817181828193810E942399B8
:103B2000F7016083718382839383C4010E9405102F
:103B3000AA24A394FFEF8F1A9F0A84E0E80EF11CD9
:103B40000C5F1F4FE4E08E16910409F0BFCFAA204E
:103B500089F00F900F900F900F90DF91CF911F91F0
:103B60000F91FF90EF90DF90CF90BF90AF909F901C
:103B70008F903FC9BB20A1F084E799E00F900F9090
:103B80000F900F90DF91CF911F910F91FF90EF90C9
:103B9000DF90CF90BF90AF909F908F900C948B62EE
:103BA0000F900F900F900F90DF91CF911F910F9179
:103BB000FF90EF90DF90CF90BF90AF909F908F904D
:103BC00008950F931F93CF93DF93CDB7DEB76E9712
:103BD0000FB6F894DEBF0FBECDBF82E495E00E9421
:103BE0003481BC0180E090E02CE330E040E050E024
:103BF0000E94B99D7F936F933F932F938AE695E040
:103C00009F938F938E010F5F1F4F1F930F930E94FF
:103C1000B5A10FB6F894DEBF0FBECDBFEDEBFAE055
:103C20008491882341F09091C00095FFFCCF809350
:103C3000C6003196F5CFF8018191882339F0909133
:103C4000C00095FFFCCF8093C600F6CF8091C000E6
:103C500085FFFCCF8AE08093C6006E960FB6F8947D
:103C6000DEBF0FBECDBFDF91CF911F910F910895A1
:103C70000F931F93CF93DF9383E50E94D61488237D
:103C800089F10E94C9148C018F3F910509F050F50C
:103C900080E50E94D614882331F00E94C914EC01FB
:103CA00097FD20C002C0CDE0D0E0E3EAF3E08191CF
:103CB0009191C817D907B1F083E0E93DF807B9F74A
:103CC00061E08C2F0E943998602F8C2F0E9472988F
:103CD000B8018C2F0E942397289721F41093600538
:103CE00000935F05DF91CF911F910F9108952F925F
:103CF0003F924F925F926F927F928F929F92AF927C
:103D0000BF92CF92DF92EF92FF920F931F93CF93C8
:103D1000DF93CDB7DEB7C65ED1090FB6F894DEBF2C
:103D20000FBECDBF80915209882341F08091530985
:103D3000882321F08091540981111BC0CA51DF4FA3
:103D40000FB6F894DEBF0FBECDBFDF91CF911F91AC
:103D50000F91FF90EF90DF90CF90BF90AF909F902A
:103D60008F907F906F905F904F903F902F900C942A
:103D7000841086E50E94D6148823D1F00E94C914CD
:103D8000853070F0E5E4F5E08491882309F4B5C549
:103D90009091C00095FFFCCF8093C6003196F4CF80
:103DA000CF52DF4F8883C15DD0401816A4F406C0FF
:103DB00021E0CF52DF4F2883C15DD040E5E2F5E03E
:103DC0008491882341F09091C00095FFFCCF8093AF
:103DD000C6003196F5CF80E50E94D6148823B1F055
:103DE0000E94C9149CEF980F9F3210F4382E10C017
:103DF000E1E0F5E08491882309F47FC59091C0004B
:103E000095FFFCCF8093C6003196F4CFEAE03E2EBA
:103E10008090680990906909A0906A09B0906B0938
:103E200040906C0950906D0960906E0970906F0918
:103E3000C0907009D0907109E0907209F0907309F8
:103E400085E40E94D614C052DF4F8883C05ED04004
:103E500088E50E94D614882321F10E949814C75344
:103E6000DF4F688379838A839B83C95CD04020E0DD
:103E700030E0A9010E94FC9987FD10C020E030E0ED
:103E80004FE253E4C753DF4F688179818A819B8178
:103E9000C95CD0400E94FF9B181694F48FEF94E009
:103EA00039C020E030E0A901C501B4010E94239986
:103EB000C753DF4F688379838A839B83C95CD04073
:103EC00089E50E94D614882309F43EC00E94981404
:103ED000C353DF4F688379838A839B83CD5CD04053
:103EE00020E030E040E251EC0E94FC9987FD10C0D8
:103EF00020E030E04FE353E4C353DF4F6881798122
:103F00008A819B81CD5CD0400E94FF9B18165CF596
:103F10008DEF94E0CA51DF4F0FB6F894DEBF0FBEAD
:103F2000CDBFDF91CF911F910F91FF90EF90DF9068
:103F3000CF90BF90AF909F908F907F906F905F9049
:103F40004F903F902F90D8CC20E030E0A901C301E2
:103F5000B2010E942399C353DF4F688379838A8318
:103F60009B83CD5CD0408CE40E94D614182F88230C
:103F700001F10E94C914803170F0EAECF4E0849100
:103F8000882309F4BAC49091C00095FFFCCF8093B8
:103F9000C6003196F4CFCE52DF4F8883C25DD04049
:103FA000813061F432E0CE52DF4F3883C25DD040C1
:103FB00005C0CE52DF4F1882C25DD04083E50E941B
:103FC000D614882349F0112369F081E0CA52DF4FEB
:103FD0008883C65DD04012C0CA52DF4F1882C65DCA
:103FE000D0400CC091E0CA52DF4F9883C65DD040EC
:103FF000A7E0CE52DF4FA883C25DD040CF52DF4F43
:10400000B881C15DD040B330ECF420E030E040EA4C
:1040100050E4C701B6010E9423996B017C0185E43D
:1040200092E00E94B09320E030E040E251E4C7010A
:10403000B6010E94FC9987FF12C0C701B6010E9419
:1040400016180DC0E0EBF4E084918823F1F2909112
:10405000C00095FFFCCF8093C6003196F5CFC353C7
:10406000DF4F288139814A815B81CD5CD040C753C5
:10407000DF4F688179818A819B81C95CD0400E9431
:10408000EA170E948611CF52DF4F2881C15DD040D0
:10409000332727FD3095CC52DF4F39832883C45D09
:1040A000D040C052DF4F3881C05ED040332319F07A
:1040B00083E090E002C081E090E0CC52DF4FA88026
:1040C000B980C45DD0406C01E12CF12C00EA10E411
:1040D000C353DF4F288139814A815B81CD5CD04059
:1040E000C753DF4F688179818A819B81C95CD04049
:1040F000CFD820E030E0A90160917009709171097A
:1041000080917209909173090E9423990E94161858
:10411000CD52DF4F1882C35DD040C12CD12C760127
:1041200026013701832D992787FD9095C452DF4FD3
:1041300099838883CC5DD040CE52DF4FA881C25D89
:10414000D040BB27A7FDB0951197C252DF4FB9836E
:10415000A883CE5DD0400197CB51DF4F99838883F0
:10416000C55ED040CD52DF4FB881C35DD0402B2E0D
:10417000312CC452DF4F28813981CC5DD0402216CA
:1041800033060CF04BC30E945B960E94CF9864EFFD
:1041900071E080E090E00E948A96CE52DF4FB881B5
:1041A000C25DD040B11129C0C353DF4F288139818E
:1041B0004A815B81CD5CD040C753DF4F68817981F4
:1041C0008A819B81C95CD0400E94EA174101880C1A
:1041D000991C880C991CC052DF4F2881C05ED040CA
:1041E000222309F4D7C1CC52DF4FA880B980C45D27
:1041F000D04023E0C22ED12CE2C128E631E040E0DD
:1042000050E060E070E0CB010E94F8980E949E9A16
:104210006B017C012AE030E040E050E060E070E0BB
:10422000CB010E94F8980E949E9A20E030E040EA7C
:1042300050E40E94FF9B18161CF40FEF1FEF02C002
:1042400001E010E025E130E040E050E065E070E0A2
:1042500080E090E00E94F8980E949E9AC852DF4F3A
:10426000688379838A839B83C85DD040CF52DF4FB8
:104270003881C15DD04034309CF1AB01BC018EE986
:1042800094E00E94D411B701A60183E994E00E9452
:10429000D41164E670E080E090E00E948A960130DC
:1042A000110519F0E0EDF2E012C0E8EEF2E08191C4
:1042B000882381F09091C00095FFFCCF8093C600C9
:1042C000F6CF9091C00095FFFCCF8093C6008191FE
:1042D0008111F7CF64E670E080E090E00E948A965A
:1042E000C952DF4F1882C75DD040C801AA2797FD89
:1042F000A095BA2FCF51DF4F88839983AA83BB83C0
:10430000C15ED040C952DF4F3881C75DD040832F96
:1043100090E0C252DF4FA881B981CE5DD0408A17AC
:104320009B070CF041CFCA52DF4F9881C65DD04049
:10433000992399F0CF51DF4F688179818A819B81E0
:10434000C15ED0400E949E9A9B01AC010E942399BD
:1043500020E030E040E952E420C02DE230E040E0CF
:1043600050E069E170E080E090E00E94F8982B0155
:104370003C01CF51DF4F688179818A819B81C15E89
:10438000D0400E949E9A4B015C01C301B2010E9481
:104390009E9A9B01AC01C501B4010E94D19C9B0176
:1043A000AC01C701B6010E9423996B017C0120E09A
:1043B00030E044EB53E40E94FF9B18164CF420E0DD
:1043C00030E044EB53E4C701B6010E942299EDCFDF
:1043D00020E030E0A901C701B6010E94FC9987FFE7
:1043E0000BC020E030E044EB53E4C701B6010E946B
:1043F00023996B017C01ECCF2BED3FE049E450E4C5
:10440000C701B6010E94D19C20E030E044E353E4B0
:104410000E94039A2B013C010E94009AC852DF4F70
:10442000288139814A815B81C85DD0400E94D19C3E
:104430009B01AC01C753DF4F688179818A819B81E1
:10444000C95CD0400E9423994B015C01C301B201B9
:104450000E94349DC852DF4F288139814A815B8197
:10446000C85DD0400E94D19C9B01AC01C353DF4F7B
:10447000688179818A819B81CD5CD0400E9423999B
:104480002B013C0120E030E0A901C501B4010E94EC
:10449000FC9987FD11C020E030E04FE253E4C501F4
:1044A000B4010E94FF9B181654F4812C912C5FE2FA
:1044B000A52E53E4B52E03C0812C912C540120E08D
:1044C00030E040E251ECC301B2010E94FC9987FD4B
:1044D00011C020E030E04FE353E4C301B2010E9479
:1044E000FF9B18166CF4412C512C4FE3642E43E4CF
:1044F000742E06C0412C512C30E2632E31EC732E09
:10450000CF52DF4FA881C15DD040A4308CF1E8E0EC
:10451000F3E08191882339F09091C00095FFFCCFA2
:104520008093C600F6CFB501A4018FE894E00E9405
:10453000D411B301A2018BE894E00E94D411409100
:10454000700950917109609172097091730985E841
:1045500094E00E94D4118091C00085FFFCCFBAE0A6
:10456000B093C60067E370E080E090E00E948A9616
:10457000A3019201C501B4010E94EA17C952DF4F9D
:104580002881C75DD0402F5FC952DF4F2883C75DA8
:10459000D040B8CECB51DF4F28813981C55ED040A5
:1045A000CC52DF4FA880B980C45DD04022163306BC
:1045B00021F492E0C92ED12C02C0C12CD12CE12CC7
:1045C000F12C00EA10E4C353DF4F288139814A817E
:1045D0005B81CD5CD040C753DF4F688179818A8190
:1045E0009B81C95CD0400E944819E1E0F0E0EC0FEB
:1045F000FD1FE80DF91D608371838283938310E0B2
:10460000C12CD12C7601E1E0F0E0EC0FFD1F34E08D
:10461000139FE00DF11D11242081318142815381CE
:10462000C701B6010E9423996B017C011F5FCD5227
:10463000DF4F8881C35DD040811728F79FEF291A8B
:10464000390AB101882777FD8095982F0E949E9A9C
:104650004B015C019B01AC01C701B6010E94039AAA
:104660002B013C0110E0C12CD12C7601E1E0F0E0FF
:10467000EC0FFD1FA4E01A9FE00DF11D1124A30112
:10468000920160817181828193810E9422999B01B4
:10469000AC010E94D19C9B01AC01C701B6010E94F4
:1046A00023996B017C011F5FCD52DF4FB881C35D41
:1046B000D040B117D8F6A50194010E94039A0E9438
:1046C0003E9D6B017C01CF52DF4F2881C15DD04000
:1046D00022300CF473C04AE050E0B10183E494E06E
:1046E0000E942C0FE0E8F4E08491882341F090913F
:1046F000C00095FFFCCF8093C6003196F5CF4AE00D
:1047000050E0C452DF4F68817981CC5DD04083E4B2
:1047100094E00E942C0FE9E7F4E08491882341F0B3
:104720009091C00095FFFCCF8093C6003196F5CFE5
:1047300040917009509171096091720970917309EB
:1047400026E030E083E494E00E94FE0F62E370E034
:1047500080E090E00E948A96CF52DF4F3881C15DA1
:10476000D040323091F1E1E7F4E08491882341F0C8
:104770009091C00095FFFCCF8093C6003196F5CF95
:1047800026E030E0B301A20183E494E00E94FE0F32
:10479000E6E6F4E08491882341F09091C00095FF13
:1047A000FCCF8093C6003196F5CF26E030E0B7010C
:1047B000A60183E494E00E94FE0F07C0CF52DF4FB2
:1047C0008881C15DD040813039F48091C00085FF7F
:1047D000FCCF9AE09093C60062E370E080E090E046
:1047E0000E948A9620E030E040EA50E4609170092F
:1047F0007091710980917209909173090E942399B7
:104800000E941618CD52DF4FA881C35DD040AF5F24
:10481000CD52DF4FA883C35DD040A4CCCF52DF4F31
:104820003881C15DD040131614F5EFE5F4E08491B2
:10483000882341F09091C00095FFFCCF8093C60083
:104840003196F5CF26E030E0B301A20183E494E095
:104850000E94FE0F8091C00085FFFCCF8AE080930C
:10486000C60069E170E080E090E00E948A96EAE488
:10487000F4E08491882341F09091C00095FFFCCF33
:104880008093C6003196F5CF26E030E0B701A6014F
:1048900083E494E00E94FE0F8091C00085FFFCCF6E
:1048A0008AE08093C6008091C00085FFFCCF8AE03B
:1048B0008093C60069E170E080E090E00E948A96F3
:1048C0000E94A811CA51DF4F0FB6F894DEBF0FBE89
:1048D000CDBFDF91CF911F910F91FF90EF90DF90AF
:1048E000CF90BF90AF909F908F907F906F905F9090
:1048F0004F903F902F900C94A610CA51DF4F0FB6E7
:10490000F894DEBF0FBECDBFDF91CF911F910F9105
:10491000FF90EF90DF90CF90BF90AF909F908F90DF
:104920007F906F905F904F903F902F900895CF921F
:10493000DF92EF92FF920F931F93CF93DF9388E65E
:1049400090E00E94EA1481113EC080917C0983FDB1
:104950003AC083E50E94D6148823A9F10E949814D6
:104960006B017C010091410510E0E801CC0FDD1FD7
:10497000C855DF4E0E946B9A79836883C8010E94F4
:10498000C28720E030E040E752E4C701B6010E9450
:10499000FC99181664F082E495E0DF91CF911F91A5
:1049A0000F91FF90EF90DF90CF900C940E8182E4F6
:1049B00095E0DF91CF911F910F91FF90EF90DF90E5
:1049C000CF900C945B81DF91CF911F910F91FF905D
:1049D000EF90DF90CF900895E2E0F8E08491882393
:1049E00041F09091C00095FFFCCF8093C6003196B6
:1049F000F5CFE091410584E0E89FF0011124E257F2
:104A0000FF4E408151816281738121E030E083E477
:104A100094E00E94FE0FEFEFF7E08491882341F0CD
:104A20009091C00095FFFCCF8093C6003196F5CFE2
:104A3000E0914105F0E0EE0FFF1FE855FF4E608169
:104A40007181882777FD8095982F0E949E9AAB01EF
:104A5000BC0121E030E083E494E00E94FE0FEBEF24
:104A6000F7E08491882341F09091C00095FFFCCF3E
:104A70008093C6003196F5CF4091881050918910EF
:104A800060918A1070918B1021E030E083E494E013
:104A90000E94FE0FE8EFF7E08491882341F09091A7
:104AA000C00095FFFCCF8093C6003196F5CF609192
:104AB000A6107091A710882777FD8095982F0E94E7
:104AC0009E9AAB01BC0121E030E083E494E00E94B7
:104AD000FE0FE3EFF7E08491882341F09091C0004E
:104AE00095FFFCCF8093C6003196F5CF8FEF9FEFF7
:104AF0000E9418834AE050E0BC0183E494E00E94E5
:104B00002C0FEFEEF7E08491882341F09091C000E4
:104B100095FFFCCF8093C6003196F5CF809141057B
:104B200090E00E9418834AE050E0BC0183E494E0E6
:104B30000C942C0F89E690E00E94EA14811115C0B4
:104B4000E3E0F4E08491882341F09091C00095FF68
:104B5000FCCF8093C6003196F5CF3EDF8091C00038
:104B600085FFFCCF8AE08093C600089583E50E940C
:104B7000D614882319F00E94C91401C080E08093E4
:104B80007C09EDEBFAE08491882341F09091C0001C
:104B900095FFFCCF8093C6003196F5CFE3E4F4E0B7
:104BA0008491882341F09091C00095FFFCCF8093C1
:104BB000C6003196F5CF80917C09811103C0E5E3F1
:104BC000F4E03BC029E334E080E090E060E0ACE258
:104BD00040917C0950E0082E02C0559547950A94F3
:104BE000E2F740FF1AC071E0760F662331F0409182
:104BF000C00045FFFCCFA093C600F9014591549138
:104C0000FA016491662351F0E091C000E5FFFCCF0A
:104C10006093C6004F5F5F4FF3CF762F01962E5FF4
:104C20003F4F8530910561F0672FD2CF9091C00042
:104C300095FFFCCF8093C600319684918111F6CF09
:104C40008091C00085FFFCCF8AE08093C600089564
:104C500083E50E94D614882399F00E94981420E0DE
:104C600030E04AE754E40E94D19C0E94709A60931D
:104C700018027093190280931A0290931B020895F0
:104C800088E50E94D614811111C089E50E94D614CE
:104C900081110CC08AE50E94D614811107C085E4F9
:104CA0000E94D614811102C00C94D17E0E94557EC0
:104CB00088E50E94D614882319F0179A1092550996
:104CC00089E50E94D614882319F0169A1092560985
:104CD0008AE50E94D614882319F0159A1092570974
:104CE00085E40E94D614882311F0149A089508953B
:104CF0003F924F925F926F927F928F929F92AF926C
:104D0000BF92CF92DF92EF92FF920F931F93CF93B8
:104D1000DF93B9ED8B2EB3E09B2EC8EBDEE018ECF1
:104D2000A12E1EE0B12E08E71EE0312CF401819186
:104D30004F010E94D614882309F458C0F3E03F12B3
:104D40004FC00E9498146B017C0120E030E040EAE3
:104D500051E40E94FC9987FF3EC0A701960168813B
:104D600079818A819B810E94039A2B013C019B01DE
:104D7000AC0160918C0E70918D0E80918E0E909191
:104D80008F0E0E94D19C60938C0E70938D0E809339
:104D90008E0E90938F0EA3019201F50160817181B7
:104DA000828193810E94D19CF5016083718382830B
:104DB0009383F80160817181828193810E949C9A22
:104DC000A30192010E94D19C0E94709AF801608315
:104DD000718382839383C882D982EA82FB8206C070
:104DE0000E949814688379838A839B8333942496E2
:104DF000F4E0AF0EB11C0C5F1F4F84E0381296CF69
:104E0000DF91CF911F910F91FF90EF90DF90CF90A6
:104E1000BF90AF909F908F907F906F905F904F90DA
:104E20003F900895E1E2F3E08191882339F0909179
:104E3000C00095FFFCCF8093C600F6CF8091C000E4
:104E400085FFFCCF8AE08093C600E4E0F3E0849124
:104E5000882341F09091C00095FFFCCF8093C6005D
:104E60003196F5CF1E9903C0E2E1F3E009C0ECE111
:104E7000F3E006C09091C00095FFFCCF8093C60080
:104E800081918111F7CF8091C00085FFFCCF8AE02E
:104E90008093C600ECEFF2E08491882341F090917A
:104EA000C00095FFFCCF8093C6003196F5CF3799AF
:104EB00003C0E2E1F3E009C0ECE1F3E006C0909149
:104EC000C00095FFFCCF8093C60081918111F7CF80
:104ED0008091C00085FFFCCF8AE08093C600E4EF9C
:104EE000F2E08491882341F09091C00095FFFCCFBF
:104EF0008093C6003196F5CF1D9903C0E2E1F3E03F
:104F000009C0ECE1F3E006C09091C00095FFFCCF32
:104F10008093C60081918111F7CF8091C00085FFF9
:104F2000FCCF8AE08093C600ECEEF2E08491882307
:104F300041F09091C00095FFFCCF8093C600319660
:104F4000F5CF029903C0E2E1F3E009C0ECE1F3E040
:104F500006C09091C00095FFFCCF8093C600819160
:104F60008111F7CF8091C00085FFFCCF8AE080934C
:104F7000C60024982C9AE4EEF2E08491882341F054
:104F80009091C00095FFFCCF8093C6003196F5CF7D
:104F90001C9903C0E2E1F3E009C0ECE1F3E006C0D4
:104FA0009091C00095FFFCCF8093C6008191811144
:104FB000F7CF8091C00085FFFCCF8AE08093C600C8
:104FC000249A2C98ECEDF2E08491882341F09091A2
:104FD000C00095FFFCCF8093C6003196F5CF0199B4
:104FE00003C0E2E1F3E009C0ECE1F3E006C0909118
:104FF000C00095FFFCCF8093C60081918111F7CF4F
:105000008091C00085FFFCCF8AE08093C6000895A0
:1050100083E50E94D6148823F9F00E949814AB010E
:10502000BC014093A00E5093A10E6093A20E70930A
:10503000A30E4093980E5093990E60939A0E70931E
:105040009B0E84EB92E00E94D4118091C00085FFFA
:10505000FCCF8AE08093C60080E50E94D6148823A6
:10506000B9F00E949814AB01BC014093A00E50937C
:10507000A10E6093A20E7093A30E87E992E00E94A6
:10508000D4118091C00085FFFCCF8AE08093C600D8
:1050900082E50E94D6148823B9F00E949814AB01CF
:1050A000BC0140939C0E50939D0E60939E0E709396
:1050B0009F0E88E792E00E94D4118091C00085FF86
:1050C000FCCF8AE08093C60084E50E94D614882332
:1050D000B9F00E949814AB01BC014093980E509314
:1050E000990E60939A0E70939B0E8AE592E00E944F
:1050F000D4118091C00085FFFCCF8AE08093C60068
:10510000089583E50E94D614882351F00E949814D4
:105110006093A40E7093A50E8093A60E9093A70E95
:1051200084E50E94D614882351F00E94981460935D
:10513000880E7093890E80938A0E90938B0E82E472
:105140000E94D614882361F00E9498140E94709ADD
:105150006093D80E7093D90E8093DA0E9093DB0E85
:1051600088E50E94D614882351F00E949814609319
:10517000940E7093950E8093960E9093970E8AE5F9
:105180000E94D614882351F00E9498146093900EC8
:105190007093910E8093920E9093930E85E40E94EB
:1051A000D614882351F00E94981460938C0E70934B
:1051B0008D0E80938E0E90938F0E08958F929F92F6
:1051C000AF92BF92CF92DF92EF92FF920F931F9315
:1051D000CF93DF9309EDC02E03E0D02E88E6E82EB2
:1051E00089E0F82E01E615E0C0E0D0E0F6018191FB
:1051F0006F010E94D614882309F10E9498144B0174
:105200005C01F80120813181428153810E94229901
:105210009B01AC01F70160817181828193810E94C1
:105220002399F7016083718382839383F8018082DD
:105230009182A282B382CE010E9405102196F4E0F1
:10524000EF0EF11C0C5F1F4FC330D10579F60E94A1
:10525000F916DF91CF911F910F91FF90EF90DF90A2
:10526000CF90BF90AF909F908F900C94A61085E444
:105270000E94D614811110C080E50E94D6148823A4
:10528000A9F00E949814609385027093860280931F
:105290008702909388020AC00E9498140E946B9A19
:1052A000161617064CF7E3ECFAE0D5C089E40E9425
:1052B000D614882361F00E9498140E94B9916093DB
:1052C000810270938202809383029093840284E42B
:1052D0000E94D614882361F00E9498140E94C59100
:1052E00060937D0270937E0280937F029093800290
:1052F00083E40E94D614882351F00E94981460938E
:10530000790270937A0280937B0290937C028CE402
:105310000E94D614882341F00E9498140E946B9A30
:105320007093100260930F0280910F02909110020F
:10533000C39734F082E390E09093100280930F02C1
:105340000E94E382EDEBFAE08491882341F0909192
:10535000C00095FFFCCF8093C6003196F5CFEAE3FD
:10536000F3E08191882339F09091C00095FFFCCF44
:105370008093C600F6CF40918502509186026091DD
:1053800087027091880222E030E083E494E00E947A
:10539000FE0FEEE3F3E08191882339F09091C00095
:1053A00095FFFCCF8093C600F6CF6091810270918B
:1053B000820280918302909184020E94BF91AB018E
:1053C000BC0122E030E083E494E00E94FE0FE2E4BE
:1053D000F3E08191882339F09091C00095FFFCCFD4
:1053E0008093C600F6CF60917D0270917E0280911D
:1053F0007F02909180020E94CB91AB01BC0122E020
:1054000030E083E494E00E94FE0FE6E4F3E0819153
:10541000882339F09091C00095FFFCCF8093C6009F
:10542000F6CF4091790250917A0260917B0270919F
:105430007C0222E030E083E494E00E94FE0F809141
:10544000C00085FFFCCF1AC09091C00095FFFCCF33
:105450008093C600319684918111F6CFEAE4F3E09F
:105460008191882339F09091C00095FFFCCF809303
:10547000C600F6CF8091C00085FFFCCF8AE0809304
:10548000C600089580E50E94D614882351F00E943A
:105490009814609391027093920280939302909378
:1054A000940289E40E94D614882361F00E94981423
:1054B0000E94B99160938D0270938E0280938F0247
:1054C0009093900284E40E94D614882361F00E9495
:1054D00098140E94C5916093890270938A02809308
:1054E0008B0290938C020E94E382EDEBFAE08491B0
:1054F000882341F09091C00095FFFCCF8093C600B7
:105500003196F5CFEAE3F3E08191882339F0909169
:10551000C00095FFFCCF8093C600F6CF409191026A
:1055200050919202609193027091940222E030E0D7
:1055300083E494E00E94FE0FEEE3F3E08191882380
:1055400039F09091C00095FFFCCF8093C600F6CF54
:1055500060918D0270918E0280918F0290919002E5
:105560000E94BF91AB01BC0122E030E083E494E0F3
:105570000E94FE0FE2E4F3E08191882339F09091DC
:10558000C00095FFFCCF8093C600F6CF60918902E2
:1055900070918A0280918B0290918C020E94CB9133
:1055A000AB01BC0122E030E083E494E00E94FE0FF6
:1055B0008091C00085FFFCCF8AE08093C6000895EB
:1055C000EF92FF920F93CF93DF9385E40E94D6145E
:1055D000882321F00E94C914EC0102C0C0E0D0E091
:1055E00083E40E94D614882321F00E94C9147C0110
:1055F00003C095E0E92EF12C85E50E94D61488239E
:1056000029F00E94C91401E0892B09F400E083E528
:105610000E94D614882319F00E94981406C0D7FD62
:1056200009C060E070E086E193E4209739F41092BD
:10563000410504C060E070E08CE892E49701AE019F
:105640000E942D8BDF91CF910F91FF90EF900895E5
:105650002F923F924F925F926F927F928F929F9282
:10566000AF92BF92CF92DF92EF92FF920F931F9370
:10567000CF93DF9300D000D0CDB7DEB782E599E0BD
:105680009C838B83E1E6F5E0FA83E98308E619E081
:105690001E821D82212C312CEB81FC818191FC83A7
:1056A000EB83882309F4ADC0ED81FE81E45EFD4FFC
:1056B0002081318142815381ED81FE81E85DFD4F82
:1056C00060817181828193810E94239920E030E082
:1056D00040E05FE30E94D19C9B01AC01F801608136
:1056E0007181828193810E94FF9B18164CF48D81F9
:1056F0009E818756954F0E94FF0F9B01AC0103C00E
:1057000020E030E0A901F80180809180A280B38080
:10571000C501B4010E9422996B017C0120E030E0B8
:1057200040EA51EC0E94FF9B18161CF0E3ECFAE0F3
:1057300038C020E030E040EA51E4C701B6010E94E1
:10574000FC9987FFF3CFE981FA8140805180628024
:105750007380A7019601C301B2010E9422996B01D7
:105760007C01A30192010E9422999B01AC01C50119
:10577000B4010E942399F80160837183828393832B
:10578000E981FA81C082D182E282F382C1010E9462
:10579000051037C09091C00095FFFCCF8093C600E4
:1057A000319684918111F6CFEDE3F2E08491882364
:1057B00041F09091C00095FFFCCF8093C6003196D8
:1057C000F5CF8091C00085FFFCCF8AE08093C600B2
:1057D00026960FB6F894DEBF0FBECDBFDF91CF91F6
:1057E0001F910F91FF90EF90DF90CF90BF90AF90FF
:1057F0009F908F907F906F905F904F903F902F90F1
:105800000895FFEF2F1A3F0A89819A8104969A839F
:105810008983ED81FE813496FE83ED830C5F1F4FFB
:10582000F3E02F16310409F037CF0E94F9162696BF
:105830000FB6F894DEBF0FBECDBFDF91CF911F91A1
:105840000F91FF90EF90DF90CF90BF90AF909F901F
:105850008F907F906F905F904F903F902F900C941F
:10586000A610CF92DF92EF92FF92EDEBFAE08491D7
:10587000882341F09091C00095FFFCCF8093C60033
:105880003196F5CFE4E3F2E08491882341F09091E2
:10589000C00095FFFCCF8093C6003196F5CF809174
:1058A000C00085FFFCCF80E28093C6008AE50E949D
:1058B000D614882309F452C00E9498146B017C010D
:1058C00020E030E040E050EC0E94FF9B87FD0AC0E2
:1058D00020E030E040EA50E4C701B6010E94FC99A4
:1058E00018161CF4ECE2F2E018C0C0921202D0923A
:1058F0001302E0921402F092150222E030E0B701A8
:10590000A60183E494E00E94FE0F34C09091C00091
:1059100095FFFCCF8093C600319684918111F6CF1C
:105920004AE050E06EEF7FEF83E494E00E942C0F9A
:10593000E4E2F2E08491882341F09091C00095FF69
:10594000FCCF8093C6003196F5CF4AE050E065E089
:1059500070E083E494E00E942C0F0CC0409112028E
:1059600050911302609114027091150281E292E04D
:105970000E94D4118091C00085FFFCCF8AE0809303
:10598000C600FF90EF90DF90CF90089588E50E94C9
:10599000D614882339F00E9498140E946B9A80E0F4
:1059A0000E941E7F8AE50E94D614882339F00E9447
:1059B00098140E946B9A81E00E941E7F85E40E94E9
:1059C000D614882339F00E9498140E946B9A82E0C2
:1059D0000C941E7F08951F93CF93DF9383E50E945D
:1059E000D614811104C0C9EDD3E010E00FC0C0E0AF
:1059F0000E9498140E94709A8C2F0E948B7FCF5F18
:105A0000C530B1F7F0CF1F5F143069F089910E9463
:105A1000D6148823C1F30E9498140E94709A812F93
:105A20000E948B7FF0CF82E40E94D614882339F045
:105A30000E9498140E94709A84E00E948B7FDF91EC
:105A4000CF911F910C9452801F93CF93DF9383E5E6
:105A50000E94D614882309F44AC00E94C9148130D8
:105A6000910539F0029709F042C0C9EDD3E010E08A
:105A700021C0C9EDD3E010E089910E94D61488239B
:105A800041F00E9498140E946B9A4FEF812F0E9460
:105A90004D7F1F5F143081F782E40E94D614882363
:105AA00031F10E9498140E946B9A4FEF1DC01F5F46
:105AB000143079F089910E94D6148823C1F30E9492
:105AC00098140E946B9A462F6FEF812F0E944D7F92
:105AD000EECF82E40E94D614882349F00E949814E5
