:100000000C94820D0C94B30D0C94B30D0C94B30DA1
:100010000C94B30D0C94B30D0C94B30D0C94B30D60
:100020000C94B30D0C94B30D0C94B30D0C94B30D50
:100030000C94B30D0C94B30D0C94B30D0C94B30D40
:100040000C94B30D0C948E780C94B30D0C94B30DEA
:100050000C94B30D0C94B30D0C9466900C944396D1
:100060000C94B30D0C94B50D0C94B30D0C94B30D0E
:100070000C94B30D0C94B30D0C94B30D0C94B30D00
:100080000C94B30D0C94B30D0C94B30D0C94B30DF0
:100090000C94B30D0C94B30D0C94B30D0C94B30DE0
:1000A0000C94B30D0C94B30D0C94B30D0C94B30DD0
:1000B0000C94B30D0C94B30D0C94B30D0C94B30DC0
:1000C0000C94B30D0C94B30D0C94B30D0C94B30DB0
:1000D0000C94B30D0C94B30D0C94B30D0C94B30DA0
:1000E0000C94B30D8D438D43984398439843A34399
:1000F000A343A343DB43D143D143D143AF90BC904F
:10010000DB90E890039110912B912E9131913491D5
:1001100037913A91449178977D9782978C979697EB
:100120000F98A097A897B097BA97C497CE97DD97E6
:10013000E7970F98F197FB97059830983398229896
:1001400026982C986A9837983B98419845984998F2
:100150004F98539857986A985D9861986598084A9F
:10016000D73B3BCE016E84BCBFFDC12F3D6C7431CB
:100170009ABD56833DDA3D00C77F11BED9E4BB4C22
:100180003E916BAAAABE000000803F05A84CCDB2EC
:10019000D44EB93836A9020C50B9918688083CA6CD
:1001A000AAAA2ABE000000803F005072696E7465E2
:1001B000722068616C7465642E206B696C6C2829F0
:1001C0002063616C6C656421004B494C4C45442EA6
:1001D000200052586275662066756C6C0020746F42
:1001E0006F206C6F6E6720657874727573696F6EBF
:1001F0002070726576656E7465640020636F6C6450
:1002000020657874727573696F6E2070726576659B
:100210006E746564006F6B00526573656E643A209E
:10022000003A20007A5F6D61783A20007A5F6D694C
:100230006E3A20005A204F666673657400546F6FE3
:10024000206661722066726F6D20726566657265E8
:100250006E636520706F696E740053657474696EA7
:10026000672054726176656C20416363656C6572CA
:100270006174696F6E3A200053657474696E67200B
:100280005265747261637420416363656C65726169
:1002900074696F6E3A200053657474696E672050FC
:1002A00072696E7420416363656C65726174696F15
:1002B0006E3A200053657474696E67205072696EDF
:1002C0007420616E642054726176656C20416363B2
:1002D000656C65726174696F6E3A20007A5F6D615A
:1002E000783A20007A5F6D696E3A2000795F6D611F
:1002F000783A2000795F6D696E3A2000785F6D6111
:10030000783A2000785F6D696E3A20004649524D78
:10031000574152455F4E414D453A4D61726C696E91
:1003200020312E312E302E32202028416C6570680D
:10033000204F626A6563747320496E632E277320B1
:100340005068616272696361746F722920534F55FE
:100350005243455F434F44455F55524C3A6874746D
:1003600070733A2F2F636F64652E616C6570686FD0
:10037000626A656374732E636F6D2F646966667558
:1003800073696F6E2F4D41524C494E2050524F545D
:100390004F434F4C5F56455253494F4E3A312E30E2
:1003A000204D414348494E455F545950453A4C759C
:1003B0006C7A426F74204D696E69204558545255CD
:1003C0004445525F434F554E543A312055554944A8
:1003D0003A33353134383762362D636139612D3423
:1003E0006331612D383736352D64363638623164E5
:1003F00061363538350A003F0020573A003F00206B
:10040000573A006F6B004B494C4C45442E20004539
:1004100043484F00494E464F004552524F525300F9
:1004200044525952554E00434F4D4D554E4943414C
:1004300054494F4E006F6666000F041404190420DF
:1004400004270444454255473A005374616E646181
:10045000726420446576696174696F6E3A20004D5C
:1004600065616E3A20002020207369676D613A2033
:1004700000206D65616E3A20002020207A3A20002D
:10048000206F66200020207A3A2000793A200078F8
:100490003A2000202020616E676C653A200053747A
:1004A000617274696E67207261646975733A2000C5
:1004B000506F736974696F6E696E67207468652028
:1004C00070726F62652E2E2E0A003F4E756D62654A
:1004D00072206F66206C65677320696E206D6F7681
:1004E000656D656E74206E6F7420706C61757369D4
:1004F000626C652028302D3135292E0A00590058AC
:10050000003F53616D706C652073697A65206E6F72
:100510007420706C61757369626C652028342D35A8
:1005200030292E0A004D3438205A2D50726F6265E2
:10053000205265706561746162696C6974792074B8
:100540006573740A003F566572626F7365204C656F
:1005500076656C206E6F7420706C61757369626C67
:10056000652028302D34292E0A002569206D696EFA
:100570002C2025692073656300205A3A20002059F9
:100580003A200042656420583A2000205A3A200060
:1005900020593A200042656420583A2000486F6D87
:1005A0006520582F59206265666F7265205A0020B9
:1005B0002B00200A436F7272656374656420426584
:1005C00064204865696768742076732E20426564EC
:1005D00020546F706F6C6F67793A200A00202B00EF
:1005E0002028302C30290A002020204F2D2D204695
:1005F000524F4E54202D2D2B0A002020207C2020ED
:100600002020202020202020207C0A002020207C68
:1006100020202020282D29202020207C20540A0062
:100620002054207C20202020202020202020207CDE
:1006300020480A002046207C20282D29204E2028F2
:100640002B29207C20470A002045207C20202020C8
:10065000202020202020207C20490A00204C207CC3
:1006600020202020282B29202020207C20520A0016
:100670002020207C20202020202020202020207CC2
:100680000A002020202B2D2D2D204241434B202DD0
:100690002D2B0A00200A426564204865696768744A
:1006A00020546F706F6772617068793A200A004D4C
:1006B00065616E206F662073616D706C656420707B
:1006C0006F696E74733A200020643A200020623A09
:1006D000200045716E20636F656666696369656EAB
:1006E00074733A20613A200050524F4245204641EF
:1006F000494C20434C45414E204E4F5A5A4C4500E0
:1007000028422961636B00284629726F6E740028A5
:1007100052296967687400284C29656674003F4E49
:10072000756D626572206F662070726F62656420FD
:100730002850296F696E747320697320696D706C1D
:1007400061757369626C65202832206D696E696D10
:10075000756D292E0A0052756E6E696E6720696E7E
:10076000204452592D52554E206D6F64650047321A
:1007700039204175746F20426564204C6576656C44
:10078000696E670A003F2856296572626F7365209B
:100790004C6576656C20697320696D706C6175734A
:1007A00069626C652028302D34292E00205A3A00C9
:1007B00020593A0020436F756E7420583A2000206B
:1007C000453A00205A3A0020593A00583A005761F9
:1007D000726E696E673A20486F6D696E6720427568
:1007E0006D702044697669736F72203C203100205F
:1007F000403A002042403A00202F0020423A002098
:100800002F0020543A0020706F736974696F6E2056
:100810006F7574206F662072616E67652E003F50A1
:10082000726F62652000220A00556E6B6E6F776EE4
:1008300020636F6D6D616E643A20220052657769A6
:1008400070696E670020496E76616C696420657816
:1008500074727564657220004B494C4C45442E20DF
:10086000005072696E7465722073746F7070656485
:100870002064756520746F206572726F72732E200C
:1008800046697820746865206572726F7220616EA7
:100890006420757365204D39393920746F20726575
:1008A00073746172742E202854656D706572617462
:1008B0007572652069732072657365742E205365A7
:1008C0007420697420616674657220726573746146
:1008D0007274696E6729004E6F204C696E65204EF8
:1008E000756D626572207769746820636865636BF3
:1008F00073756D2C204C617374204C696E653A20C1
:10090000004E6F20436865636B73756D2077697463
:1009100068206C696E65206E756D6265722C204C66
:10092000617374204C696E653A2000636865636B7F
:1009300073756D206D69736D617463682C204C61F3
:100940007374204C696E653A20004C696E65204EC8
:10095000756D626572206973206E6F74204C6173CF
:1009600074204C696E65204E756D6265722B312C5A
:10097000204C617374204C696E653A20004D313112
:1009800030002020506C616E6E657242756666653F
:100990007242797465733A20002046726565204D75
:1009A000656D6F72793A20004A756C2020312032D3
:1009B00030313600436F6D70696C65643A200028F1
:1009C000416C657068204F626A6563747320496E7C
:1009D000632E2C204C756C7A426F74204D696E69C1
:1009E0002900207C20417574686F723A20003230F3
:1009F00031362D30342D32372031323A303000202C
:100A00004C61737420557064617465643A200020F1
:100A1000312E312E302E3220004D61726C696E0005
:100A200020536F6674776172652052657365740038
:100A3000205761746368646F672052657365740042
:100A40002042726F776E206F7574205265736574E3
:100A5000002045787465726E616C20526573657410
:100A600000506F7765725570007374617274002264
:100A700000656E7175657565696E67202200FF01FE
:100A8000010000A0400000A0400000004000002540
:100A90004300004943000021430000000000003FE4
:100AA0004300001F430000254300003F4300001F98
:100AB0004300000000000020C1000000C065636822
:100AC0006F3A004572726F723A0020204D3835310E
:100AD000205A005A2D50726F6265204F666673650A
:100AE0007420286D6D293A0020204D32303020448A
:100AF000300020204D3230302044002044697361A2
:100B0000626C65640046696C616D656E7420736526
:100B10007474696E67733A002044002049002020F5
:100B20004D333034205000204C002043002044003E
:100B300020490020204D33303120500050494420BE
:100B400073657474696E67733A00205A0020590007
:100B500020204D323036205800486F6D65206F667A
:100B60006673657420286D6D293A00204500205A6F
:100B70000020580020420020540020204D32303503
:100B8000205300416476616E63656420766172690A
:100B900061626C65733A20533D4D696E20666565F0
:100BA000647261746520286D6D2F73292C20543D6B
:100BB0004D696E2074726176656C2066656564723D
:100BC00061746520286D6D2F73292C20423D6D695D
:100BD0006E696D756D207365676D656E74207469DF
:100BE0006D6520286D73292C20583D6D6178696DE5
:100BF000756D205859206A65726B20286D6D2F73B2
:100C0000292C20205A3D6D6178696D756D205A2020
:100C10006A65726B20286D6D2F73292C2020453D4D
:100C20006D6178696D756D2045206A65726B20284D
:100C30006D6D2F73290020540020520020204D326A
:100C40003034205000416363656C65726174696F74
:100C50006E733A20503D7072696E74696E672C2015
:100C6000523D7265747261637420616E6420543DFC
:100C700074726176656C00204500205A002059008E
:100C800020204D3230312058004D6178696D756DEE
:100C900020416363656C65726174696F6E20286DB5
:100CA0006D2F7332293A00204500205A0020590048
:100CB00020204D3230332058004D6178696D756DBC
:100CC0002066656564726174657320286D6D2F738D
:100CD000293A00204500205A0020590020204D3993
:100CE0003220580053746570732070657220756EE1
:100CF00069743A0048617264636F64656420446596
:100D00006661756C742053657474696E6773204CEA
:100D10006F616465640020627974657329002073D3
:100D2000746F7265642073657474696E6773207282
:100D3000657472696576656420280020627974653F
:100D400073290053657474696E67732053746F72EE
:100D500065642028004572726F7220777269746929
:100D60006E6720746F20454550524F4D210020740E
:100D70006F6F206C6F6E6720657874727573696F22
:100D80006E2070726576656E7465640020636F6CAA
:100D90006420657874727573696F6E207072657601
:100DA000656E7465640045303A20005A3A20005957
:100DB0003A2000583A20004D53312C4D53322050E8
:100DC000696E730A00205A3A0020593A0020583AB6
:100DD00000656E6473746F7073206869743A2000E4
:100DE00024F4D43050C38E20C2A24017828B7011DD
:100DF000127A910D816CD90AA861E108C75866077B
:100E0000615143061E4B5D05C145A7041A411104FB
:100E1000093D9803713931034036DB026533910295
:100E2000D4305402802E1D02632CEE01752AC501B8
:100E3000B028A001102781018F2564012B244B01CC
:100E4000E0223401AC211F018D200D01801FFC0028
:100E5000841EED00971DDF00B81CD200E61BC60003
:100E6000201BBC00641AB200B219A8000A19A00025
:100E70006A189900D117910040178B00B5168400AD
:100E800031167E00B31579003A157300C7146F0050
:100E900058146A00EE1366008813630025135E0081
:100EA000C7125B006C12570015125400C11151009B
:100EB00070114F0021114B00D61049008D104700D2
:100EC0004610440002104200C00F4000800F3E0058
:100ED000420F3C00060F3B00CB0E3800930E37004C
:100EE0005C0E3500270E3400F30D3200C10D3100C9
:100EF000900D3000600D2E00320D2D00050D2C00E0
:100F0000D90C2B00AE0C2900850C29005C0C2700A5
:100F1000350C27000E0C2600E80B2400C40B24001F
:100F2000A00B23007D0B23005A0B2100390B21005D
:100F3000180B2000F80A1F00D90A1E00BB0A1E0069
:100F40009D0A1D00800A1D00630A1C00470A1B0041
:100F50002C0A1B00110A1A00F7091A00DD091900F2
:100F6000C4091900AB091900920917007B09180080
:100F7000630917004C0916003609160020091600EF
:100F80000A091500F5081500E0081400CC08140043
:100F9000B8081400A4081400900813007D0812007B
:100FA0006B0813005808120046081200340811009C
:100FB000230811001208110001081100F0071000A9
:100FC000E0071000D0071000C0071000B0070F00A6
:100FD000A107100091070E0083070F0074070F0090
:100FE00065070E0057070E0049070E003B070D006E
:100FF0002E070E0020070D0013070D0006070D0039
:10100000F9060C00ED060D00E0060C00D4060C00FD
:10101000C8060C00BC060C00B0060C00A4060B00B1
:1010200099060C008D060B0082060B0077060B005C
:101030006C060B0061060A0057060B004C060A00FE
:1010400042060A0038060A002E060A0024060A0094
:101050001A060A001006090007060A00FD05090025
:10106000F4050900EB050900E2050900D9050900AE
:10107000D0050900C7050900BE050900B50508002F
:10108000AD050800A50509009C05080094050800A9
:101090008C050800840508007C050800740508001C
:1010A0006C050700650508005D050700560508008A
:1010B0004E050700470507004005080038050700F2
:1010C000310507002A050700230507001C05060057
:1010D000160507000F0507000805060002050700B2
:1010E000FB040600F5040700EE040600E804060011
:1010F000E2040700DB040600D5040600CF04060066
:10110000C9040600C3040600BD040600B7040600B7
:10111000B1040500AC040600A6040600A004050006
:101120009B04060095040500900406008A0405004F
:1011300085040500800406007A0405007504050096
:10114000700405006B0405006604050061040500D9
:101150005C04050057040500520405004D04050019
:1011600048040500430405003E0404003A04050059
:1011700035040500300404002C0405002704040095
:10118000230405001E0404001A04040016040500CC
:10119000110404000D040400090405000404040003
:1011A00000040400FC030400F8030400F40304003A
:1011B000F0030400EC030400E8030400E40304006B
:1011C000E0030400DC030400D8030400D40304009B
:1011D000D0030400CC030400C8030300C5030300CC
:1011E00024F404D9201BC40C5C0E9804C4095F02CB
:1011F00065077101F405F900FB04B300480487009A
:10120000C10369005803550003034500BE023A00BC
:101210008402310053022A00290225000402200022
:10122000E4011C00C8011900AF0117009801140067
:1012300084011300710110006101100051010E00C2
:1012400043010D0036010B002B010B0020010B00A8
:10125000150109000C01090003010800FB0008004A
:10126000F3000800EB000700E4000600DE000600C3
:10127000D8000600D2000600CC000500C70005001B
:10128000C2000500BD000400B9000400B500040060
:10129000B1000400AD000400A9000400A500030093
:1012A000A20003009F0004009B00030098000300BD
:1012B0009500020093000300900003008D000200DF
:1012C0008B000300880002008600020084000300F7
:1012D000810002007F0002007D0002007B0002000E
:1012E000790002007700010076000200740002001D
:1012F00072000100710002006F0002006D00010029
:101300006C0002006A000100690002006700010031
:101310006600010065000100640002006200010037
:1013200061000100600001005F0002005D0001003B
:101330005C0001005B0001005A000100590001003F
:10134000580001005700010056000100550001003F
:10135000540001005300000053000100520001003E
:1013600051000100500001004F0001004E0000003C
:101370004E0001004D0001004C0001004B00000038
:101380004B0001004A000100490001004800000034
:10139000480001004700010046000000460001002F
:1013A000450000004500010044000100430000002A
:1013B0004300010042000000420001004100000023
:1013C00041000100400001003F0000003F0001001B
:1013D0003E0000003E0001003D0000003D00010015
:1013E0003C0000003C0000003C0001003B0000000D
:1013F0003B0001003A0000003A0001003900000003
:1014000039000100380000003800000038000100F9
:1014100037000000370001003600000036000000F1
:1014200036000100350000003500000035000100E5
:1014300034000000340000003400010033000000DC
:1014400033000000330001003200000032000000D1
:1014500032000100310000003100000031000100C5
:101460003000000030000000300001002F000000BC
:101470002F0000002F0000002F0001002E000000B0
:101480002E0000002E0001002D0000002D000000A5
:101490002D0000002D0001002C0000002C00000099
:1014A0002C0000002C0001002B0000002B0000008D
:1014B0002B0000002B0001002A0000002A00000081
:1014C0002A0000002A000100290000002900000075
:1014D0002900000029000000290001002800000068
:1014E000280000002800000028000000280001005B
:1014F0002700000027000000270000002700000050
:101500002700010026000000260000002600000041
:101510002600000026000100250000002500000034
:101520002500000025000000250000002500010026
:10153000240000002400000024000000240000001B
:10154000240001002300000023000000230000000D
:1015500023000000230000002300000023000100FE
:1015600022000000220000002200000022000000F3
:1015700022000000220001002100000021000000E4
:1015800021000000210000002100000021000000D7
:1015900021000100200000002000000020000000C9
:1015A00020000000200000002000000020000000BB
:1015B000200001001F0000001F0000001F000000AD
:1015C0001F0000001F0000001F0000001F0001009E
:1015D0001E0000001E0000001E0000001E00000093
:1015E0004D494E54454D5020747269676765726568
:1015F00064004572723A204D494E54454D50204288
:101600004544004D415854454D50207472696767F8
:1016100065726564004572723A204D415854454DDB
:10162000502042454400546865726D616C205275CB
:101630006E6177617900544845524D414C205255B6
:101640004E415741590048656174696E6720666173
:10165000696C65640048656174696E6720666169DC
:101660006C65640048656174696E67206661696CC9
:1016700065640048656174696E67206661696C65C0
:1016800064004D494E54454D50207472696767653A
:10169000726564004572723A204D494E54454D5072
:1016A00000626564002C2073797374656D20737417
:1016B0006F7070656421204865617465725F49448C
:1016C0003A20004D415854454D5020747269676767
:1016D00065726564004572723A204D415854454D1B
:1016E00050004B64200023646566696E65202044C9
:1016F000454641554C545F004B69200023646566A4
:10170000696E65202044454641554C545F004B703E
:10171000200023646566696E652020444546415576
:101720004C545F00504944204175746F74756E6568
:101730002066696E69736865642120507574207431
:101740006865206C617374204B702C204B6920619C
:101750006E64204B6420636F6E7374616E747320CB
:1017600066726F6D2062656C6F7720696E746F2092
:10177000436F6E66696775726174696F6E2E68007B
:10178000504944204175746F74756E6520666169B7
:101790006C6564212074696D656F757400504944EF
:1017A000204175746F74756E65206661696C65643F
:1017B000212054656D706572617475726520746F57
:1017C0006F206869676800204B643A2000204B69ED
:1017D0003A2000204B703A200020436C61737369FB
:1017E000632050494420002054753A2000204B7556
:1017F0003A2000206D61783A2000206D696E3A2011
:101800000020643A200020626961733A20001000D1
:10181000AD0330016A0150022B0170030A019004EC
:10182000F500B005E500D006D800F007CE0010099D
:10183000C500300ABE00500BB700700CB100900D0F
:10184000AB00B00EA600D00FA200F0109D00101249
:101850009900301395005014920070158E00901668
:101860008B00B0178700D0188400F0198100101B7E
:101870007E00301C7B00501D7900701E7600901F8A
:101880007300B0207000D0216E00F0226B00102495
:10189000690030256600502663007027610090289B
:1018A0005E00B0295C00D02A5900F02B5600102DA4
:1018B0005400302E5100502F4E0070304B009031AC
:1018C0004800B0324500D0334200F0343E001036BC
:1018D0003B00303737005038330070392E00903AD3
:1018E0002900B03B2300D03C1B00F03D1100103F0D
:1018F0000100F03F00001000C90210012C0140015E
:10190000220170011801B0010E01F0010401500222
:10191000FA00B002F0003003E600D003DC009004CF
:10192000D2007005C800A006BE000008B400B009CF
:10193000AA00D00BA000600E960060118C0000156C
:10194000820020197800C01D6E00A0226400B0271C
:101950005A00902C500000314600E0343C00103812
:101960003200903A2800603C1E00A03D1400803EEA
:101970000A00203F000000000A0B02090C0D0E08AF
:101980000703040100000000000000000000000048
:101990000000000000000000000000000000000047
:1019A0000000121110000000000000000000000004
:1019B0000000000000000000000000000000000027
:1019C00000000000000000000000000001021020E4
:1019D0002008081020401020408002010201080465
:1019E00002010102040810204080804020100804F9
:1019F0000201800402018040201008040201080452
:101A00000201010204081020408001020408102095
:101A100040801008040880102040044080102040BE
:101A200004800505050507050808080802020202EA
:101A30000A0A08080404040401010101010101016A
:101A40000303030303030303040707070C0C0C0C35
:101A50000C0C0C0C0202020206060606060606061E
:101A60000B0B0B0B0B0B0B0B07070A0A0A0A0A0AD4
:101A700005050504040408080000200023002600D2
:101A800029002C002F003200000100000301060194
:101A9000090100002200250028002B002E00310043
:101AA000340002010000050108010B0100002100C3
:101AB000240027002A002D0030003300010100001F
:101AC000040107010A014E414E494E495459494EFD
:101AD00046CDCCCC3D0AD7233C17B7D13877CC2B99
:101AE000329595E6241FB14F0A000020410000C83E
:101AF0004200401C4620BCBE4CCA1B0E5AAEC59DBF
:101B00007400404811241FBECFEFD1E2DEBFCDBF2D
:101B100000E00CBF14E0A0E0B2E0E8E8F9E401E086
:101B20000BBF02C007900D92A235B107D9F720E193
:101B3000A2E5B4E001C01D92AF3CB207E1F71BE1A2
:101B4000C4E0DBE100E006C022970109FE010BBF03
:101B50000E94459EC230D10780E00807A9F70E9485
:101B600046990C94C2A40C9400001F920F920FB6D9
:101B70000F9211240BB60F922F933F934F938F9395
:101B80009F93EF93FF934091C60080915204882366
:101B900041F04A3019F04D3009F043C01092520420
:101BA00040C08091D50490E001968F7799272091CD
:101BB000D60430E08217930749F0E091D504F0E0B5
:101BC000EB5AFB4F40838093D5042BC081E0809378
:101BD00052048091D50481508F7790E0FC01EB5A3C
:101BE000FB4F20812A3041F02D3031F03091D50467
:101BF0002091D60432130CC08F5F8F778093D50469
:101C00008091540481110DC081E08093540409C077
:101C10002091D50421502F77822F90E02093D50476
:101C2000DDCFFF91EF919F918F914F913F912F9138
:101C30000F900BBE0F900FBE0F901F9018959A013A
:101C4000AB01211581EE38074105510549F182E0CC
:101C50008093C00060E079E08DE390E00E940D9EEB
:101C60002150310941095109CA01B90122E030E08E
:101C700040E050E00E940D9E3093C5002093C400C8
:101C80008091C10080618093C1008091C100886013
:101C90008093C1008091C10080688093C100089545
:101CA0001092C00020E130E0E7CF3FB7F8942091D8
:101CB000D6048091D504821759F0E22FF0E0EB5A58
:101CC000FB4F808190E02F5F2F772093D60402C0D6
:101CD0008FEF9FEF3FBF08958FB7F8949091D60490
:101CE0009093D5048FBF08954F925F926F927F9229
:101CF0008F929F92AF92BF92CF92DF92EF92FF921C
:101D00000F931F93CF93DF93CDB7DEB7A0970FB696
:101D1000F894DEBF0FBECDBF5C01411551056105D2
:101D20007105E9F420E030E040E350E060E070E06D
:101D3000A0960FB6F894DEBF0FBECDBFDF91CF9156
:101D40001F910F91FF90EF90DF90CF90BF90AF90D9
:101D50009F908F907F906F905F904F905BC08E01AF
:101D60000F5F1F4FC12CD12C76014801422E512C00
:101D7000612C712C8FEFC81AD80AE80AF80ACB0137
:101D8000BA01A30192010E94EB9DCA01F80161937F
:101D90008F01A901BC01411551056105710551F77C
:101DA000F1E0CF1AD108E108F108F401EC0DFD1DB6
:101DB00080818A3010F440E301C047E3480F552783
:101DC00047FD5095652F752F20E030E0C50122D0EA
:101DD00081E0C81AD108E108F108EFEFCE16DE065F
:101DE000EE06FE0611F7A0960FB6F894DEBF0FBE02
:101DF000CDBFDF91CF911F910F91FF90EF90DF90BA
:101E0000CF90BF90AF909F908F907F906F905F909A
:101E10004F9008952115310539F48091C00085FF58
:101E2000FCCF4093C60008952A30310509F41CC048
:101E30005BCFCF93DF93EC0120E030E04DE050E04A
:101E400060E070E0E7DF20E030E04AE050E060E092
:101E500070E0CE01DF91CF91DDCF9A01AB01662713
:101E600057FD6095762FD6CFCF92DF92EF92FF92FB
:101E7000CF93DF93EC016A017B0177FF0FC020E075
:101E800030E04DE250E060E070E0C4DFF094E094B8
:101E9000D094C094C11CD11CE11CF11C2AE0B701F4
:101EA000A601CE01DF91CF91FF90EF90DF90CF9010
:101EB0001BCF2115310539F48091C00085FFFCCF7F
:101EC0004093C600089510CF9A01462F50E060E07D
:101ED00070E0EFCFCF93DF93EC019A01AB0160E0AC
:101EE00070E0E7DFCE01DF91CF91A3CF8F929F9279
:101EF000AF92BF92CF92DF92EF92FF921F93CF9358
:101F0000DF93EC016A017B01122F20E030E0A90190
:101F1000C701B6010E942E9A87FF0CC020E030E076
:101F20004DE250E060E070E0CE0174DFF7FAF0942B
:101F3000F7F8F094B12C60E070E080E09FE3B11618
:101F400041F020E030E040E251E40E94359AB39441
:101F5000F6CF9B01AC01C701B6010E9455996B01F8
:101F60007C010E94A29A4B015C010E94CE9A9B01C7
:101F7000AC01C701B6010E9454996B017C012AE0B3
:101F8000B501A401CE01B0DE112341F020E030E024
:101F90004EE250E060E070E0CE013CDF112319F129
:101FA00020E030E040E251E4C701B6010E94039D09
:101FB0006B017C010E949D9A4B01AA2497FCA0947E
:101FC000BA2CB501A401CE014FDFC501B4010E94B6
:101FD000D09A9B01AC01C701B6010E9454996B01D4
:101FE0007C011150DBCFDF91CF911F91FF90EF90DB
:101FF000DF90CF90BF90AF909F908F90089576CF55
:10200000FC0165917591859194910895CF92DF922D
:10201000EF92FF920F931F93CF93DF93EC01CC0FBE
:10202000DD1FCC0FDD1FFE01EF58FA4FDE01A35874
:10203000BA4F2D913D914D915C916081718182816A
:1020400093810E9455996B017C01CE018F54954F6D
:10205000D7DF8E01085D1D4FA70196010E9455999B
:10206000F8016083718382839383CE018B55954FF2
:10207000C7DFC45EDD4FA70196010E9455996883B2
:1020800079838A839B83DF91CF911F910F91FF907A
:10209000EF90DF90CF900895EF92FF920F931F93F0
:1020A000CF93DF93EC018C01000F111F000F111F64
:1020B000F801E358FA4F1082118212821382C8018C
:1020C0008756954F9DDF98012858364F7901F801C2
:1020D000EF58FA4F20813181428153810E945599F6
:1020E000F7016083718382839383CE01DF91CF9167
:1020F0001F910F91FF90EF9089CF80912F0F811149
:1021000003C081E080932F0F0895EDEBFAE08491F6
:10211000882341F09091C00095FFFCCF8093C600CA
:102120003196F5CFEDE9F5E08491882341F0909167
:10213000C00095FFFCCF8093C6003196F5CF80910B
:10214000C00085FFFCCF8AE08093C60008958F927F
:102150009F92AF92BF92CF92DF92EF92FF92EBEC01
:10216000F7E08491882341F09091C00095FFFCCF67
:102170008093C6003196F5CF409178095091790946
:1021800060917A0970917B0922E030E083E594E068
:1021900036DFE7ECF7E08491882341F09091C000AE
:1021A00095FFFCCF8093C6003196F5CF40917C0916
:1021B00050917D0960917E0970917F0922E030E0A5
:1021C00083E594E01CDFE3ECF7E08491882341F0A1
:1021D0009091C00095FFFCCF8093C6003196F5CF5B
:1021E0004091800950918109609182097091830921
:1021F00022E030E083E594E002DFEFEBF7E084914A
:10220000882341F09091C00095FFFCCF8093C600D9
:102210003196F5CF409184095091850960918609E6
:102220007091870922E030E083E594E0E8DE8FB723
:10223000F8944091EC0E5091ED0E6091EE0E70917D
:10224000EF0E8090F00E9090F10EA090F20EB090F4
:10225000F30EC090F40ED090F50EE090F60EF090D4
:10226000F70E8FBFE4EBF7E08491882341F0909163
:10227000C00095FFFCCF8093C6003196F5CF2AE0D1
:1022800030E083E594E0C6DDE0EBF7E0849188235D
:1022900041F09091C00095FFFCCF8093C60031962D
:1022A000F5CF2AE030E0B501A40183E594E0B2DD8A
:1022B000ECEAF7E08491882341F09091C00095FF0B
:1022C000FCCF8093C6003196F5CF2AE030E0B7010D
:1022D000A60183E594E09EDD8091C00085FFFCCFE0
:1022E0008AE08093C600FF90EF90DF90CF90BF9080
:1022F000AF909F908F9008950E948D966093620595
:1023000070936305809364059093650508958091AB
:10231000400290914102A0914202B0914302809309
:10232000880990938909A0938A09B0938B098091B9
:102330003E0290913F0290938B0580938A0584E63C
:1023400090E090933F0280933E02D6DF81E00C94B0
:102350009F740E94A7748091880990918909A09127
:102360008A09B0918B098093400290934102A09317
:102370004202B093430280918A0590918B0590931D
:102380003F0280933E02B8CFFC012491222341F00A
:102390003091C00035FFFCCF2093C6000196F4CFEA
:1023A0004AE050E083E594E058CDFC0124912223DB
:1023B00041F03091C00035FFFCCF2093C60001965C
:1023C000F4CF22E030E083E594E019CEFC012491C3
:1023D000222341F03091C00035FFFCCF2093C6008E
:1023E0000196F4CF2AE030E083E594E062CDCF930C
:1023F000DF931F921F92CDB7DEB78091C9109091E5
:10240000CA109E012F5F3F4F009719F42F5C304197
:1024100002C0281B390B3A83298389819A810F9046
:102420000F90DF91CF910895FF920F931F93CF9359
:10243000DF93F62EFC0120812B3369F100915009C6
:10244000109151090A30110534F5C0915209D0910B
:10245000530940E64C9F90014D9F300D1124BC0163
:10246000C90180579A4F0E94B8A1FE01E05CFA4F63
:10247000F082CE0101966AE070E00E94D89D9093B0
:102480005309809352090F5F1F4F10935109009316
:10249000500981E001C080E0DF91CF911F910F9141
:1024A000FF900895CF93DF93D82FC92FBDDF8823E6
:1024B00009F43CC0EDEBFAE08491882341F090915F
:1024C000C00095FFFCCF8093C6003196F5CFE1E7C1
:1024D000FAE08491882341F09091C00095FFFCCFF1
:1024E0008093C6003196F5CFED2FFC2F8191882384
:1024F00039F09091C00095FFFCCF8093C600F6CFD5
:10250000EFE6FAE08491882341F09091C00095FFB6
:10251000FCCF8093C6003196F5CF8091C00085FF37
:10252000FCCF8AE08093C60081E001C080E0DF91AB
:10253000CF910895DF92EF92FF920F931F93CF9365
:10254000DF93CDB7DEB76E970FB6F894DEBF0FBE40
:10255000CDBF60916605709167056115710559F1F0
:102560004DE150E08E010F5F1F4FC8010E947BA11B
:102570001E8EF8017F01E01AF10AD190DD2019F0DA
:102580008AE0D812F7CFF801EE0DFF1D108260E04F
:10259000C80188DF882379F0DD20B1F08FEFE81AD9
:1025A000F80A80916605909167058E0D9F1D9093A6
:1025B00067058093660581E0209166053091670587
:1025C000232B39F480E005C0109267051092660550
:1025D000F2CF6E960FB6F894DEBF0FBECDBFDF917F
:1025E000CF911F910F91FF90EF90DF90089540E001
:1025F00052EC61E070E083E594E021DBE9E6FAE08B
:102600008491882341F09091C00095FFFCCF809386
:10261000C6003196F5CF8091C00085FFFCCF8AE0DF
:102620008093C600EDEBFAE08491882341F090910D
:10263000C00095FFFCCF8093C6003196F5CF84B7DC
:1026400080FF14C0E1E6FAE09491992341F02091D3
:10265000C00025FFFCCF9093C6003196F5CF909136
:10266000C00095FFFCCF9AE09093C60081FF14C094
:10267000E1E5FAE09491992341F02091C00025FF13
:10268000FCCF9093C6003196F5CF9091C00095FF96
:10269000FCCF9AE09093C60082FF14C0E0E4FAE019
:1026A0009491992341F02091C00025FFFCCF909395
:1026B000C6003196F5CF9091C00095FFFCCF9AE00F
:1026C0009093C60083FF14C0E0E3FAE0949199234D
:1026D00041F02091C00025FFFCCF9093C6003196B9
:1026E000F5CF9091C00095FFFCCF9AE09093C60083
:1026F00085FF14C0E0E2FAE08491882341F09091D4
:10270000C00095FFFCCF8093C6003196F5CF809135
:10271000C00085FFFCCF8AE08093C60014BEE9E1CB
:10272000FAE08491882341F09091C00095FFFCCF9E
:102730008093C6003196F5CFEFE0FAE084918823CC
:1027400041F09091C00095FFFCCF8093C600319678
:10275000F5CF8091C00085FFFCCF8AE08093C60052
:10276000EDEBFAE08491882341F09091C00095FF51
:10277000FCCF8093C6003196F5CFEFEFF9E084915E
:10278000882341F09091C00095FFFCCF8093C60054
:102790003196F5CFEEEEF9E08491882341F09091E7
:1027A000C00095FFFCCF8093C6003196F5CFE2EED6
:1027B000F9E08491882341F09091C00095FFFCCF0F
:1027C0008093C6003196F5CFEFEBF9E08491882332
:1027D00041F09091C00095FFFCCF8093C6003196E8
:1027E000F5CF8091C00085FFFCCF8AE08093C600C2
:1027F000E4EBF9E08491882341F09091C00095FFCB
:10280000FCCF8093C6003196F5CFE8EAF9E08491D9
:10281000882341F09091C00095FFFCCF8093C600C3
:102820003196F5CF8091C00085FFFCCF8AE0809380
:10283000C600EDEBFAE08491882341F09091C0004E
:1028400095FFFCCF8093C6003196F5CFE9E9F9E01A
:102850008491882341F09091C00095FFFCCF809334
:10286000C6003196F5CFC3DD4AE050E0BC0183E5F8
:1028700094E0F3DAE2E8F9E08491882341F0909162
:10288000C00095FFFCCF8093C6003196F5CF4AE09B
:1028900050E060ED74E083E594E0DFDA8091C00001
:1028A00085FFFCCF8AE08093C600E0E4F5E081E09C
:1028B000819395E0EA34F907D9F70E942B500E94E2
:1028C00011870E94E6550E9437960E941F808091D2
:1028D0000101886080930101249A2C98089520E9D1
:1028E00035E080E090E0F901E80FF91F10820196D1
:1028F00080369105C1F7205A3F4F89E020353807CF
:1029000081F783E594E0E8D910926B0510926A058F
:1029100081E090E0909351098093500989E090E024
:1029200090935509809354091092530910925209BB
:1029300008950F931F93CF93DF9300916805109133
:10294000690565E470E0C8010E94A4A1EC01C8011A
:102950000196209761F0188260E070E00E94C29EAC
:1029600025E42883DF91CF911F910F91089560E0B6
:1029700070E0DF91CF911F910F910C94C29E8091D6
:102980006805909169054AE050E060E070E00196CA
:102990000C942AA080916805909169054AE050E066
:1029A00060E070E001960E942AA0CB010895682F94
:1029B000772767FD709580915609909157090E947D
:1029C000A4A1909369058093680521E0892B09F4FF
:1029D00020E0822F08950F931F93CF93DF938C01F4
:1029E00084E5E5DF882361F1D5DFEC0118161906CF
:1029F0004CF5EDEBFAE08491882341F09091C00012
:102A000095FFFCCF8093C6003196F5CF8091C00032
:102A100085FFFCCF8DE48093C6004AE050E0B8010A
:102A200083E594E01ADABE0185E498E0ADDC80919C
:102A3000C00085FFFCCF8AE08093C60081E005C01E
:102A400080916E058093510580E0DF91CF911F91B9
:102A50000F9108950F931F93CF93DF9300D000D071
:102A6000CDB7DEB726E0E5E9F2E0DE011196019090
:102A70000D922A95E1F7FC01EE0FFF1F21E030E0F7
:102A80002C0F3D1FE20FF31F608171811616170690
:102A90001CF1EDEBFAE02491222341F03091C000CB
:102AA00035FFFCCF2093C6003196F5CFEEECF7E072
:102AB0002491222341F03091C00035FFFCCF2093B8
:102AC000C6003196F5CF2091C00025FFFCCF2AE04B
:102AD0002093C6006AE070E08C01000F111F000F08
:102AE000111F03511C4F882777FD8095982F0E9456
:102AF000D09A9B01AC01F801608171818281938140
:102B00000E94359A60934002709341028093420282
:102B10009093430226960FB6F894DEBF0FBECDBF4A
:102B2000DF91CF911F910F9108958F929F92AF9255
:102B3000BF92CF92DF92EF92FF920F931F9320E00C
:102B400030E040E752E46091400270914102809190
:102B50004202909143020E94359A4B015C01E09041
:102B60008009F090810900918209109183092091D8
:102B70007C0930917D0940917E0950917F096091D7
:102B800078097091790980917A0990917B09E09197
:102B90006E05EF93E4E8CE2EE9E0DE2E0E9480562B
:102BA0000F901F910F91FF90EF90DF90CF90BF900B
:102BB000AF909F908F9008954F925F926F927F9207
:102BC0008F929F92AF92BF92EF92FF920F931F93BB
:102BD000CF93DF93CDB7DEB728970FB6F894DEBF5B
:102BE0000FBECDBF4B015C0180914002909141022C
:102BF000A0914202B091430289839A83AB83BC8344
:102C0000412C512CF4E36F2EF4E47F2E40924002CD
:102C1000509241026092420270924302E092800917
:102C2000F092810900938209109383092D833E83DA
:102C30004F8358877ADF0E94877E609116027091D9
:102C40001702882777FD8095982F0E94D09A60936D
:102C5000400270934102809342029093430280921B
:102C6000780990927909A0927A09B0927B092D8116
:102C70003E814F81588520937C0930937D09409394
:102C80007E0950937F0951DF0E94877E89819A8156
:102C9000AB81BC818093400290934102A093420299
:102CA000B093430228960FB6F894DEBF0FBECDBF97
:102CB000DF91CF911F910F91FF90EF90BF90AF9058
:102CC0009F908F907F906F905F904F9008954F925C
:102CD0005F926F927F928F929F92AF92BF92CF92AC
:102CE000DF92EF92FF920F931F932B013C0120E0A4
:102CF00030E040E752E460914002709141028091DF
:102D00004202909143020E94359A4B015C0120914E
:102D10007C0930917D0940917E0950917F09609135
:102D200078097091790980917A0990917B09E091F5
:102D30006E05EF93A4E8CA2EA9E0DA2E8301720192
:102D40000E9480560F901F910F91FF90EF90DF909F
:102D5000CF90BF90AF909F908F907F906F905F903B
:102D60004F9008958F929F92AF92BF92CF92DF9231
:102D7000EF92FF920F931F9320E030E040E752E480
:102D80000E94359A4B015C01E0907009F090710946
:102D9000009172091091730920916C0930916D09AD
:102DA00040916E0950916F096091680970916909AD
:102DB00080916A0990916B09E0916E05EF93B4E7F9
:102DC000CB2EB9E0DB2E0E9480560F901F910F9101
:102DD000FF90EF90DF90CF90BF90AF909F908F903B
:102DE0000895609140027091410280914202909159
:102DF0004302B8CFCF92DF92EF92FF920F931F93CF
:102E0000E0908009F0908109009182091091830976
:102E100020917C0930917D0940917E0950917F0974
:102E2000609178097091790980917A0990917B0974
:102E3000E4E8CE2EE9E0DE2E0E94C9611F910F91D9
:102E4000FF90EF90DF90CF9008954F925F926F9236
:102E50007F928F929F92AF92BF92CF92DF92EF922A
:102E6000FF920F931F93CF93DF93EC01FC01E25885
:102E7000F54FF4908C01000F111F000F111FC801B6
:102E80008858964F4C01FC011082118212821382E5
:102E9000B1DFC8018357954FB3D82B013C016F2D8B
:102EA000772767FD7095872F972F0E94D09A6B0127
:102EB0007C01C8018859964F5C0120E030E040EC6D
:102EC0005FE3C301B2010E94039DA70196010E9426
:102ED000039DF5016083718382839383F801E3513D
:102EE000FC4F80819181A281B381809340029093B5
:102EF0004102A0934202B093430273DF0E94877E97
:102F0000F401108211821282138274DF80E00E9429
:102F10009F740F57154FC80173D89058A701960199
:102F20000E94039DF501608371838283938359DF3F
:102F30000E94877E81E00E949F74CE018BDDC801D4
:102F40005FD89B01AC010E945599A70196010E9490
:102F5000039DF501608371838283938342DF0E9426
:102F6000877ECE0199D846DFF40180819181A281CC
:102F7000B381F50180839183A283B38310924002D1
:102F80001092410210924202109243020E94AC74CD
:102F9000FE01EB59F64F81E08083CE59D64F8883EE
:102FA000DF91CF911F910F91FF90EF90DF90CF9025
:102FB000BF90AF909F908F907F906F905F904F9059
:102FC000089580E1E8E6F9E0A8E7B9E001900D9204
:102FD0008A95E1F70895EF92FF920F931F93E09087
:102FE0008009F09081090091820910918309E4DD44
:102FF0001F910F91FF90EF900895EF92FF920F9322
:103000001F937B018C0120917C0930917D094091B7
:103010007E0950917F0960917809709179098091BA
:103020007A0990917B09C8DD1F910F91FF90EF9075
:103030000895CF9380914F05823008F04AC060E038
:1030400070E080EA90E4D9DFECE3F8E08491882333
:1030500041F09091C00095FFFCCF8093C60031965F
:10306000F5CF8091C00085FFFCCF8AE08093C60039
:1030700020E030E04DE253E460E070E084E392E46D
:10308000AADF60E070E080E89FEBB7DFC6E020E0F9
:1030900030E04DE253E460E070E086EE92E49BDFC6
:1030A00020E030E04DE253E460E070E084E392E43D
:1030B00092DFC15061F760E070E080EA90E49DDF4C
:1030C00020E030E040EC50EC60E070E0CB0183DFCA
:1030D00005C060E070E080EA90E48FDF80914F05EA
:1030E0008F5F80934F05CF9108958F929F92AF92FB
:1030F000BF92CF92DF92EF92FF920F931F93FCD873
:1031000085E492E00E94E29380E090E0A4E3B4E4DE
:103110008093400290934102A0934202B0934302F5
:1031200081E08093500524982C9A60E070E080E85C
:1031300090ECCDDD0E94877E82E090E00E94ED7EE3
:103140004B015C0120917C0930917D0940917E0901
:1031500050917F09609178097091790980917A097D
:1031600090917B09A4E8CA2EA9E0DA2E85017401AA
:103170000E94C96120E030E040E850ECC501B40194
:103180000E942E9A811106C08AE00E94D998892B4C
:1031900009F051C089E89AE00E9400109B01AC013F
:1031A000C501B4010E94559992DD0E94877E0E945C
:1031B000AC7482E090E04EDC20E030E040E251E48C
:1031C00060914002709141028091420290914302CD
:1031D0000E94359A609340027093410280934202AC
:1031E0009093430281E08093500524982C9A60E0EC
:1031F00070E080E890EC6BDD0E94877E249A2C982A
:103200000E94AC741092500582E090E00E94ED7E26
:103210006093800970938109809382099093830958
:103220001F910F91FF90EF90DF90CF90BF90AF90E4
:103230009F908F90DFCD249A2C98109250051F916B
:103240000F91FF90EF90DF90CF90BF90AF909F9045
:103250008F90EFCE4F925F926F927F92AF92BF921C
:10326000CF92DF92EF92FF920F931F93CF93DF9352
:1032700000D01F92CDB7DEB769837A838B839C839E
:1032800029013A01C801B701B8DEE0908009F09049
:103290008109009182091091830920917C09309164
:1032A0007D0940917E0950917F0969817A818B81E6
:1032B0009C8182DC609178097091790980917A090A
:1032C00090917B09A301920186DEC0FC0E947D10D3
:1032D0000CDF0091800910918109E0908209F09043
:1032E000830920E030E040EA50E4B801C7010E94C1
:1032F0002E9A882309F455C0C1FE05C080912F0F76
:10330000811110922F0F83E0A816B1040CF44EC067
:10331000E5E9F5E08491882341F09091C00095FFA4
:10332000FCCF8093C6003196F5CF23E030E0498191
:103330005A816B817C8183E594E00E94FF0FE0E974
:10334000F5E08491882341F09091C00095FFFCCF77
:103350008093C6003196F5CF23E030E0B301A2019F
:1033600083E594E00E94FF0FEBE8F5E08491882369
:1033700041F09091C00095FFFCCF8093C60031963C
:10338000F5CF23E030E0A801B70183E594E00E9487
:10339000FF0F8091C00085FFFCCF8AE08093C600BC
:1033A00005C000E010E030E820EC02C03E2D2F2DDB
:1033B000B801832F922F0F900F900F900F90DF91F5
:1033C000CF911F910F91FF90EF90DF90CF90BF9022
:1033D000AF907F906F905F904F9008958F929F92E3
:1033E000AF92BF92CF92DF92EF92FF920F931F9313
:1033F000CF93DF93B9EECB2EB3E0DB2EC8E7EC2EF4
:10340000C9E0FC2E08E619E0C0E0D0E0F6018191A9
:103410006F01CDDA882309F461C08BDAFE01E4572D
:10342000FA4F2081211104C020916D05222331F033
:10343000F701208131814281538103C020E030E0D7
:10344000A9010E9455994B015C01C230D10571F46C
:10345000209180093091810940918209509183091E
:103460000E942E9A18160CF064C028C0C330D105F3
:1034700009F45FC0209781F420917809309179098F
:1034800040917A0950917B090E942E9A18160CF0EF
:1034900050C0379B23C04DC0C130D10579F4209175
:1034A0007C0930917D0940917E0950917F090E94ED
:1034B000319C87FF3EC01D993CC010C020918009FF
:1034C000309181094091820950918309C501B4016D
:1034D0000E94319C87FF2DC01C992BC0F701808171
:1034E0009181A281B381F80180839183A283B38308
:1034F0002196F4E0EF0EF11C0C5F1F4FC430D10594
:1035000009F084CF86E453DA8823C9F012DA6B011C
:103510007C0120E030E0A9010E94319C18167CF467
:10352000C0924002D0924102E0924202F0924302E5
:1035300006C0F80180829182A282B382D9CFDF9146
:10354000CF911F910F91FF90EF90DF90CF90BF90A0
:10355000AF909F908F900895EDEBFAE084918823CF
:1035600041F09091C00095FFFCCF8093C60031964A
:10357000F5CFE9E2F8E08491882341F09091C00012
:1035800095FFFCCF8093C6003196F5CFE0915809A6
:10359000F09159098191882339F09091C00095FFED
:1035A000FCCF8093C600F6CFE6E2F8E08491882352
:1035B00041F09091C00095FFFCCF8093C6003196FA
:1035C000F5CF08954F925F926F927F928F929F9264
:1035D000AF92BF92CF92DF92EF92FF921F93CF9361
:1035E000DF930E94877E85E492E00E94E2930E942E
:1035F000871180E1E8E7F9E0A8E6B9E001900D92D3
:103600008A95E1F710924002109241021092420214
:103610001092430288E5CBD9D82F89E5C8D9C82FA5
:103620008AE5C5D9D11105C0C11107C091E098271D
:1036300005C0CC2311F0982F01C090E090931102A7
:10364000911102C0882319F082E090E0FEDB8091A6
:103650001102811106C0DD2309F400C1CC2309F455
:10366000FDC010927C0910927D0910927E09109283
:103670007F09109278091092790910927A091092B4
:103680007B09EEE7FAE01491B5DB8DE89AE00E9441
:1036900000104B015C0181E99AE00E9400106B016F
:1036A0007C019B01AC01C501B4010E94319C18163C
:1036B0002CF4A5019401C701B60104C0A70196012D
:1036C000C501B4010E94359A2B013C0120E030E095
:1036D00040EC5FE3C501B4010E94039D4B015C0116
:1036E000612F772767FD7095872F972F0E94D09ABB
:1036F0009B01AC01C501B4010E94039D6093680960
:103700007093690980936A0990936B09EFE7FAE077
:10371000B49020E030E040EC5FE3C701B6010E94C6
:10372000039D6B017C016B2D772767FD7095872FBB
:10373000972F0E94D09A9B01AC01C701B6010E944D
:10374000039D60936C0970936D0980936E0990934B
:103750006F09A3019201C301B2010E94039D20E001
:1037600030E040E85FE30E9455990E94709D20E0A0
:1037700030E041EE54E40E94039D60934002709358
:10378000410280934202909343022BDB0E94877E8A
:1037900080E090E00E944C1081E090E00E944C108C
:1037A00029DB409178095091790960917A097091EB
:1037B0007B09409368095093690960936A09709383
:1037C0006B0940917C0950917D0960917E0970914F
:1037D0007F0940936C0950936D0960936E09709353
:1037E0006F09FFDA109240021092410210924202D9
:1037F000109243020E94877E0E94AC744091680937
:103800005091690960916A0970916B094093780938
:103810005093790960937A0970937B0940916C0900
:1038200050916D0960916E0970916F0940937C0908
:1038300050937D0960937E0970937F0940917009D0
:1038400050917109609172097091730940938009D8
:1038500050938109609382097093830980911102CA
:10386000811102C0DD2319F080E090E0EEDA809152
:103870001102811102C0CC2319F081E090E0E5DA59
:10388000B9DA8091880990918909A0918A09B0914B
:103890008B098093400290934102A0934202B0931F
:1038A000430280918A0590918B0590933F0280930B
:1038B0003E020E947C110E94AC74DF91CF911F9157
:1038C000FF90EF90DF90CF90BF90AF909F908F9040
:1038D0007F906F905F904F900C94A710EEE1F8E00E
:1038E0002491222379F03091C00035FFFCCF209342
:1038F000C6003196F5CF3091C00035FFFCCF209344
:10390000C6000196FC0124912111F5CFE6E0F8E014
:103910008491882341F09091C00095FFFCCF809363
:10392000C6003196F5CF8091C00085FFFCCF8AE0BC
:103930008093C60008950E947D100E94877E0E9499
:10394000871180E090E0A4E3B4E480934002909378
:103950004102A0934202B0934302C7DBE3E8F5E0E3
:103960008491882341F09091C00095FFFCCF809313
:10397000C6003196F5CF20E030E0A90160917809CA
:103980007091790980917A0990917B090E945599EB
:1039900027E137EB41ED58E30E945599AB01BC019B
:1039A00022E030E083E594E00E94FF0FEEE7F5E0CF
:1039B0008491882341F09091C00095FFFCCF8093C3
:1039C000C6003196F5CF20E030E0A90160917C0976
:1039D00070917D0980917E0990917F090E9455998F
:1039E00027E137EB41ED58E30E945599AB01BC014B
:1039F00022E030E083E594E00E94FF0FE9E7F5E084
:103A00008491882341F09091C00095FFFCCF809372
:103A1000C6003196F5CF27E137EB41ED58E36091D1
:103A200080097091810980918209909183090E9497
:103A30005599AB01BC0122E030E083E594E00E949F
:103A4000FF0F8091C00085FFFCCF8AE08093C60005
:103A50000E94A91180912F0F811110922F0F1092A7
:103A60004F050C94A7108F929F92AF92BF92CF9266
:103A7000DF92EF92FF920F931F93CF93DF9300D0CB
:103A80001F92CDB7DEB785E40E94D714B82E8111FE
:103A900002C00E94877E19EEC12E13E0D12E0DE7E1
:103AA000E02E05E0F02E08E719E0812C912CA12CE6
:103AB000F60181916F010E94D714882369F1F80102
:103AC000208131814281538129833A834B835C83F6
:103AD0000E949914F8016083718382839383298102
:103AE0003A814B815C81F3E08F169104A9F00E942A
:103AF00054999B01AC01F7016081718182819381AE
:103B00000E945599F7016083718382839383C40176
:103B10000E940610AA24A394FFEF8F1A9F0A84E044
:103B2000E80EF11C0C5F1F4FE4E08E16910409F0C3
:103B3000BFCFAA2089F00F900F900F900F90DF91C8
:103B4000CF911F910F91FF90EF90DF90CF90BF909A
:103B5000AF909F908F904EC9BB20A1F084E899E070
:103B60000F900F900F900F90DF91CF911F910F91B9
:103B7000FF90EF90DF90CF90BF90AF909F908F908D
:103B80000C94BD620F900F900F900F90DF91CF912A
:103B90001F910F91FF90EF90DF90CF90BF90AF906B
:103BA0009F908F9008950F931F93CF93DF93CDB77E
:103BB000DEB76E970FB6F894DEBF0FBECDBF82E5BD
:103BC00095E00E946681BC0180E090E02CE330E04B
:103BD00040E050E00E94EB9D7F936F933F932F93C3
:103BE0008AE695E09F938F938E010F5F1F4F1F937F
:103BF0000F930E94E7A10FB6F894DEBF0FBECDBFB2
:103C0000EDEBFAE08491882341F09091C00095FF9C
:103C1000FCCF8093C6003196F5CFF80181918823BF
:103C200039F09091C00095FFFCCF8093C600F6CF8D
:103C30008091C00085FFFCCF8AE08093C6006E961D
:103C40000FB6F894DEBF0FBECDBFDF91CF911F91AD
:103C50000F9108950F931F93CF93DF9383E50E94F5
:103C6000D714882389F10E94CA148C018F3F9105D3
:103C700009F050F580E50E94D714882331F00E94A6
:103C8000CA14EC0197FD20C002C0CDE0D0E0E3EB08
:103C9000F3E081919191C817D907B1F083E0E93E33
:103CA000F807B9F761E08C2F0E946B98602F8C2F7A
:103CB0000E94A498B8018C2F0E945597289721F450
:103CC0001093700500936F05DF91CF911F910F91B5
:103CD00008952F923F924F925F926F927F928F92B0
:103CE0009F92AF92BF92CF92DF92EF92FF920F938B
:103CF0001F93CF93DF93CDB7DEB7C65ED1090FB662
:103D0000F894DEBF0FBECDBF80916209882341F0D9
:103D100080916309882321F08091640981111BC07F
:103D2000CA51DF4F0FB6F894DEBF0FBECDBFDF9193
:103D3000CF911F910F91FF90EF90DF90CF90BF90A8
:103D4000AF909F908F907F906F905F904F903F903B
:103D50002F900C94851086E50E94D7148823D1F00B
:103D60000E94CA14853070F0E5E4F5E08491882360
:103D700009F4B5C59091C00095FFFCCF8093C600B3
:103D80003196F4CFCF52DF4F8883C15DD0401816F3
:103D9000A4F406C021E0CF52DF4F2883C15DD0409C
:103DA000E5E2F5E08491882341F09091C00095FF11
:103DB000FCCF8093C6003196F5CF80E50E94D714E2
:103DC0008823B1F00E94CA149CEF980F9F3210F420
:103DD000382E10C0E1E0F5E08491882309F47FC516
:103DE0009091C00095FFFCCF8093C6003196F4CF30
:103DF000EAE03E2E8090780990907909A0907A09A7
:103E0000B0907B0940907C0950907D0960907E09BC
:103E100070907F09C0908009D0908109E09082095C
:103E2000F090830985E40E94D714C052DF4F888345
:103E3000C05ED04088E50E94D714882321F10E94FB
:103E40009914C753DF4F688379838A839B83C95C46
:103E5000D04020E030E0A9010E942E9A87FD10C0DA
:103E600020E030E045E253E4C753DF4F68817981B9
:103E70008A819B81C95CD0400E94319C181694F4C1
:103E80008FEF94E039C020E030E0A901C501B40112
:103E90000E945599C753DF4F688379838A839B8338
:103EA000C95CD04089E50E94D714882309F43EC03C
:103EB0000E949914C353DF4F688379838A839B835D
:103EC000CD5CD04020E030E040E251EC0E942E9AE0
:103ED00087FD10C020E030E04FE353E4C353DF4FD1
:103EE000688179818A819B81CD5CD0400E94319C20
:103EF00018165CF58DEF94E0CA51DF4F0FB6F894B9
:103F0000DEBF0FBECDBFDF91CF911F910F91FF900C
:103F1000EF90DF90CF90BF90AF909F908F907F9069
:103F20006F905F904F903F902F90D8CC20E030E082
:103F3000A901C301B2010E945599C353DF4F6883A1
:103F400079838A839B83CD5CD0408CE40E94D71414
:103F5000182F882301F10E94CA14803170F0EAEC16
:103F6000F4E08491882309F4BAC49091C00095FFCD
:103F7000FCCF8093C6003196F4CFCE52DF4F8883BA
:103F8000C25DD040813061F432E0CE52DF4F3883E1
:103F9000C25DD04005C0CE52DF4F1882C25DD04016
:103FA00083E50E94D714882349F0112369F081E04A
:103FB000CA52DF4F8883C65DD04012C0CA52DF4F5D
:103FC0001882C65DD0400CC091E0CA52DF4F988382
:103FD000C65DD040A7E0CE52DF4FA883C25DD0407F
:103FE000CF52DF4FB881C15DD040B330ECF420E058
:103FF00030E040EA50E4C701B6010E9455996B01D8
:104000007C0185E492E00E94E29320E030E040E20F
:1040100051E4C701B6010E942E9A87FF12C0C70162
:10402000B6010E94FD170DC0E0EBF4E084918823F7
:10403000F1F29091C00095FFFCCF8093C6003196BD
:10404000F5CFC353DF4F288139814A815B81CD5C35
:10405000D040C753DF4F688179818A819B81C95CD9
:10406000D0400E94EB170E948711CF52DF4F28816A
:10407000C15DD040332727FD3095CC52DF4F3983C7
:104080002883C45DD040C052DF4F3881C05ED0402D
:10409000332319F083E090E002C081E090E0CC523D
:1040A000DF4FA880B980C45DD0406C01E12CF12CB9
:1040B00000EA10E4C353DF4F288139814A815B81D4
:1040C000CD5CD040C753DF4F688179818A819B8165
:1040D000C95CD040BFD820E030E0A90160918009E0
:1040E0007091810980918209909183090E9455996C
:1040F0000E94FD17CD52DF4F1882C35DD040C12C06
:10410000D12C760126013701832D992787FD9095C3
:10411000C452DF4F99838883CC5DD040CE52DF4FAD
:10412000A881C25DD040BB27A7FDB0951197C252B0
:10413000DF4FB983A883CE5DD0400197CB51DF4FCD
:1041400099838883C55ED040CD52DF4FB881C35D6F
:10415000D0402B2E312CC452DF4F28813981CC5DC9
:10416000D040221633060CF04BC30E948D960E945D
:10417000019964EF71E080E090E00E94BC96CE521D
:10418000DF4FB881C25DD040B11129C0C353DF4FAA
:10419000288139814A815B81CD5CD040C753DF4F94
:1041A000688179818A819B81C95CD0400E94EB172C
:1041B0004101880C991C880C991CC052DF4F288142
:1041C000C05ED040222309F4D7C1CC52DF4FA88073
:1041D000B980C45DD04023E0C22ED12CE2C128E6D4
:1041E00031E040E050E060E070E0CB010E942A99AD
:1041F0000E94D09A6B017C012AE030E040E050E060
:1042000060E070E0CB010E942A990E94D09A20E0E1
:1042100030E040EA50E40E94319C18161CF40FEF85
:104220001FEF02C001E010E024E130E040E050E088
:1042300065E070E080E090E00E942A990E94D09AA8
:10424000C852DF4F688379838A839B83C85DD040DF
:10425000CF52DF4F3881C15DD04034309CF1AB018B
:10426000BC018EE994E00E94D511B701A60183E953
:1042700094E00E94D51164E670E080E090E00E9436
:10428000BC960130110519F0E0EEF2E012C0E8EF43
:10429000F2E08191882381F09091C00095FFFCCFDE
:1042A0008093C600F6CF9091C00095FFFCCF80931D
:1042B000C60081918111F7CF64E670E080E090E064
:1042C0000E94BC96C952DF4F1882C75DD040C8011A
:1042D000AA2797FDA095BA2FCF51DF4F88839983E6
:1042E000AA83BB83C15ED040C952DF4F3881C75D0E
:1042F000D040832F90E0C252DF4FA881B981CE5DBC
:10430000D0408A179B070CF041CFCA52DF4F9881EB
:10431000C65DD040992399F0CF51DF4F68817981F4
:104320008A819B81C15ED0400E94D09A9B01AC01E2
:104330000E94559920E030E040E952E420C02DE28F
:1043400030E040E050E069E170E080E090E00E9401
:104350002A992B013C01CF51DF4F688179818A81F5
:104360009B81C15ED0400E94D09A4B015C01C30189
:10437000B2010E94D09A9B01AC01C501B4010E9418
:10438000039D9B01AC01C701B6010E9455996B01C9
:104390007C0120E030E044EB53E40E94319C18168D
:1043A0004CF420E030E044EB53E4C701B6010E9436
:1043B0005499EDCF20E030E0A901C701B6010E9479
:1043C0002E9A87FF0BC020E030E044EB53E4C70196
:1043D000B6010E9455996B017C01ECCF2BED3FE0BB
:1043E00049E450E4C701B6010E94039D20E030E09B
:1043F00044E353E40E94359A2B013C010E94329A17
:10440000C852DF4F288139814A815B81C85DD04025
:104410000E94039D9B01AC01C753DF4F68817981E6
:104420008A819B81C95CD0400E9455994B015C01F7
:10443000C301B2010E94669DC852DF4F28813981B5
:104440004A815B81C85DD0400E94039D9B01AC0105
:10445000C353DF4F688179818A819B81CD5CD040D5
:104460000E9455992B013C0120E030E0A901C501D3
:10447000B4010E942E9A87FD11C020E030E045E291
:1044800053E4C501B4010E94319C181654F4812CE8
:10449000912C55E2A52E53E4B52E03C0812C912C0E
:1044A000540120E030E040E251ECC301B2010E942F
:1044B0002E9A87FD11C020E030E04FE353E4C301A2
:1044C000B2010E94319C18166CF4412C512C4FE320
:1044D000642E43E4742E06C0412C512C30E2632E2E
:1044E00031EC732ECF52DF4FA881C15DD040A43094
:1044F0008CF1E8E1F3E08191882339F09091C000DC
:1045000095FFFCCF8093C600F6CFB501A4018FE8DC
:1045100094E00E94D511B301A2018BE894E00E94BF
:10452000D511409180095091810960918209709163
:10453000830985E894E00E94D5118091C00085FF31
:10454000FCCFBAE0B093C60067E370E080E090E093
:104550000E94BC96A3019201C501B4010E94EB1711
:10456000C952DF4F2881C75DD0402F5FC952DF4F4E
:104570002883C75DD040B8CECB51DF4F2881398129
:10458000C55ED040CC52DF4FA880B980C45DD0401A
:104590002216330621F492E0C92ED12C02C0C12C80
:1045A000D12CE12CF12C00EA10E4C353DF4F288119
:1045B00039814A815B81CD5CD040C753DF4F688130
:1045C00079818A819B81C95CD0400E942A19E1E0EF
:1045D000F0E0EC0FFD1FE80DF91D6083718382830D
:1045E000938310E0C12CD12C7601E1E0F0E0EC0FD8
:1045F000FD1F34E0139FE00DF11D11242081318156
:1046000042815381C701B6010E9455996B017C011B
:104610001F5FCD52DF4F8881C35DD040811728F7DF
:104620009FEF291A390AB101882777FD8095982FC5
:104630000E94D09A4B015C019B01AC01C701B601FD
:104640000E94359A2B013C0110E0C12CD12C76013F
:10465000E1E0F0E0EC0FFD1FA4E01A9FE00DF11D7A
:104660001124A301920160817181828193810E9452
:1046700054999B01AC010E94039D9B01AC01C701B1
:10468000B6010E9455996B017C011F5FCD52DF4F2F
:10469000B881C35DD040B117D8F6A50194010E943E
:1046A000359A0E94709D6B017C01CF52DF4F2881AB
:1046B000C15DD04022300CF473C04AE050E0B1013B
:1046C00083E594E00E942D0FE0E8F4E084918823D4
:1046D00041F09091C00095FFFCCF8093C6003196C9
:1046E000F5CF4AE050E0C452DF4F68817981CC5D5C
:1046F000D04083E594E00E942D0FE9E7F4E0849137
:10470000882341F09091C00095FFFCCF8093C600B4
:104710003196F5CF409180095091810960918209CD
:104720007091830926E030E083E594E00E94FF0F5A
:1047300062E370E080E090E00E94BC96CF52DF4FD1
:104740003881C15DD040323091F1E1E7F4E08491ED
:10475000882341F09091C00095FFFCCF8093C60064
:104760003196F5CF26E030E0B301A20183E594E075
:104770000E94FF0FE6E6F4E08491882341F09091D7
:10478000C00095FFFCCF8093C6003196F5CF26E0A0
:1047900030E0B701A60183E594E00E94FF0F07C057
:1047A000CF52DF4F8881C15DD040813039F4809194
:1047B000C00085FFFCCF9AE09093C60062E370E0F2
:1047C00080E090E00E94BC9620E030E040EA50E4B7
:1047D000609180097091810980918209909183098B
:1047E0000E9455990E94FD17CD52DF4FA881C35DED
:1047F000D040AF5FCD52DF4FA883C35DD040A4CC83
:10480000CF52DF4F3881C15DD040131614F5EFE56C
:10481000F4E08491882341F09091C00095FFFCCF93
:104820008093C6003196F5CF26E030E0B301A201B7
:1048300083E594E00E94FF0F8091C00085FFFCCFCC
:104840008AE08093C60069E170E080E090E00E9419
:10485000BC96EAE4F4E08491882341F09091C00092
:1048600095FFFCCF8093C6003196F5CF26E030E06F
:10487000B701A60183E594E00E94FF0F8091C0007C
:1048800085FFFCCF8AE08093C6008091C00085FF41
:10489000FCCF8AE08093C60069E170E080E090E0A0
:1048A0000E94BC960E94A911CA51DF4F0FB6F8941E
:1048B000DEBF0FBECDBFDF91CF911F910F91FF9053
:1048C000EF90DF90CF90BF90AF909F908F907F90B0
:1048D0006F905F904F903F902F900C94A710CA510B
:1048E000DF4F0FB6F894DEBF0FBECDBFDF91CF9183
:1048F0001F910F91FF90EF90DF90CF90BF90AF90FE
:104900009F908F907F906F905F904F903F902F90EF
:104910000895CF92DF92EF92FF920F931F93CF9360
:10492000DF9388E690E00E94EB1481113EC08091F5
:104930008C0983FD3AC083E50E94D7148823A9F12E
:104940000E9499146B017C010091510510E0E8016F
:10495000CC0FDD1FC854DF4E0E949D9A7983688377
:10496000C8010E94F48720E030E040E752E4C7012C
:10497000B6010E942E9A181664F082E595E0DF9148
:10498000CF911F910F91FF90EF90DF90CF900C94FB
:10499000408182E595E0DF91CF911F910F91FF90CB
:1049A000EF90DF90CF900C948D81DF91CF911F918C
:1049B0000F91FF90EF90DF90CF900895E2E0F8E044
:1049C0008491882341F09091C00095FFFCCF8093A3
:1049D000C6003196F5CFE091510584E0E89FF001E3
:1049E0001124E256FF4E408151816281738121E0A2
:1049F00030E083E594E00E94FF0FEFEFF7E0849151
:104A0000882341F09091C00095FFFCCF8093C600B1
:104A10003196F5CFE0915105F0E0EE0FFF1FE8541D
:104A2000FF4E60817181882777FD8095982F0E94C5
:104A3000D09AAB01BC0121E030E083E594E00E9414
:104A4000FF0FEBEFF7E08491882341F09091C000D5
:104A500095FFFCCF8093C6003196F5CF409198101A
:104A60005091991060919A1070919B1021E030E064
:104A700083E594E00E94FF0FE8EFF7E0849188233C
:104A800041F09091C00095FFFCCF8093C600319615
:104A9000F5CF6091B6107091B710882777FD80959B
:104AA000982F0E94D09AAB01BC0121E030E083E551
:104AB00094E00E94FF0FE3EFF7E08491882341F038
:104AC0009091C00095FFFCCF8093C6003196F5CF42
:104AD0008FEF9FEF0E944A834AE050E0BC0183E5DC
:104AE00094E00E942D0FEFEEF7E08491882341F0CF
:104AF0009091C00095FFFCCF8093C6003196F5CF12
:104B00008091510590E00E944A834AE050E0BC0148
:104B100083E594E00C942D0F89E690E00E94EB145D
:104B2000811115C0E3E0F4E08491882341F0909175
:104B3000C00095FFFCCF8093C6003196F5CF3EDFD5
:104B40008091C00085FFFCCF8AE08093C600089565
:104B500083E50E94D714882319F00E94CA1401C06B
:104B600080E080938C09EDEBFAE08491882341F09A
:104B70009091C00095FFFCCF8093C6003196F5CF91
:104B8000E3E4F4E08491882341F09091C00095FF24
:104B9000FCCF8093C6003196F5CF80918C098111AE
:104BA00003C0E5E3F4E03BC029E334E080E090E0BB
:104BB00060E0ACE240918C0950E0082E02C05595AF
:104BC00047950A94E2F740FF1AC071E0760F66231A
:104BD00031F04091C00045FFFCCFA093C600F90121
:104BE00045915491FA016491662351F0E091C0001F
:104BF000E5FFFCCF6093C6004F5F5F4FF3CF762F8A
:104C000001962E5F3F4F8530910561F0672FD2CF1F
:104C10009091C00095FFFCCF8093C600319684919F
:104C20008111F6CF8091C00085FFFCCF8AE0809390
:104C3000C600089583E50E94D714882399F00E9446
:104C4000991420E030E04AE754E40E94039D0E945A
:104C5000A29A609318027093190280931A0290939B
:104C60001B02089588E50E94D714811111C089E5BF
:104C70000E94D71481110CC08AE50E94D7148111BB
:104C800007C085E40E94D714811102C00C94037FF1
:104C90000E94877E88E50E94D714882319F0179A0E
:104CA0001092650989E50E94D714882319F0169A95
:104CB000109266098AE50E94D714882319F0159A84
:104CC0001092670985E40E94D714882311F0149A82
:104CD000089508953F924F925F926F927F928F92C4
:104CE0009F92AF92BF92CF92DF92EF92FF920F937B
:104CF0001F93CF93DF93B9EE8B2EB3E09B2EC8ECBE
:104D0000DEE018EDA12E1EE0B12E08E81EE0312CE9
:104D1000F40181914F010E94D714882309F458C0EF
:104D2000F3E03F124FC00E9499146B017C0120E018
:104D300030E040EA51E40E942E9A87FF3EC0A7016E
:104D40009601688179818A819B810E94359A2B0125
:104D50003C019B01AC0160919C0E70919D0E809175
:104D60009E0E90919F0E0E94039D60939C0E7093E7
:104D70009D0E80939E0E90939F0EA3019201F501CC
:104D800060817181828193810E94039DF50160831E
:104D9000718382839383F801608171818281938121
:104DA0000E94CE9AA30192010E94039D0E94A29AA2
:104DB000F8016083718382839383C882D982EA82F7
:104DC000FB8206C00E949914688379838A839B833F
:104DD00033942496F4E0AF0EB11C0C5F1F4F84E0B7
:104DE000381296CFDF91CF911F910F91FF90EF90E6
:104DF000DF90CF90BF90AF909F908F907F906F90FB
:104E00005F904F903F900895E1E3F3E08191882314
:104E100039F09091C00095FFFCCF8093C600F6CF8B
:104E20008091C00085FFFCCF8AE08093C600E4E05B
:104E3000F3E08491882341F09091C00095FFFCCF6E
:104E40008093C6003196F5CF1E9903C0E2E2F3E0ED
:104E500009C0ECE2F3E006C09091C00095FFFCCFE2
:104E60008093C60081918111F7CF8091C00085FFAA
:104E7000FCCF8AE08093C600ECEFF2E084918823B7
:104E800041F09091C00095FFFCCF8093C600319611
:104E9000F5CF379903C0E2E2F3E009C0ECE2F3E0BA
:104EA00006C09091C00095FFFCCF8093C600819111
:104EB0008111F7CF8091C00085FFFCCF8AE08093FD
:104EC000C600E4EFF2E08491882341F09091C000A5
:104ED00095FFFCCF8093C6003196F5CF1D9903C096
:104EE000E2E2F3E009C0ECE2F3E006C09091C0001A
:104EF00095FFFCCF8093C60081918111F7CF8091FF
:104F0000C00085FFFCCF8AE08093C600ECEEF2E0A3
:104F10008491882341F09091C00095FFFCCF80934D
:104F2000C6003196F5CF029903C0E2E2F3E009C072
:104F3000ECE2F3E006C09091C00095FFFCCF8093B7
:104F4000C60081918111F7CF8091C00085FFFCCF11
:104F50008AE08093C60024982C9AE4EEF2E08491D3
:104F6000882341F09091C00095FFFCCF8093C6004C
:104F70003196F5CF1C9903C0E2E2F3E009C0ECE200
:104F8000F3E006C09091C00095FFFCCF8093C6006F
:104F900081918111F7CF8091C00085FFFCCF8AE01D
:104FA0008093C600249A2C98ECEDF2E0849188233B
:104FB00041F09091C00095FFFCCF8093C6003196E0
:104FC000F5CF019903C0E2E2F3E009C0ECE2F3E0BF
:104FD00006C09091C00095FFFCCF8093C6008191E0
:104FE0008111F7CF8091C00085FFFCCF8AE08093CC
:104FF000C600089583E50E94D7148823F9F00E9423
:105000009914AB01BC014093B00E5093B10E609364
:10501000B20E7093B30E4093A80E5093A90E6093F6
:10502000AA0E7093AB0E84EB92E00E94D511809192
:10503000C00085FFFCCF8AE08093C60080E50E9417
:10504000D7148823B9F00E949914AB01BC01409396
:10505000B00E5093B10E6093B20E7093B30E87E909
:1050600092E00E94D5118091C00085FFFCCF8AE0BC
:105070008093C60082E50E94D7148823B9F00E946D
:105080009914AB01BC014093AC0E5093AD0E6093EC
:10509000AE0E7093AF0E88E792E00E94D51180911A
:1050A000C00085FFFCCF8AE08093C60084E50E94A3
:1050B000D7148823B9F00E949914AB01BC01409326
:1050C000A80E5093A90E6093AA0E7093AB0E8AE5BA
:1050D00092E00E94D5118091C00085FFFCCF8AE04C
:1050E0008093C600089583E50E94D714882351F069
:1050F0000E9499146093B40E7093B50E8093B60E0F
:105100009093B70E84E50E94D714882351F00E9433
:1051100099146093980E7093990E80939A0E9093C1
:105120009B0E82E40E94D714882361F00E94991498
:105130000E94A29A6093E80E7093E90E8093EA0EA3
:105140009093EB0E88E50E94D714882351F00E94BB
:1051500099146093A40E7093A50E8093A60E90935D
:10516000A70E8AE50E94D714882351F00E94991453
:105170006093A00E7093A10E8093A20E9093A30E45
:1051800085E40E94D714882351F00E9499146093FB
:105190009C0E70939D0E80939E0E90939F0E08958B
:1051A0008F929F92AF92BF92CF92DF92EF92FF9237
:1051B0000F931F93CF93DF9309EEC02E03E0D02E01
:1051C00088E7E82E89E0F82E01E715E0C0E0D0E09E
:1051D000F60181916F010E94D714882309F10E9482
:1051E00099144B015C01F801208131814281538186
:1051F0000E9454999B01AC01F70160817181828109
:1052000093810E945599F701608371838283938310
:10521000F80180829182A282B382CE010E940610A0
:105220002196F4E0EF0EF11C0C5F1F4FC330D10547
:1052300079F60E94FA16DF91CF911F910F91FF909E
:10524000EF90DF90CF90BF90AF909F908F900C9495
:10525000A71085E40E94D714811110C080E50E9438
:10526000D7148823A9F00E94991460938502709343
:10527000860280938702909388020AC00E94991444
:105280000E949D9A161617064CF7E3ECFAE0D5C07B
:1052900089E40E94D714882361F00E9499140E9427
:1052A000EB916093810270938202809383029093CA
:1052B000840284E40E94D714882361F00E94991428
:1052C0000E94F79160937D0270937E0280937F022B
:1052D0009093800283E40E94D714882351F00E94A7
:1052E00099146093790270937A0280937B02909371
:1052F0007C028CE40E94D714882341F00E94991408
:105300000E949D9A7093100260930F0280910F0289
:1053100090911002C39734F082E390E090931002D2
:1053200080930F020E941583EDEBFAE084918823AD
:1053300041F09091C00095FFFCCF8093C60031965C
:10534000F5CFEAE4F3E08191882339F09091C00031
:1053500095FFFCCF8093C600F6CF40918502509117
:105360008602609187027091880222E030E083E536
:1053700094E00E94FF0FEEE4F3E08191882339F07E
:105380009091C00095FFFCCF8093C600F6CF60914E
:1053900081027091820280918302909184020E9426
:1053A000F191AB01BC0122E030E083E594E00E9482
:1053B000FF0FE2E5F3E08191882339F09091C0007E
:1053C00095FFFCCF8093C600F6CF60917D0270916F
:1053D0007E0280917F02909180020E94FD91AB013C
:1053E000BC0122E030E083E594E00E94FF0FE6E597
:1053F000F3E08191882339F09091C00095FFFCCFB4
:105400008093C600F6CF4091790250917A02609164
:105410007B0270917C0222E030E083E594E00E9400
:10542000FF0F8091C00085FFFCCF1AC09091C00093
:1054300095FFFCCF8093C600319684918111F6CF01
:10544000EAE5F3E08191882339F09091C00095FF5F
:10545000FCCF8093C600F6CF8091C00085FFFCCFC3
:105460008AE08093C600089580E50E94D7148823BF
:1054700051F00E949914609391027093920280936C
:1054800093029093940289E40E94D714882361F0D8
:105490000E9499140E94EB9160938D0270938E028A
:1054A00080938F029093900284E40E94D714882303
:1054B00061F00E9499140E94F791609389027093A1
:1054C0008A0280938B0290938C020E941583EDEBED
:1054D000FAE08491882341F09091C00095FFFCCFC1
:1054E0008093C6003196F5CFEAE4F3E081918823FA
:1054F00039F09091C00095FFFCCF8093C600F6CFA5
:1055000040919102509192026091930270919402A5
:1055100022E030E083E594E00E94FF0FEEE4F3E048
:105520008191882339F09091C00095FFFCCF809342
:10553000C600F6CF60918D0270918E0280918F022D
:10554000909190020E94F191AB01BC0122E030E009
:1055500083E594E00E94FF0FE2E5F3E08191882368
:1055600039F09091C00095FFFCCF8093C600F6CF34
:105570006091890270918A0280918B0290918C02D5
:105580000E94FD91AB01BC0122E030E083E594E094
:105590000E94FF0F8091C00085FFFCCF8AE08093BE
:1055A000C6000895EF92FF920F93CF93DF9385E4A7
:1055B0000E94D714882321F00E94CA14EC0102C073
:1055C000C0E0D0E083E40E94D714882321F00E9439
:1055D000CA147C0103C095E0E92EF12C85E50E94F8
:1055E000D714882329F00E94CA1401E0892B09F4FA
:1055F00000E083E50E94D714882319F00E949914D3
:1056000006C0D7FD09C060E070E086E193E4209712
:1056100039F41092510504C060E070E08CE892E427
:105620009701AE010E945F8BDF91CF910F91FF90A8
:10563000EF9008952F923F924F925F926F927F92D8
:105640008F929F92AF92BF92CF92DF92EF92FF9292
:105650000F931F93CF93DF9300D000D0CDB7DEB769
:1056600082E699E09C838B83E1E7F5E0FA83E983A6
:1056700008E719E01E821D82212C312CEB81FC8170
:105680008191FC83EB83882309F4ADC0ED81FE8119
:10569000E45EFD4F2081318142815381ED81FE81A5
:1056A000E85DFD4F60817181828193810E945599EF
:1056B00020E030E040E05FE30E94039D9B01AC01ED
:1056C000F80160817181828193810E94319C18165A
:1056D0004CF48D819E818756954F0E9400109B014E
:1056E000AC0103C020E030E0A901F8018080918086
:1056F000A280B380C501B4010E9454996B017C0162
:1057000020E030E040EA51EC0E94319C18161CF079
:10571000E3ECFAE038C020E030E040EA51E4C701B1
:10572000B6010E942E9A87FFF3CFE981FA8140806B
:10573000518062807380A7019601C301B2010E946B
:1057400054996B017C01A30192010E9454999B0121
:10575000AC01C501B4010E945599F80160837183C1
:1057600082839383E981FA81C082D182E282F382CB
:10577000C1010E94061037C09091C00095FFFCCF78
:105780008093C600319684918111F6CFEDE3F2E06B
:105790008491882341F09091C00095FFFCCF8093C5
:1057A000C6003196F5CF8091C00085FFFCCF8AE01E
:1057B0008093C60026960FB6F894DEBF0FBECDBF0D
:1057C000DF91CF911F910F91FF90EF90DF90CF90DD
:1057D000BF90AF909F908F907F906F905F904F9011
:1057E0003F902F900895FFEF2F1A3F0A89819A81E9
:1057F00004969A838983ED81FE813496FE83ED833E
:105800000C5F1F4FF3E02F16310409F037CF0E94D1
:10581000FA1626960FB6F894DEBF0FBECDBFDF9105
:10582000CF911F910F91FF90EF90DF90CF90BF909D
:10583000AF909F908F907F906F905F904F903F9030
:105840002F900C94A710CF92DF92EF92FF92EDEB86
:10585000FAE08491882341F09091C00095FFFCCF3D
:105860008093C6003196F5CFE4E3F2E0849188237B
:1058700041F09091C00095FFFCCF8093C600319617
:10588000F5CF8091C00085FFFCCF80E28093C600F9
:105890008AE50E94D714882309F452C00E94991403
:1058A0006B017C0120E030E040E050EC0E94319C34
:1058B00087FD0AC020E030E040EA50E4C701B601AD
:1058C0000E942E9A18161CF4ECE2F2E018C0C09266
:1058D0001202D0921302E0921402F092150222E01A
:1058E00030E0B701A60183E594E00E94FF0F34C0C9
:1058F0009091C00095FFFCCF8093C60031968491B3
:105900008111F6CF4AE050E06EEF7FEF83E594E03F
:105910000E942D0FE4E2F2E08491882341F09091FF
:10592000C00095FFFCCF8093C6003196F5CF4AE0CA
:1059300050E065E070E083E594E00E942D0F0CC01C
:10594000409112025091130260911402709115025D
:1059500081E292E00E94D5118091C00085FFFCCFCA
:105960008AE08093C600FF90EF90DF90CF9008957B
:1059700088E50E94D714882339F00E9499140E9468
:105980009D9A80E00E94507F8AE50E94D714882368
:1059900039F00E9499140E949D9A81E00E94507FE4
:1059A00085E40E94D714882339F00E9499140E943C
:1059B0009D9A82E00C94507F08951F93CF93DF93BC
:1059C00083E50E94D714811104C0C9EED3E010E032
:1059D0000FC0C0E00E9499140E94A29A8C2F0E94CE
:1059E000BD7FCF5FC530B1F7F0CF1F5F143069F0D6
:1059F00089910E94D7148823C1F30E9499140E94B0
:105A0000A29A812F0E94BD7FF0CF82E40E94D7141A
:105A1000882339F00E9499140E94A29A84E00E947F
:105A2000BD7FDF91CF911F910C9484801F93CF9302
:105A3000DF9383E50E94D714882309F44AC00E94AB
:105A4000CA148130910539F0029709F042C0C9EEBD
:105A5000D3E010E021C0C9EED3E010E089910E94AC
:105A6000D714882341F00E9499140E949D9A4FEF09
:105A7000812F0E947F7F1F5F143081F782E40E9494
:105A8000D714882331F10E9499140E949D9A4FEFF8
:105A90001DC01F5F143079F089910E94D7148823AC
:105AA000C1F30E9499140E949D9A462F6FEF812F97
:105AB0000E947F7FEECF82E40E94D714882349F0B2
:105AC0000E9499140E949D9A462F6FEF84E00E94D5
:105AD0007F7FDF91CF911F910C948480CF92DF92D2
