:100000000C94820D0C94B30D0C94B30D0C94B30DA1
:100010000C94B30D0C94B30D0C94B30D0C94B30D60
:100020000C94B30D0C94B30D0C94B30D0C94B30D50
:100030000C94B30D0C94B30D0C94B30D0C94B30D40
:100040000C94B30D0C9475780C94B30D0C94B30D03
:100050000C94B30D0C94B30D0C944D900C942A9603
:100060000C94B30D0C94B50D0C94B30D0C94B30D0E
:100070000C94B30D0C94B30D0C94B30D0C94B30D00
:100080000C94B30D0C94B30D0C94B30D0C94B30DF0
:100090000C94B30D0C94B30D0C94B30D0C94B30DE0
:1000A0000C94B30D0C94B30D0C94B30D0C94B30DD0
:1000B0000C94B30D0C94B30D0C94B30D0C94B30DC0
:1000C0000C94B30D0C94B30D0C94B30D0C94B30DB0
:1000D0000C94B30D0C94B30D0C94B30D0C94B30DA0
:1000E0000C94B30D744374437F437F437F438A432F
:1000F0008A438A43C243B843B843B8439690A39017
:10010000C290CF90EA90F7901291159118911B919F
:100110001E9121912B915F976497699773977D97B3
:10012000F69787978F979797A197AB97B597C497AF
:10013000CE97F697D897E297EC9717981A98099860
:100140000D98139851981E98229828982C983098BA
:1001500036983A983E985198449848984C98084A4E
:10016000D73B3BCE016E84BCBFFDC12F3D6C7431CB
:100170009ABD56833DDA3D00C77F11BED9E4BB4C22
:100180003E916BAAAABE000000803F05A84CCDB2EC
:10019000D44EB93836A9020C50B9918688083CA6CD
:1001A000AAAA2ABE000000803F005072696E7465E2
:1001B000722068616C7465642E206B696C6C2829F0
:1001C0002063616C6C656421004B494C4C45442EA6
:1001D000200052586275662066756C6C0020746F42
:1001E0006F206C6F6E6720657874727573696F6EBF
:1001F0002070726576656E7465640020636F6C6450
:1002000020657874727573696F6E2070726576659B
:100210006E746564006F6B00526573656E643A209E
:10022000003A20007A5F6D61783A20007A5F6D694C
:100230006E3A20005A204F666673657400546F6FE3
:10024000206661722066726F6D20726566657265E8
:100250006E636520706F696E740053657474696EA7
:10026000672054726176656C20416363656C6572CA
:100270006174696F6E3A200053657474696E67200B
:100280005265747261637420416363656C65726169
:1002900074696F6E3A200053657474696E672050FC
:1002A00072696E7420416363656C65726174696F15
:1002B0006E3A200053657474696E67205072696EDF
:1002C0007420616E642054726176656C20416363B2
:1002D000656C65726174696F6E3A20007A5F6D615A
:1002E000783A20007A5F6D696E3A2000795F6D611F
:1002F000783A2000795F6D696E3A2000785F6D6111
:10030000783A2000785F6D696E3A20004649524D78
:10031000574152455F4E414D453A4D61726C696E91
:1003200020312E312E302E3131202028416C657045
:1003300068204F626A6563747320496E632E277369
:10034000205068616272696361746F722920534F33
:10035000555243455F434F44455F55524C3A68748C
:100360007470733A2F2F636F64652E616C657068CB
:100370006F626A656374732E636F6D2F646966665E
:100380007573696F6E2F4D41524C494E2050524F3C
:10039000544F434F4C5F56455253494F4E3A312EBE
:1003A00030204D414348494E455F545950453A4CE1
:1003B000756C7A426F74204D696E692045585452AD
:1003C000554445525F434F554E543A312055554997
:1003D000443A33353134383762362D636139612D13
:1003E000346331612D383736352D64363638623115
:1003F0006461363538350A003F0020573A003F0027
:1004000020573A006F6B004B494C4C45442E20005E
:100410004543484F00494E464F004552524F5253B4
:100420000044525952554E00434F4D4D554E49438D
:100430004154494F4E006F666600100415041A04BB
:100440002104280444454255473A005374616E64C0
:1004500061726420446576696174696F6E3A200048
:100460004D65616E3A20002020207369676D613A06
:100470002000206D65616E3A20002020207A3A200D
:1004800000206F66200020207A3A2000793A200070
:10049000783A2000202020616E676C653A20005376
:1004A00074617274696E67207261646975733A2051
:1004B00000506F736974696F6E696E672074686548
:1004C0002070726F62652E2E2E0A003F4E756D628F
:1004D0006572206F66206C65677320696E206D6F92
:1004E00076656D656E74206E6F7420706C617573C7
:1004F00069626C652028302D3135292E0A0059009B
:1005000058003F53616D706C652073697A65206E89
:100510006F7420706C61757369626C652028342D6E
:100520003530292E0A004D3438205A2D50726F6212
:1005300065205265706561746162696C69747920C7
:10054000746573740A003F566572626F7365204C60
:100550006576656C206E6F7420706C61757369626E
:100560006C652028302D34292E0A002569206D69FC
:100570006E2C2025692073656300205A3A200020E4
:10058000593A200042656420583A2000205A3A2007
:100590000020593A200042656420583A2000486FF4
:1005A0006D6520582F59206265666F7265205A006C
:1005B000202B00200A436F727265637465642042C9
:1005C0006564204865696768742076732E204265EB
:1005D0006420546F706F6C6F67793A200A00202B8B
:1005E000002028302C30290A002020204F2D2D20DB
:1005F00046524F4E54202D2D2B0A002020207C20C7
:10060000202020202020202020207C0A00202020C4
:100610007C20202020282D29202020207C20540AE6
:10062000002054207C20202020202020202020205A
:100630007C20480A002046207C20282D29204E209E
:10064000282B29207C20470A002045207C202020C0
:1006500020202020202020207C20490A00204C201F
:100660007C20202020282B29202020207C20520A9A
:10067000002020207C20202020202020202020203E
:100680007C0A002020202B2D2D2D204241434B2081
:100690002D2D2B0A00200A42656420486569676891
:1006A0007420546F706F6772617068793A200A0025
:1006B0004D65616E206F662073616D706C6564209E
:1006C000706F696E74733A200020643A20002062D3
:1006D0003A200045716E20636F65666669636965DF
:1006E0006E74733A20613A200050524F42452046C2
:1006F00041494C20434C45414E204E4F5A5A4C459F
:100700000028422961636B00284629726F6E7400CD
:100710002852296967687400284C29656674003F6F
:100720004E756D626572206F662070726F626564CF
:10073000202850296F696E747320697320696D7069
:100740006C61757369626C65202832206D696E6911
:100750006D756D292E0A0052756E6E696E6720697F
:100760006E204452592D52554E206D6F64650047DE
:100770003239204175746F20426564204C6576657E
:100780006C696E670A003F2856296572626F73654F
:10079000204C6576656C20697320696D706C61759D
:1007A0007369626C652028302D34292E00205A3A56
:1007B0000020593A0020436F756E7420583A20008B
:1007C00020453A00205A3A0020593A00583A00573A
:1007D00061726E696E673A20486F6D696E6720427C
:1007E000756D702044697669736F72203C2031000A
:1007F00020403A002042403A00202F0020423A0098
:10080000202F0020543A0020706F736974696F6E56
:10081000206F7574206F662072616E67652E003FD1
:1008200050726F62652000220A00556E6B6E6F7702
:100830006E20636F6D6D616E643A202200526577A1
:100840006970696E670020496E76616C6964206525
:100850007874727564657220004B494C4C45442E87
:1008600020005072696E7465722073746F707065C9
:10087000642064756520746F206572726F72732EC8
:100880002046697820746865206572726F722061F5
:100890006E6420757365204D39393920746F20726C
:1008A0006573746172742E202854656D7065726171
:1008B000747572652069732072657365742E205398
:1008C0006574206974206166746572207265737442
:1008D000617274696E6729004E6F204C696E6520E5
:1008E0004E756D6265722077697468206368656310
:1008F0006B73756D2C204C617374204C696E653A76
:1009000020004E6F20436865636B73756D207769B7
:100910007468206C696E65206E756D6265722C203E
:100920004C617374204C696E653A2000636865639E
:100930006B73756D206D69736D617463682C204CE9
:10094000617374204C696E653A20004C696E6520B5
:100950004E756D626572206973206E6F74204C61F4
:100960007374204C696E65204E756D6265722B3113
:100970002C204C617374204C696E653A20004D3117
:100980003130002020506C616E6E65724275666673
:10099000657242797465733A20002046726565205D
:1009A0004D656D6F72793A200044656320323120C5
:1009B0003230313600436F6D70696C65643A2000E7
:1009C00028416C657068204F626A656374732049C2
:1009D0006E632E2C204C756C7A426F74204D696EBC
:1009E000692900207C20417574686F723A200032BA
:1009F0003031362D30342D32372031323A3030001C
:100A0000204C61737420557064617465643A2000F1
:100A100020312E312E302E313120004D61726C6923
:100A20006E0020536F66747761726520526573653E
:100A30007400205761746368646F67205265736542
:100A400074002042726F776E206F75742052657348
:100A50006574002045787465726E616C2052657310
:100A6000657400506F7765725570007374617274AD
:100A7000002200656E7175657565696E67202200DC
:100A8000FF01010000A0400000A040000000400065
:100A9000002F4300004943000021430000000000F4
:100AA000003F4300001F4300002F4300003F43006E
:100AB000001F4300000000000020C1000000C065CE
:100AC00063686F3A004572726F723A0020204D38A9
:100AD0003531205A005A2D50726F6265204F66667C
:100AE00073657420286D6D293A0020204D32303016
:100AF0002044300020204D32303020440020446912
:100B00007361626C65640046696C616D656E74202A
:100B100073657474696E67733A002044002049005D
:100B200020204D333034205000204C002043002042
:100B3000440020490020204D3330312050005049DE
:100B4000442073657474696E67733A00205A0020FC
:100B5000590020204D323036205800486F6D6520F6
:100B60006F666673657420286D6D293A0020450014
:100B7000205A0020580020420020540020204D32EE
:100B80003035205300416476616E63656420766180
:100B9000726961626C65733A20533D4D696E2066DF
:100BA0006565647261746520286D6D2F73292C2032
:100BB000543D4D696E2074726176656C2066656582
:100BC000647261746520286D6D2F73292C20423D5D
:100BD0006D696E696D756D207365676D656E7420E6
:100BE00074696D6520286D73292C20583D6D6178DE
:100BF000696D756D205859206A65726B20286D6D7E
:100C00002F73292C20205A3D6D6178696D756D20F8
:100C10005A206A65726B20286D6D2F73292C202055
:100C2000453D6D6178696D756D2045206A65726B13
:100C300020286D6D2F7329002054002052002020A1
:100C40004D323034205000416363656C65726174CD
:100C5000696F6E733A20503D7072696E74696E6789
:100C60002C20523D7265747261637420616E642041
:100C7000543D74726176656C00204500205A002056
:100C8000590020204D3230312058004D6178696D77
:100C9000756D20416363656C65726174696F6E2068
:100CA000286D6D2F7332293A00204500205A00200C
:100CB000590020204D3230332058004D6178696D45
:100CC000756D2066656564726174657320286D6D4D
:100CD0002F73293A00204500205A00205900202077
:100CE0004D3932205800537465707320706572203E
:100CF000756E69743A0048617264636F646564205C
:100D000044656661756C742053657474696E6773AD
:100D1000204C6F61646564002062797465732900FA
:100D20002073746F7265642073657474696E677381
:100D30002072657472696576656420280020627986
:100D4000746573290053657474696E6773205374F6
:100D50006F7265642028004572726F722077726925
:100D600074696E6720746F20454550524F4D2100C5
:100D700020746F6F206C6F6E672065787472757366
:100D8000696F6E2070726576656E746564002063AD
:100D90006F6C6420657874727573696F6E20707201
:100DA0006576656E7465640045303A20005A3A20D5
:100DB00000593A2000583A20004D53312C4D5332FF
:100DC0002050696E730A00205A3A0020593A0020D8
:100DD000583A00656E6473746F7073206869743A72
:100DE000200024F4D43050C38E20C2A24017828B3E
:100DF0007011127A910D816CD90AA861E108C75867
:100E00006607615143061E4B5D05C145A7041A41A3
:100E10001104093D9803713931034036DB02653313
:100E20009102D4305402802E1D02632CEE01752AEB
:100E3000C501B028A001102781018F2564012B2452
:100E40004B01E0223401AC211F018D200D01801FD8
:100E5000FC00841EED00971DDF00B81CD200E61BCD
:100E6000C600201BBC00641AB200B219A8000A19FF
:100E7000A0006A189900D117910040178B00B51691
:100E8000840031167E00B31579003A157300C7143B
:100E90006F0058146A00EE13660088136300251370
:100EA0005E00C7125B006C12570015125400C1118E
:100EB000510070114F0021114B00D61049008D10C8
:100EC00047004610440002104200C00F4000800F4F
:100ED0003E00420F3C00060F3B00CB0E3800930E45
:100EE00037005C0E3500270E3400F30D3200C10DC3
:100EF0003100900D3000600D2E00320D2D00050DDB
:100F00002C00D90C2B00AE0C2900850C29005C0CA0
:100F10002700350C27000E0C2600E80B2400C40B1C
:100F20002400A00B23007D0B23005A0B2100390B5A
:100F30002100180B2000F80A1F00D90A1E00BB0A66
:100F40001E009D0A1D00800A1D00630A1C00470A3E
:100F50001B002C0A1B00110A1A00F7091A00DD09F0
:100F60001900C4091900AB091900920917007B097F
:100F70001800630917004C091600360916002009ED
:100F800016000A091500F5081500E0081400CC0841
:100F90001400B8081400A4081400900813007D0879
:100FA00012006B081300580812004608120034089B
:100FB0001100230811001208110001081100F007A8
:100FC0001000E0071000D0071000C0071000B007A5
:100FD0000F00A107100091070E0083070F00740790
:100FE0000F0065070E0057070E0049070E003B076C
:100FF0000D002E070E0020070D0013070D00060739
:101000000D00F9060C00ED060D00E0060C00D406FC
:101010000C00C8060C00BC060C00B0060C00A406B0
:101020000B0099060C008D060B0082060B0077065C
:101030000B006C060B0061060A0057060B004C06FD
:101040000A0042060A0038060A002E060A00240694
:101050000A001A060A001006090007060A00FD0524
:101060000900F4050900EB050900E2050900D905AE
:101070000900D0050900C7050900BE050900B5052E
:101080000800AD050800A50509009C0508009405A9
:1010900008008C050800840508007C05080074051C
:1010A00008006C050700650508005D05070056058A
:1010B00008004E05070047050700400508003805F1
:1010C0000700310507002A050700230507001C0556
:1010D0000600160507000F050700080506000205B3
:1010E0000700FB040600F5040700EE040600E80410
:1010F0000600E2040700DB040600D5040600CF0466
:101100000600C9040600C3040600BD040600B704B7
:101110000600B1040500AC040600A6040600A00405
:1011200005009B04060095040500900406008A044F
:10113000050085040500800406007A040500750496
:101140000500700405006B040500660405006104D9
:1011500005005C04050057040500520405004D0419
:10116000050048040500430405003E0404003A0459
:10117000050035040500300404002C040500270494
:101180000400230405001E0404001A0404001604CD
:101190000500110404000D04040009040500040402
:1011A000040000040400FC030400F8030400F4033A
:1011B0000400F0030400EC030400E8030400E4036B
:1011C0000400E0030400DC030400D8030400D4039B
:1011D0000400D0030400CC030400C8030300C503CB
:1011E000030024F404D9201BC40C5C0E9804C40929
:1011F0005F0265077101F405F900FB04B3004804C0
:101200008700C10369005803550003034500BE026F
:101210003A008402310053022A0029022500040208
:101220002000E4011C00C8011900AF01170098015B
:1012300014008401130071011000610110005101BC
:101240000E0043010D0036010B002B010B002001A5
:101250000B00150109000C01090003010800FB0047
:101260000800F3000800EB000700E4000600DE00C1
:101270000600D8000600D2000600CC000500C7001A
:101280000500C2000500BD000400B9000400B5005F
:101290000400B1000400AD000400A9000400A50092
:1012A0000300A20003009F0004009B0003009800BD
:1012B00003009500020093000300900003008D00DE
:1012C00002008B00030088000200860002008400F8
:1012D0000300810002007F0002007D0002007B000D
:1012E000020079000200770001007600020074001D
:1012F000020072000100710002006F0002006D0028
:1013000001006C0002006A00010069000200670031
:101310000100660001006500010064000200620037
:10132000010061000100600001005F0002005D003B
:1013300001005C0001005B0001005A00010059003F
:10134000010058000100570001005600010055003F
:10135000010054000100530000005300010052003E
:10136000010051000100500001004F0001004E003B
:1013700000004E0001004D0001004C0001004B0038
:1013800000004B0001004A00010049000100480034
:101390000000480001004700010046000000460030
:1013A0000100450000004500010044000100430029
:1013B0000000430001004200000042000100410023
:1013C000000041000100400001003F0000003F001C
:1013D00001003E0000003E0001003D0000003D0015
:1013E00001003C0000003C0000003C0001003B000C
:1013F00000003B0001003A0000003A000100390003
:1014000000003900010038000000380000003800FA
:1014100001003700000037000100360000003600F0
:1014200000003600010035000000350000003500E6
:1014300001003400000034000000340001003300DB
:1014400000003300000033000100320000003200D1
:1014500000003200010031000000310000003100C6
:1014600001003000000030000000300001002F00BB
:1014700000002F0000002F0000002F0001002E00B0
:1014800000002E0000002E0001002D0000002D00A5
:1014900000002D0000002D0001002C0000002C0099
:1014A00000002C0000002C0001002B0000002B008D
:1014B00000002B0000002B0001002A0000002A0081
:1014C00000002A0000002A00010029000000290075
:1014D0000000290000002900000029000100280068
:1014E000000028000000280000002800000028005C
:1014F000010027000000270000002700000027004F
:101500000000270001002600000026000000260041
:101510000000260000002600010025000000250034
:101520000000250000002500000025000000250027
:10153000010024000000240000002400000024001A
:10154000000024000100230000002300000023000D
:1015500000002300000023000000230000002300FF
:1015600001002200000022000000220000002200F2
:1015700000002200000022000100210000002100E4
:1015800000002100000021000000210000002100D7
:1015900000002100010020000000200000002000C9
:1015A00000002000000020000000200000002000BB
:1015B0000000200001001F0000001F0000001F00AD
:1015C00000001F0000001F0000001F0000001F009F
:1015D00001001E0000001E0000001E0000001E0092
:1015E00000004D494E54454D50207472696767653F
:1015F000726564004572723A204D494E54454D5013
:1016000020424544004D415854454D502074726964
:10161000676765726564004572723A204D4158549F
:10162000454D502042454400546865726D616C2000
:101630004572726F7200544845524D414C205255CC
:101640004E415741590048656174696E6720666173
:10165000696C65640048656174696E6720666169DC
:101660006C65640048656174696E67206661696CC9
:1016700065640048656174696E67206661696C65C0
:1016800064004D494E54454D50207472696767653A
:10169000726564004572723A204D494E54454D5072
:1016A00000626564002C2073797374656D20737417
:1016B0006F7070656421204865617465725F49448C
:1016C0003A20004D415854454D5020747269676767
:1016D00065726564004572723A204D415854454D1B
:1016E00050004B64200023646566696E65202044C9
:1016F000454641554C545F004B69200023646566A4
:10170000696E65202044454641554C545F004B703E
:10171000200023646566696E652020444546415576
:101720004C545F00504944204175746F74756E6568
:101730002066696E69736865642120507574207431
:101740006865206C617374204B702C204B6920619C
:101750006E64204B6420636F6E7374616E747320CB
:1017600066726F6D2062656C6F7720696E746F2092
:10177000436F6E66696775726174696F6E2E68007B
:10178000504944204175746F74756E6520666169B7
:101790006C6564212074696D656F757400504944EF
:1017A000204175746F74756E65206661696C65643F
:1017B000212054656D706572617475726520746F57
:1017C0006F206869676800204B643A2000204B69ED
:1017D0003A2000204B703A200020436C61737369FB
:1017E000632050494420002054753A2000204B7556
:1017F0003A2000206D61783A2000206D696E3A2011
:101800000020643A200020626961733A20001000D1
:10181000AD0330016A0150022B0170030A019004EC
:10182000F500B005E500D006D800F007CE0010099D
:10183000C500300ABE00500BB700700CB100900D0F
:10184000AB00B00EA600D00FA200F0109D00101249
:101850009900301395005014920070158E00901668
:101860008B00B0178700D0188400F0198100101B7E
:101870007E00301C7B00501D7900701E7600901F8A
:101880007300B0207000D0216E00F0226B00102495
:10189000690030256600502663007027610090289B
:1018A0005E00B0295C00D02A5900F02B5600102DA4
:1018B0005400302E5100502F4E0070304B009031AC
:1018C0004800B0324500D0334200F0343E001036BC
:1018D0003B00303737005038330070392E00903AD3
:1018E0002900B03B2300D03C1B00F03D1100103F0D
:1018F0000100F03F00001000C90210012C0140015E
:10190000220170011801B0010E01F0010401500222
:10191000FA00B002F0003003E600D003DC009004CF
:10192000D2007005C800A006BE000008B400B009CF
:10193000AA00D00BA000600E960060118C0000156C
:10194000820020197800C01D6E00A0226400B0271C
:101950005A00902C500000314600E0343C00103812
:101960003200903A2800603C1E00A03D1400803EEA
:101970000A00203F000000000A0B02090C0D0E08AF
:101980000703040100000000000000000000000048
:101990000000000000000000000000000000000047
:1019A0000000121110000000000000000000000004
:1019B0000000000000000000000000000000000027
:1019C00000000000000000000000000001021020E4
:1019D0002008081020401020408002010201080465
:1019E00002010102040810204080804020100804F9
:1019F0000201800402018040201008040201080452
:101A00000201010204081020408001020408102095
:101A100040801008040880102040044080102040BE
:101A200004800505050507050808080802020202EA
:101A30000A0A08080404040401010101010101016A
:101A40000303030303030303040707070C0C0C0C35
:101A50000C0C0C0C0202020206060606060606061E
:101A60000B0B0B0B0B0B0B0B07070A0A0A0A0A0AD4
:101A700005050504040408080000200023002600D2
:101A800029002C002F003200000100000301060194
:101A9000090100002200250028002B002E00310043
:101AA000340002010000050108010B0100002100C3
:101AB000240027002A002D0030003300010100001F
:101AC000040107010A014E414E494E495459494EFD
:101AD00046CDCCCC3D0AD7233C17B7D13877CC2B99
:101AE000329595E6241FB14F0A000020410000C83E
:101AF0004200401C4620BCBE4CCA1B0E5AAEC59DBF
:101B00007400274811241FBECFEFD1E2DEBFCDBF46
:101B100000E00CBF14E0A0E0B2E0E6E5F9E401E08B
:101B20000BBF02C007900D92A234B107D9F720E194
:101B3000A2E4B4E001C01D92AF3BB207E1F71BE1A4
:101B4000C4E0DBE100E006C022970109FE010BBF03
:101B50000E942C9EC230D10780E00807A9F70E949E
:101B60002D990C94A9A40C9400001F920F920FB60B
:101B70000F9211240BB60F922F933F934F938F9395
:101B80009F93EF93FF934091C60080914204882376
:101B900041F04A3019F04D3009F043C01092420430
:101BA00040C08091C50490E001968F7799272091DD
:101BB000C60430E08217930749F0E091C504F0E0D5
:101BC000EB5BFB4F40838093C5042BC081E0809387
:101BD00042048091C50481508F7790E0FC01EB5B5B
:101BE000FB4F20812A3041F02D3031F03091C50477
:101BF0002091C60432130CC08F5F8F778093C50489
:101C00008091440481110DC081E08093440409C097
:101C10002091C50421502F77822F90E02093C50496
:101C2000DDCFFF91EF919F918F914F913F912F9138
:101C30000F900BBE0F900FBE0F901F9018959A013A
:101C4000AB01211581EE38074105510549F182E0CC
:101C50008093C00060E079E08DE390E00E94F49D05
:101C60002150310941095109CA01B90122E030E08E
:101C700040E050E00E94F49D3093C5002093C400E2
:101C80008091C10080618093C1008091C100886013
:101C90008093C1008091C10080688093C100089545
:101CA0001092C00020E130E0E7CF3FB7F8942091D8
:101CB000C6048091C504821759F0E22FF0E0EB5B77
:101CC000FB4F808190E02F5F2F772093C60402C0E6
:101CD0008FEF9FEF3FBF08958FB7F8949091C604A0
:101CE0009093C5048FBF08954F925F926F927F9239
:101CF0008F929F92AF92BF92CF92DF92EF92FF921C
:101D00000F931F93CF93DF93CDB7DEB7A0970FB696
:101D1000F894DEBF0FBECDBF5C01411551056105D2
:101D20007105E9F420E030E040E350E060E070E06D
:101D3000A0960FB6F894DEBF0FBECDBFDF91CF9156
:101D40001F910F91FF90EF90DF90CF90BF90AF90D9
:101D50009F908F907F906F905F904F905BC08E01AF
:101D60000F5F1F4FC12CD12C76014801422E512C00
:101D7000612C712C8FEFC81AD80AE80AF80ACB0137
:101D8000BA01A30192010E94D29DCA01F801619398
:101D90008F01A901BC01411551056105710551F77C
:101DA000F1E0CF1AD108E108F108F401EC0DFD1DB6
:101DB00080818A3010F440E301C047E3480F552783
:101DC00047FD5095652F752F20E030E0C50122D0EA
:101DD00081E0C81AD108E108F108EFEFCE16DE065F
:101DE000EE06FE0611F7A0960FB6F894DEBF0FBE02
:101DF000CDBFDF91CF911F910F91FF90EF90DF90BA
:101E0000CF90BF90AF909F908F907F906F905F909A
:101E10004F9008952115310539F48091C00085FF58
:101E2000FCCF4093C60008952A30310509F41CC048
:101E30005BCFCF93DF93EC0120E030E04DE050E04A
:101E400060E070E0E7DF20E030E04AE050E060E092
:101E500070E0CE01DF91CF91DDCF9A01AB01662713
:101E600057FD6095762FD6CFCF92DF92EF92FF92FB
:101E7000CF93DF93EC016A017B0177FF0FC020E075
:101E800030E04DE250E060E070E0C4DFF094E094B8
:101E9000D094C094C11CD11CE11CF11C2AE0B701F4
:101EA000A601CE01DF91CF91FF90EF90DF90CF9010
:101EB0001BCF2115310539F48091C00085FFFCCF7F
:101EC0004093C600089510CF9A01462F50E060E07D
:101ED00070E0EFCFCF93DF93EC019A01AB0160E0AC
:101EE00070E0E7DFCE01DF91CF91A3CF8F929F9279
:101EF000AF92BF92CF92DF92EF92FF921F93CF9358
:101F0000DF93EC016A017B01122F20E030E0A90190
:101F1000C701B6010E94159A87FF0CC020E030E08F
:101F20004DE250E060E070E0CE0174DFF7FAF0942B
:101F3000F7F8F094B12C60E070E080E09FE3B11618
:101F400041F020E030E040E251E40E941C9AB3945A
:101F5000F6CF9B01AC01C701B6010E943C996B0111
:101F60007C010E94899A4B015C010E94B59A9B01F9
:101F7000AC01C701B6010E943B996B017C012AE0CC
:101F8000B501A401CE01B0DE112341F020E030E024
:101F90004EE250E060E070E0CE013CDF112319F129
:101FA00020E030E040E251E4C701B6010E94EA9C23
:101FB0006B017C010E94849A4B01AA2497FCA09497
:101FC000BA2CB501A401CE014FDFC501B4010E94B6
:101FD000B79A9B01AC01C701B6010E943B996B0106
:101FE0007C011150DBCFDF91CF911F91FF90EF90DB
:101FF000DF90CF90BF90AF909F908F90089576CF55
:10200000FC0165917591859194910895CF92DF922D
:10201000EF92FF920F931F93CF93DF93EC01CC0FBE
:10202000DD1FCC0FDD1FFE01EF59FA4FDE01A35972
:10203000BA4F2D913D914D915C916081718182816A
:1020400093810E943C996B017C01CE018D54954F88
:10205000D7DF8E01085D1D4FA70196010E943C99B4
:10206000F8016083718382839383CE018955954FF4
:10207000C7DFC45EDD4FA70196010E943C996883CB
:1020800079838A839B83DF91CF911F910F91FF907A
:10209000EF90DF90CF900895EF92FF920F931F93F0
:1020A000CF93DF93EC018C01000F111F000F111F64
:1020B000F801E359FA4F1082118212821382C8018B
:1020C0008556954F9DDF98012859364F7901F801C3
:1020D000EF59FA4F20813181428153810E943C990E
:1020E000F7016083718382839383CE01DF91CF9167
:1020F0001F910F91FF90EF9089CF80911F0F811159
:1021000003C081E080931F0F0895EFEBFAE0849104
:10211000882341F09091C00095FFFCCF8093C600CA
:102120003196F5CFEEE9F5E08491882341F0909166
:10213000C00095FFFCCF8093C6003196F5CF80910B
:10214000C00085FFFCCF8AE08093C60008958F927F
:102150009F92AF92BF92CF92DF92EF92FF92ECEC00
:10216000F7E08491882341F09091C00095FFFCCF67
:102170008093C6003196F5CF409168095091690966
:1021800060916A0970916B0922E030E083E494E089
:1021900036DFE8ECF7E08491882341F09091C000AD
:1021A00095FFFCCF8093C6003196F5CF40916C0926
:1021B00050916D0960916E0970916F0922E030E0D5
:1021C00083E494E01CDFE4ECF7E08491882341F0A1
:1021D0009091C00095FFFCCF8093C6003196F5CF5B
:1021E0004091700950917109609172097091730961
:1021F00022E030E083E494E002DFE0ECF7E0849159
:10220000882341F09091C00095FFFCCF8093C600D9
:102210003196F5CF40917409509175096091760916
:102220007091770922E030E083E494E0E8DE8FB734
:10223000F8944091DC0E5091DD0E6091DE0E7091AD
:10224000DF0E8090E00E9090E10EA090E20EB09034
:10225000E30EC090E40ED090E50EE090E60EF09014
:10226000E70E8FBFE5EBF7E08491882341F0909172
:10227000C00095FFFCCF8093C6003196F5CF2AE0D1
:1022800030E083E494E0C6DDE1EBF7E0849188235D
:1022900041F09091C00095FFFCCF8093C60031962D
:1022A000F5CF2AE030E0B501A40183E494E0B2DD8B
:1022B000EDEAF7E08491882341F09091C00095FF0A
:1022C000FCCF8093C6003196F5CF2AE030E0B7010D
:1022D000A60183E494E09EDD8091C00085FFFCCFE1
:1022E0008AE08093C600FF90EF90DF90CF90BF9080
:1022F000AF909F908F9008950E94749660935205BE
:1023000070935305809354059093550508958091DB
:10231000400290914102A0914202B0914302809309
:10232000780990937909A0937A09B0937B098091F9
:102330003E0290913F0290937B0580937A0584E65C
:1023400090E090933F0280933E02D6DF81E00C94B0
:1023500086740E948E748091780990917909A09179
:102360007A09B0917B098093400290934102A09337
:102370004202B093430280917A0590917B0590933D
:102380003F0280933E02B8CFFC012491222341F00A
:102390003091C00035FFFCCF2093C6000196F4CFEA
:1023A0004AE050E083E494E058CDFC0124912223DC
:1023B00041F03091C00035FFFCCF2093C60001965C
:1023C000F4CF22E030E083E494E019CEFC012491C4
:1023D000222341F03091C00035FFFCCF2093C6008E
:1023E0000196F4CF2AE030E083E494E062CDCF930D
:1023F000DF931F921F92CDB7DEB78091B9109091F5
:10240000BA109E012F5F3F4F009719F42F5B3041A8
:1024100002C0281B390B3A83298389819A810F9046
:102420000F90DF91CF910895FF920F931F93CF9359
:10243000DF93F62EFC0120812B3369F100914009D6
:10244000109141090A30110534F5C0914209D0912B
:10245000430940E64C9F90014D9F300D1124BC0173
:10246000C90180589A4F0E949FA1FE01E05DFA4F7A
:10247000F082CE0101966AE070E00E94BF9D9093C9
:102480004309809342090F5F1F4F10934109009346
:10249000400981E001C080E0DF91CF911F910F9151
:1024A000FF900895CF93DF93D82FC92FBDDF8823E6
:1024B00009F43CC0EFEBFAE08491882341F090915D
:1024C000C00095FFFCCF8093C6003196F5CFE3E7BF
:1024D000FAE08491882341F09091C00095FFFCCFF1
:1024E0008093C6003196F5CFED2FFC2F8191882384
:1024F00039F09091C00095FFFCCF8093C600F6CFD5
:10250000E1E7FAE08491882341F09091C00095FFC3
:10251000FCCF8093C6003196F5CF8091C00085FF37
:10252000FCCF8AE08093C60081E001C080E0DF91AB
:10253000CF910895DF92EF92FF920F931F93CF9365
:10254000DF93CDB7DEB76E970FB6F894DEBF0FBE40
:10255000CDBF60915605709157056115710559F110
:102560004DE150E08E010F5F1F4FC8010E9462A134
:102570001E8EF8017F01E01AF10AD190DD2019F0DA
:102580008AE0D812F7CFF801EE0DFF1D108260E04F
:10259000C80188DF882379F0DD20B1F08FEFE81AD9
:1025A000F80A80915605909157058E0D9F1D9093C6
:1025B00057058093560581E02091560530915705C7
:1025C000232B39F480E005C0109257051092560570
:1025D000F2CF6E960FB6F894DEBF0FBECDBFDF917F
:1025E000CF911F910F91FF90EF90DF90089540E001
:1025F00052EC61E070E083E494E021DBEBE6FAE08A
:102600008491882341F09091C00095FFFCCF809386
:10261000C6003196F5CF8091C00085FFFCCF8AE0DF
:102620008093C600EFEBFAE08491882341F090910B
:10263000C00095FFFCCF8093C6003196F5CF84B7DC
:1026400080FF14C0E3E6FAE09491992341F02091D1
:10265000C00025FFFCCF9093C6003196F5CF909136
:10266000C00095FFFCCF9AE09093C60081FF14C094
:10267000E3E5FAE09491992341F02091C00025FF11
:10268000FCCF9093C6003196F5CF9091C00095FF96
:10269000FCCF9AE09093C60082FF14C0E2E4FAE017
:1026A0009491992341F02091C00025FFFCCF909395
:1026B000C6003196F5CF9091C00095FFFCCF9AE00F
:1026C0009093C60083FF14C0E2E3FAE0949199234B
:1026D00041F02091C00025FFFCCF9093C6003196B9
:1026E000F5CF9091C00095FFFCCF9AE09093C60083
:1026F00085FF14C0E2E2FAE08491882341F09091D2
:10270000C00095FFFCCF8093C6003196F5CF809135
:10271000C00085FFFCCF8AE08093C60014BEEBE1C9
:10272000FAE08491882341F09091C00095FFFCCF9E
:102730008093C6003196F5CFE0E1FAE084918823DA
:1027400041F09091C00095FFFCCF8093C600319678
:10275000F5CF8091C00085FFFCCF8AE08093C60052
:10276000EFEBFAE08491882341F09091C00095FF4F
:10277000FCCF8093C6003196F5CFE0E0FAE084917B
:10278000882341F09091C00095FFFCCF8093C60054
:102790003196F5CFEFEEF9E08491882341F09091E6
:1027A000C00095FFFCCF8093C6003196F5CFE3EED5
:1027B000F9E08491882341F09091C00095FFFCCF0F
:1027C0008093C6003196F5CFE0ECF9E08491882340
:1027D00041F09091C00095FFFCCF8093C6003196E8
:1027E000F5CF8091C00085FFFCCF8AE08093C600C2
:1027F000E5EBF9E08491882341F09091C00095FFCA
:10280000FCCF8093C6003196F5CFE9EAF9E08491D8
:10281000882341F09091C00095FFFCCF8093C600C3
:102820003196F5CF8091C00085FFFCCF8AE0809380
:10283000C600EFEBFAE08491882341F09091C0004C
:1028400095FFFCCF8093C6003196F5CFEAE9F9E019
:102850008491882341F09091C00095FFFCCF809334
:10286000C6003196F5CFC3DD4AE050E0BC0183E4F9
:1028700094E0F3DAE3E8F9E08491882341F0909161
:10288000C00095FFFCCF8093C6003196F5CF4AE09B
:1028900050E060ED74E083E494E0DFDA8091C00002
:1028A00085FFFCCF8AE08093C600E0E3F5E081E09D
:1028B000819395E0EA33F907D9F70E9412500E94FC
:1028C000F8860E94CD550E941E960E940680809137
:1028D0000101886080930101249A2C98089520E8D2
:1028E00035E080E090E0F901E80FF91F10820196D1
:1028F00080369105C1F7205A3F4F89E020343807D0
:1029000081F783E494E0E8D910925B0510925A05B0
:1029100081E090E0909341098093400989E090E044
:1029200090934509809344091092430910924209FB
:1029300008950F931F93CF93DF9300915805109143
:10294000590565E470E0C8010E948BA1EC01C80143
:102950000196209761F0188260E070E00E94A99EC5
:1029600025E42883DF91CF911F910F91089560E0B6
:1029700070E0DF91CF911F910F910C94A99E8091EF
:102980005805909159054AE050E060E070E00196EA
:102990000C9411A080915805909159054AE050E09F
:1029A00060E070E001960E9411A0CB010895682FAD
:1029B000772767FD709580914609909147090E949D
:1029C0008BA1909359058093580521E0892B09F438
:1029D00020E0822F08950F931F93CF93DF938C01F4
:1029E00084E5E5DF882361F1D5DFEC0118161906CF
:1029F0004CF5EFEBFAE08491882341F09091C00010
:102A000095FFFCCF8093C6003196F5CF8091C00032
:102A100085FFFCCF8DE48093C6004AE050E0B8010A
:102A200083E494E01ADABE0186E498E0ADDC80919C
:102A3000C00085FFFCCF8AE08093C60081E005C01E
:102A400080915E058093410580E0DF91CF911F91D9
:102A50000F9108950F931F93CF93DF9300D000D071
:102A6000CDB7DEB726E0E5E9F2E0DE011196019090
:102A70000D922A95E1F7FC01EE0FFF1F21E030E0F7
:102A80002C0F3D1FE20FF31F608171811616170690
:102A90001CF1EFEBFAE02491222341F03091C000C9
:102AA00035FFFCCF2093C6003196F5CFEFECF7E071
:102AB0002491222341F03091C00035FFFCCF2093B8
:102AC000C6003196F5CF2091C00025FFFCCF2AE04B
:102AD0002093C6006AE070E08C01000F111F000F08
:102AE000111F03521C4F882777FD8095982F0E9455
:102AF000B79A9B01AC01F801608171818281938159
:102B00000E941C9A6093400270934102809342029B
:102B10009093430226960FB6F894DEBF0FBECDBF4A
:102B2000DF91CF911F910F9108958F929F92AF9255
:102B3000BF92CF92DF92EF92FF920F931F9320E00C
:102B400030E040E752E46091400270914102809190
:102B50004202909143020E941C9A4B015C01E0905A
:102B60007009F09071090091720910917309209118
:102B70006C0930916D0940916E0950916F09609117
:102B800068097091690980916A0990916B09E091D7
:102B90005E05EF93E4E7CE2EE9E0DE2E0E94675655
:102BA0000F901F910F91FF90EF90DF90CF90BF900B
:102BB000AF909F908F9008954F925F926F927F9207
:102BC0008F929F92AF92BF92EF92FF920F931F93BB
:102BD000CF93DF93CDB7DEB728970FB6F894DEBF5B
:102BE0000FBECDBF4B015C0180914002909141022C
:102BF000A0914202B091430289839A83AB83BC8344
:102C0000412C512CF4E36F2EF4E47F2E40924002CD
:102C1000509241026092420270924302E092700927
:102C2000F092710900937209109373092D833E830A
:102C30004F8358877ADF0E946E7E609116027091F2
:102C40001702882777FD8095982F0E94B79A609386
:102C5000400270934102809342029093430280921B
:102C6000680990926909A0926A09B0926B092D8156
:102C70003E814F81588520936C0930936D094093B4
:102C80006E0950936F0951DF0E946E7E89819A818F
:102C9000AB81BC818093400290934102A093420299
:102CA000B093430228960FB6F894DEBF0FBECDBF97
:102CB000DF91CF911F910F91FF90EF90BF90AF9058
:102CC0009F908F907F906F905F904F9008954F925C
:102CD0005F926F927F928F929F92AF92BF92CF92AC
:102CE000DF92EF92FF920F931F932B013C0120E0A4
:102CF00030E040E752E460914002709141028091DF
:102D00004202909143020E941C9A4B015C01209167
:102D10006C0930916D0940916E0950916F09609175
:102D200068097091690980916A0990916B09E09135
:102D30005E05EF93A4E7CA2EA9E0DA2E83017201A3
:102D40000E9467560F901F910F91FF90EF90DF90B8
:102D5000CF90BF90AF909F908F907F906F905F903B
:102D60004F9008958F929F92AF92BF92CF92DF9231
:102D7000EF92FF920F931F9320E030E040E752E480
:102D80000E941C9A4B015C01E0906009F09061097F
:102D9000009162091091630920915C0930915D09ED
:102DA00040915E0950915F096091580970915909ED
:102DB00080915A0990915B09E0915E05EF93B4E62A
:102DC000CB2EB9E0DB2E0E9467560F901F910F911A
:102DD000FF90EF90DF90CF90BF90AF909F908F903B
:102DE0000895609140027091410280914202909159
:102DF0004302B8CFCF92DF92EF92FF920F931F93CF
:102E0000E0907009F09071090091720910917309B6
:102E100020916C0930916D0940916E0950916F09B4
:102E2000609168097091690980916A0990916B09B4
:102E3000E4E7CE2EE9E0DE2E0E94B0611F910F91F3
:102E4000FF90EF90DF90CF9008954F925F926F9236
:102E50007F928F929F92AF92BF92CF92DF92EF922A
:102E6000FF920F931F93CF93DF93EC01FC01E05887
:102E7000F54FF4908C01000F111F000F111FC801B6
:102E80008859964F4C01FC011082118212821382E4
:102E9000B1DFC8018157954FB3D82B013C016F2D8D
:102EA000772767FD7095872F972F0E94B79A6B0140
:102EB0007C01C801885A964F5C0120E030E040EC6C
:102EC0005FE3C301B2010E94EA9CA70196010E9440
:102ED000EA9CF5016083718382839383F801E35256
:102EE000FC4F80819181A281B381809340029093B5
:102EF0004102A0934202B093430273DF0E946E7EB0
:102F0000F401108211821282138274DF80E00E9429
:102F100086740D57154FC80173D89058A7019601B4
:102F20000E94EA9CF501608371838283938359DF59
:102F30000E946E7E81E00E948674CE018BDDC80106
:102F40005FD89B01AC010E943C99A70196010E94A9
:102F5000EA9CF501608371838283938342DF0E9440
:102F60006E7ECE0199D846DFF40180819181A281E5
:102F7000B381F50180839183A283B38310924002D1
:102F80001092410210924202109243020E949374E6
:102F9000FE01EB5AF64F81E08083CE5AD64F8883EC
:102FA000DF91CF911F910F91FF90EF90DF90CF9025
:102FB000BF90AF909F908F907F906F905F904F9059
:102FC000089580E1E8E5F9E0A8E6B9E001900D9206
:102FD0008A95E1F70895EF92FF920F931F93E09087
:102FE0007009F09071090091720910917309E4DD84
:102FF0001F910F91FF90EF900895EF92FF920F9322
:103000001F93E0907009F09071090091720910917E
:10301000730920916C0930916D0940916E095091AE
:103020006F09CADD1F910F91FF90EF900895EF9205
:10303000FF920F931F937B018C0120916C093091BB
:103040006D0940916E0950916F0960916809709106
:10305000690980916A0990916B09AEDD1F910F910A
:10306000FF90EF900895CF9380913F05823008F054
:1030700053C060E070E080EA90E4D9DFEDE3F8E06F
:103080008491882341F09091C00095FFFCCF8093FC
:10309000C6003196F5CF8091C00085FFFCCF8AE055
:1030A0008093C60020E030E04DE253E460E070E041
:1030B00086EE92E490DF60E070E080E89FEBB7DF9F
:1030C000C6E020E030E04DE253E460E070E084E3ED
:1030D00092E481DF20E030E04DE253E460E070E014
:1030E00086EE92E478DFC15061F760E070E080EA3C
:1030F00090E49DDF60E070E0CB017FDF60916809C4
:103100007091690980916A0990916B0920E030E023
:1031100040EC50EC60DF05C060E070E080EA90E4D5
:1031200086DF80913F058F5F80933F05CF910895A3
:103130008F929F92AF92BF92CF92DF92EF92FF92C7
:103140000F931F93D9D885E492E00E94C99380E041
:1031500090E0A4E3B4E48093400290934102A093F2
:103160004202B093430281E08093400524982C9A58
:1031700060E070E080E890ECAADD0E946E7E82E064
:1031800090E00E94D47E4B015C0120916C0930914B
:103190006D0940916E0950916F09609168097091B5
:1031A000690980916A0990916B09A4E7CA2EA9E088
:1031B000DA2E850174010E94B06120E030E040E821
:1031C00050ECC501B4010E94159A811102C01C99EE
:1031D00051C08BE89AE00E9400109B01AC01C50130
:1031E000B4010E943C9973DD0E946E7E0E9493742C
:1031F00082E090E02FDC20E030E040E251E460919A
:1032000040027091410280914202909143020E94DB
:103210001C9A609340027093410280934202909303
:10322000430281E08093400524982C9A60E070E08E
:1032300080E890EC4CDD0E946E7E249A2C980E94CF
:1032400093741092400582E090E00E94D47E6093D7
:1032500070097093710980937209909373091F919B
:103260000F91FF90EF90DF90CF90BF90AF909F9025
:103270008F90C0CD249A2C98109240051F910F91E9
:10328000FF90EF90DF90CF90BF90AF909F908F9086
:10329000EACE4F925F926F927F92AF92BF92CF929F
:1032A000DF92EF92FF920F931F93CF93DF9300D0A3
:1032B0001F92CDB7DEB769837A838B839C83290104
:1032C0003A01C801B701B3DE6091680970916909DC
:1032D00080916A0990916B09A30192017CDE8ADDDD
:1032E00069817A818B819C8188DEC0FC0E947D107F
:1032F0001FDF0091700910917109E0907209F09040
:10330000730920E030E040EA50E4B801C7010E94B0
:10331000159A882309F455C0C1FE05C080911F0F7E
:10332000811110921F0F83E0A816B1040CF44EC057
:10333000E6E9F5E08491882341F09091C00095FF83
:10334000FCCF8093C6003196F5CF23E030E0498171
:103350005A816B817C8183E494E00E94FF0FE1E954
:10336000F5E08491882341F09091C00095FFFCCF57
:103370008093C6003196F5CF23E030E0B301A2017F
:1033800083E494E00E94FF0FECE8F5E08491882349
:1033900041F09091C00095FFFCCF8093C60031961C
:1033A000F5CF23E030E0A801B70183E494E00E9468
:1033B000FF0F8091C00085FFFCCF8AE08093C6009C
:1033C00005C000E010E030E820EC02C03E2D2F2DBB
:1033D000B801832F922F0F900F900F900F90DF91D5
:1033E000CF911F910F91FF90EF90DF90CF90BF9002
:1033F000AF907F906F905F904F9008958F929F92C3
:10340000AF92BF92CF92DF92EF92FF920F931F93F2
:10341000CF93DF93B9EDCB2EB3E0DB2EC8E6EC2ED5
:10342000C9E0FC2E08E519E0C0E0D0E0F60181918A
:103430006F01BDDA882309F461C07BDAFE01E4582C
:10344000FA4F2081211104C020915D05222331F023
:10345000F701208131814281538103C020E030E0B7
:10346000A9010E943C994B015C01C230D10571F465
:10347000209170093091710940917209509173093E
:103480000E94159A18160CF064C028C0C330D105EC
:1034900009F45FC0209781F420916809309169098F
:1034A00040916A0950916B090E94159A18160CF008
:1034B00050C0379B23C04DC0C130D10579F4209155
:1034C0006C0930916D0940916E0950916F090E940D
:1034D000189C87FF3EC01D993CC010C02091700908
:1034E000309171094091720950917309C501B4017D
:1034F0000E94189C87FF2DC01C992BC0F70180816A
:103500009181A281B381F80180839183A283B383E7
:103510002196F4E0EF0EF11C0C5F1F4FC430D10573
:1035200009F084CF86E443DA8823C9F002DA6B011C
:103530007C0120E030E0A9010E94189C18167CF460
:10354000C0924002D0924102E0924202F0924302C5
:1035500006C0F80180829182A282B382D9CFDF9126
:10356000CF911F910F91FF90EF90DF90CF90BF9080
:10357000AF909F908F900895EFEBFAE084918823AD
:1035800041F09091C00095FFFCCF8093C60031962A
:10359000F5CFEAE2F8E08491882341F09091C000F1
:1035A00095FFFCCF8093C6003196F5CFE091480996
:1035B000F09149098191882339F09091C00095FFDD
:1035C000FCCF8093C600F6CFE7E2F8E08491882331
:1035D00041F09091C00095FFFCCF8093C6003196DA
:1035E000F5CF08954F925F926F927F928F929F9244
:1035F000AF92BF92CF92DF92EF92FF921F93CF9341
:10360000DF930E946E7E85E492E00E94C9930E943F
:10361000871180E1E8E6F9E0A8E5B9E001900D92B4
:103620008A95E1F7109240021092410210924202F4
:103630001092430288E5BBD9D82F89E5B8D9C82FA5
:103640008AE5B5D9D11105C0C11107C091E098270D
:1036500005C0CC2311F0982F01C090E09093110287
:10366000911102C0882319F082E090E0EEDB809196
:103670001102811106C0DD2309F400C1CC2309F435
:10368000FDC010926C0910926D0910926E09109293
:103690006F09109268091092690910926A091092D4
:1036A0006B09E0E8FAE01491A5DB8FE89AE00E944C
:1036B00000104B015C0183E99AE00E9400106B014D
:1036C0007C019B01AC01C501B4010E94189C181635
:1036D0002CF4A5019401C701B60104C0A70196010D
:1036E000C501B4010E941C9A2B013C0120E030E08E
:1036F00040EC5FE3C501B4010E94EA9C4B015C0110
:10370000612F772767FD7095872F972F0E94B79AB3
:103710009B01AC01C501B4010E94EA9C6093580969
:103720007093590980935A0990935B09E1E8FAE094
:10373000B49020E030E040EC5FE3C701B6010E94A6
:10374000EA9C6B017C016B2D772767FD7095872FB5
:10375000972F0E94B79A9B01AC01C701B6010E9446
:10376000EA9C60935C0970935D0980935E09909375
:103770005F09A3019201C301B2010E94EA9C20E00B
:1037800030E040E85FE30E943C990E94579D20E0B2
:1037900030E041EE54E40E94EA9C60934002709352
:1037A000410280934202909343021BDB0E946E7E93
:1037B00080E090E00E944C1081E090E00E944C106C
:1037C00019DB409168095091690960916A0970910B
:1037D0006B09409358095093590960935A097093A3
:1037E0005B0940916C0950916D0960916E0970916F
:1037F0006F0940935C0950935D0960935E09709373
:103800005F09EFDA109240021092410210924202D8
:10381000109243020E946E7E0E9493744091580958
:103820005091590960915A0970915B094093680958
:103830005093690960936A0970936B0940915C0920
:1038400050915D0960915E0970915F0940936C0928
:1038500050936D0960936E0970936F0940916009F0
:1038600050916109609162097091630940937009F8
:1038700050937109609372097093730980911102DA
:10388000811102C0DD2319F080E090E0DEDA809142
:103890001102811102C0CC2319F081E090E0D5DA49
:1038A000A9DA8091780990917909A0917A09B0916B
:1038B0007B098093400290934102A0934202B0930F
:1038C000430280917A0590917B0590933F0280930B
:1038D0003E020E947C110E949374DF91CF911F9150
:1038E000FF90EF90DF90CF90BF90AF909F908F9020
:1038F0007F906F905F904F900C94A710EFE1F8E0ED
:103900002491222379F03091C00035FFFCCF209321
:10391000C6003196F5CF3091C00035FFFCCF209323
:10392000C6000196FC0124912111F5CFE7E0F8E0F3
:103930008491882341F09091C00095FFFCCF809343
:10394000C6003196F5CF8091C00085FFFCCF8AE09C
:103950008093C60008950E947D100E946E7E0E9492
:10396000871180E090E0A4E3B4E480934002909358
:103970004102A0934202B0934302DADBE4E8F5E0AF
:103980008491882341F09091C00095FFFCCF8093F3
:10399000C6003196F5CF20E030E0A90160916809BA
:1039A0007091690980916A0990916B090E943C9914
:1039B00027E137EB41ED58E30E943C99AB01BC0194
:1039C00022E030E083E494E00E94FF0FEFE7F5E0AF
:1039D0008491882341F09091C00095FFFCCF8093A3
:1039E000C6003196F5CF20E030E0A90160916C0966
:1039F00070916D0980916E0990916F090E943C99B8
:103A000027E137EB41ED58E30E943C99AB01BC0143
:103A100022E030E083E494E00E94FF0FEAE7F5E063
:103A20008491882341F09091C00095FFFCCF809352
:103A3000C6003196F5CF27E137EB41ED58E36091B1
:103A400070097091710980917209909173090E94B7
:103A50003C99AB01BC0122E030E083E494E00E9499
:103A6000FF0F8091C00085FFFCCF8AE08093C600E5
:103A70000E94A91180911F0F811110921F0F1092A7
:103A80003F050C94A7108F929F92AF92BF92CF9256
:103A9000DF92EF92FF920F931F93CF93DF9300D0AB
:103AA0001F92CDB7DEB785E40E94D714B82E8111DE
:103AB00002C00E946E7E19EDC12E13E0D12E0DE6DC
:103AC000E02E05E0F02E08E619E0812C912CA12CC7
:103AD000F60181916F010E94D714882369F1F801E2
:103AE000208131814281538129833A834B835C83D6
:103AF0000E949914F80160837183828393832981E2
:103B00003A814B815C81F3E08F169104A9F00E9409
:103B10003B999B01AC01F7016081718182819381A6
:103B20000E943C99F7016083718382839383C4016F
:103B30000E940610AA24A394FFEF8F1A9F0A84E024
:103B4000E80EF11C0C5F1F4FE4E08E16910409F0A3
:103B5000BFCFAA2089F00F900F900F900F90DF91A8
:103B6000CF911F910F91FF90EF90DF90CF90BF907A
:103B7000AF909F908F903EC9BB20A1F084E799E061
:103B80000F900F900F900F90DF91CF911F910F9199
:103B9000FF90EF90DF90CF90BF90AF909F908F906D
:103BA0000C94A4620F900F900F900F90DF91CF9123
:103BB0001F910F91FF90EF90DF90CF90BF90AF904B
:103BC0009F908F9008950F931F93CF93DF93CDB75E
:103BD000DEB76E970FB6F894DEBF0FBECDBF82E49E
:103BE00095E00E944D81BC0180E090E02CE330E044
:103BF00040E050E00E94D29D7F936F933F932F93BC
:103C00008BE695E09F938F938E010F5F1F4F1F935D
:103C10000F930E94CEA10FB6F894DEBF0FBECDBFAA
:103C2000EFEBFAE08491882341F09091C00095FF7A
:103C3000FCCF8093C6003196F5CFF801819188239F
:103C400039F09091C00095FFFCCF8093C600F6CF6D
:103C50008091C00085FFFCCF8AE08093C6006E96FD
:103C60000FB6F894DEBF0FBECDBFDF91CF911F918D
:103C70000F9108950F931F93CF93DF9383E50E94D5
:103C8000D714882389F10E94CA148C018F3F9105B3
:103C900009F050F580E50E94D714882331F00E9486
:103CA000CA14EC0197FD20C002C0CDE0D0E0E3EAE9
:103CB000F3E081919191C817D907B1F083E0E93D14
:103CC000F807B9F761E08C2F0E945298602F8C2F73
:103CD0000E948B98B8018C2F0E943C97289721F462
:103CE0001093600500935F05DF91CF911F910F91B5
:103CF00008952F923F924F925F926F927F928F9290
:103D00009F92AF92BF92CF92DF92EF92FF920F936A
:103D10001F93CF93DF93CDB7DEB7C65ED1090FB641
:103D2000F894DEBF0FBECDBF80915209882341F0C9
:103D300080915309882321F08091540981111BC07F
:103D4000CA51DF4F0FB6F894DEBF0FBECDBFDF9173
:103D5000CF911F910F91FF90EF90DF90CF90BF9088
:103D6000AF909F908F907F906F905F904F903F901B
:103D70002F900C94851086E50E94D7148823D1F0EB
:103D80000E94CA14853070F0E6E4F5E0849188233F
:103D900009F4B5C59091C00095FFFCCF8093C60093
:103DA0003196F4CFCF52DF4F8883C15DD0401816D3
:103DB000A4F406C021E0CF52DF4F2883C15DD0407C
:103DC000E6E2F5E08491882341F09091C00095FFF0
:103DD000FCCF8093C6003196F5CF80E50E94D714C2
:103DE0008823B1F00E94CA149CEF980F9F3210F400
:103DF000382E10C0E2E0F5E08491882309F47FC5F5
:103E00009091C00095FFFCCF8093C6003196F4CF0F
:103E1000EAE03E2E8090680990906909A0906A09B6
:103E2000B0906B0940906C0950906D0960906E09DC
:103E300070906F09C0907009D0907109E09072097C
:103E4000F090730985E40E94D714C052DF4F888335
:103E5000C05ED04088E50E94D714882321F10E94DB
:103E60009914C753DF4F688379838A839B83C95C26
:103E7000D04020E030E0A9010E94159A87FD10C0D3
:103E800020E030E04FE253E4C753DF4F688179818F
:103E90008A819B81C95CD0400E94189C181694F4BA
:103EA00080E095E039C020E030E0A901C501B4010F
:103EB0000E943C99C753DF4F688379838A839B8331
:103EC000C95CD04089E50E94D714882309F43EC01C
:103ED0000E949914C353DF4F688379838A839B833D
:103EE000CD5CD04020E030E040E251EC0E94159AD9
:103EF00087FD10C020E030E04FE353E4C353DF4FB1
:103F0000688179818A819B81CD5CD0400E94189C18
:103F100018165CF58EEF94E0CA51DF4F0FB6F89497
:103F2000DEBF0FBECDBFDF91CF911F910F91FF90EC
:103F3000EF90DF90CF90BF90AF909F908F907F9049
:103F40006F905F904F903F902F90D8CC20E030E062
:103F5000A901C301B2010E943C99C353DF4F68839A
:103F600079838A839B83CD5CD0408CE40E94D714F4
:103F7000182F882301F10E94CA14803170F0EBECF5
:103F8000F4E08491882309F4BAC49091C00095FFAD
:103F9000FCCF8093C6003196F4CFCE52DF4F88839A
:103FA000C25DD040813061F432E0CE52DF4F3883C1
:103FB000C25DD04005C0CE52DF4F1882C25DD040F6
:103FC00083E50E94D714882349F0112369F081E02A
:103FD000CA52DF4F8883C65DD04012C0CA52DF4F3D
:103FE0001882C65DD0400CC091E0CA52DF4F988362
:103FF000C65DD040A7E0CE52DF4FA883C25DD0405F
:10400000CF52DF4FB881C15DD040B330ECF420E037
:1040100030E040EA50E4C701B6010E943C996B01D0
:104020007C0185E492E00E94C99320E030E040E208
:1040300051E4C701B6010E94159A87FF12C0C7015B
:10404000B6010E9417180DC0E1EBF4E084918823BB
:10405000F1F29091C00095FFFCCF8093C60031969D
:10406000F5CFC353DF4F288139814A815B81CD5C15
:10407000D040C753DF4F688179818A819B81C95CB9
:10408000D0400E94EB170E948711CF52DF4F28814A
:10409000C15DD040332727FD3095CC52DF4F3983A7
:1040A0002883C45DD040C052DF4F3881C05ED0400D
:1040B000332319F083E090E002C081E090E0CC521D
:1040C000DF4FA880B980C45DD0406C01E12CF12C99
:1040D00000EA10E4C353DF4F288139814A815B81B4
:1040E000CD5CD040C753DF4F688179818A819B8145
:1040F000C95CD040CED820E030E0A90160917009C1
:104100007091710980917209909173090E943C9994
:104110000E941718CD52DF4F1882C35DD040C12CCA
:10412000D12C760126013701832D992787FD9095A3
:10413000C452DF4F99838883CC5DD040CE52DF4F8D
:10414000A881C25DD040BB27A7FDB0951197C25290
:10415000DF4FB983A883CE5DD0400197CB51DF4FAD
:1041600099838883C55ED040CD52DF4FB881C35D4F
:10417000D0402B2E312CC452DF4F28813981CC5DA9
:10418000D040221633060CF04BC30E9474960E9456
:10419000E89864EF71E080E090E00E94A396CE5230
:1041A000DF4FB881C25DD040B11129C0C353DF4F8A
:1041B000288139814A815B81CD5CD040C753DF4F74
:1041C000688179818A819B81C95CD0400E94EB170C
:1041D0004101880C991C880C991CC052DF4F288122
:1041E000C05ED040222309F4D7C1CC52DF4FA88053
:1041F000B980C45DD04023E0C22ED12CE2C128E6B4
:1042000031E040E050E060E070E0CB010E941199A5
:104210000E94B79A6B017C012AE030E040E050E058
:1042200060E070E0CB010E9411990E94B79A20E0F3
:1042300030E040EA50E40E94189C18161CF40FEF7E
:104240001FEF02C001E010E025E130E040E050E067
:1042500065E070E080E090E00E9411990E94B79ABA
:10426000C852DF4F688379838A839B83C85DD040BF
:10427000CF52DF4F3881C15DD04034309CF1AB016B
:10428000BC018FE994E00E94D511B701A60184E931
:1042900094E00E94D51164E670E080E090E00E9416
:1042A000A3960130110519F0E0EDF2E012C0E8EE3E
:1042B000F2E08191882381F09091C00095FFFCCFBE
:1042C0008093C600F6CF9091C00095FFFCCF8093FD
:1042D000C60081918111F7CF64E670E080E090E044
:1042E0000E94A396C952DF4F1882C75DD040C80113
:1042F000AA2797FDA095BA2FCF51DF4F88839983C6
:10430000AA83BB83C15ED040C952DF4F3881C75DED
:10431000D040832F90E0C252DF4FA881B981CE5D9B
:10432000D0408A179B070CF041CFCA52DF4F9881CB
:10433000C65DD040992399F0CF51DF4F68817981D4
:104340008A819B81C15ED0400E94B79A9B01AC01DB
:104350000E943C9920E030E040E952E420C02DE288
:1043600030E040E050E069E170E080E090E00E94E1
:1043700011992B013C01CF51DF4F688179818A81EE
:104380009B81C15ED0400E94B79A4B015C01C30182
:10439000B2010E94B79A9B01AC01C501B4010E9411
:1043A000EA9C9B01AC01C701B6010E943C996B01DC
:1043B0007C0120E030E044EB53E40E94189C181686
:1043C0004CF420E030E044EB53E4C701B6010E9416
:1043D0003B99EDCF20E030E0A901C701B6010E9472
:1043E000159A87FF0BC020E030E044EB53E4C7018F
:1043F000B6010E943C996B017C01ECCF2BED3FE0B4
:1044000049E450E4C701B6010E94EA9C20E030E094
:1044100044E353E40E941C9A2B013C010E94199A28
:10442000C852DF4F288139814A815B81C85DD04005
:104430000E94EA9C9B01AC01C753DF4F68817981E0
:104440008A819B81C95CD0400E943C994B015C01F0
:10445000C301B2010E944D9DC852DF4F28813981AE
:104460004A815B81C85DD0400E94EA9C9B01AC01FF
:10447000C353DF4F688179818A819B81CD5CD040B5
:104480000E943C992B013C0120E030E0A901C501CC
:10449000B4010E94159A87FD11C020E030E04FE280
:1044A00053E4C501B4010E94189C181654F4812CE1
:1044B000912C5FE2A52E53E4B52E03C0812C912CE4
:1044C000540120E030E040E251ECC301B2010E940F
:1044D000159A87FD11C020E030E04FE353E4C3019B
:1044E000B2010E94189C18166CF4412C512C4FE319
:1044F000642E43E4742E06C0412C512C30E2632E0E
:1045000031EC732ECF52DF4FA881C15DD040A43073
:104510008CF1E8E0F3E08191882339F09091C000BC
:1045200095FFFCCF8093C600F6CFB501A40180E9CA
:1045300094E00E94D511B301A2018CE894E00E949E
:10454000D511409170095091710960917209709173
:10455000730986E894E00E94D5118091C00085FF20
:10456000FCCFBAE0B093C60067E370E080E090E073
:104570000E94A396A3019201C501B4010E94EB170A
:10458000C952DF4F2881C75DD0402F5FC952DF4F2E
:104590002883C75DD040B8CECB51DF4F2881398109
:1045A000C55ED040CC52DF4FA880B980C45DD040FA
:1045B0002216330621F492E0C92ED12C02C0C12C60
:1045C000D12CE12CF12C00EA10E4C353DF4F2881F9
:1045D00039814A815B81CD5CD040C753DF4F688110
:1045E00079818A819B81C95CD0400E944919E1E0B0
:1045F000F0E0EC0FFD1FE80DF91D608371838283ED
:10460000938310E0C12CD12C7601E1E0F0E0EC0FB7
:10461000FD1F34E0139FE00DF11D11242081318135
:1046200042815381C701B6010E943C996B017C0114
:104630001F5FCD52DF4F8881C35DD040811728F7BF
:104640009FEF291A390AB101882777FD8095982FA5
:104650000E94B79A4B015C019B01AC01C701B601F6
:104660000E941C9A2B013C0110E0C12CD12C760138
:10467000E1E0F0E0EC0FFD1FA4E01A9FE00DF11D5A
:104680001124A301920160817181828193810E9432
:104690003B999B01AC010E94EA9C9B01AC01C701C4
:1046A000B6010E943C996B017C011F5FCD52DF4F28
:1046B000B881C35DD040B117D8F6A50194010E941E
:1046C0001C9A0E94579D6B017C01CF52DF4F2881BD
:1046D000C15DD04022300CF473C04AE050E0B1011B
:1046E00083E494E00E942D0FE1E8F4E084918823B4
:1046F00041F09091C00095FFFCCF8093C6003196A9
:10470000F5CF4AE050E0C452DF4F68817981CC5D3B
:10471000D04083E494E00E942D0FEAE7F4E0849116
:10472000882341F09091C00095FFFCCF8093C60094
:104730003196F5CF409170095091710960917209DD
:104740007091730926E030E083E494E00E94FF0F4B
:1047500062E370E080E090E00E94A396CF52DF4FCA
:104760003881C15DD040323091F1E2E7F4E08491CC
:10477000882341F09091C00095FFFCCF8093C60044
:104780003196F5CF26E030E0B301A20183E494E056
:104790000E94FF0FE7E6F4E08491882341F09091B6
:1047A000C00095FFFCCF8093C6003196F5CF26E080
:1047B00030E0B701A60183E494E00E94FF0F07C038
:1047C000CF52DF4F8881C15DD040813039F4809174
:1047D000C00085FFFCCF9AE09093C60062E370E0D2
:1047E00080E090E00E94A39620E030E040EA50E4B0
:1047F00060917009709171098091720990917309AB
:104800000E943C990E941718CD52DF4FA881C35DCA
:10481000D040AF5FCD52DF4FA883C35DD040A4CC62
:10482000CF52DF4F3881C15DD040131614F5E0E65A
:10483000F4E08491882341F09091C00095FFFCCF73
:104840008093C6003196F5CF26E030E0B301A20197
:1048500083E494E00E94FF0F8091C00085FFFCCFAD
:104860008AE08093C60069E170E080E090E00E94F9
:10487000A396EBE4F4E08491882341F09091C0008A
:1048800095FFFCCF8093C6003196F5CF26E030E04F
:10489000B701A60183E494E00E94FF0F8091C0005D
:1048A00085FFFCCF8AE08093C6008091C00085FF21
:1048B000FCCF8AE08093C60069E170E080E090E080
:1048C0000E94A3960E94A911CA51DF4F0FB6F89417
:1048D000DEBF0FBECDBFDF91CF911F910F91FF9033
:1048E000EF90DF90CF90BF90AF909F908F907F9090
:1048F0006F905F904F903F902F900C94A710CA51EB
:10490000DF4F0FB6F894DEBF0FBECDBFDF91CF9162
:104910001F910F91FF90EF90DF90CF90BF90AF90DD
:104920009F908F907F906F905F904F903F902F90CF
:104930000895CF92DF92EF92FF920F931F93CF9340
:10494000DF9388E690E00E94EB1481113EC08091D5
:104950007C0983FD3AC083E50E94D7148823A9F11E
:104960000E9499146B017C010091410510E0E8015F
:10497000CC0FDD1FC855DF4E0E94849A798368836F
:10498000C8010E94DB8720E030E040E752E4C70125
:10499000B6010E94159A181664F082E495E0DF9142
:1049A000CF911F910F91FF90EF90DF90CF900C94DB
:1049B000278182E495E0DF91CF911F910F91FF90C5
:1049C000EF90DF90CF900C947481DF91CF911F9185
:1049D0000F91FF90EF90DF90CF900895E3E0F8E023
:1049E0008491882341F09091C00095FFFCCF809383
:1049F000C6003196F5CFE091410584E0E89FF001D3
:104A00001124E257FF4E408151816281738121E080
:104A100030E083E494E00E94FF0FE0E0F8E084914E
:104A2000882341F09091C00095FFFCCF8093C60091
:104A30003196F5CFE0914105F0E0EE0FFF1FE8550C
:104A4000FF4E60817181882777FD8095982F0E94A5
:104A5000B79AAB01BC0121E030E083E494E00E940E
:104A6000FF0FECEFF7E08491882341F09091C000B4
:104A700095FFFCCF8093C6003196F5CF409188100A
:104A80005091891060918A1070918B1021E030E074
:104A900083E494E00E94FF0FE9EFF7E0849188231C
:104AA00041F09091C00095FFFCCF8093C6003196F5
:104AB000F5CF6091A6107091A710882777FD80959B
:104AC000982F0E94B79AAB01BC0121E030E083E44B
:104AD00094E00E94FF0FE4EFF7E08491882341F017
:104AE0009091C00095FFFCCF8093C6003196F5CF22
:104AF0008FEF9FEF0E9431834AE050E0BC0183E4D6
:104B000094E00E942D0FE0EFF7E08491882341F0BC
:104B10009091C00095FFFCCF8093C6003196F5CFF1
:104B20008091410590E00E9431834AE050E0BC0151
:104B300083E494E00C942D0F89E690E00E94EB143E
:104B4000811115C0E4E0F4E08491882341F0909154
:104B5000C00095FFFCCF8093C6003196F5CF3EDFB5
:104B60008091C00085FFFCCF8AE08093C600089545
:104B700083E50E94D714882319F00E94CA1401C04B
:104B800080E080937C09EFEBFAE08491882341F088
:104B90009091C00095FFFCCF8093C6003196F5CF71
:104BA000E4E4F4E08491882341F09091C00095FF03
:104BB000FCCF8093C6003196F5CF80917C0981119E
:104BC00003C0E6E3F4E03BC02AE334E080E090E099
:104BD00060E0ACE240917C0950E0082E02C055959F
:104BE00047950A94E2F740FF1AC071E0760F6623FA
:104BF00031F04091C00045FFFCCFA093C600F90101
:104C000045915491FA016491662351F0E091C000FE
:104C1000E5FFFCCF6093C6004F5F5F4FF3CF762F69
:104C200001962E5F3F4F8530910561F0672FD2CFFF
:104C30009091C00095FFFCCF8093C600319684917F
:104C40008111F6CF8091C00085FFFCCF8AE0809370
:104C5000C600089583E50E94D714882399F00E9426
:104C6000991420E030E04AE754E40E94EA9C0E9454
:104C7000899A609318027093190280931A02909394
:104C80001B02089588E50E94D714811111C089E59F
:104C90000E94D71481110CC08AE50E94D71481119B
:104CA00007C085E40E94D714811102C00C94EA7EEB
:104CB0000E946E7E88E50E94D714882319F0179A07
:104CC0001092550989E50E94D714882319F0169A85
:104CD000109256098AE50E94D714882319F0159A74
:104CE0001092570985E40E94D714882311F0149A72
:104CF000089508953F924F925F926F927F928F92A4
:104D00009F92AF92BF92CF92DF92EF92FF920F935A
:104D10001F93CF93DF93B9ED8B2EB3E09B2EC8EB9F
:104D2000DEE018ECA12E1EE0B12E08E71EE0312CCB
:104D3000F40181914F010E94D714882309F458C0CF
:104D4000F3E03F124FC00E9499146B017C0120E0F8
:104D500030E040EA51E40E94159A87FF3EC0A70167
:104D60009601688179818A819B810E941C9A2B011E
:104D70003C019B01AC0160918C0E70918D0E809175
:104D80008E0E90918F0E0E94EA9C60938C0E709311
:104D90008D0E80938E0E90938F0EA3019201F501DC
:104DA00060817181828193810E94EA9CF501608318
:104DB000718382839383F801608171818281938101
:104DC0000E94B59AA30192010E94EA9C0E94899ACE
:104DD000F8016083718382839383C882D982EA82D7
:104DE000FB8206C00E949914688379838A839B831F
:104DF00033942496F4E0AF0EB11C0C5F1F4F84E097
:104E0000381296CFDF91CF911F910F91FF90EF90C5
:104E1000DF90CF90BF90AF909F908F907F906F90DA
:104E20005F904F903F900895E1E2F3E081918823F5
:104E300039F09091C00095FFFCCF8093C600F6CF6B
:104E40008091C00085FFFCCF8AE08093C600E4E03B
:104E5000F3E08491882341F09091C00095FFFCCF4E
:104E60008093C6003196F5CF1E9903C0E2E1F3E0CE
:104E700009C0ECE1F3E006C09091C00095FFFCCFC3
:104E80008093C60081918111F7CF8091C00085FF8A
:104E9000FCCF8AE08093C600ECEFF2E08491882397
:104EA00041F09091C00095FFFCCF8093C6003196F1
:104EB000F5CF379903C0E2E1F3E009C0ECE1F3E09C
:104EC00006C09091C00095FFFCCF8093C6008191F1
:104ED0008111F7CF8091C00085FFFCCF8AE08093DD
:104EE000C600E4EFF2E08491882341F09091C00085
:104EF00095FFFCCF8093C6003196F5CF1D9903C076
:104F0000E2E1F3E009C0ECE1F3E006C09091C000FB
:104F100095FFFCCF8093C60081918111F7CF8091DE
:104F2000C00085FFFCCF8AE08093C600ECEEF2E083
:104F30008491882341F09091C00095FFFCCF80932D
:104F4000C6003196F5CF029903C0E2E1F3E009C053
:104F5000ECE1F3E006C09091C00095FFFCCF809398
:104F6000C60081918111F7CF8091C00085FFFCCFF1
:104F70008AE08093C60024982C9AE4EEF2E08491B3
:104F8000882341F09091C00095FFFCCF8093C6002C
:104F90003196F5CF1C9903C0E2E1F3E009C0ECE1E2
:104FA000F3E006C09091C00095FFFCCF8093C6004F
:104FB00081918111F7CF8091C00085FFFCCF8AE0FD
:104FC0008093C600249A2C98ECEDF2E0849188231B
:104FD00041F09091C00095FFFCCF8093C6003196C0
:104FE000F5CF019903C0E2E1F3E009C0ECE1F3E0A1
:104FF00006C09091C00095FFFCCF8093C6008191C0
:105000008111F7CF8091C00085FFFCCF8AE08093AB
:10501000C600089583E50E94D7148823F9F00E9402
:105020009914AB01BC014093A00E5093A10E609364
:10503000A20E7093A30E4093980E5093990E609316
:105040009A0E70939B0E84EB92E00E94D511809192
:10505000C00085FFFCCF8AE08093C60080E50E94F7
:10506000D7148823B9F00E949914AB01BC01409376
:10507000A00E5093A10E6093A20E7093A30E87E929
:1050800092E00E94D5118091C00085FFFCCF8AE09C
:105090008093C60082E50E94D7148823B9F00E944D
:1050A0009914AB01BC0140939C0E50939D0E6093EC
:1050B0009E0E70939F0E88E792E00E94D51180911A
:1050C000C00085FFFCCF8AE08093C60084E50E9483
:1050D000D7148823B9F00E949914AB01BC01409306
:1050E000980E5093990E60939A0E70939B0E8AE5DA
:1050F00092E00E94D5118091C00085FFFCCF8AE02C
:105100008093C600089583E50E94D714882351F048
:105110000E9499146093A40E7093A50E8093A60E1E
:105120009093A70E84E50E94D714882351F00E9423
:1051300099146093880E7093890E80938A0E9093D1
:105140008B0E82E40E94D714882361F00E94991488
:105150000E94899A6093D80E7093D90E8093DA0ECC
:105160009093DB0E88E50E94D714882351F00E94AB
:1051700099146093940E7093950E8093960E90936D
:10518000970E8AE50E94D714882351F00E94991443
:105190006093900E7093910E8093920E9093930E65
:1051A00085E40E94D714882351F00E9499146093DB
:1051B0008C0E70938D0E80938E0E90938F0E0895AB
:1051C0008F929F92AF92BF92CF92DF92EF92FF9217
:1051D0000F931F93CF93DF9309EDC02E03E0D02EE2
:1051E00088E6E82E89E0F82E01E615E0C0E0D0E080
:1051F000F60181916F010E94D714882309F10E9462
:1052000099144B015C01F801208131814281538165
:105210000E943B999B01AC01F70160817181828101
:1052200093810E943C99F701608371838283938309
:10523000F80180829182A282B382CE010E94061080
:105240002196F4E0EF0EF11C0C5F1F4FC330D10527
:1052500079F60E94FA16DF91CF911F910F91FF907E
:10526000EF90DF90CF90BF90AF909F908F900C9475
:10527000A71085E40E94D714811110C080E50E9418
:10528000D7148823A9F00E94991460938502709323
:10529000860280938702909388020AC00E94991424
:1052A0000E94849A161617064CF7E5ECFAE0D5C072
:1052B00089E40E94D714882361F00E9499140E9407
:1052C000D2916093810270938202809383029093C3
:1052D000840284E40E94D714882361F00E94991408
:1052E0000E94DE9160937D0270937E0280937F0224
:1052F0009093800283E40E94D714882351F00E9487
:1053000099146093790270937A0280937B02909350
:105310007C028CE40E94D714882341F00E949914E7
:105320000E94849A7093100260930F0280910F0282
:1053300090911002C39734F082E390E090931002B2
:1053400080930F020E94FC82EFEBFAE084918823A5
:1053500041F09091C00095FFFCCF8093C60031963C
:10536000F5CFEAE3F3E08191882339F09091C00012
:1053700095FFFCCF8093C600F6CF409185025091F7
:105380008602609187027091880222E030E083E417
:1053900094E00E94FF0FEEE3F3E08191882339F05F
:1053A0009091C00095FFFCCF8093C600F6CF60912E
:1053B00081027091820280918302909184020E9406
:1053C000D891AB01BC0122E030E083E494E00E947C
:1053D000FF0FE2E4F3E08191882339F09091C0005F
:1053E00095FFFCCF8093C600F6CF60917D0270914F
:1053F0007E0280917F02909180020E94E491AB0135
:10540000BC0122E030E083E494E00E94FF0FE6E478
:10541000F3E08191882339F09091C00095FFFCCF93
:105420008093C600F6CF4091790250917A02609144
:105430007B0270917C0222E030E083E494E00E94E1
:10544000FF0F8091C00085FFFCCF1AC09091C00073
:1054500095FFFCCF8093C600319684918111F6CFE1
:10546000EAE4F3E08191882339F09091C00095FF40
:10547000FCCF8093C600F6CF8091C00085FFFCCFA3
:105480008AE08093C600089580E50E94D71488239F
:1054900051F00E949914609391027093920280934C
:1054A00093029093940289E40E94D714882361F0B8
:1054B0000E9499140E94D29160938D0270938E0283
:1054C00080938F029093900284E40E94D7148823E3
:1054D00061F00E9499140E94DE916093890270939A
:1054E0008A0280938B0290938C020E94FC82EFEBE5
:1054F000FAE08491882341F09091C00095FFFCCFA1
:105500008093C6003196F5CFEAE3F3E081918823DA
:1055100039F09091C00095FFFCCF8093C600F6CF84
:105520004091910250919202609193027091940285
:1055300022E030E083E494E00E94FF0FEEE3F3E02A
:105540008191882339F09091C00095FFFCCF809322
:10555000C600F6CF60918D0270918E0280918F020D
:10556000909190020E94D891AB01BC0122E030E002
:1055700083E494E00E94FF0FE2E4F3E0819188234A
:1055800039F09091C00095FFFCCF8093C600F6CF14
:105590006091890270918A0280918B0290918C02B5
:1055A0000E94E491AB01BC0122E030E083E494E08E
:1055B0000E94FF0F8091C00085FFFCCF8AE080939E
:1055C000C6000895EF92FF920F93CF93DF9385E487
:1055D0000E94D714882321F00E94CA14EC0102C053
:1055E000C0E0D0E083E40E94D714882321F00E9419
:1055F000CA147C0103C095E0E92EF12C85E50E94D8
:10560000D714882329F00E94CA1401E0892B09F4D9
:1056100000E083E50E94D714882319F00E949914B2
:1056200006C0D7FD09C060E070E086E193E42097F2
:1056300039F41092410504C060E070E08CE892E417
:105640009701AE010E94468BDF91CF910F91FF90A1
:10565000EF9008952F923F924F925F926F927F92B8
:105660008F929F92AF92BF92CF92DF92EF92FF9272
:105670000F931F93CF93DF9300D000D0CDB7DEB749
:1056800082E599E09C838B83E1E6F5E0FA83E98388
:1056900008E619E01E821D82212C312CEB81FC8151
:1056A0008191FC83EB83882309F4ADC0ED81FE81F9
:1056B000E45EFD4F2081318142815381ED81FE8185
:1056C000E85DFD4F60817181828193810E943C99E8
:1056D00020E030E040E05FE30E94EA9C9B01AC01E7
:1056E000F80160817181828193810E94189C181653
:1056F0004CF48D819E818556954F0E9400109B0130
:10570000AC0103C020E030E0A901F8018080918065
:10571000A280B380C501B4010E943B996B017C015A
:1057200020E030E040EA51EC0E94189C18161CF072
:10573000E5ECFAE038C020E030E040EA51E4C7018F
:10574000B6010E94159A87FFF3CFE981FA81408064
:10575000518062807380A7019601C301B2010E944B
:105760003B996B017C01A30192010E943B999B0133
:10577000AC01C501B4010E943C99F80160837183BA
:1057800082839383E981FA81C082D182E282F382AB
:10579000C1010E94061037C09091C00095FFFCCF58
:1057A0008093C600319684918111F6CFEDE3F2E04B
:1057B0008491882341F09091C00095FFFCCF8093A5
:1057C000C6003196F5CF8091C00085FFFCCF8AE0FE
:1057D0008093C60026960FB6F894DEBF0FBECDBFED
:1057E000DF91CF911F910F91FF90EF90DF90CF90BD
:1057F000BF90AF909F908F907F906F905F904F90F1
:105800003F902F900895FFEF2F1A3F0A89819A81C8
:1058100004969A838983ED81FE813496FE83ED831D
:105820000C5F1F4FF3E02F16310409F037CF0E94B1
:10583000FA1626960FB6F894DEBF0FBECDBFDF91E5
:10584000CF911F910F91FF90EF90DF90CF90BF907D
:10585000AF909F908F907F906F905F904F903F9010
:105860002F900C94A710CF92DF92EF92FF92EFEB64
:10587000FAE08491882341F09091C00095FFFCCF1D
:105880008093C6003196F5CFE4E3F2E0849188235B
:1058900041F09091C00095FFFCCF8093C6003196F7
:1058A000F5CF8091C00085FFFCCF80E28093C600D9
:1058B0008AE50E94D714882309F452C00E949914E3
:1058C0006B017C0120E030E040E050EC0E94189C2D
:1058D00087FD0AC020E030E040EA50E4C701B6018D
:1058E0000E94159A18161CF4ECE2F2E018C0C0925F
:1058F0001202D0921302E0921402F092150222E0FA
:1059000030E0B701A60183E494E00E94FF0F34C0A9
:105910009091C00095FFFCCF8093C6003196849192
:105920008111F6CF4AE050E06EEF7FEF83E494E020
:105930000E942D0FE4E2F2E08491882341F09091DF
:10594000C00095FFFCCF8093C6003196F5CF4AE0AA
:1059500050E065E070E083E494E00E942D0F0CC0FD
:10596000409112025091130260911402709115023D
:1059700081E292E00E94D5118091C00085FFFCCFAA
:105980008AE08093C600FF90EF90DF90CF9008955B
:1059900088E50E94D714882339F00E9499140E9448
:1059A000849A80E00E94377F8AE50E94D71488237A
:1059B00039F00E9499140E94849A81E00E94377FF6
:1059C00085E40E94D714882339F00E9499140E941C
:1059D000849A82E00C94377F08951F93CF93DF93CE
:1059E00083E50E94D714811104C0C9EDD3E010E013
:1059F0000FC0C0E00E9499140E94899A8C2F0E94C7
:105A0000A47FCF5FC530B1F7F0CF1F5F143069F0CE
:105A100089910E94D7148823C1F30E9499140E948F
:105A2000899A812F0E94A47FF0CF82E40E94D7142C
:105A3000882339F00E9499140E94899A84E00E9478
:105A4000A47FDF91CF911F910C946B801F93CF9314
:105A5000DF9383E50E94D714882309F44AC00E948B
:105A6000CA148130910539F0029709F042C0C9ED9E
:105A7000D3E010E021C0C9EDD3E010E089910E948D
:105A8000D714882341F00E9499140E94849A4FEF02
:105A9000812F0E94667F1F5F143081F782E40E948D
:105AA000D714882331F10E9499140E94849A4FEFF1
:105AB0001DC01F5F143079F089910E94D71488238C
:105AC000C1F30E9499140E94849A462F6FEF812F90
:105AD0000E94667FEECF82E40E94D714882349F0AB
